{
  "contractName": "Game",
  "abi": [
    {
      "inputs": [
        {
          "internalType": "uint256",
          "name": "_ticketPrice",
          "type": "uint256"
        },
        {
          "internalType": "address",
          "name": "_lottoToken",
          "type": "address"
        },
        {
          "internalType": "address",
          "name": "vrfCoordinator",
          "type": "address"
        },
        {
          "internalType": "address",
          "name": "linkToken",
          "type": "address"
        },
        {
          "internalType": "bytes32",
          "name": "_keyHash",
          "type": "bytes32"
        },
        {
          "internalType": "uint256",
          "name": "_fee",
          "type": "uint256"
        }
      ],
      "stateMutability": "nonpayable",
      "type": "constructor"
    },
    {
      "anonymous": false,
      "inputs": [
        {
          "indexed": true,
          "internalType": "address",
          "name": "previousOwner",
          "type": "address"
        },
        {
          "indexed": true,
          "internalType": "address",
          "name": "newOwner",
          "type": "address"
        }
      ],
      "name": "OwnershipTransferred",
      "type": "event"
    },
    {
      "anonymous": false,
      "inputs": [
        {
          "indexed": true,
          "internalType": "address",
          "name": "winner",
          "type": "address"
        },
        {
          "indexed": false,
          "internalType": "uint256",
          "name": "amount",
          "type": "uint256"
        }
      ],
      "name": "PrizeClaimed",
      "type": "event"
    },
    {
      "anonymous": false,
      "inputs": [
        {
          "indexed": true,
          "internalType": "address",
          "name": "buyer",
          "type": "address"
        },
        {
          "indexed": false,
          "internalType": "uint256",
          "name": "ticketCount",
          "type": "uint256"
        },
        {
          "indexed": false,
          "internalType": "uint8[]",
          "name": "numbers",
          "type": "uint8[]"
        }
      ],
      "name": "TicketPurchased",
      "type": "event"
    },
    {
      "anonymous": false,
      "inputs": [
        {
          "indexed": false,
          "internalType": "uint256",
          "name": "roundId",
          "type": "uint256"
        },
        {
          "indexed": false,
          "internalType": "uint8[]",
          "name": "numbers",
          "type": "uint8[]"
        }
      ],
      "name": "WinningNumbers",
      "type": "event"
    },
    {
      "inputs": [],
      "name": "owner",
      "outputs": [
        {
          "internalType": "address",
          "name": "",
          "type": "address"
        }
      ],
      "stateMutability": "view",
      "type": "function",
      "constant": true
    },
    {
      "inputs": [],
      "name": "randomResult",
      "outputs": [
        {
          "internalType": "uint256",
          "name": "",
          "type": "uint256"
        }
      ],
      "stateMutability": "view",
      "type": "function",
      "constant": true
    },
    {
      "inputs": [
        {
          "internalType": "bytes32",
          "name": "requestId",
          "type": "bytes32"
        },
        {
          "internalType": "uint256",
          "name": "randomness",
          "type": "uint256"
        }
      ],
      "name": "rawFulfillRandomness",
      "outputs": [],
      "stateMutability": "nonpayable",
      "type": "function"
    },
    {
      "inputs": [],
      "name": "renounceOwnership",
      "outputs": [],
      "stateMutability": "nonpayable",
      "type": "function"
    },
    {
      "inputs": [],
      "name": "roundId",
      "outputs": [
        {
          "internalType": "uint256",
          "name": "",
          "type": "uint256"
        }
      ],
      "stateMutability": "view",
      "type": "function",
      "constant": true
    },
    {
      "inputs": [
        {
          "internalType": "uint256",
          "name": "",
          "type": "uint256"
        }
      ],
      "name": "rounds",
      "outputs": [
        {
          "internalType": "uint256",
          "name": "roundId",
          "type": "uint256"
        }
      ],
      "stateMutability": "view",
      "type": "function",
      "constant": true
    },
    {
      "inputs": [],
      "name": "ticketCount",
      "outputs": [
        {
          "internalType": "uint256",
          "name": "",
          "type": "uint256"
        }
      ],
      "stateMutability": "view",
      "type": "function",
      "constant": true
    },
    {
      "inputs": [
        {
          "internalType": "uint256",
          "name": "",
          "type": "uint256"
        },
        {
          "internalType": "uint256",
          "name": "",
          "type": "uint256"
        }
      ],
      "name": "ticketNumbers",
      "outputs": [
        {
          "internalType": "uint8",
          "name": "",
          "type": "uint8"
        }
      ],
      "stateMutability": "view",
      "type": "function",
      "constant": true
    },
    {
      "inputs": [],
      "name": "ticketPrice",
      "outputs": [
        {
          "internalType": "uint256",
          "name": "",
          "type": "uint256"
        }
      ],
      "stateMutability": "view",
      "type": "function",
      "constant": true
    },
    {
      "inputs": [
        {
          "internalType": "uint256",
          "name": "",
          "type": "uint256"
        }
      ],
      "name": "tickets",
      "outputs": [
        {
          "internalType": "address payable",
          "name": "",
          "type": "address"
        }
      ],
      "stateMutability": "view",
      "type": "function",
      "constant": true
    },
    {
      "inputs": [
        {
          "internalType": "address",
          "name": "newOwner",
          "type": "address"
        }
      ],
      "name": "transferOwnership",
      "outputs": [],
      "stateMutability": "nonpayable",
      "type": "function"
    },
    {
      "inputs": [
        {
          "internalType": "uint256",
          "name": "",
          "type": "uint256"
        }
      ],
      "name": "winningNumbers",
      "outputs": [
        {
          "internalType": "uint8",
          "name": "",
          "type": "uint8"
        }
      ],
      "stateMutability": "view",
      "type": "function",
      "constant": true
    },
    {
      "inputs": [
        {
          "internalType": "uint8[]",
          "name": "numbers",
          "type": "uint8[]"
        }
      ],
      "name": "buyTicket",
      "outputs": [],
      "stateMutability": "payable",
      "type": "function",
      "payable": true
    },
    {
      "inputs": [],
      "name": "drawWinningNumbers",
      "outputs": [],
      "stateMutability": "nonpayable",
      "type": "function"
    }
  ],
  "bytecode": "0x60c06040523480156200001157600080fd5b506040516200369e3803806200369e8339818101604052810190620000379190620002db565b83838173ffffffffffffffffffffffffffffffffffffffff1660a08173ffffffffffffffffffffffffffffffffffffffff16815250508073ffffffffffffffffffffffffffffffffffffffff1660808173ffffffffffffffffffffffffffffffffffffffff16815250505050620000c3620000b76200012d60201b60201c565b6200013560201b60201c565b8560068190555084600260006101000a81548173ffffffffffffffffffffffffffffffffffffffff021916908373ffffffffffffffffffffffffffffffffffffffff1602179055508160038190555080600481905550600160088190555050505050505062000377565b600033905090565b6000600160009054906101000a900473ffffffffffffffffffffffffffffffffffffffff16905081600160006101000a81548173ffffffffffffffffffffffffffffffffffffffff021916908373ffffffffffffffffffffffffffffffffffffffff1602179055508173ffffffffffffffffffffffffffffffffffffffff168173ffffffffffffffffffffffffffffffffffffffff167f8be0079c531659141344cd1fd0a4f28419497f9722a3daafe3b4186f6b6457e060405160405180910390a35050565b600080fd5b6000819050919050565b620002158162000200565b81146200022157600080fd5b50565b60008151905062000235816200020a565b92915050565b600073ffffffffffffffffffffffffffffffffffffffff82169050919050565b600062000268826200023b565b9050919050565b6200027a816200025b565b81146200028657600080fd5b50565b6000815190506200029a816200026f565b92915050565b6000819050919050565b620002b581620002a0565b8114620002c157600080fd5b50565b600081519050620002d581620002aa565b92915050565b60008060008060008060c08789031215620002fb57620002fa620001fb565b5b60006200030b89828a0162000224565b96505060206200031e89828a0162000289565b95505060406200033189828a0162000289565b94505060606200034489828a0162000289565b93505060806200035789828a01620002c4565b92505060a06200036a89828a0162000224565b9150509295509295509295565b60805160a0516132f3620003ab600039600081816109010152610b3b0152600081816107b30152610aff01526132f36000f3fe6080604052600436106100dd5760003560e01c80638c65c81f1161007f57806394985ddd1161005957806394985ddd1461028f578063b217be05146102b8578063cfbd900f146102f5578063f2fde38b14610320576100dd565b80638c65c81f146101fc5780638cd221c9146102395780638da5cb5b14610264576100dd565b806350b44712116100bb57806350b44712146101755780635e349acc146101b2578063608620aa146101ce578063715018a6146101e5576100dd565b80631209b1f6146100e257806342619f661461010d5780634e45f09514610138575b600080fd5b3480156100ee57600080fd5b506100f7610349565b6040516101049190611670565b60405180910390f35b34801561011957600080fd5b5061012261034f565b60405161012f9190611670565b60405180910390f35b34801561014457600080fd5b5061015f600480360381019061015a91906116cb565b610355565b60405161016c9190611714565b60405180910390f35b34801561018157600080fd5b5061019c600480360381019061019791906116cb565b610389565b6040516101a99190611770565b60405180910390f35b6101cc60048036038101906101c79190611910565b6103bc565b005b3480156101da57600080fd5b506101e3610719565b005b3480156101f157600080fd5b506101fa61089d565b005b34801561020857600080fd5b50610223600480360381019061021e91906116cb565b6108b1565b6040516102309190611670565b60405180910390f35b34801561024557600080fd5b5061024e6108cf565b60405161025b9190611670565b60405180910390f35b34801561027057600080fd5b506102796108d5565b604051610286919061197a565b60405180910390f35b34801561029b57600080fd5b506102b660048036038101906102b191906119cb565b6108ff565b005b3480156102c457600080fd5b506102df60048036038101906102da9190611a0b565b61099b565b6040516102ec9190611714565b60405180910390f35b34801561030157600080fd5b5061030a6109de565b6040516103179190611670565b60405180910390f35b34801561032c57600080fd5b5061034760048036038101906103429190611a77565b6109e4565b005b60065481565b60055481565b6009818154811061036557600080fd5b9060005260206000209060209182820401919006915054906101000a900460ff1681565b600a6020528060005260406000206000915054906101000a900473ffffffffffffffffffffffffffffffffffffffff1681565b6006543414610400576040517f08c379a00000000000000000000000000000000000000000000000000000000081526004016103f790611b01565b60405180910390fd5b6006815114610444576040517f08c379a000000000000000000000000000000000000000000000000000000000815260040161043b90611b93565b60405180910390fd5b60005b815181101561059957600182828151811061046557610464611bb3565b5b602002602001015160ff161015801561049c5750603282828151811061048e5761048d611bb3565b5b602002602001015160ff1611155b6104db576040517f08c379a00000000000000000000000000000000000000000000000000000000081526004016104d290611c54565b60405180910390fd5b60006001826104ea9190611ca3565b90505b82518110156105855782818151811061050957610508611bb3565b5b602002602001015160ff1683838151811061052757610526611bb3565b5b602002602001015160ff1603610572576040517f08c379a000000000000000000000000000000000000000000000000000000000815260040161056990611d23565b60405180910390fd5b808061057d90611d43565b9150506104ed565b50808061059190611d43565b915050610447565b506105b06001600754610a6790919063ffffffff16565b60078190555033600a6000600754815260200190815260200160002060006101000a81548173ffffffffffffffffffffffffffffffffffffffff021916908373ffffffffffffffffffffffffffffffffffffffff16021790555080600b600060075481526020019081526020016000209080519060200190610633929190611593565b503373ffffffffffffffffffffffffffffffffffffffff167f2a1ef9a510c66163c8c27e9cfbafcb5c15f78e0c979458e4d40103d6bb9dbbd36007548360405161067e929190611e49565b60405180910390a2600260009054906101000a900473ffffffffffffffffffffffffffffffffffffffff1673ffffffffffffffffffffffffffffffffffffffff166340c10f193360016040518363ffffffff1660e01b81526004016106e4929190611ebe565b600060405180830381600087803b1580156106fe57600080fd5b505af1158015610712573d6000803e3d6000fd5b5050505050565b610721610a7d565b600060075411610766576040517f08c379a000000000000000000000000000000000000000000000000000000000815260040161075d90611f33565b60405180910390fd5b6000600980549050146107ae576040517f08c379a00000000000000000000000000000000000000000000000000000000081526004016107a590611fc5565b60405180910390fd5b6004547f000000000000000000000000000000000000000000000000000000000000000073ffffffffffffffffffffffffffffffffffffffff166370a08231306040518263ffffffff1660e01b815260040161080a919061197a565b602060405180830381865afa158015610827573d6000803e3d6000fd5b505050506040513d601f19601f8201168201806040525081019061084b9190611ffa565b101561088c576040517f08c379a000000000000000000000000000000000000000000000000000000000815260040161088390612073565b60405180910390fd5b61089a600354600454610afb565b50565b6108a5610a7d565b6108af6000610c4b565b565b600c6020528060005260406000206000915090508060000154905081565b60085481565b6000600160009054906101000a900473ffffffffffffffffffffffffffffffffffffffff16905090565b7f000000000000000000000000000000000000000000000000000000000000000073ffffffffffffffffffffffffffffffffffffffff163373ffffffffffffffffffffffffffffffffffffffff161461098d576040517f08c379a0000000000000000000000000000000000000000000000000000000008152600401610984906120df565b60405180910390fd5b6109978282610d11565b5050565b600b60205281600052604060002081815481106109b757600080fd5b9060005260206000209060209182820401919006915091509054906101000a900460ff1681565b60075481565b6109ec610a7d565b600073ffffffffffffffffffffffffffffffffffffffff168173ffffffffffffffffffffffffffffffffffffffff1603610a5b576040517f08c379a0000000000000000000000000000000000000000000000000000000008152600401610a5290612171565b60405180910390fd5b610a6481610c4b565b50565b60008183610a759190611ca3565b905092915050565b610a85610f07565b73ffffffffffffffffffffffffffffffffffffffff16610aa36108d5565b73ffffffffffffffffffffffffffffffffffffffff1614610af9576040517f08c379a0000000000000000000000000000000000000000000000000000000008152600401610af0906121dd565b60405180910390fd5b565b60007f000000000000000000000000000000000000000000000000000000000000000073ffffffffffffffffffffffffffffffffffffffff16634000aea07f000000000000000000000000000000000000000000000000000000000000000084866000604051602001610b6f92919061220c565b6040516020818303038152906040526040518463ffffffff1660e01b8152600401610b9c939291906122b4565b6020604051808303816000875af1158015610bbb573d6000803e3d6000fd5b505050506040513d601f19601f82011682018060405250810190610bdf919061232a565b506000610c018460003060008089815260200190815260200160002054610f0f565b9050600160008086815260200190815260200160002054610c229190611ca3565b60008086815260200190815260200160002081905550610c428482610f4b565b91505092915050565b6000600160009054906101000a900473ffffffffffffffffffffffffffffffffffffffff16905081600160006101000a81548173ffffffffffffffffffffffffffffffffffffffff021916908373ffffffffffffffffffffffffffffffffffffffff1602179055508173ffffffffffffffffffffffffffffffffffffffff168173ffffffffffffffffffffffffffffffffffffffff167f8be0079c531659141344cd1fd0a4f28419497f9722a3daafe3b4186f6b6457e060405160405180910390a35050565b806005819055506000603267ffffffffffffffff811115610d3557610d346117a1565b5b604051908082528060200260200182016040528015610d635781602001602082028036833780820191505090505b5090506000805b6006811015610ea657600060016032600554610d869190612386565b610d909190611ca3565b9050603260056000828254610da591906123b7565b925050819055506000805b84811015610dfb578260ff16868281518110610dcf57610dce611bb3565b5b602002602001015160ff1603610de85760019150610dfb565b8080610df390611d43565b915050610db0565b5080610e9f5781858580610e0e90611d43565b965081518110610e2157610e20611bb3565b5b602002602001019060ff16908160ff1681525050600c600060085481526020019081526020016000206001018290806001815401808255809150506001900390600052602060002090602091828204019190069091909190916101000a81548160ff021916908360ff1602179055508280610e9b90611d43565b9350505b5050610d6a565b7facdd977f06d88d990c56c596f96141830d83e7fc86f94424a37de0f5e0532e69600854600c60006008548152602001908152602001600020600101604051610ef092919061313b565b60405180910390a1610f00610f7e565b5050505050565b600033905090565b600084848484604051602001610f28949392919061316b565b6040516020818303038152906040528051906020012060001c9050949350505050565b60008282604051602001610f609291906131f2565b60405160208183030381529060405280519060200120905092915050565b6000600754600654610f90919061321e565b9050600060075467ffffffffffffffff811115610fb057610faf6117a1565b5b604051908082528060200260200182016040528015610fde5781602001602082028036833780820191505090505b509050600060075467ffffffffffffffff811115610fff57610ffe6117a1565b5b60405190808252806020026020018201604052801561102d5781602001602082028036833780820191505090505b509050600080600190505b60075481116110e257600061104c82611290565b90506000611059826113d9565b905060008111801561106b5750868111155b156110cd578286858151811061108457611083611bb3565b5b602002602001018181525050808585815181106110a4576110a3611bb3565b5b60200260200101818152505083806110bb90611d43565b94505080876110ca9190613260565b96505b505080806110da90611d43565b915050611038565b506000600690505b60048160ff1610611281576000600c6000600854815260200190815260200160002060020160008360ff1660ff16815260200190815260200160002080549050905060008161113b8460ff166113d9565b61114591906123b7565b905060005b8281101561126b576000600c6000600854815260200190815260200160002060020160008660ff1660ff168152602001908152602001600020828154811061119557611194611bb3565b5b9060005260206000200160009054906101000a900473ffffffffffffffffffffffffffffffffffffffff1690508073ffffffffffffffffffffffffffffffffffffffff166108fc849081150290604051600060405180830381858888f19350505050158015611208573d6000803e3d6000fd5b508073ffffffffffffffffffffffffffffffffffffffff167f95681e512bc0fe659e195e06c283eada494316f3d801213e48e7101af92bf7708460405161124f9190611670565b60405180910390a250808061126390611d43565b91505061114a565b505050808061127990613294565b9150506110ea565b5061128a6114bf565b50505050565b600080600b600084815260200190815260200160002080548060200260200160405190810160405280929190818152602001828054801561131657602002820191906000526020600020906000905b82829054906101000a900460ff1660ff16815260200190600101906020826000010492830192600103820291508084116112df5790505b505050505090506000805b82518110156113ce5760005b6009805490508110156113ba576009818154811061134e5761134d611bb3565b5b90600052602060002090602091828204019190069054906101000a900460ff1660ff1684838151811061138457611383611bb3565b5b602002602001015160ff16036113a757828061139f90611d43565b9350506113ba565b80806113b290611d43565b91505061132d565b5080806113c690611d43565b915050611321565b508092505050919050565b6000806007546006546113ec919061321e565b9050600060068403611431576114026006611541565b9050806064603284611414919061321e565b61141e91906123b7565b61142891906123b7565b925050506114ba565b60058403611472576114436005611541565b9050806064601984611455919061321e565b61145f91906123b7565b61146991906123b7565b925050506114ba565b600484036114b3576114846004611541565b9050806064600a84611496919061321e565b6114a091906123b7565b6114aa91906123b7565b925050506114ba565b6000925050505b919050565b600860008154809291906114d290611d43565b91905055506000600781905550600067ffffffffffffffff8111156114fa576114f96117a1565b5b6040519080825280602002602001820160405280156115285781602001602082028036833780820191505090505b506009908051906020019061153e929190611593565b50565b600080600090506000600190505b6007548111611589578361156282611290565b0361157657818061157290611d43565b9250505b808061158190611d43565b91505061154f565b5080915050919050565b82805482825590600052602060002090601f016020900481019282156116295791602002820160005b838211156115fa57835183826101000a81548160ff021916908360ff16021790555092602001926001016020816000010492830192600103026115bc565b80156116275782816101000a81549060ff02191690556001016020816000010492830192600103026115fa565b505b509050611636919061163a565b5090565b5b8082111561165357600081600090555060010161163b565b5090565b6000819050919050565b61166a81611657565b82525050565b60006020820190506116856000830184611661565b92915050565b6000604051905090565b600080fd5b600080fd5b6116a881611657565b81146116b357600080fd5b50565b6000813590506116c58161169f565b92915050565b6000602082840312156116e1576116e0611695565b5b60006116ef848285016116b6565b91505092915050565b600060ff82169050919050565b61170e816116f8565b82525050565b60006020820190506117296000830184611705565b92915050565b600073ffffffffffffffffffffffffffffffffffffffff82169050919050565b600061175a8261172f565b9050919050565b61176a8161174f565b82525050565b60006020820190506117856000830184611761565b92915050565b600080fd5b6000601f19601f8301169050919050565b7f4e487b7100000000000000000000000000000000000000000000000000000000600052604160045260246000fd5b6117d982611790565b810181811067ffffffffffffffff821117156117f8576117f76117a1565b5b80604052505050565b600061180b61168b565b905061181782826117d0565b919050565b600067ffffffffffffffff821115611837576118366117a1565b5b602082029050602081019050919050565b600080fd5b611856816116f8565b811461186157600080fd5b50565b6000813590506118738161184d565b92915050565b600061188c6118878461181c565b611801565b905080838252602082019050602084028301858111156118af576118ae611848565b5b835b818110156118d857806118c48882611864565b8452602084019350506020810190506118b1565b5050509392505050565b600082601f8301126118f7576118f661178b565b5b8135611907848260208601611879565b91505092915050565b60006020828403121561192657611925611695565b5b600082013567ffffffffffffffff8111156119445761194361169a565b5b611950848285016118e2565b91505092915050565b60006119648261172f565b9050919050565b61197481611959565b82525050565b600060208201905061198f600083018461196b565b92915050565b6000819050919050565b6119a881611995565b81146119b357600080fd5b50565b6000813590506119c58161199f565b92915050565b600080604083850312156119e2576119e1611695565b5b60006119f0858286016119b6565b9250506020611a01858286016116b6565b9150509250929050565b60008060408385031215611a2257611a21611695565b5b6000611a30858286016116b6565b9250506020611a41858286016116b6565b9150509250929050565b611a5481611959565b8114611a5f57600080fd5b50565b600081359050611a7181611a4b565b92915050565b600060208284031215611a8d57611a8c611695565b5b6000611a9b84828501611a62565b91505092915050565b600082825260208201905092915050565b7f496e636f7272656374207469636b65742070726963652e000000000000000000600082015250565b6000611aeb601783611aa4565b9150611af682611ab5565b602082019050919050565b60006020820190508181036000830152611b1a81611ade565b9050919050565b7f596f75206d7573742070726f766964652065786163746c79203620756e69717560008201527f65206e756d626572732e00000000000000000000000000000000000000000000602082015250565b6000611b7d602a83611aa4565b9150611b8882611b21565b604082019050919050565b60006020820190508181036000830152611bac81611b70565b9050919050565b7f4e487b7100000000000000000000000000000000000000000000000000000000600052603260045260246000fd5b7f4e756d62657273206d757374206265206265747765656e203120616e6420353060008201527f2e00000000000000000000000000000000000000000000000000000000000000602082015250565b6000611c3e602183611aa4565b9150611c4982611be2565b604082019050919050565b60006020820190508181036000830152611c6d81611c31565b9050919050565b7f4e487b7100000000000000000000000000000000000000000000000000000000600052601160045260246000fd5b6000611cae82611657565b9150611cb983611657565b9250828201905080821115611cd157611cd0611c74565b5b92915050565b7f4e756d62657273206d75737420626520756e697175652e000000000000000000600082015250565b6000611d0d601783611aa4565b9150611d1882611cd7565b602082019050919050565b60006020820190508181036000830152611d3c81611d00565b9050919050565b6000611d4e82611657565b91507fffffffffffffffffffffffffffffffffffffffffffffffffffffffffffffffff8203611d8057611d7f611c74565b5b600182019050919050565b600081519050919050565b600082825260208201905092915050565b6000819050602082019050919050565b611dc0816116f8565b82525050565b6000611dd28383611db7565b60208301905092915050565b6000602082019050919050565b6000611df682611d8b565b611e008185611d96565b9350611e0b83611da7565b8060005b83811015611e3c578151611e238882611dc6565b9750611e2e83611dde565b925050600181019050611e0f565b5085935050505092915050565b6000604082019050611e5e6000830185611661565b8181036020830152611e708184611deb565b90509392505050565b6000819050919050565b6000819050919050565b6000611ea8611ea3611e9e84611e79565b611e83565b611657565b9050919050565b611eb881611e8d565b82525050565b6000604082019050611ed3600083018561196b565b611ee06020830184611eaf565b9392505050565b7f4e6f207469636b6574732068617665206265656e20736f6c642e000000000000600082015250565b6000611f1d601a83611aa4565b9150611f2882611ee7565b602082019050919050565b60006020820190508181036000830152611f4c81611f10565b9050919050565b7f57696e6e696e67206e756d62657273206861766520616c72656164792062656560008201527f6e20647261776e2e000000000000000000000000000000000000000000000000602082015250565b6000611faf602883611aa4565b9150611fba82611f53565b604082019050919050565b60006020820190508181036000830152611fde81611fa2565b9050919050565b600081519050611ff48161169f565b92915050565b6000602082840312156120105761200f611695565b5b600061201e84828501611fe5565b91505092915050565b7f4e6f7420656e6f756768204c494e4b20746f2070617920746865206665652e00600082015250565b600061205d601f83611aa4565b915061206882612027565b602082019050919050565b6000602082019050818103600083015261208c81612050565b9050919050565b7f4f6e6c7920565246436f6f7264696e61746f722063616e2066756c66696c6c00600082015250565b60006120c9601f83611aa4565b91506120d482612093565b602082019050919050565b600060208201905081810360008301526120f8816120bc565b9050919050565b7f4f776e61626c653a206e6577206f776e657220697320746865207a65726f206160008201527f6464726573730000000000000000000000000000000000000000000000000000602082015250565b600061215b602683611aa4565b9150612166826120ff565b604082019050919050565b6000602082019050818103600083015261218a8161214e565b9050919050565b7f4f776e61626c653a2063616c6c6572206973206e6f7420746865206f776e6572600082015250565b60006121c7602083611aa4565b91506121d282612191565b602082019050919050565b600060208201905081810360008301526121f6816121ba565b9050919050565b61220681611995565b82525050565b600060408201905061222160008301856121fd565b61222e6020830184611661565b9392505050565b600081519050919050565b600082825260208201905092915050565b60005b8381101561226f578082015181840152602081019050612254565b60008484015250505050565b600061228682612235565b6122908185612240565b93506122a0818560208601612251565b6122a981611790565b840191505092915050565b60006060820190506122c9600083018661196b565b6122d66020830185611661565b81810360408301526122e8818461227b565b9050949350505050565b60008115159050919050565b612307816122f2565b811461231257600080fd5b50565b600081519050612324816122fe565b92915050565b6000602082840312156123405761233f611695565b5b600061234e84828501612315565b91505092915050565b7f4e487b7100000000000000000000000000000000000000000000000000000000600052601260045260246000fd5b600061239182611657565b915061239c83611657565b9250826123ac576123ab612357565b5b828206905092915050565b60006123c282611657565b91506123cd83611657565b9250826123dd576123dc612357565b5b828204905092915050565b600081549050919050565b60008190508160005260206000209050919050565b60008160001c9050919050565b600060ff82169050919050565b600061243561243083612408565b612415565b9050919050565b60008160081c9050919050565b600061245c6124578361243c565b612415565b9050919050565b60008160101c9050919050565b600061248361247e83612463565b612415565b9050919050565b60008160181c9050919050565b60006124aa6124a58361248a565b612415565b9050919050565b60008160201c9050919050565b60006124d16124cc836124b1565b612415565b9050919050565b60008160281c9050919050565b60006124f86124f3836124d8565b612415565b9050919050565b60008160301c9050919050565b600061251f61251a836124ff565b612415565b9050919050565b60008160381c9050919050565b600061254661254183612526565b612415565b9050919050565b60008160401c9050919050565b600061256d6125688361254d565b612415565b9050919050565b60008160481c9050919050565b600061259461258f83612574565b612415565b9050919050565b60008160501c9050919050565b60006125bb6125b68361259b565b612415565b9050919050565b60008160581c9050919050565b60006125e26125dd836125c2565b612415565b9050919050565b60008160601c9050919050565b6000612609612604836125e9565b612415565b9050919050565b60008160681c9050919050565b600061263061262b83612610565b612415565b9050919050565b60008160701c9050919050565b600061265761265283612637565b612415565b9050919050565b60008160781c9050919050565b600061267e6126798361265e565b612415565b9050919050565b60008160801c9050919050565b60006126a56126a083612685565b612415565b9050919050565b60008160881c9050919050565b60006126cc6126c7836126ac565b612415565b9050919050565b60008160901c9050919050565b60006126f36126ee836126d3565b612415565b9050919050565b60008160981c9050919050565b600061271a612715836126fa565b612415565b9050919050565b60008160a01c9050919050565b600061274161273c83612721565b612415565b9050919050565b60008160a81c9050919050565b600061276861276383612748565b612415565b9050919050565b60008160b01c9050919050565b600061278f61278a8361276f565b612415565b9050919050565b60008160b81c9050919050565b60006127b66127b183612796565b612415565b9050919050565b60008160c01c9050919050565b60006127dd6127d8836127bd565b612415565b9050919050565b60008160c81c9050919050565b60006128046127ff836127e4565b612415565b9050919050565b60008160d01c9050919050565b600061282b6128268361280b565b612415565b9050919050565b60008160d81c9050919050565b600061285261284d83612832565b612415565b9050919050565b60008160e01c9050919050565b600061287961287483612859565b612415565b9050919050565b60008160e81c9050919050565b60006128a061289b83612880565b612415565b9050919050565b60008160f01c9050919050565b60006128c76128c2836128a7565b612415565b9050919050565b60008160f81c9050919050565b60006128ee6128e9836128ce565b612415565b9050919050565b6000612900826123e8565b61290a8185611d96565b935083612916846123f3565b6000600115612c43575b83600160200382011015612c425781546129428861293d83612422565b611db7565b60208801975061295a8861295583612449565b611db7565b6020880197506129728861296d83612470565b611db7565b60208801975061298a8861298583612497565b611db7565b6020880197506129a28861299d836124be565b611db7565b6020880197506129ba886129b5836124e5565b611db7565b6020880197506129d2886129cd8361250c565b611db7565b6020880197506129ea886129e583612533565b611db7565b602088019750612a02886129fd8361255a565b611db7565b602088019750612a1a88612a1583612581565b611db7565b602088019750612a3288612a2d836125a8565b611db7565b602088019750612a4a88612a45836125cf565b611db7565b602088019750612a6288612a5d836125f6565b611db7565b602088019750612a7a88612a758361261d565b611db7565b602088019750612a9288612a8d83612644565b611db7565b602088019750612aaa88612aa58361266b565b611db7565b602088019750612ac288612abd83612692565b611db7565b602088019750612ada88612ad5836126b9565b611db7565b602088019750612af288612aed836126e0565b611db7565b602088019750612b0a88612b0583612707565b611db7565b602088019750612b2288612b1d8361272e565b611db7565b602088019750612b3a88612b3583612755565b611db7565b602088019750612b5288612b4d8361277c565b611db7565b602088019750612b6a88612b65836127a3565b611db7565b602088019750612b8288612b7d836127ca565b611db7565b602088019750612b9a88612b95836127f1565b611db7565b602088019750612bb288612bad83612818565b611db7565b602088019750612bca88612bc58361283f565b611db7565b602088019750612be288612bdd83612866565b611db7565b602088019750612bfa88612bf58361288d565b611db7565b602088019750612c1288612c0d836128b4565b611db7565b602088019750612c2a88612c25836128db565b611db7565b60208801975060018301925050602081019050612920565b5b60011561312e57815484821015612c7357612c6688612c6183612422565b611db7565b6020880197506001820191505b84821015612c9a57612c8d88612c8883612449565b611db7565b6020880197506001820191505b84821015612cc157612cb488612caf83612470565b611db7565b6020880197506001820191505b84821015612ce857612cdb88612cd683612497565b611db7565b6020880197506001820191505b84821015612d0f57612d0288612cfd836124be565b611db7565b6020880197506001820191505b84821015612d3657612d2988612d24836124e5565b611db7565b6020880197506001820191505b84821015612d5d57612d5088612d4b8361250c565b611db7565b6020880197506001820191505b84821015612d8457612d7788612d7283612533565b611db7565b6020880197506001820191505b84821015612dab57612d9e88612d998361255a565b611db7565b6020880197506001820191505b84821015612dd257612dc588612dc083612581565b611db7565b6020880197506001820191505b84821015612df957612dec88612de7836125a8565b611db7565b6020880197506001820191505b84821015612e2057612e1388612e0e836125cf565b611db7565b6020880197506001820191505b84821015612e4757612e3a88612e35836125f6565b611db7565b6020880197506001820191505b84821015612e6e57612e6188612e5c8361261d565b611db7565b6020880197506001820191505b84821015612e9557612e8888612e8383612644565b611db7565b6020880197506001820191505b84821015612ebc57612eaf88612eaa8361266b565b611db7565b6020880197506001820191505b84821015612ee357612ed688612ed183612692565b611db7565b6020880197506001820191505b84821015612f0a57612efd88612ef8836126b9565b611db7565b6020880197506001820191505b84821015612f3157612f2488612f1f836126e0565b611db7565b6020880197506001820191505b84821015612f5857612f4b88612f4683612707565b611db7565b6020880197506001820191505b84821015612f7f57612f7288612f6d8361272e565b611db7565b6020880197506001820191505b84821015612fa657612f9988612f9483612755565b611db7565b6020880197506001820191505b84821015612fcd57612fc088612fbb8361277c565b611db7565b6020880197506001820191505b84821015612ff457612fe788612fe2836127a3565b611db7565b6020880197506001820191505b8482101561301b5761300e88613009836127ca565b611db7565b6020880197506001820191505b848210156130425761303588613030836127f1565b611db7565b6020880197506001820191505b848210156130695761305c8861305783612818565b611db7565b6020880197506001820191505b84821015613090576130838861307e8361283f565b611db7565b6020880197506001820191505b848210156130b7576130aa886130a583612866565b611db7565b6020880197506001820191505b848210156130de576130d1886130cc8361288d565b611db7565b6020880197506001820191505b84821015613105576130f8886130f3836128b4565b611db7565b6020880197506001820191505b8482101561312c5761311f8861311a836128db565b611db7565b6020880197506001820191505b505b8694505050505092915050565b60006040820190506131506000830185611661565b818103602083015261316281846128f5565b90509392505050565b600060808201905061318060008301876121fd565b61318d6020830186611661565b61319a604083018561196b565b6131a76060830184611661565b95945050505050565b6000819050919050565b6131cb6131c682611995565b6131b0565b82525050565b6000819050919050565b6131ec6131e782611657565b6131d1565b82525050565b60006131fe82856131ba565b60208201915061320e82846131db565b6020820191508190509392505050565b600061322982611657565b915061323483611657565b925082820261324281611657565b9150828204841483151761325957613258611c74565b5b5092915050565b600061326b82611657565b915061327683611657565b925082820390508181111561328e5761328d611c74565b5b92915050565b600061329f826116f8565b9150600082036132b2576132b1611c74565b5b60018203905091905056fea2646970667358221220cb4483a44dfbb6725222ef0ce456f9478b37efde85786a7063569884ba830f5e64736f6c63430008120033",
  "immutableReferences": {
    "73": [
      {
        "length": 32,
        "start": 1971
      },
      {
        "length": 32,
        "start": 2815
      }
    ],
    "75": [
      {
        "length": 32,
        "start": 2305
      },
      {
        "length": 32,
        "start": 2875
      }
    ]
  },
  "source": "pragma solidity ^0.8.0;\n\nimport \"@openzeppelin/contracts/utils/math/SafeMath.sol\";\nimport \"@openzeppelin/contracts/access/Ownable.sol\";\nimport \"@chainlink/contracts/src/v0.8/VRFConsumerBase.sol\";\nimport \"./interfaces/ILottoToken.sol\";\n\ncontract Game is VRFConsumerBase, Ownable {\n    using SafeMath for uint256;\n\n    struct Round {\n        uint256 roundId;\n        uint8[] winningNumbers;\n        mapping(uint8 => address[]) winners;\n    }\n\n    ILottoToken token;\n\n    bytes32 private keyHash;\n    uint256 private fee;\n    uint256 public randomResult;\n\n    uint256 public ticketPrice;\n    uint256 public ticketCount;\n    uint256 public roundId;\n    uint8[] public winningNumbers;\n\n    mapping(uint256 => address payable) public tickets;\n    mapping(uint256 => uint8[]) public ticketNumbers;\n    mapping(uint256 => Round) public rounds;\n\n    event TicketPurchased(\n        address indexed buyer,\n        uint256 ticketCount,\n        uint8[] numbers\n    );\n    event WinningNumbers(uint256 roundId, uint8[] numbers);\n    event PrizeClaimed(address indexed winner, uint256 amount);\n\n    constructor(\n        uint256 _ticketPrice,\n        address _lottoToken,\n        address vrfCoordinator,\n        address linkToken,\n        bytes32 _keyHash,\n        uint256 _fee\n    ) VRFConsumerBase(vrfCoordinator, linkToken) {\n        ticketPrice = _ticketPrice;\n        token = ILottoToken(_lottoToken);\n        keyHash = _keyHash;\n        fee = _fee;\n        roundId = 1;\n    }\n\n    // Buy a ticket with 6 unique numbers, mint a token for the buyer\n    function buyTicket(uint8[] memory numbers) public payable {\n        require(msg.value == ticketPrice, \"Incorrect ticket price.\");\n        require(\n            numbers.length == 6,\n            \"You must provide exactly 6 unique numbers.\"\n        );\n\n        // Validate the provided numbers\n        for (uint256 i = 0; i < numbers.length; i++) {\n            require(\n                numbers[i] >= 1 && numbers[i] <= 50,\n                \"Numbers must be between 1 and 50.\"\n            );\n            for (uint256 j = i + 1; j < numbers.length; j++) {\n                require(numbers[i] != numbers[j], \"Numbers must be unique.\");\n            }\n        }\n\n        ticketCount = ticketCount.add(1);\n        tickets[ticketCount] = payable(msg.sender);\n        ticketNumbers[ticketCount] = numbers;\n        emit TicketPurchased(msg.sender, ticketCount, numbers);\n\n        // Mint a token for the user\n        token.mint(msg.sender, 1);\n    }\n\n    // Draw winning numbers using Chainlink VRF\n    function drawWinningNumbers() public onlyOwner {\n        require(ticketCount > 0, \"No tickets have been sold.\");\n        require(\n            winningNumbers.length == 0,\n            \"Winning numbers have already been drawn.\"\n        );\n        require(\n            LINK.balanceOf(address(this)) >= fee,\n            \"Not enough LINK to pay the fee.\"\n        );\n\n        requestRandomness(keyHash, fee);\n    }\n\n    // Fulfill randomness from Chainlink VRF and distribute prizes\n    function fulfillRandomness(\n        bytes32 requestId,\n        uint256 randomness\n    ) internal override {\n        randomResult = randomness;\n\n        // Generate unique winning numbers\n        uint8[] memory usedNumbers = new uint8[](50);\n        uint256 usedCount = 0;\n        uint256 generatedNumbers = 0;\n        while (generatedNumbers < 6) {\n            uint8 newNumber = uint8((randomResult % 50) + 1);\n            randomResult /= 50;\n\n            bool isNumberUsed = false;\n            for (uint256 i = 0; i < usedCount; i++) {\n                if (usedNumbers[i] == newNumber) {\n                    isNumberUsed = true;\n                    break;\n                }\n            }\n\n            if (!isNumberUsed) {\n                usedNumbers[usedCount++] = newNumber;\n                rounds[roundId].winningNumbers.push(newNumber);\n                generatedNumbers++;\n            }\n        }\n        emit WinningNumbers(roundId, rounds[roundId].winningNumbers);\n\n        // Calculate and distribute prizes\n        distributePrizes();\n    }\n\n    // Distribute prizes among the winners\n    function distributePrizes() private {\n        uint256 prizePool = ticketPrice * ticketCount;\n        uint256[] memory winnerTicketIndexes = new uint256[](ticketCount);\n        uint256[] memory winnerPrizes = new uint256[](ticketCount);\n        uint256 winnerCount = 0;\n\n        // Calculate the winners and their prizes\n        for (uint256 i = 1; i <= ticketCount; i++) {\n            uint256 correctGuesses = getCorrectGuesses(i);\n            uint256 prize = calculatePrize(correctGuesses);\n\n            if (prize > 0 && prize <= prizePool) {\n                winnerTicketIndexes[winnerCount] = i;\n                winnerPrizes[winnerCount] = prize;\n                winnerCount++;\n                prizePool -= prize;\n            }\n        }\n\n        // Send out the prizes to the winners\n        for (uint8 correctGuesses = 6; correctGuesses >= 4; correctGuesses--) {\n            uint256 winnerCount = rounds[roundId]\n                .winners[correctGuesses]\n                .length;\n            uint256 prizePerWinner = calculatePrize(correctGuesses) /\n                winnerCount;\n\n            for (uint256 i = 0; i < winnerCount; i++) {\n                address winner = rounds[roundId].winners[correctGuesses][i];\n                payable(winner).transfer(prizePerWinner);\n                emit PrizeClaimed(winner, prizePerWinner);\n            }\n        }\n\n        // Start a new round\n        reset();\n    }\n\n    // Get the count of correct guesses for a given ticket\n    function getCorrectGuesses(\n        uint256 ticketNumber\n    ) private view returns (uint256) {\n        uint8[] memory userNumbers = ticketNumbers[ticketNumber];\n        uint256 correctGuesses = 0;\n\n        for (uint256 i = 0; i < userNumbers.length; i++) {\n            for (uint256 j = 0; j < winningNumbers.length; j++) {\n                if (userNumbers[i] == winningNumbers[j]) {\n                    correctGuesses++;\n                    break;\n                }\n            }\n        }\n\n        return correctGuesses;\n    }\n\n    // Calculate the prize amount based on the number of correct guesses\n    function calculatePrize(\n        uint256 correctGuesses\n    ) private view returns (uint256) {\n        uint256 prizePool = ticketPrice * ticketCount;\n        uint256 winnerCount;\n\n        if (correctGuesses == 6) {\n            winnerCount = getWinnerCount(6);\n            return (prizePool * 50) / 100 / winnerCount; // 50% of the prize pool for 6 correct guesses\n        } else if (correctGuesses == 5) {\n            winnerCount = getWinnerCount(5);\n            return (prizePool * 25) / 100 / winnerCount; // 25% of the prize pool for 5 correct guesses\n        } else if (correctGuesses == 4) {\n            winnerCount = getWinnerCount(4);\n            return (prizePool * 10) / 100 / winnerCount; // 10% of the prize pool for 4 correct guesses\n        }\n\n        return 0;\n    }\n\n    // Get the count of winners for a specific category (e.g., 6 correct guesses, 5 correct guesses, etc.)\n    function getWinnerCount(\n        uint256 correctGuesses\n    ) private view returns (uint256) {\n        uint256 winnerCount = 0;\n\n        for (uint256 i = 1; i <= ticketCount; i++) {\n            if (getCorrectGuesses(i) == correctGuesses) {\n                winnerCount++;\n            }\n        }\n\n        return winnerCount;\n    }\n\n    function reset() private {\n        roundId++;\n        ticketCount = 0;\n        winningNumbers = new uint8[](0);\n    }\n}\n",
  "sourcePath": "/home/d4fttasiii/git/gpt-lotto/src/lotto-contract/contracts/Game.sol",
  "compiler": {
    "name": "solc",
    "version": "0.8.18+commit.87f61d96.Emscripten.clang"
  },
  "schemaVersion": "3.4.11",
  "updatedAt": "2023-04-12T09:13:07.550Z",
  "networkType": "ethereum",
  "devdoc": {
    "kind": "dev",
    "methods": {
      "owner()": {
        "details": "Returns the address of the current owner."
      },
      "renounceOwnership()": {
        "details": "Leaves the contract without owner. It will not be possible to call `onlyOwner` functions anymore. Can only be called by the current owner. NOTE: Renouncing ownership will leave the contract without an owner, thereby removing any functionality that is only available to the owner."
      },
      "transferOwnership(address)": {
        "details": "Transfers ownership of the contract to a new account (`newOwner`). Can only be called by the current owner."
      }
    },
    "version": 1
  },
  "userdoc": {
    "kind": "user",
    "methods": {},
    "version": 1
  }
}