{
  "contractName": "Game",
  "abi": [
    {
      "inputs": [
        {
          "internalType": "uint256",
          "name": "_ticketPrice",
          "type": "uint256"
        },
        {
          "internalType": "address",
          "name": "_lottoToken",
          "type": "address"
        },
        {
          "internalType": "address",
          "name": "vrfCoordinator",
          "type": "address"
        },
        {
          "internalType": "address",
          "name": "linkToken",
          "type": "address"
        },
        {
          "internalType": "bytes32",
          "name": "_keyHash",
          "type": "bytes32"
        },
        {
          "internalType": "uint256",
          "name": "_fee",
          "type": "uint256"
        }
      ],
      "stateMutability": "nonpayable",
      "type": "constructor"
    },
    {
      "anonymous": false,
      "inputs": [
        {
          "indexed": true,
          "internalType": "address",
          "name": "previousOwner",
          "type": "address"
        },
        {
          "indexed": true,
          "internalType": "address",
          "name": "newOwner",
          "type": "address"
        }
      ],
      "name": "OwnershipTransferred",
      "type": "event"
    },
    {
      "anonymous": false,
      "inputs": [
        {
          "indexed": true,
          "internalType": "address",
          "name": "winner",
          "type": "address"
        },
        {
          "indexed": false,
          "internalType": "uint256",
          "name": "amount",
          "type": "uint256"
        }
      ],
      "name": "PrizeClaimed",
      "type": "event"
    },
    {
      "anonymous": false,
      "inputs": [
        {
          "indexed": true,
          "internalType": "address",
          "name": "buyer",
          "type": "address"
        },
        {
          "indexed": false,
          "internalType": "uint256",
          "name": "ticketCount",
          "type": "uint256"
        },
        {
          "indexed": false,
          "internalType": "uint8[]",
          "name": "numbers",
          "type": "uint8[]"
        }
      ],
      "name": "TicketPurchased",
      "type": "event"
    },
    {
      "anonymous": false,
      "inputs": [
        {
          "indexed": true,
          "internalType": "address",
          "name": "winner",
          "type": "address"
        },
        {
          "indexed": false,
          "internalType": "uint256",
          "name": "amount",
          "type": "uint256"
        }
      ],
      "name": "TokenHolderPrizeClaimed",
      "type": "event"
    },
    {
      "anonymous": false,
      "inputs": [
        {
          "indexed": false,
          "internalType": "uint256",
          "name": "roundId",
          "type": "uint256"
        },
        {
          "indexed": false,
          "internalType": "uint8[]",
          "name": "numbers",
          "type": "uint8[]"
        }
      ],
      "name": "WinningNumbers",
      "type": "event"
    },
    {
      "inputs": [],
      "name": "owner",
      "outputs": [
        {
          "internalType": "address",
          "name": "",
          "type": "address"
        }
      ],
      "stateMutability": "view",
      "type": "function"
    },
    {
      "inputs": [],
      "name": "randomResult",
      "outputs": [
        {
          "internalType": "uint256",
          "name": "",
          "type": "uint256"
        }
      ],
      "stateMutability": "view",
      "type": "function"
    },
    {
      "inputs": [
        {
          "internalType": "bytes32",
          "name": "requestId",
          "type": "bytes32"
        },
        {
          "internalType": "uint256",
          "name": "randomness",
          "type": "uint256"
        }
      ],
      "name": "rawFulfillRandomness",
      "outputs": [],
      "stateMutability": "nonpayable",
      "type": "function"
    },
    {
      "inputs": [],
      "name": "renounceOwnership",
      "outputs": [],
      "stateMutability": "nonpayable",
      "type": "function"
    },
    {
      "inputs": [],
      "name": "roundId",
      "outputs": [
        {
          "internalType": "uint256",
          "name": "",
          "type": "uint256"
        }
      ],
      "stateMutability": "view",
      "type": "function"
    },
    {
      "inputs": [
        {
          "internalType": "uint256",
          "name": "",
          "type": "uint256"
        }
      ],
      "name": "rounds",
      "outputs": [
        {
          "internalType": "uint256",
          "name": "roundId",
          "type": "uint256"
        },
        {
          "internalType": "uint256",
          "name": "ticketsSold",
          "type": "uint256"
        }
      ],
      "stateMutability": "view",
      "type": "function"
    },
    {
      "inputs": [],
      "name": "ticketCount",
      "outputs": [
        {
          "internalType": "uint256",
          "name": "",
          "type": "uint256"
        }
      ],
      "stateMutability": "view",
      "type": "function"
    },
    {
      "inputs": [
        {
          "internalType": "uint256",
          "name": "",
          "type": "uint256"
        },
        {
          "internalType": "uint256",
          "name": "",
          "type": "uint256"
        }
      ],
      "name": "ticketNumbers",
      "outputs": [
        {
          "internalType": "uint8",
          "name": "",
          "type": "uint8"
        }
      ],
      "stateMutability": "view",
      "type": "function"
    },
    {
      "inputs": [],
      "name": "ticketPrice",
      "outputs": [
        {
          "internalType": "uint256",
          "name": "",
          "type": "uint256"
        }
      ],
      "stateMutability": "view",
      "type": "function"
    },
    {
      "inputs": [
        {
          "internalType": "uint256",
          "name": "",
          "type": "uint256"
        }
      ],
      "name": "tickets",
      "outputs": [
        {
          "internalType": "address payable",
          "name": "",
          "type": "address"
        }
      ],
      "stateMutability": "view",
      "type": "function"
    },
    {
      "inputs": [
        {
          "internalType": "address",
          "name": "newOwner",
          "type": "address"
        }
      ],
      "name": "transferOwnership",
      "outputs": [],
      "stateMutability": "nonpayable",
      "type": "function"
    },
    {
      "inputs": [
        {
          "internalType": "address",
          "name": "",
          "type": "address"
        },
        {
          "internalType": "uint256",
          "name": "",
          "type": "uint256"
        }
      ],
      "name": "userTickets",
      "outputs": [
        {
          "internalType": "uint256",
          "name": "",
          "type": "uint256"
        }
      ],
      "stateMutability": "view",
      "type": "function"
    },
    {
      "inputs": [
        {
          "internalType": "uint256",
          "name": "",
          "type": "uint256"
        }
      ],
      "name": "winningNumbers",
      "outputs": [
        {
          "internalType": "uint8",
          "name": "",
          "type": "uint8"
        }
      ],
      "stateMutability": "view",
      "type": "function"
    },
    {
      "inputs": [
        {
          "internalType": "uint256",
          "name": "newTicketPrice",
          "type": "uint256"
        }
      ],
      "name": "updateTicketPrice",
      "outputs": [],
      "stateMutability": "nonpayable",
      "type": "function"
    },
    {
      "inputs": [
        {
          "internalType": "uint8[]",
          "name": "numbers",
          "type": "uint8[]"
        }
      ],
      "name": "buyTicket",
      "outputs": [],
      "stateMutability": "payable",
      "type": "function"
    },
    {
      "inputs": [],
      "name": "drawWinningNumbers",
      "outputs": [],
      "stateMutability": "nonpayable",
      "type": "function"
    },
    {
      "inputs": [],
      "name": "distributePrizes",
      "outputs": [],
      "stateMutability": "nonpayable",
      "type": "function"
    }
  ],
  "bytecode": "0x60c06040523480156200001157600080fd5b5060405162003f3c38038062003f3c8339818101604052810190620000379190620002db565b83838173ffffffffffffffffffffffffffffffffffffffff1660a08173ffffffffffffffffffffffffffffffffffffffff16815250508073ffffffffffffffffffffffffffffffffffffffff1660808173ffffffffffffffffffffffffffffffffffffffff16815250505050620000c3620000b76200012d60201b60201c565b6200013560201b60201c565b8560068190555084600260006101000a81548173ffffffffffffffffffffffffffffffffffffffff021916908373ffffffffffffffffffffffffffffffffffffffff1602179055508160038190555080600481905550600160088190555050505050505062000377565b600033905090565b6000600160009054906101000a900473ffffffffffffffffffffffffffffffffffffffff16905081600160006101000a81548173ffffffffffffffffffffffffffffffffffffffff021916908373ffffffffffffffffffffffffffffffffffffffff1602179055508173ffffffffffffffffffffffffffffffffffffffff168173ffffffffffffffffffffffffffffffffffffffff167f8be0079c531659141344cd1fd0a4f28419497f9722a3daafe3b4186f6b6457e060405160405180910390a35050565b600080fd5b6000819050919050565b620002158162000200565b81146200022157600080fd5b50565b60008151905062000235816200020a565b92915050565b600073ffffffffffffffffffffffffffffffffffffffff82169050919050565b600062000268826200023b565b9050919050565b6200027a816200025b565b81146200028657600080fd5b50565b6000815190506200029a816200026f565b92915050565b6000819050919050565b620002b581620002a0565b8114620002c157600080fd5b50565b600081519050620002d581620002aa565b92915050565b60008060008060008060c08789031215620002fb57620002fa620001fb565b5b60006200030b89828a0162000224565b96505060206200031e89828a0162000289565b95505060406200033189828a0162000289565b94505060606200034489828a0162000289565b93505060806200035789828a01620002c4565b92505060a06200036a89828a0162000224565b9150509295509295509295565b60805160a051613b91620003ab60003960008181610a790152610e970152600081816108bb0152610e5b0152613b916000f3fe6080604052600436106100fe5760003560e01c80638c65c81f11610095578063b217be0511610064578063b217be05146102f1578063cf260baf1461032e578063cfbd900f1461036b578063f02137c814610396578063f2fde38b146103bf576100fe565b80638c65c81f146102345780638cd221c9146102725780638da5cb5b1461029d57806394985ddd146102c8576100fe565b80635e349acc116100d15780635e349acc146101d3578063608620aa146101ef578063715018a6146102065780637ce52eb61461021d576100fe565b80631209b1f61461010357806342619f661461012e5780634e45f0951461015957806350b4471214610196575b600080fd5b34801561010f57600080fd5b506101186103e8565b6040516101259190611d81565b60405180910390f35b34801561013a57600080fd5b506101436103ee565b6040516101509190611d81565b60405180910390f35b34801561016557600080fd5b50610180600480360381019061017b9190611ddc565b6103f4565b60405161018d9190611e25565b60405180910390f35b3480156101a257600080fd5b506101bd60048036038101906101b89190611ddc565b610428565b6040516101ca9190611e81565b60405180910390f35b6101ed60048036038101906101e89190612021565b61045b565b005b3480156101fb57600080fd5b50610204610821565b005b34801561021257600080fd5b5061021b6109a5565b005b34801561022957600080fd5b506102326109b9565b005b34801561024057600080fd5b5061025b60048036038101906102569190611ddc565b610a23565b60405161026992919061206a565b60405180910390f35b34801561027e57600080fd5b50610287610a47565b6040516102949190611d81565b60405180910390f35b3480156102a957600080fd5b506102b2610a4d565b6040516102bf91906120b4565b60405180910390f35b3480156102d457600080fd5b506102ef60048036038101906102ea9190612105565b610a77565b005b3480156102fd57600080fd5b5061031860048036038101906103139190612145565b610b13565b6040516103259190611e25565b60405180910390f35b34801561033a57600080fd5b50610355600480360381019061035091906121b1565b610b56565b6040516103629190611d81565b60405180910390f35b34801561037757600080fd5b50610380610b87565b60405161038d9190611d81565b60405180910390f35b3480156103a257600080fd5b506103bd60048036038101906103b89190611ddc565b610b8d565b005b3480156103cb57600080fd5b506103e660048036038101906103e191906121f1565b610be2565b005b60065481565b60055481565b6009818154811061040457600080fd5b9060005260206000209060209182820401919006915054906101000a900460ff1681565b600b6020528060005260406000206000915054906101000a900473ffffffffffffffffffffffffffffffffffffffff1681565b600654341461049f576040517f08c379a00000000000000000000000000000000000000000000000000000000081526004016104969061227b565b60405180910390fd5b60068151146104e3576040517f08c379a00000000000000000000000000000000000000000000000000000000081526004016104da9061230d565b60405180910390fd5b60006104ee82610c65565b905060005b81518110156106385760018282815181106105115761051061232d565b5b602002602001015160ff16101580156105485750603282828151811061053a5761053961232d565b5b602002602001015160ff1611155b610587576040517f08c379a000000000000000000000000000000000000000000000000000000000815260040161057e906123ce565b60405180910390fd5b60018251610595919061241d565b81101561062557816001826105aa9190612451565b815181106105bb576105ba61232d565b5b602002602001015160ff168282815181106105d9576105d861232d565b5b602002602001015160ff1603610624576040517f08c379a000000000000000000000000000000000000000000000000000000000815260040161061b906124d1565b60405180910390fd5b5b8080610630906124f1565b9150506104f3565b5061064f6001600754610dc390919063ffffffff16565b60078190555033600b6000600754815260200190815260200160002060006101000a81548173ffffffffffffffffffffffffffffffffffffffff021916908373ffffffffffffffffffffffffffffffffffffffff16021790555080600c6000600754815260200190815260200160002090805190602001906106d2929190611ca4565b50600a60003373ffffffffffffffffffffffffffffffffffffffff1673ffffffffffffffffffffffffffffffffffffffff16815260200190815260200160002060075490806001815401808255809150506001900390600052602060002001600090919091909150553373ffffffffffffffffffffffffffffffffffffffff167f2a1ef9a510c66163c8c27e9cfbafcb5c15f78e0c979458e4d40103d6bb9dbbd3600754836040516107859291906125f7565b60405180910390a2600260009054906101000a900473ffffffffffffffffffffffffffffffffffffffff1673ffffffffffffffffffffffffffffffffffffffff166340c10f193360016040518363ffffffff1660e01b81526004016107eb92919061266c565b600060405180830381600087803b15801561080557600080fd5b505af1158015610819573d6000803e3d6000fd5b505050505050565b610829610dd9565b60006007541161086e576040517f08c379a0000000000000000000000000000000000000000000000000000000008152600401610865906126e1565b60405180910390fd5b6000600980549050146108b6576040517f08c379a00000000000000000000000000000000000000000000000000000000081526004016108ad90612773565b60405180910390fd5b6004547f000000000000000000000000000000000000000000000000000000000000000073ffffffffffffffffffffffffffffffffffffffff166370a08231306040518263ffffffff1660e01b815260040161091291906120b4565b602060405180830381865afa15801561092f573d6000803e3d6000fd5b505050506040513d601f19601f8201168201806040525081019061095391906127a8565b1015610994576040517f08c379a000000000000000000000000000000000000000000000000000000000815260040161098b90612821565b60405180910390fd5b6109a2600354600454610e57565b50565b6109ad610dd9565b6109b76000610fa7565b565b6109c1610dd9565b600660098054905014610a09576040517f08c379a0000000000000000000000000000000000000000000000000000000008152600401610a00906128b3565b60405180910390fd5b610a1161106d565b610a19611167565b610a216113a3565b565b600d6020528060005260406000206000915090508060000154908060010154905082565b60085481565b6000600160009054906101000a900473ffffffffffffffffffffffffffffffffffffffff16905090565b7f000000000000000000000000000000000000000000000000000000000000000073ffffffffffffffffffffffffffffffffffffffff163373ffffffffffffffffffffffffffffffffffffffff1614610b05576040517f08c379a0000000000000000000000000000000000000000000000000000000008152600401610afc9061291f565b60405180910390fd5b610b0f8282611425565b5050565b600c6020528160005260406000208181548110610b2f57600080fd5b9060005260206000209060209182820401919006915091509054906101000a900460ff1681565b600a6020528160005260406000208181548110610b7257600080fd5b90600052602060002001600091509150505481565b60075481565b610b95610dd9565b60008111610bd8576040517f08c379a0000000000000000000000000000000000000000000000000000000008152600401610bcf906129b1565b60405180910390fd5b8060068190555050565b610bea610dd9565b600073ffffffffffffffffffffffffffffffffffffffff168173ffffffffffffffffffffffffffffffffffffffff1603610c59576040517f08c379a0000000000000000000000000000000000000000000000000000000008152600401610c5090612a43565b60405180910390fd5b610c6281610fa7565b50565b606060005b60018351610c78919061241d565b811015610dba5760005b6001828551610c91919061241d565b610c9b919061241d565b811015610da65783600182610cb09190612451565b81518110610cc157610cc061232d565b5b602002602001015160ff16848281518110610cdf57610cde61232d565b5b602002602001015160ff161115610d93576000848281518110610d0557610d0461232d565b5b6020026020010151905084600183610d1d9190612451565b81518110610d2e57610d2d61232d565b5b6020026020010151858381518110610d4957610d4861232d565b5b602002602001019060ff16908160ff16815250508085600184610d6c9190612451565b81518110610d7d57610d7c61232d565b5b602002602001019060ff16908160ff1681525050505b8080610d9e906124f1565b915050610c82565b508080610db2906124f1565b915050610c6a565b50819050919050565b60008183610dd19190612451565b905092915050565b610de16116d4565b73ffffffffffffffffffffffffffffffffffffffff16610dff610a4d565b73ffffffffffffffffffffffffffffffffffffffff1614610e55576040517f08c379a0000000000000000000000000000000000000000000000000000000008152600401610e4c90612aaf565b60405180910390fd5b565b60007f000000000000000000000000000000000000000000000000000000000000000073ffffffffffffffffffffffffffffffffffffffff16634000aea07f000000000000000000000000000000000000000000000000000000000000000084866000604051602001610ecb929190612ade565b6040516020818303038152906040526040518463ffffffff1660e01b8152600401610ef893929190612b86565b6020604051808303816000875af1158015610f17573d6000803e3d6000fd5b505050506040513d601f19601f82011682018060405250810190610f3b9190612bfc565b506000610f5d84600030600080898152602001908152602001600020546116dc565b9050600160008086815260200190815260200160002054610f7e9190612451565b60008086815260200190815260200160002081905550610f9e8482611718565b91505092915050565b6000600160009054906101000a900473ffffffffffffffffffffffffffffffffffffffff16905081600160006101000a81548173ffffffffffffffffffffffffffffffffffffffff021916908373ffffffffffffffffffffffffffffffffffffffff1602179055508173ffffffffffffffffffffffffffffffffffffffff168173ffffffffffffffffffffffffffffffffffffffff167f8be0079c531659141344cd1fd0a4f28419497f9722a3daafe3b4186f6b6457e060405160405180910390a35050565b6000600190505b60075481116111645760006110888261174b565b90506004811061115057600d600060085481526020019081526020016000206003016000828152602001908152602001600020600b600084815260200190815260200160002060009054906101000a900473ffffffffffffffffffffffffffffffffffffffff169080600181540180825580915050600190039060005260206000200160009091909190916101000a81548173ffffffffffffffffffffffffffffffffffffffff021916908373ffffffffffffffffffffffffffffffffffffffff1602179055505b50808061115c906124f1565b915050611074565b50565b6000479050600081905060006064600a836111829190612c29565b61118c9190612c9a565b9050611196610a4d565b73ffffffffffffffffffffffffffffffffffffffff166108fc829081150290604051600060405180830381858888f193505050501580156111db573d6000803e3d6000fd5b506000600690505b60048160ff1610611375576000600d6000600854815260200190815260200160002060030160008360ff168152602001908152602001600020805490509050600081611232878560ff16611894565b61123c9190612c9a565b905060005b8281101561135f576000600d6000600854815260200190815260200160002060030160008660ff16815260200190815260200160002082815481106112895761128861232d565b5b9060005260206000200160009054906101000a900473ffffffffffffffffffffffffffffffffffffffff1690508073ffffffffffffffffffffffffffffffffffffffff166108fc849081150290604051600060405180830381858888f193505050501580156112fc573d6000803e3d6000fd5b508073ffffffffffffffffffffffffffffffffffffffff167f95681e512bc0fe659e195e06c283eada494316f3d801213e48e7101af92bf770846040516113439190611d81565b60405180910390a2508080611357906124f1565b915050611241565b505050808061136d90612ccb565b9150506111e3565b5061137f83611963565b600754600d6000600854815260200190815260200160002060010181905550505050565b600860008154809291906113b6906124f1565b91905055506000600781905550600067ffffffffffffffff8111156113de576113dd611eb2565b5b60405190808252806020026020018201604052801561140c5781602001602082028036833780820191505090505b5060099080519060200190611422929190611ca4565b50565b806005819055506000603267ffffffffffffffff81111561144957611448611eb2565b5b6040519080825280602002602001820160405280156114775781602001602082028036833780820191505090505b5090506000805b60068110156115ba5760006001603260055461149a9190612cf4565b6114a49190612451565b90506032600560008282546114b99190612c9a565b925050819055506000805b8481101561150f578260ff168682815181106114e3576114e261232d565b5b602002602001015160ff16036114fc576001915061150f565b8080611507906124f1565b9150506114c4565b50806115b35781858580611522906124f1565b9650815181106115355761153461232d565b5b602002602001019060ff16908160ff1681525050600d600060085481526020019081526020016000206002018290806001815401808255809150506001900390600052602060002090602091828204019190069091909190916101000a81548160ff021916908360ff16021790555082806115af906124f1565b9350505b505061147e565b61164f600d6000600854815260200190815260200160002060020180548060200260200160405190810160405280929190818152602001828054801561164557602002820191906000526020600020906000905b82829054906101000a900460ff1660ff168152602001906001019060208260000104928301926001038202915080841161160e5790505b5050505050610c65565b600d60006008548152602001908152602001600020600201908051906020019061167a929190611ca4565b507facdd977f06d88d990c56c596f96141830d83e7fc86f94424a37de0f5e0532e69600854600d600060085481526020019081526020016000206002016040516116c5929190613a78565b60405180910390a15050505050565b600033905090565b6000848484846040516020016116f59493929190613aa8565b6040516020818303038152906040528051906020012060001c9050949350505050565b6000828260405160200161172d929190613b2f565b60405160208183030381529060405280519060200120905092915050565b600080600c60008481526020019081526020016000208054806020026020016040519081016040528092919081815260200182805480156117d157602002820191906000526020600020906000905b82829054906101000a900460ff1660ff168152602001906001019060208260000104928301926001038202915080841161179a5790505b505050505090506000805b82518110156118895760005b60098054905081101561187557600981815481106118095761180861232d565b5b90600052602060002090602091828204019190069054906101000a900460ff1660ff1684838151811061183f5761183e61232d565b5b602002602001015160ff160361186257828061185a906124f1565b935050611875565b808061186d906124f1565b9150506117e8565b508080611881906124f1565b9150506117dc565b508092505050919050565b600080600683036118d7576118a96006611c52565b90508060646032866118bb9190612c29565b6118c59190612c9a565b6118cf9190612c9a565b91505061195d565b60058303611917576118e96005611c52565b90508060646019866118fb9190612c29565b6119059190612c9a565b61190f9190612c9a565b91505061195d565b60048303611957576119296004611c52565b9050806064600a8661193b9190612c29565b6119459190612c9a565b61194f9190612c9a565b91505061195d565b60009150505b92915050565b600060646005836119749190612c29565b61197e9190612c9a565b9050600080600190505b6007548111611a93576000600b600083815260200190815260200160002060009054906101000a900473ffffffffffffffffffffffffffffffffffffffff1690506000600260009054906101000a900473ffffffffffffffffffffffffffffffffffffffff1673ffffffffffffffffffffffffffffffffffffffff166370a08231836040518263ffffffff1660e01b8152600401611a2691906120b4565b602060405180830381865afa158015611a43573d6000803e3d6000fd5b505050506040513d601f19601f82011682018060405250810190611a6791906127a8565b9050611a7c8185610dc390919063ffffffff16565b935050508080611a8b906124f1565b915050611988565b506000600190505b6007548111611c4c576000600b600083815260200190815260200160002060009054906101000a900473ffffffffffffffffffffffffffffffffffffffff1690506000600260009054906101000a900473ffffffffffffffffffffffffffffffffffffffff1673ffffffffffffffffffffffffffffffffffffffff166370a08231836040518263ffffffff1660e01b8152600401611b3991906120b4565b602060405180830381865afa158015611b56573d6000803e3d6000fd5b505050506040513d601f19601f82011682018060405250810190611b7a91906127a8565b90506000811115611c37576000848287611b949190612c29565b611b9e9190612c9a565b90508273ffffffffffffffffffffffffffffffffffffffff166108fc829081150290604051600060405180830381858888f19350505050158015611be6573d6000803e3d6000fd5b508273ffffffffffffffffffffffffffffffffffffffff167f0286f58f3dcaa16e784242f672696ff068857ee598355de9af938efa271b73ca82604051611c2d9190611d81565b60405180910390a2505b50508080611c44906124f1565b915050611a9b565b50505050565b600080600090506000600190505b6007548111611c9a5783611c738261174b565b03611c87578180611c83906124f1565b9250505b8080611c92906124f1565b915050611c60565b5080915050919050565b82805482825590600052602060002090601f01602090048101928215611d3a5791602002820160005b83821115611d0b57835183826101000a81548160ff021916908360ff1602179055509260200192600101602081600001049283019260010302611ccd565b8015611d385782816101000a81549060ff0219169055600101602081600001049283019260010302611d0b565b505b509050611d479190611d4b565b5090565b5b80821115611d64576000816000905550600101611d4c565b5090565b6000819050919050565b611d7b81611d68565b82525050565b6000602082019050611d966000830184611d72565b92915050565b6000604051905090565b600080fd5b600080fd5b611db981611d68565b8114611dc457600080fd5b50565b600081359050611dd681611db0565b92915050565b600060208284031215611df257611df1611da6565b5b6000611e0084828501611dc7565b91505092915050565b600060ff82169050919050565b611e1f81611e09565b82525050565b6000602082019050611e3a6000830184611e16565b92915050565b600073ffffffffffffffffffffffffffffffffffffffff82169050919050565b6000611e6b82611e40565b9050919050565b611e7b81611e60565b82525050565b6000602082019050611e966000830184611e72565b92915050565b600080fd5b6000601f19601f8301169050919050565b7f4e487b7100000000000000000000000000000000000000000000000000000000600052604160045260246000fd5b611eea82611ea1565b810181811067ffffffffffffffff82111715611f0957611f08611eb2565b5b80604052505050565b6000611f1c611d9c565b9050611f288282611ee1565b919050565b600067ffffffffffffffff821115611f4857611f47611eb2565b5b602082029050602081019050919050565b600080fd5b611f6781611e09565b8114611f7257600080fd5b50565b600081359050611f8481611f5e565b92915050565b6000611f9d611f9884611f2d565b611f12565b90508083825260208201905060208402830185811115611fc057611fbf611f59565b5b835b81811015611fe95780611fd58882611f75565b845260208401935050602081019050611fc2565b5050509392505050565b600082601f83011261200857612007611e9c565b5b8135612018848260208601611f8a565b91505092915050565b60006020828403121561203757612036611da6565b5b600082013567ffffffffffffffff81111561205557612054611dab565b5b61206184828501611ff3565b91505092915050565b600060408201905061207f6000830185611d72565b61208c6020830184611d72565b9392505050565b600061209e82611e40565b9050919050565b6120ae81612093565b82525050565b60006020820190506120c960008301846120a5565b92915050565b6000819050919050565b6120e2816120cf565b81146120ed57600080fd5b50565b6000813590506120ff816120d9565b92915050565b6000806040838503121561211c5761211b611da6565b5b600061212a858286016120f0565b925050602061213b85828601611dc7565b9150509250929050565b6000806040838503121561215c5761215b611da6565b5b600061216a85828601611dc7565b925050602061217b85828601611dc7565b9150509250929050565b61218e81612093565b811461219957600080fd5b50565b6000813590506121ab81612185565b92915050565b600080604083850312156121c8576121c7611da6565b5b60006121d68582860161219c565b92505060206121e785828601611dc7565b9150509250929050565b60006020828403121561220757612206611da6565b5b60006122158482850161219c565b91505092915050565b600082825260208201905092915050565b7f496e636f7272656374207469636b65742070726963652e000000000000000000600082015250565b600061226560178361221e565b91506122708261222f565b602082019050919050565b6000602082019050818103600083015261229481612258565b9050919050565b7f596f75206d7573742070726f766964652065786163746c79203620756e69717560008201527f65206e756d626572732e00000000000000000000000000000000000000000000602082015250565b60006122f7602a8361221e565b91506123028261229b565b604082019050919050565b60006020820190508181036000830152612326816122ea565b9050919050565b7f4e487b7100000000000000000000000000000000000000000000000000000000600052603260045260246000fd5b7f4e756d62657273206d757374206265206265747765656e203120616e6420353060008201527f2e00000000000000000000000000000000000000000000000000000000000000602082015250565b60006123b860218361221e565b91506123c38261235c565b604082019050919050565b600060208201905081810360008301526123e7816123ab565b9050919050565b7f4e487b7100000000000000000000000000000000000000000000000000000000600052601160045260246000fd5b600061242882611d68565b915061243383611d68565b925082820390508181111561244b5761244a6123ee565b5b92915050565b600061245c82611d68565b915061246783611d68565b925082820190508082111561247f5761247e6123ee565b5b92915050565b7f4e756d62657273206d75737420626520756e697175652e000000000000000000600082015250565b60006124bb60178361221e565b91506124c682612485565b602082019050919050565b600060208201905081810360008301526124ea816124ae565b9050919050565b60006124fc82611d68565b91507fffffffffffffffffffffffffffffffffffffffffffffffffffffffffffffffff820361252e5761252d6123ee565b5b600182019050919050565b600081519050919050565b600082825260208201905092915050565b6000819050602082019050919050565b61256e81611e09565b82525050565b60006125808383612565565b60208301905092915050565b6000602082019050919050565b60006125a482612539565b6125ae8185612544565b93506125b983612555565b8060005b838110156125ea5781516125d18882612574565b97506125dc8361258c565b9250506001810190506125bd565b5085935050505092915050565b600060408201905061260c6000830185611d72565b818103602083015261261e8184612599565b90509392505050565b6000819050919050565b6000819050919050565b600061265661265161264c84612627565b612631565b611d68565b9050919050565b6126668161263b565b82525050565b600060408201905061268160008301856120a5565b61268e602083018461265d565b9392505050565b7f4e6f207469636b6574732068617665206265656e20736f6c642e000000000000600082015250565b60006126cb601a8361221e565b91506126d682612695565b602082019050919050565b600060208201905081810360008301526126fa816126be565b9050919050565b7f57696e6e696e67206e756d62657273206861766520616c72656164792062656560008201527f6e20647261776e2e000000000000000000000000000000000000000000000000602082015250565b600061275d60288361221e565b915061276882612701565b604082019050919050565b6000602082019050818103600083015261278c81612750565b9050919050565b6000815190506127a281611db0565b92915050565b6000602082840312156127be576127bd611da6565b5b60006127cc84828501612793565b91505092915050565b7f4e6f7420656e6f756768204c494e4b20746f2070617920746865206665652e00600082015250565b600061280b601f8361221e565b9150612816826127d5565b602082019050919050565b6000602082019050818103600083015261283a816127fe565b9050919050565b7f57696e6e696e67206e756d626572732068617665206e6f74206265656e20647260008201527f61776e207965742e000000000000000000000000000000000000000000000000602082015250565b600061289d60288361221e565b91506128a882612841565b604082019050919050565b600060208201905081810360008301526128cc81612890565b9050919050565b7f4f6e6c7920565246436f6f7264696e61746f722063616e2066756c66696c6c00600082015250565b6000612909601f8361221e565b9150612914826128d3565b602082019050919050565b60006020820190508181036000830152612938816128fc565b9050919050565b7f4e6577207469636b6574207072696365206d757374206265206772656174657260008201527f207468616e20302e000000000000000000000000000000000000000000000000602082015250565b600061299b60288361221e565b91506129a68261293f565b604082019050919050565b600060208201905081810360008301526129ca8161298e565b9050919050565b7f4f776e61626c653a206e6577206f776e657220697320746865207a65726f206160008201527f6464726573730000000000000000000000000000000000000000000000000000602082015250565b6000612a2d60268361221e565b9150612a38826129d1565b604082019050919050565b60006020820190508181036000830152612a5c81612a20565b9050919050565b7f4f776e61626c653a2063616c6c6572206973206e6f7420746865206f776e6572600082015250565b6000612a9960208361221e565b9150612aa482612a63565b602082019050919050565b60006020820190508181036000830152612ac881612a8c565b9050919050565b612ad8816120cf565b82525050565b6000604082019050612af36000830185612acf565b612b006020830184611d72565b9392505050565b600081519050919050565b600082825260208201905092915050565b60005b83811015612b41578082015181840152602081019050612b26565b60008484015250505050565b6000612b5882612b07565b612b628185612b12565b9350612b72818560208601612b23565b612b7b81611ea1565b840191505092915050565b6000606082019050612b9b60008301866120a5565b612ba86020830185611d72565b8181036040830152612bba8184612b4d565b9050949350505050565b60008115159050919050565b612bd981612bc4565b8114612be457600080fd5b50565b600081519050612bf681612bd0565b92915050565b600060208284031215612c1257612c11611da6565b5b6000612c2084828501612be7565b91505092915050565b6000612c3482611d68565b9150612c3f83611d68565b9250828202612c4d81611d68565b91508282048414831517612c6457612c636123ee565b5b5092915050565b7f4e487b7100000000000000000000000000000000000000000000000000000000600052601260045260246000fd5b6000612ca582611d68565b9150612cb083611d68565b925082612cc057612cbf612c6b565b5b828204905092915050565b6000612cd682611e09565b915060008203612ce957612ce86123ee565b5b600182039050919050565b6000612cff82611d68565b9150612d0a83611d68565b925082612d1a57612d19612c6b565b5b828206905092915050565b600081549050919050565b60008190508160005260206000209050919050565b60008160001c9050919050565b600060ff82169050919050565b6000612d72612d6d83612d45565b612d52565b9050919050565b60008160081c9050919050565b6000612d99612d9483612d79565b612d52565b9050919050565b60008160101c9050919050565b6000612dc0612dbb83612da0565b612d52565b9050919050565b60008160181c9050919050565b6000612de7612de283612dc7565b612d52565b9050919050565b60008160201c9050919050565b6000612e0e612e0983612dee565b612d52565b9050919050565b60008160281c9050919050565b6000612e35612e3083612e15565b612d52565b9050919050565b60008160301c9050919050565b6000612e5c612e5783612e3c565b612d52565b9050919050565b60008160381c9050919050565b6000612e83612e7e83612e63565b612d52565b9050919050565b60008160401c9050919050565b6000612eaa612ea583612e8a565b612d52565b9050919050565b60008160481c9050919050565b6000612ed1612ecc83612eb1565b612d52565b9050919050565b60008160501c9050919050565b6000612ef8612ef383612ed8565b612d52565b9050919050565b60008160581c9050919050565b6000612f1f612f1a83612eff565b612d52565b9050919050565b60008160601c9050919050565b6000612f46612f4183612f26565b612d52565b9050919050565b60008160681c9050919050565b6000612f6d612f6883612f4d565b612d52565b9050919050565b60008160701c9050919050565b6000612f94612f8f83612f74565b612d52565b9050919050565b60008160781c9050919050565b6000612fbb612fb683612f9b565b612d52565b9050919050565b60008160801c9050919050565b6000612fe2612fdd83612fc2565b612d52565b9050919050565b60008160881c9050919050565b600061300961300483612fe9565b612d52565b9050919050565b60008160901c9050919050565b600061303061302b83613010565b612d52565b9050919050565b60008160981c9050919050565b600061305761305283613037565b612d52565b9050919050565b60008160a01c9050919050565b600061307e6130798361305e565b612d52565b9050919050565b60008160a81c9050919050565b60006130a56130a083613085565b612d52565b9050919050565b60008160b01c9050919050565b60006130cc6130c7836130ac565b612d52565b9050919050565b60008160b81c9050919050565b60006130f36130ee836130d3565b612d52565b9050919050565b60008160c01c9050919050565b600061311a613115836130fa565b612d52565b9050919050565b60008160c81c9050919050565b600061314161313c83613121565b612d52565b9050919050565b60008160d01c9050919050565b600061316861316383613148565b612d52565b9050919050565b60008160d81c9050919050565b600061318f61318a8361316f565b612d52565b9050919050565b60008160e01c9050919050565b60006131b66131b183613196565b612d52565b9050919050565b60008160e81c9050919050565b60006131dd6131d8836131bd565b612d52565b9050919050565b60008160f01c9050919050565b60006132046131ff836131e4565b612d52565b9050919050565b60008160f81c9050919050565b600061322b6132268361320b565b612d52565b9050919050565b600061323d82612d25565b6132478185612544565b93508361325384612d30565b6000600115613580575b8360016020038201101561357f57815461327f8861327a83612d5f565b612565565b6020880197506132978861329283612d86565b612565565b6020880197506132af886132aa83612dad565b612565565b6020880197506132c7886132c283612dd4565b612565565b6020880197506132df886132da83612dfb565b612565565b6020880197506132f7886132f283612e22565b612565565b60208801975061330f8861330a83612e49565b612565565b6020880197506133278861332283612e70565b612565565b60208801975061333f8861333a83612e97565b612565565b6020880197506133578861335283612ebe565b612565565b60208801975061336f8861336a83612ee5565b612565565b6020880197506133878861338283612f0c565b612565565b60208801975061339f8861339a83612f33565b612565565b6020880197506133b7886133b283612f5a565b612565565b6020880197506133cf886133ca83612f81565b612565565b6020880197506133e7886133e283612fa8565b612565565b6020880197506133ff886133fa83612fcf565b612565565b6020880197506134178861341283612ff6565b612565565b60208801975061342f8861342a8361301d565b612565565b6020880197506134478861344283613044565b612565565b60208801975061345f8861345a8361306b565b612565565b6020880197506134778861347283613092565b612565565b60208801975061348f8861348a836130b9565b612565565b6020880197506134a7886134a2836130e0565b612565565b6020880197506134bf886134ba83613107565b612565565b6020880197506134d7886134d28361312e565b612565565b6020880197506134ef886134ea83613155565b612565565b602088019750613507886135028361317c565b612565565b60208801975061351f8861351a836131a3565b612565565b60208801975061353788613532836131ca565b612565565b60208801975061354f8861354a836131f1565b612565565b6020880197506135678861356283613218565b612565565b6020880197506001830192505060208101905061325d565b5b600115613a6b578154848210156135b0576135a38861359e83612d5f565b612565565b6020880197506001820191505b848210156135d7576135ca886135c583612d86565b612565565b6020880197506001820191505b848210156135fe576135f1886135ec83612dad565b612565565b6020880197506001820191505b84821015613625576136188861361383612dd4565b612565565b6020880197506001820191505b8482101561364c5761363f8861363a83612dfb565b612565565b6020880197506001820191505b84821015613673576136668861366183612e22565b612565565b6020880197506001820191505b8482101561369a5761368d8861368883612e49565b612565565b6020880197506001820191505b848210156136c1576136b4886136af83612e70565b612565565b6020880197506001820191505b848210156136e8576136db886136d683612e97565b612565565b6020880197506001820191505b8482101561370f57613702886136fd83612ebe565b612565565b6020880197506001820191505b84821015613736576137298861372483612ee5565b612565565b6020880197506001820191505b8482101561375d576137508861374b83612f0c565b612565565b6020880197506001820191505b84821015613784576137778861377283612f33565b612565565b6020880197506001820191505b848210156137ab5761379e8861379983612f5a565b612565565b6020880197506001820191505b848210156137d2576137c5886137c083612f81565b612565565b6020880197506001820191505b848210156137f9576137ec886137e783612fa8565b612565565b6020880197506001820191505b84821015613820576138138861380e83612fcf565b612565565b6020880197506001820191505b848210156138475761383a8861383583612ff6565b612565565b6020880197506001820191505b8482101561386e576138618861385c8361301d565b612565565b6020880197506001820191505b84821015613895576138888861388383613044565b612565565b6020880197506001820191505b848210156138bc576138af886138aa8361306b565b612565565b6020880197506001820191505b848210156138e3576138d6886138d183613092565b612565565b6020880197506001820191505b8482101561390a576138fd886138f8836130b9565b612565565b6020880197506001820191505b84821015613931576139248861391f836130e0565b612565565b6020880197506001820191505b848210156139585761394b8861394683613107565b612565565b6020880197506001820191505b8482101561397f576139728861396d8361312e565b612565565b6020880197506001820191505b848210156139a6576139998861399483613155565b612565565b6020880197506001820191505b848210156139cd576139c0886139bb8361317c565b612565565b6020880197506001820191505b848210156139f4576139e7886139e2836131a3565b612565565b6020880197506001820191505b84821015613a1b57613a0e88613a09836131ca565b612565565b6020880197506001820191505b84821015613a4257613a3588613a30836131f1565b612565565b6020880197506001820191505b84821015613a6957613a5c88613a5783613218565b612565565b6020880197506001820191505b505b8694505050505092915050565b6000604082019050613a8d6000830185611d72565b8181036020830152613a9f8184613232565b90509392505050565b6000608082019050613abd6000830187612acf565b613aca6020830186611d72565b613ad760408301856120a5565b613ae46060830184611d72565b95945050505050565b6000819050919050565b613b08613b03826120cf565b613aed565b82525050565b6000819050919050565b613b29613b2482611d68565b613b0e565b82525050565b6000613b3b8285613af7565b602082019150613b4b8284613b18565b602082019150819050939250505056fea26469706673582212209d64776fb565e8098bc6c314a57e81ab0420e81f463ff93d3a16c16fc899158964736f6c63430008120033",
  "immutableReferences": {
    "73": [
      {
        "length": 32,
        "start": 2235
      },
      {
        "length": 32,
        "start": 3675
      }
    ],
    "75": [
      {
        "length": 32,
        "start": 2681
      },
      {
        "length": 32,
        "start": 3735
      }
    ]
  },
  "source": "pragma solidity ^0.8.0;\n\nimport \"@openzeppelin/contracts/utils/math/SafeMath.sol\";\nimport \"@openzeppelin/contracts/access/Ownable.sol\";\nimport \"@chainlink/contracts/src/v0.8/VRFConsumerBase.sol\";\nimport \"./interfaces/ILottoToken.sol\";\n\ncontract Game is VRFConsumerBase, Ownable {\n    using SafeMath for uint256;\n\n    struct Round {\n        uint256 roundId;\n        uint256 ticketsSold;\n        uint8[] winningNumbers;\n        mapping(uint256 => address[]) winners;\n    }\n\n    ILottoToken token;\n\n    bytes32 private keyHash;\n    uint256 private fee;\n    uint256 public randomResult;\n\n    uint256 public ticketPrice;\n    uint256 public ticketCount;\n    uint256 public roundId;\n    uint8[] public winningNumbers;\n\n    mapping(address => uint256[]) public userTickets;\n    mapping(uint256 => address payable) public tickets;\n    mapping(uint256 => uint8[]) public ticketNumbers;\n    mapping(uint256 => Round) public rounds;\n\n    event TicketPurchased(\n        address indexed buyer,\n        uint256 ticketCount,\n        uint8[] numbers\n    );\n    event WinningNumbers(uint256 roundId, uint8[] numbers);\n    event PrizeClaimed(address indexed winner, uint256 amount);\n    event TokenHolderPrizeClaimed(address indexed winner, uint256 amount);\n\n    constructor(\n        uint256 _ticketPrice,\n        address _lottoToken,\n        address vrfCoordinator,\n        address linkToken,\n        bytes32 _keyHash,\n        uint256 _fee\n    ) VRFConsumerBase(vrfCoordinator, linkToken) {\n        ticketPrice = _ticketPrice;\n        token = ILottoToken(_lottoToken);\n        keyHash = _keyHash;\n        fee = _fee;\n        roundId = 1;\n    }\n\n    // Update the ticket price (only callable by the contract owner)\n    function updateTicketPrice(uint256 newTicketPrice) public onlyOwner {\n        require(newTicketPrice > 0, \"New ticket price must be greater than 0.\");\n        ticketPrice = newTicketPrice;\n    }\n\n    // Buy a ticket with 6 unique numbers, mint a token for the buyer\n    function buyTicket(uint8[] memory numbers) public payable {\n        require(msg.value == ticketPrice, \"Incorrect ticket price.\");\n        require(\n            numbers.length == 6,\n            \"You must provide exactly 6 unique numbers.\"\n        );\n\n        // Sort the numbers in ascending order\n        uint8[] memory sortedNumbers = _sortNumbers(numbers);\n\n        // Validate the provided numbers\n        for (uint256 i = 0; i < sortedNumbers.length; i++) {\n            require(\n                sortedNumbers[i] >= 1 && sortedNumbers[i] <= 50,\n                \"Numbers must be between 1 and 50.\"\n            );\n            if (i < sortedNumbers.length - 1) {\n                require(\n                    sortedNumbers[i] != sortedNumbers[i + 1],\n                    \"Numbers must be unique.\"\n                );\n            }\n        }\n\n        ticketCount = ticketCount.add(1);\n        tickets[ticketCount] = payable(msg.sender);\n        ticketNumbers[ticketCount] = sortedNumbers;\n        userTickets[msg.sender].push(ticketCount);\n        emit TicketPurchased(msg.sender, ticketCount, sortedNumbers);\n\n        // Mint a token for the user\n        token.mint(msg.sender, 1);\n    }\n\n    // Draw winning numbers using Chainlink VRF\n    function drawWinningNumbers() external onlyOwner {\n        require(ticketCount > 0, \"No tickets have been sold.\");\n        require(\n            winningNumbers.length == 0,\n            \"Winning numbers have already been drawn.\"\n        );\n        require(\n            LINK.balanceOf(address(this)) >= fee,\n            \"Not enough LINK to pay the fee.\"\n        );\n\n        requestRandomness(keyHash, fee);\n    }\n\n    // Fulfill randomness from Chainlink VRF and distribute prizes\n    function fulfillRandomness(\n        bytes32 requestId,\n        uint256 randomness\n    ) internal override {\n        randomResult = randomness;\n\n        // Generate unique winning numbers\n        uint8[] memory usedNumbers = new uint8[](50);\n        uint256 usedCount = 0;\n        uint256 generatedNumbers = 0;\n        while (generatedNumbers < 6) {\n            uint8 newNumber = uint8((randomResult % 50) + 1);\n            randomResult /= 50;\n\n            bool isNumberUsed = false;\n            for (uint256 i = 0; i < usedCount; i++) {\n                if (usedNumbers[i] == newNumber) {\n                    isNumberUsed = true;\n                    break;\n                }\n            }\n\n            if (!isNumberUsed) {\n                usedNumbers[usedCount++] = newNumber;\n                rounds[roundId].winningNumbers.push(newNumber);\n                generatedNumbers++;\n            }\n        }\n\n        // Sort winning numbers\n        rounds[roundId].winningNumbers = _sortNumbers(\n            rounds[roundId].winningNumbers\n        );\n        emit WinningNumbers(roundId, rounds[roundId].winningNumbers);\n    }\n\n    function distributePrizes() external onlyOwner {\n        require(\n            winningNumbers.length == 6,\n            \"Winning numbers have not been drawn yet.\"\n        );\n        // Update the winners\n        _updateWinners();\n\n        // Calculate and distribute prizes\n        _distributePrizes();\n\n        // Start a new round\n        _reset();\n    }\n\n    // Distribute prizes among the winners\n    function _distributePrizes() private {\n        // Send 10% of the current contract balance to the contract owner\n        uint256 totalPrizePool = address(this).balance;\n        uint256 prizePool = totalPrizePool;\n        uint256 ownerShare = (prizePool * 10) / 100;\n        payable(owner()).transfer(ownerShare);\n\n        // Send out the prizes to the winners\n        for (uint8 correctGuesses = 6; correctGuesses >= 4; correctGuesses--) {\n            uint256 winnerCount = rounds[roundId]\n                .winners[correctGuesses]\n                .length;\n            uint256 prizePerWinner = _calculatePrize(\n                totalPrizePool,\n                correctGuesses\n            ) / winnerCount;\n\n            for (uint256 i = 0; i < winnerCount; i++) {\n                address winner = rounds[roundId].winners[correctGuesses][i];\n                payable(winner).transfer(prizePerWinner);\n                emit PrizeClaimed(winner, prizePerWinner);\n            }\n        }\n\n        // Distribute token holder prizes\n        _distributeTokenHolderPrizes(totalPrizePool);\n\n        // Set the number of tickets sold\n        rounds[roundId].ticketsSold = ticketCount;\n    }\n\n    function _updateWinners() private {\n        for (uint256 i = 1; i <= ticketCount; i++) {\n            uint256 correctGuesses = _getCorrectGuesses(i);\n            if (correctGuesses >= 4) {\n                rounds[roundId].winners[correctGuesses].push(tickets[i]);\n            }\n        }\n    }\n\n    function _distributeTokenHolderPrizes(uint256 totalPrizePool) private {\n        uint256 tokenHolderPrizePool = (totalPrizePool * 5) / 100;\n        uint256 totalTokensHeldByPlayers = 0;\n\n        // Calculate the total tokens held by players who participated in the game\n        for (uint256 i = 1; i <= ticketCount; i++) {\n            address player = tickets[i];\n            uint256 playerTokenBalance = token.balanceOf(player);\n            totalTokensHeldByPlayers = totalTokensHeldByPlayers.add(\n                playerTokenBalance\n            );\n        }\n\n        // Distribute the token holder prize pool based on the number of tokens held by each player\n        for (uint256 i = 1; i <= ticketCount; i++) {\n            address player = tickets[i];\n            uint256 playerTokenBalance = token.balanceOf(player);\n            if (playerTokenBalance > 0) {\n                uint256 playerPrize = (tokenHolderPrizePool *\n                    playerTokenBalance) / totalTokensHeldByPlayers;\n                payable(player).transfer(playerPrize);\n                emit TokenHolderPrizeClaimed(player, playerPrize);\n            }\n        }\n    }\n\n    // Get the count of correct guesses for a given ticket\n    function _getCorrectGuesses(\n        uint256 ticketNumber\n    ) private view returns (uint256) {\n        uint8[] memory userNumbers = ticketNumbers[ticketNumber];\n        uint256 correctGuesses = 0;\n\n        for (uint256 i = 0; i < userNumbers.length; i++) {\n            for (uint256 j = 0; j < winningNumbers.length; j++) {\n                if (userNumbers[i] == winningNumbers[j]) {\n                    correctGuesses++;\n                    break;\n                }\n            }\n        }\n\n        return correctGuesses;\n    }\n\n    // Calculate the prize amount based on the number of correct guesses\n    function _calculatePrize(\n        uint256 prizePool,\n        uint256 correctGuesses\n    ) private view returns (uint256) {\n        uint256 winnerCount;\n\n        if (correctGuesses == 6) {\n            winnerCount = _getWinnerCount(6);\n            return (prizePool * 50) / 100 / winnerCount; // 50% of the prize pool for 6 correct guesses\n        } else if (correctGuesses == 5) {\n            winnerCount = _getWinnerCount(5);\n            return (prizePool * 25) / 100 / winnerCount; // 25% of the prize pool for 5 correct guesses\n        } else if (correctGuesses == 4) {\n            winnerCount = _getWinnerCount(4);\n            return (prizePool * 10) / 100 / winnerCount; // 10% of the prize pool for 4 correct guesses\n        }\n\n        return 0;\n    }\n\n    // Get the count of winners for a specific category (e.g., 6 correct guesses, 5 correct guesses, etc.)\n    function _getWinnerCount(\n        uint256 correctGuesses\n    ) private view returns (uint256) {\n        uint256 winnerCount = 0;\n\n        for (uint256 i = 1; i <= ticketCount; i++) {\n            if (_getCorrectGuesses(i) == correctGuesses) {\n                winnerCount++;\n            }\n        }\n\n        return winnerCount;\n    }\n\n    function _reset() private {\n        roundId++;\n        ticketCount = 0;\n        winningNumbers = new uint8[](0);\n    }\n\n    // Sorts an array of numbers in ascending order using Bubble Sort\n    function _sortNumbers(\n        uint8[] memory numbers\n    ) private pure returns (uint8[] memory) {\n        for (uint256 i = 0; i < numbers.length - 1; i++) {\n            for (uint256 j = 0; j < numbers.length - i - 1; j++) {\n                if (numbers[j] > numbers[j + 1]) {\n                    uint8 temp = numbers[j];\n                    numbers[j] = numbers[j + 1];\n                    numbers[j + 1] = temp;\n                }\n            }\n        }\n        return numbers;\n    }\n}\n",
  "sourcePath": "/home/d4fttasiii/git/gpt-lotto/src/lotto-contract/contracts/Game.sol",
  "compiler": {
    "name": "solc",
    "version": "0.8.18+commit.87f61d96.Emscripten.clang"
  },
  "schemaVersion": "3.4.11",
  "updatedAt": "2023-04-13T10:09:45.678Z",
  "devdoc": {
    "kind": "dev",
    "methods": {
      "owner()": {
        "details": "Returns the address of the current owner."
      },
      "renounceOwnership()": {
        "details": "Leaves the contract without owner. It will not be possible to call `onlyOwner` functions anymore. Can only be called by the current owner. NOTE: Renouncing ownership will leave the contract without an owner, thereby removing any functionality that is only available to the owner."
      },
      "transferOwnership(address)": {
        "details": "Transfers ownership of the contract to a new account (`newOwner`). Can only be called by the current owner."
      }
    },
    "version": 1
  },
  "userdoc": {
    "kind": "user",
    "methods": {},
    "version": 1
  }
}