{
  "contractName": "Game",
  "abi": [
    {
      "inputs": [
        {
          "internalType": "uint256",
          "name": "_ticketPrice",
          "type": "uint256"
        },
        {
          "internalType": "address",
          "name": "_lottoToken",
          "type": "address"
        },
        {
          "internalType": "address",
          "name": "_vrfCoordinator",
          "type": "address"
        },
        {
          "internalType": "address",
          "name": "_linkToken",
          "type": "address"
        },
        {
          "internalType": "bytes32",
          "name": "_keyHash",
          "type": "bytes32"
        },
        {
          "internalType": "uint256",
          "name": "_fee",
          "type": "uint256"
        }
      ],
      "stateMutability": "nonpayable",
      "type": "constructor"
    },
    {
      "anonymous": false,
      "inputs": [
        {
          "indexed": true,
          "internalType": "address",
          "name": "previousOwner",
          "type": "address"
        },
        {
          "indexed": true,
          "internalType": "address",
          "name": "newOwner",
          "type": "address"
        }
      ],
      "name": "OwnershipTransferred",
      "type": "event"
    },
    {
      "anonymous": false,
      "inputs": [
        {
          "indexed": true,
          "internalType": "address",
          "name": "winner",
          "type": "address"
        },
        {
          "indexed": false,
          "internalType": "uint256",
          "name": "amount",
          "type": "uint256"
        }
      ],
      "name": "PrizeClaimed",
      "type": "event"
    },
    {
      "anonymous": false,
      "inputs": [
        {
          "indexed": true,
          "internalType": "address",
          "name": "buyer",
          "type": "address"
        },
        {
          "indexed": false,
          "internalType": "uint256",
          "name": "ticketCount",
          "type": "uint256"
        },
        {
          "indexed": false,
          "internalType": "uint8[]",
          "name": "numbers",
          "type": "uint8[]"
        }
      ],
      "name": "TicketPurchased",
      "type": "event"
    },
    {
      "anonymous": false,
      "inputs": [
        {
          "indexed": true,
          "internalType": "address",
          "name": "winner",
          "type": "address"
        },
        {
          "indexed": false,
          "internalType": "uint256",
          "name": "amount",
          "type": "uint256"
        }
      ],
      "name": "TokenHolderPrizeClaimed",
      "type": "event"
    },
    {
      "anonymous": false,
      "inputs": [
        {
          "indexed": false,
          "internalType": "uint256",
          "name": "roundId",
          "type": "uint256"
        },
        {
          "indexed": false,
          "internalType": "uint8[]",
          "name": "numbers",
          "type": "uint8[]"
        }
      ],
      "name": "WinningNumbers",
      "type": "event"
    },
    {
      "inputs": [],
      "name": "owner",
      "outputs": [
        {
          "internalType": "address",
          "name": "",
          "type": "address"
        }
      ],
      "stateMutability": "view",
      "type": "function"
    },
    {
      "inputs": [],
      "name": "randomResult",
      "outputs": [
        {
          "internalType": "uint256",
          "name": "",
          "type": "uint256"
        }
      ],
      "stateMutability": "view",
      "type": "function"
    },
    {
      "inputs": [
        {
          "internalType": "bytes32",
          "name": "requestId",
          "type": "bytes32"
        },
        {
          "internalType": "uint256",
          "name": "randomness",
          "type": "uint256"
        }
      ],
      "name": "rawFulfillRandomness",
      "outputs": [],
      "stateMutability": "nonpayable",
      "type": "function"
    },
    {
      "inputs": [],
      "name": "renounceOwnership",
      "outputs": [],
      "stateMutability": "nonpayable",
      "type": "function"
    },
    {
      "inputs": [],
      "name": "roundId",
      "outputs": [
        {
          "internalType": "uint256",
          "name": "",
          "type": "uint256"
        }
      ],
      "stateMutability": "view",
      "type": "function"
    },
    {
      "inputs": [
        {
          "internalType": "uint256",
          "name": "",
          "type": "uint256"
        }
      ],
      "name": "rounds",
      "outputs": [
        {
          "internalType": "uint256",
          "name": "roundId",
          "type": "uint256"
        },
        {
          "internalType": "uint256",
          "name": "ticketsSold",
          "type": "uint256"
        },
        {
          "internalType": "uint256",
          "name": "drawnAt",
          "type": "uint256"
        },
        {
          "internalType": "uint256",
          "name": "prizePool",
          "type": "uint256"
        }
      ],
      "stateMutability": "view",
      "type": "function"
    },
    {
      "inputs": [],
      "name": "ticketCount",
      "outputs": [
        {
          "internalType": "uint256",
          "name": "",
          "type": "uint256"
        }
      ],
      "stateMutability": "view",
      "type": "function"
    },
    {
      "inputs": [
        {
          "internalType": "uint256",
          "name": "",
          "type": "uint256"
        },
        {
          "internalType": "uint256",
          "name": "",
          "type": "uint256"
        }
      ],
      "name": "ticketNumbers",
      "outputs": [
        {
          "internalType": "uint8",
          "name": "",
          "type": "uint8"
        }
      ],
      "stateMutability": "view",
      "type": "function"
    },
    {
      "inputs": [],
      "name": "ticketPrice",
      "outputs": [
        {
          "internalType": "uint256",
          "name": "",
          "type": "uint256"
        }
      ],
      "stateMutability": "view",
      "type": "function"
    },
    {
      "inputs": [
        {
          "internalType": "uint256",
          "name": "",
          "type": "uint256"
        }
      ],
      "name": "tickets",
      "outputs": [
        {
          "internalType": "address payable",
          "name": "",
          "type": "address"
        }
      ],
      "stateMutability": "view",
      "type": "function"
    },
    {
      "inputs": [
        {
          "internalType": "address",
          "name": "newOwner",
          "type": "address"
        }
      ],
      "name": "transferOwnership",
      "outputs": [],
      "stateMutability": "nonpayable",
      "type": "function"
    },
    {
      "inputs": [
        {
          "internalType": "address",
          "name": "",
          "type": "address"
        },
        {
          "internalType": "uint256",
          "name": "",
          "type": "uint256"
        }
      ],
      "name": "userTickets",
      "outputs": [
        {
          "internalType": "uint256",
          "name": "",
          "type": "uint256"
        }
      ],
      "stateMutability": "view",
      "type": "function"
    },
    {
      "inputs": [
        {
          "internalType": "uint256",
          "name": "newTicketPrice",
          "type": "uint256"
        }
      ],
      "name": "updateTicketPrice",
      "outputs": [],
      "stateMutability": "nonpayable",
      "type": "function"
    },
    {
      "inputs": [
        {
          "internalType": "uint8[]",
          "name": "numbers",
          "type": "uint8[]"
        }
      ],
      "name": "buyTicket",
      "outputs": [],
      "stateMutability": "payable",
      "type": "function"
    },
    {
      "inputs": [
        {
          "internalType": "address",
          "name": "account",
          "type": "address"
        }
      ],
      "name": "getTicketsByAddress",
      "outputs": [
        {
          "internalType": "uint256[]",
          "name": "",
          "type": "uint256[]"
        }
      ],
      "stateMutability": "view",
      "type": "function"
    },
    {
      "inputs": [
        {
          "internalType": "uint256",
          "name": "ticketNr",
          "type": "uint256"
        }
      ],
      "name": "getTicketNumbers",
      "outputs": [
        {
          "internalType": "uint8[]",
          "name": "",
          "type": "uint8[]"
        }
      ],
      "stateMutability": "view",
      "type": "function"
    },
    {
      "inputs": [
        {
          "internalType": "uint256",
          "name": "roundNr",
          "type": "uint256"
        }
      ],
      "name": "getRoundWinningNumbers",
      "outputs": [
        {
          "internalType": "uint8[]",
          "name": "",
          "type": "uint8[]"
        }
      ],
      "stateMutability": "view",
      "type": "function"
    },
    {
      "inputs": [
        {
          "internalType": "uint256",
          "name": "roundNr",
          "type": "uint256"
        }
      ],
      "name": "getRound",
      "outputs": [
        {
          "internalType": "uint256",
          "name": "ticketsSold",
          "type": "uint256"
        },
        {
          "internalType": "uint256",
          "name": "drawnAt",
          "type": "uint256"
        },
        {
          "internalType": "uint256",
          "name": "prizePool",
          "type": "uint256"
        },
        {
          "internalType": "uint8[]",
          "name": "",
          "type": "uint8[]"
        }
      ],
      "stateMutability": "view",
      "type": "function"
    },
    {
      "inputs": [
        {
          "internalType": "uint256",
          "name": "roundNr",
          "type": "uint256"
        }
      ],
      "name": "getRoundWinners",
      "outputs": [
        {
          "internalType": "address[]",
          "name": "matchOne",
          "type": "address[]"
        },
        {
          "internalType": "address[]",
          "name": "matchTwo",
          "type": "address[]"
        },
        {
          "internalType": "address[]",
          "name": "matchThree",
          "type": "address[]"
        },
        {
          "internalType": "address[]",
          "name": "matchFour",
          "type": "address[]"
        },
        {
          "internalType": "address[]",
          "name": "matchFive",
          "type": "address[]"
        },
        {
          "internalType": "address[]",
          "name": "matchSix",
          "type": "address[]"
        }
      ],
      "stateMutability": "view",
      "type": "function"
    },
    {
      "inputs": [],
      "name": "drawWinningNumbers",
      "outputs": [],
      "stateMutability": "nonpayable",
      "type": "function"
    },
    {
      "inputs": [],
      "name": "distributePrizes",
      "outputs": [],
      "stateMutability": "nonpayable",
      "type": "function"
    }
  ],
  "bytecode": "0x60c06040523480156200001157600080fd5b5060405162004b0f38038062004b0f8339818101604052810190620000379190620002db565b83838173ffffffffffffffffffffffffffffffffffffffff1660a08173ffffffffffffffffffffffffffffffffffffffff16815250508073ffffffffffffffffffffffffffffffffffffffff1660808173ffffffffffffffffffffffffffffffffffffffff16815250505050620000c3620000b76200012d60201b60201c565b6200013560201b60201c565b8560068190555084600260006101000a81548173ffffffffffffffffffffffffffffffffffffffff021916908373ffffffffffffffffffffffffffffffffffffffff1602179055508160038190555080600481905550600160088190555050505050505062000377565b600033905090565b6000600160009054906101000a900473ffffffffffffffffffffffffffffffffffffffff16905081600160006101000a81548173ffffffffffffffffffffffffffffffffffffffff021916908373ffffffffffffffffffffffffffffffffffffffff1602179055508173ffffffffffffffffffffffffffffffffffffffff168173ffffffffffffffffffffffffffffffffffffffff167f8be0079c531659141344cd1fd0a4f28419497f9722a3daafe3b4186f6b6457e060405160405180910390a35050565b600080fd5b6000819050919050565b620002158162000200565b81146200022157600080fd5b50565b60008151905062000235816200020a565b92915050565b600073ffffffffffffffffffffffffffffffffffffffff82169050919050565b600062000268826200023b565b9050919050565b6200027a816200025b565b81146200028657600080fd5b50565b6000815190506200029a816200026f565b92915050565b6000819050919050565b620002b581620002a0565b8114620002c157600080fd5b50565b600081519050620002d581620002aa565b92915050565b60008060008060008060c08789031215620002fb57620002fa620001fb565b5b60006200030b89828a0162000224565b96505060206200031e89828a0162000289565b95505060406200033189828a0162000289565b94505060606200034489828a0162000289565b93505060806200035789828a01620002c4565b92505060a06200036a89828a0162000224565b9150509295509295509295565b60805160a051614764620003ab6000396000818161116201526116a8015260008181610e05015261166c01526147646000f3fe60806040526004361061012a5760003560e01c80638cd221c9116100ab578063b217be051161006f578063b217be05146103de578063cf260baf1461041b578063cfbd900f14610458578063f02137c814610483578063f2fde38b146104ac578063f5e47f96146104d55761012a565b80638cd221c9146102e25780638da5cb5b1461030d5780638f1327c01461033857806394985ddd146103785780639839eafd146103a15761012a565b8063608620aa116100f2578063608620aa1461022057806364069e7114610237578063715018a6146102745780637ce52eb61461028b5780638c65c81f146102a25761012a565b80631209b1f61461012f5780632e8814711461015a57806342619f661461019c57806350b44712146101c75780635e349acc14610204575b600080fd5b34801561013b57600080fd5b50610144610512565b60405161015191906126a1565b60405180910390f35b34801561016657600080fd5b50610181600480360381019061017c91906126fc565b610518565b60405161019396959493929190612819565b60405180910390f35b3480156101a857600080fd5b506101b1610956565b6040516101be91906126a1565b60405180910390f35b3480156101d357600080fd5b506101ee60048036038101906101e991906126fc565b61095c565b6040516101fb91906128c5565b60405180910390f35b61021e60048036038101906102199190612a72565b61098f565b005b34801561022c57600080fd5b50610235610d55565b005b34801561024357600080fd5b5061025e600480360381019061025991906126fc565b610eef565b60405161026b9190612b79565b60405180910390f35b34801561028057600080fd5b50610289610f83565b005b34801561029757600080fd5b506102a0610f97565b005b3480156102ae57600080fd5b506102c960048036038101906102c491906126fc565b611017565b6040516102d99493929190612b9b565b60405180910390f35b3480156102ee57600080fd5b506102f7611047565b60405161030491906126a1565b60405180910390f35b34801561031957600080fd5b5061032261104d565b60405161032f9190612bef565b60405180910390f35b34801561034457600080fd5b5061035f600480360381019061035a91906126fc565b611077565b60405161036f9493929190612c0a565b60405180910390f35b34801561038457600080fd5b5061039f600480360381019061039a9190612c8c565b611160565b005b3480156103ad57600080fd5b506103c860048036038101906103c391906126fc565b6111fc565b6040516103d59190612b79565b60405180910390f35b3480156103ea57600080fd5b5061040560048036038101906104009190612ccc565b61128d565b6040516104129190612d1b565b60405180910390f35b34801561042757600080fd5b50610442600480360381019061043d9190612d62565b6112d0565b60405161044f91906126a1565b60405180910390f35b34801561046457600080fd5b5061046d611301565b60405161047a91906126a1565b60405180910390f35b34801561048f57600080fd5b506104aa60048036038101906104a591906126fc565b611307565b005b3480156104b857600080fd5b506104d360048036038101906104ce9190612da2565b61135c565b005b3480156104e157600080fd5b506104fc60048036038101906104f79190612da2565b6113df565b6040516105099190612e8d565b60405180910390f35b60065481565b606080606080606080600c6000888152602001908152602001600020600501600060018152602001908152602001600020600c6000898152602001908152602001600020600501600060028152602001908152602001600020600c60008a8152602001908152602001600020600501600060038152602001908152602001600020600c60008b8152602001908152602001600020600501600060048152602001908152602001600020600c60008c8152602001908152602001600020600501600060058152602001908152602001600020600c60008d81526020019081526020016000206005016000600681526020019081526020016000208580548060200260200160405190810160405280929190818152602001828054801561069257602002820191906000526020600020905b8160009054906101000a900473ffffffffffffffffffffffffffffffffffffffff1673ffffffffffffffffffffffffffffffffffffffff1681526020019060010190808311610648575b505050505095508480548060200260200160405190810160405280929190818152602001828054801561071a57602002820191906000526020600020905b8160009054906101000a900473ffffffffffffffffffffffffffffffffffffffff1673ffffffffffffffffffffffffffffffffffffffff16815260200190600101908083116106d0575b50505050509450838054806020026020016040519081016040528092919081815260200182805480156107a257602002820191906000526020600020905b8160009054906101000a900473ffffffffffffffffffffffffffffffffffffffff1673ffffffffffffffffffffffffffffffffffffffff1681526020019060010190808311610758575b505050505093508280548060200260200160405190810160405280929190818152602001828054801561082a57602002820191906000526020600020905b8160009054906101000a900473ffffffffffffffffffffffffffffffffffffffff1673ffffffffffffffffffffffffffffffffffffffff16815260200190600101908083116107e0575b50505050509250818054806020026020016040519081016040528092919081815260200182805480156108b257602002820191906000526020600020905b8160009054906101000a900473ffffffffffffffffffffffffffffffffffffffff1673ffffffffffffffffffffffffffffffffffffffff1681526020019060010190808311610868575b505050505091508080548060200260200160405190810160405280929190818152602001828054801561093a57602002820191906000526020600020905b8160009054906101000a900473ffffffffffffffffffffffffffffffffffffffff1673ffffffffffffffffffffffffffffffffffffffff16815260200190600101908083116108f0575b5050505050905095509550955095509550955091939550919395565b60055481565b600a6020528060005260406000206000915054906101000a900473ffffffffffffffffffffffffffffffffffffffff1681565b60065434146109d3576040517f08c379a00000000000000000000000000000000000000000000000000000000081526004016109ca90612f0c565b60405180910390fd5b6006815114610a17576040517f08c379a0000000000000000000000000000000000000000000000000000000008152600401610a0e90612f9e565b60405180910390fd5b6000610a2282611476565b905060005b8151811015610b6c576001828281518110610a4557610a44612fbe565b5b602002602001015160ff1610158015610a7c57506032828281518110610a6e57610a6d612fbe565b5b602002602001015160ff1611155b610abb576040517f08c379a0000000000000000000000000000000000000000000000000000000008152600401610ab29061305f565b60405180910390fd5b60018251610ac991906130ae565b811015610b595781600182610ade91906130e2565b81518110610aef57610aee612fbe565b5b602002602001015160ff16828281518110610b0d57610b0c612fbe565b5b602002602001015160ff1603610b58576040517f08c379a0000000000000000000000000000000000000000000000000000000008152600401610b4f90613162565b60405180910390fd5b5b8080610b6490613182565b915050610a27565b50610b8360016007546115d490919063ffffffff16565b60078190555033600a6000600754815260200190815260200160002060006101000a81548173ffffffffffffffffffffffffffffffffffffffff021916908373ffffffffffffffffffffffffffffffffffffffff16021790555080600b600060075481526020019081526020016000209080519060200190610c069291906125c4565b50600960003373ffffffffffffffffffffffffffffffffffffffff1673ffffffffffffffffffffffffffffffffffffffff16815260200190815260200160002060075490806001815401808255809150506001900390600052602060002001600090919091909150553373ffffffffffffffffffffffffffffffffffffffff167f2a1ef9a510c66163c8c27e9cfbafcb5c15f78e0c979458e4d40103d6bb9dbbd360075483604051610cb99291906131ca565b60405180910390a2600260009054906101000a900473ffffffffffffffffffffffffffffffffffffffff1673ffffffffffffffffffffffffffffffffffffffff166340c10f193360016040518363ffffffff1660e01b8152600401610d1f92919061323f565b600060405180830381600087803b158015610d3957600080fd5b505af1158015610d4d573d6000803e3d6000fd5b505050505050565b610d5d6115ea565b600060075411610da2576040517f08c379a0000000000000000000000000000000000000000000000000000000008152600401610d99906132b4565b60405180910390fd5b6000600c600060085481526020019081526020016000206002018054905014610e00576040517f08c379a0000000000000000000000000000000000000000000000000000000008152600401610df790613346565b60405180910390fd5b6004547f000000000000000000000000000000000000000000000000000000000000000073ffffffffffffffffffffffffffffffffffffffff166370a08231306040518263ffffffff1660e01b8152600401610e5c9190612bef565b602060405180830381865afa158015610e79573d6000803e3d6000fd5b505050506040513d601f19601f82011682018060405250810190610e9d919061337b565b1015610ede576040517f08c379a0000000000000000000000000000000000000000000000000000000008152600401610ed5906133f4565b60405180910390fd5b610eec600354600454611668565b50565b6060600c6000838152602001908152602001600020600201805480602002602001604051908101604052809291908181526020018280548015610f7757602002820191906000526020600020906000905b82829054906101000a900460ff1660ff1681526020019060010190602082600001049283019260010382029150808411610f405790505b50505050509050919050565b610f8b6115ea565b610f9560006117b8565b565b610f9f6115ea565b6006600c600060085481526020019081526020016000206002018054905014610ffd576040517f08c379a0000000000000000000000000000000000000000000000000000000008152600401610ff490613486565b60405180910390fd5b61100561187e565b61100d611978565b611015611bee565b565b600c6020528060005260406000206000915090508060000154908060010154908060030154908060040154905084565b60085481565b6000600160009054906101000a900473ffffffffffffffffffffffffffffffffffffffff16905090565b60008060006060600c600086815260200190815260200160002060010154600c600087815260200190815260200160002060030154600c600088815260200190815260200160002060040154600c60008981526020019081526020016000206002018080548060200260200160405190810160405280929190818152602001828054801561114a57602002820191906000526020600020906000905b82829054906101000a900460ff1660ff16815260200190600101906020826000010492830192600103820291508084116111135790505b5050505050905093509350935093509193509193565b7f000000000000000000000000000000000000000000000000000000000000000073ffffffffffffffffffffffffffffffffffffffff163373ffffffffffffffffffffffffffffffffffffffff16146111ee576040517f08c379a00000000000000000000000000000000000000000000000000000000081526004016111e5906134f2565b60405180910390fd5b6111f88282611c10565b5050565b6060600b600083815260200190815260200160002080548060200260200160405190810160405280929190818152602001828054801561128157602002820191906000526020600020906000905b82829054906101000a900460ff1660ff168152602001906001019060208260000104928301926001038202915080841161124a5790505b50505050509050919050565b600b60205281600052604060002081815481106112a957600080fd5b9060005260206000209060209182820401919006915091509054906101000a900460ff1681565b600960205281600052604060002081815481106112ec57600080fd5b90600052602060002001600091509150505481565b60075481565b61130f6115ea565b60008111611352576040517f08c379a000000000000000000000000000000000000000000000000000000000815260040161134990613584565b60405180910390fd5b8060068190555050565b6113646115ea565b600073ffffffffffffffffffffffffffffffffffffffff168173ffffffffffffffffffffffffffffffffffffffff16036113d3576040517f08c379a00000000000000000000000000000000000000000000000000000000081526004016113ca90613616565b60405180910390fd5b6113dc816117b8565b50565b6060600960008373ffffffffffffffffffffffffffffffffffffffff1673ffffffffffffffffffffffffffffffffffffffff16815260200190815260200160002080548060200260200160405190810160405280929190818152602001828054801561146a57602002820191906000526020600020905b815481526020019060010190808311611456575b50505050509050919050565b606060005b6001835161148991906130ae565b8110156115cb5760005b60018285516114a291906130ae565b6114ac91906130ae565b8110156115b757836001826114c191906130e2565b815181106114d2576114d1612fbe565b5b602002602001015160ff168482815181106114f0576114ef612fbe565b5b602002602001015160ff1611156115a457600084828151811061151657611515612fbe565b5b602002602001015190508460018361152e91906130e2565b8151811061153f5761153e612fbe565b5b602002602001015185838151811061155a57611559612fbe565b5b602002602001019060ff16908160ff1681525050808560018461157d91906130e2565b8151811061158e5761158d612fbe565b5b602002602001019060ff16908160ff1681525050505b80806115af90613182565b915050611493565b5080806115c390613182565b91505061147b565b50819050919050565b600081836115e291906130e2565b905092915050565b6115f2611ebf565b73ffffffffffffffffffffffffffffffffffffffff1661161061104d565b73ffffffffffffffffffffffffffffffffffffffff1614611666576040517f08c379a000000000000000000000000000000000000000000000000000000000815260040161165d90613682565b60405180910390fd5b565b60007f000000000000000000000000000000000000000000000000000000000000000073ffffffffffffffffffffffffffffffffffffffff16634000aea07f0000000000000000000000000000000000000000000000000000000000000000848660006040516020016116dc9291906136b1565b6040516020818303038152906040526040518463ffffffff1660e01b815260040161170993929190613759565b6020604051808303816000875af1158015611728573d6000803e3d6000fd5b505050506040513d601f19601f8201168201806040525081019061174c91906137cf565b50600061176e8460003060008089815260200190815260200160002054611ec7565b905060016000808681526020019081526020016000205461178f91906130e2565b600080868152602001908152602001600020819055506117af8482611f03565b91505092915050565b6000600160009054906101000a900473ffffffffffffffffffffffffffffffffffffffff16905081600160006101000a81548173ffffffffffffffffffffffffffffffffffffffff021916908373ffffffffffffffffffffffffffffffffffffffff1602179055508173ffffffffffffffffffffffffffffffffffffffff168173ffffffffffffffffffffffffffffffffffffffff167f8be0079c531659141344cd1fd0a4f28419497f9722a3daafe3b4186f6b6457e060405160405180910390a35050565b6000600190505b600754811161197557600061189982611f36565b90506001811061196157600c600060085481526020019081526020016000206005016000828152602001908152602001600020600a600084815260200190815260200160002060009054906101000a900473ffffffffffffffffffffffffffffffffffffffff169080600181540180825580915050600190039060005260206000200160009091909190916101000a81548173ffffffffffffffffffffffffffffffffffffffff021916908373ffffffffffffffffffffffffffffffffffffffff1602179055505b50808061196d90613182565b915050611885565b50565b6000479050600081905060006064600a8361199391906137fc565b61199d919061386d565b90506119a761104d565b73ffffffffffffffffffffffffffffffffffffffff166108fc829081150290604051600060405180830381858888f193505050501580156119ec573d6000803e3d6000fd5b506000600690505b60018160ff1610611b86576000600c6000600854815260200190815260200160002060050160008360ff168152602001908152602001600020805490509050600081611a43878560ff166120f4565b611a4d919061386d565b905060005b82811015611b70576000600c6000600854815260200190815260200160002060050160008660ff1681526020019081526020016000208281548110611a9a57611a99612fbe565b5b9060005260206000200160009054906101000a900473ffffffffffffffffffffffffffffffffffffffff1690508073ffffffffffffffffffffffffffffffffffffffff166108fc849081150290604051600060405180830381858888f19350505050158015611b0d573d6000803e3d6000fd5b508073ffffffffffffffffffffffffffffffffffffffff167f95681e512bc0fe659e195e06c283eada494316f3d801213e48e7101af92bf77084604051611b5491906126a1565b60405180910390a2508080611b6890613182565b915050611a52565b5050508080611b7e9061389e565b9150506119f4565b50611b9083612283565b600754600c600060085481526020019081526020016000206001018190555042600c600060085481526020019081526020016000206003018190555082600c6000600854815260200190815260200160002060040181905550505050565b60086000815480929190611c0190613182565b91905055506000600781905550565b806005819055506000603267ffffffffffffffff811115611c3457611c336128f6565b5b604051908082528060200260200182016040528015611c625781602001602082028036833780820191505090505b5090506000805b6006811015611da557600060016032600554611c8591906138c7565b611c8f91906130e2565b9050603260056000828254611ca4919061386d565b925050819055506000805b84811015611cfa578260ff16868281518110611cce57611ccd612fbe565b5b602002602001015160ff1603611ce75760019150611cfa565b8080611cf290613182565b915050611caf565b5080611d9e5781858580611d0d90613182565b965081518110611d2057611d1f612fbe565b5b602002602001019060ff16908160ff1681525050600c600060085481526020019081526020016000206002018290806001815401808255809150506001900390600052602060002090602091828204019190069091909190916101000a81548160ff021916908360ff1602179055508280611d9a90613182565b9350505b5050611c69565b611e3a600c60006008548152602001908152602001600020600201805480602002602001604051908101604052809291908181526020018280548015611e3057602002820191906000526020600020906000905b82829054906101000a900460ff1660ff1681526020019060010190602082600001049283019260010382029150808411611df95790505b5050505050611476565b600c600060085481526020019081526020016000206002019080519060200190611e659291906125c4565b507facdd977f06d88d990c56c596f96141830d83e7fc86f94424a37de0f5e0532e69600854600c60006008548152602001908152602001600020600201604051611eb092919061464b565b60405180910390a15050505050565b600033905090565b600084848484604051602001611ee0949392919061467b565b6040516020818303038152906040528051906020012060001c9050949350505050565b60008282604051602001611f18929190614702565b60405160208183030381529060405280519060200120905092915050565b600080600b6000848152602001908152602001600020805480602002602001604051908101604052809291908181526020018280548015611fbc57602002820191906000526020600020906000905b82829054906101000a900460ff1660ff1681526020019060010190602082600001049283019260010382029150808411611f855790505b50505050509050600080600c6000600854815260200190815260200160002060020180548060200260200160405190810160405280929190818152602001828054801561204e57602002820191906000526020600020906000905b82829054906101000a900460ff1660ff16815260200190600101906020826000010492830192600103820291508084116120175790505b5050505050905060005b83518110156120e85760005b82518110156120d4578281815181106120805761207f612fbe565b5b602002602001015160ff1685838151811061209e5761209d612fbe565b5b602002602001015160ff16036120c15783806120b990613182565b9450506120d4565b80806120cc90613182565b915050612064565b5080806120e090613182565b915050612058565b50819350505050919050565b60008060068303612137576121096006612572565b905080606460288661211b91906137fc565b612125919061386d565b61212f919061386d565b91505061227d565b60058303612177576121496005612572565b905080606460198661215b91906137fc565b612165919061386d565b61216f919061386d565b91505061227d565b600483036121b7576121896004612572565b9050806064600a8661219b91906137fc565b6121a5919061386d565b6121af919061386d565b91505061227d565b600383036121f7576121c96003612572565b90508060646005866121db91906137fc565b6121e5919061386d565b6121ef919061386d565b91505061227d565b60028303612237576122096002612572565b905080606460038661221b91906137fc565b612225919061386d565b61222f919061386d565b91505061227d565b60018303612277576122496001612572565b905080606460028661225b91906137fc565b612265919061386d565b61226f919061386d565b91505061227d565b60009150505b92915050565b6000606460058361229491906137fc565b61229e919061386d565b9050600080600190505b60075481116123b3576000600a600083815260200190815260200160002060009054906101000a900473ffffffffffffffffffffffffffffffffffffffff1690506000600260009054906101000a900473ffffffffffffffffffffffffffffffffffffffff1673ffffffffffffffffffffffffffffffffffffffff166370a08231836040518263ffffffff1660e01b81526004016123469190612bef565b602060405180830381865afa158015612363573d6000803e3d6000fd5b505050506040513d601f19601f82011682018060405250810190612387919061337b565b905061239c81856115d490919063ffffffff16565b9350505080806123ab90613182565b9150506122a8565b506000600190505b600754811161256c576000600a600083815260200190815260200160002060009054906101000a900473ffffffffffffffffffffffffffffffffffffffff1690506000600260009054906101000a900473ffffffffffffffffffffffffffffffffffffffff1673ffffffffffffffffffffffffffffffffffffffff166370a08231836040518263ffffffff1660e01b81526004016124599190612bef565b602060405180830381865afa158015612476573d6000803e3d6000fd5b505050506040513d601f19601f8201168201806040525081019061249a919061337b565b905060008111156125575760008482876124b491906137fc565b6124be919061386d565b90508273ffffffffffffffffffffffffffffffffffffffff166108fc829081150290604051600060405180830381858888f19350505050158015612506573d6000803e3d6000fd5b508273ffffffffffffffffffffffffffffffffffffffff167f0286f58f3dcaa16e784242f672696ff068857ee598355de9af938efa271b73ca8260405161254d91906126a1565b60405180910390a2505b5050808061256490613182565b9150506123bb565b50505050565b600080600090506000600190505b60075481116125ba578361259382611f36565b036125a75781806125a390613182565b9250505b80806125b290613182565b915050612580565b5080915050919050565b82805482825590600052602060002090601f0160209004810192821561265a5791602002820160005b8382111561262b57835183826101000a81548160ff021916908360ff16021790555092602001926001016020816000010492830192600103026125ed565b80156126585782816101000a81549060ff021916905560010160208160000104928301926001030261262b565b505b509050612667919061266b565b5090565b5b8082111561268457600081600090555060010161266c565b5090565b6000819050919050565b61269b81612688565b82525050565b60006020820190506126b66000830184612692565b92915050565b6000604051905090565b600080fd5b600080fd5b6126d981612688565b81146126e457600080fd5b50565b6000813590506126f6816126d0565b92915050565b600060208284031215612712576127116126c6565b5b6000612720848285016126e7565b91505092915050565b600081519050919050565b600082825260208201905092915050565b6000819050602082019050919050565b600073ffffffffffffffffffffffffffffffffffffffff82169050919050565b600061278082612755565b9050919050565b61279081612775565b82525050565b60006127a28383612787565b60208301905092915050565b6000602082019050919050565b60006127c682612729565b6127d08185612734565b93506127db83612745565b8060005b8381101561280c5781516127f38882612796565b97506127fe836127ae565b9250506001810190506127df565b5085935050505092915050565b600060c082019050818103600083015261283381896127bb565b9050818103602083015261284781886127bb565b9050818103604083015261285b81876127bb565b9050818103606083015261286f81866127bb565b9050818103608083015261288381856127bb565b905081810360a083015261289781846127bb565b9050979650505050505050565b60006128af82612755565b9050919050565b6128bf816128a4565b82525050565b60006020820190506128da60008301846128b6565b92915050565b600080fd5b6000601f19601f8301169050919050565b7f4e487b7100000000000000000000000000000000000000000000000000000000600052604160045260246000fd5b61292e826128e5565b810181811067ffffffffffffffff8211171561294d5761294c6128f6565b5b80604052505050565b60006129606126bc565b905061296c8282612925565b919050565b600067ffffffffffffffff82111561298c5761298b6128f6565b5b602082029050602081019050919050565b600080fd5b600060ff82169050919050565b6129b8816129a2565b81146129c357600080fd5b50565b6000813590506129d5816129af565b92915050565b60006129ee6129e984612971565b612956565b90508083825260208201905060208402830185811115612a1157612a1061299d565b5b835b81811015612a3a5780612a2688826129c6565b845260208401935050602081019050612a13565b5050509392505050565b600082601f830112612a5957612a586128e0565b5b8135612a698482602086016129db565b91505092915050565b600060208284031215612a8857612a876126c6565b5b600082013567ffffffffffffffff811115612aa657612aa56126cb565b5b612ab284828501612a44565b91505092915050565b600081519050919050565b600082825260208201905092915050565b6000819050602082019050919050565b612af0816129a2565b82525050565b6000612b028383612ae7565b60208301905092915050565b6000602082019050919050565b6000612b2682612abb565b612b308185612ac6565b9350612b3b83612ad7565b8060005b83811015612b6c578151612b538882612af6565b9750612b5e83612b0e565b925050600181019050612b3f565b5085935050505092915050565b60006020820190508181036000830152612b938184612b1b565b905092915050565b6000608082019050612bb06000830187612692565b612bbd6020830186612692565b612bca6040830185612692565b612bd76060830184612692565b95945050505050565b612be981612775565b82525050565b6000602082019050612c046000830184612be0565b92915050565b6000608082019050612c1f6000830187612692565b612c2c6020830186612692565b612c396040830185612692565b8181036060830152612c4b8184612b1b565b905095945050505050565b6000819050919050565b612c6981612c56565b8114612c7457600080fd5b50565b600081359050612c8681612c60565b92915050565b60008060408385031215612ca357612ca26126c6565b5b6000612cb185828601612c77565b9250506020612cc2858286016126e7565b9150509250929050565b60008060408385031215612ce357612ce26126c6565b5b6000612cf1858286016126e7565b9250506020612d02858286016126e7565b9150509250929050565b612d15816129a2565b82525050565b6000602082019050612d306000830184612d0c565b92915050565b612d3f81612775565b8114612d4a57600080fd5b50565b600081359050612d5c81612d36565b92915050565b60008060408385031215612d7957612d786126c6565b5b6000612d8785828601612d4d565b9250506020612d98858286016126e7565b9150509250929050565b600060208284031215612db857612db76126c6565b5b6000612dc684828501612d4d565b91505092915050565b600081519050919050565b600082825260208201905092915050565b6000819050602082019050919050565b612e0481612688565b82525050565b6000612e168383612dfb565b60208301905092915050565b6000602082019050919050565b6000612e3a82612dcf565b612e448185612dda565b9350612e4f83612deb565b8060005b83811015612e80578151612e678882612e0a565b9750612e7283612e22565b925050600181019050612e53565b5085935050505092915050565b60006020820190508181036000830152612ea78184612e2f565b905092915050565b600082825260208201905092915050565b7f496e636f7272656374207469636b65742070726963652e000000000000000000600082015250565b6000612ef6601783612eaf565b9150612f0182612ec0565b602082019050919050565b60006020820190508181036000830152612f2581612ee9565b9050919050565b7f596f75206d7573742070726f766964652065786163746c79203620756e69717560008201527f65206e756d626572732e00000000000000000000000000000000000000000000602082015250565b6000612f88602a83612eaf565b9150612f9382612f2c565b604082019050919050565b60006020820190508181036000830152612fb781612f7b565b9050919050565b7f4e487b7100000000000000000000000000000000000000000000000000000000600052603260045260246000fd5b7f4e756d62657273206d757374206265206265747765656e203120616e6420353060008201527f2e00000000000000000000000000000000000000000000000000000000000000602082015250565b6000613049602183612eaf565b915061305482612fed565b604082019050919050565b600060208201905081810360008301526130788161303c565b9050919050565b7f4e487b7100000000000000000000000000000000000000000000000000000000600052601160045260246000fd5b60006130b982612688565b91506130c483612688565b92508282039050818111156130dc576130db61307f565b5b92915050565b60006130ed82612688565b91506130f883612688565b92508282019050808211156131105761310f61307f565b5b92915050565b7f4e756d62657273206d75737420626520756e697175652e000000000000000000600082015250565b600061314c601783612eaf565b915061315782613116565b602082019050919050565b6000602082019050818103600083015261317b8161313f565b9050919050565b600061318d82612688565b91507fffffffffffffffffffffffffffffffffffffffffffffffffffffffffffffffff82036131bf576131be61307f565b5b600182019050919050565b60006040820190506131df6000830185612692565b81810360208301526131f18184612b1b565b90509392505050565b6000819050919050565b6000819050919050565b600061322961322461321f846131fa565b613204565b612688565b9050919050565b6132398161320e565b82525050565b60006040820190506132546000830185612be0565b6132616020830184613230565b9392505050565b7f4e6f207469636b6574732068617665206265656e20736f6c642e000000000000600082015250565b600061329e601a83612eaf565b91506132a982613268565b602082019050919050565b600060208201905081810360008301526132cd81613291565b9050919050565b7f57696e6e696e67206e756d62657273206861766520616c72656164792062656560008201527f6e20647261776e2e000000000000000000000000000000000000000000000000602082015250565b6000613330602883612eaf565b915061333b826132d4565b604082019050919050565b6000602082019050818103600083015261335f81613323565b9050919050565b600081519050613375816126d0565b92915050565b600060208284031215613391576133906126c6565b5b600061339f84828501613366565b91505092915050565b7f4e6f7420656e6f756768204c494e4b20746f2070617920746865206665652e00600082015250565b60006133de601f83612eaf565b91506133e9826133a8565b602082019050919050565b6000602082019050818103600083015261340d816133d1565b9050919050565b7f57696e6e696e67206e756d626572732068617665206e6f74206265656e20647260008201527f61776e207965742e000000000000000000000000000000000000000000000000602082015250565b6000613470602883612eaf565b915061347b82613414565b604082019050919050565b6000602082019050818103600083015261349f81613463565b9050919050565b7f4f6e6c7920565246436f6f7264696e61746f722063616e2066756c66696c6c00600082015250565b60006134dc601f83612eaf565b91506134e7826134a6565b602082019050919050565b6000602082019050818103600083015261350b816134cf565b9050919050565b7f4e6577207469636b6574207072696365206d757374206265206772656174657260008201527f207468616e20302e000000000000000000000000000000000000000000000000602082015250565b600061356e602883612eaf565b915061357982613512565b604082019050919050565b6000602082019050818103600083015261359d81613561565b9050919050565b7f4f776e61626c653a206e6577206f776e657220697320746865207a65726f206160008201527f6464726573730000000000000000000000000000000000000000000000000000602082015250565b6000613600602683612eaf565b915061360b826135a4565b604082019050919050565b6000602082019050818103600083015261362f816135f3565b9050919050565b7f4f776e61626c653a2063616c6c6572206973206e6f7420746865206f776e6572600082015250565b600061366c602083612eaf565b915061367782613636565b602082019050919050565b6000602082019050818103600083015261369b8161365f565b9050919050565b6136ab81612c56565b82525050565b60006040820190506136c660008301856136a2565b6136d36020830184612692565b9392505050565b600081519050919050565b600082825260208201905092915050565b60005b838110156137145780820151818401526020810190506136f9565b60008484015250505050565b600061372b826136da565b61373581856136e5565b93506137458185602086016136f6565b61374e816128e5565b840191505092915050565b600060608201905061376e6000830186612be0565b61377b6020830185612692565b818103604083015261378d8184613720565b9050949350505050565b60008115159050919050565b6137ac81613797565b81146137b757600080fd5b50565b6000815190506137c9816137a3565b92915050565b6000602082840312156137e5576137e46126c6565b5b60006137f3848285016137ba565b91505092915050565b600061380782612688565b915061381283612688565b925082820261382081612688565b915082820484148315176138375761383661307f565b5b5092915050565b7f4e487b7100000000000000000000000000000000000000000000000000000000600052601260045260246000fd5b600061387882612688565b915061388383612688565b9250826138935761389261383e565b5b828204905092915050565b60006138a9826129a2565b9150600082036138bc576138bb61307f565b5b600182039050919050565b60006138d282612688565b91506138dd83612688565b9250826138ed576138ec61383e565b5b828206905092915050565b600081549050919050565b60008190508160005260206000209050919050565b60008160001c9050919050565b600060ff82169050919050565b600061394561394083613918565b613925565b9050919050565b60008160081c9050919050565b600061396c6139678361394c565b613925565b9050919050565b60008160101c9050919050565b600061399361398e83613973565b613925565b9050919050565b60008160181c9050919050565b60006139ba6139b58361399a565b613925565b9050919050565b60008160201c9050919050565b60006139e16139dc836139c1565b613925565b9050919050565b60008160281c9050919050565b6000613a08613a03836139e8565b613925565b9050919050565b60008160301c9050919050565b6000613a2f613a2a83613a0f565b613925565b9050919050565b60008160381c9050919050565b6000613a56613a5183613a36565b613925565b9050919050565b60008160401c9050919050565b6000613a7d613a7883613a5d565b613925565b9050919050565b60008160481c9050919050565b6000613aa4613a9f83613a84565b613925565b9050919050565b60008160501c9050919050565b6000613acb613ac683613aab565b613925565b9050919050565b60008160581c9050919050565b6000613af2613aed83613ad2565b613925565b9050919050565b60008160601c9050919050565b6000613b19613b1483613af9565b613925565b9050919050565b60008160681c9050919050565b6000613b40613b3b83613b20565b613925565b9050919050565b60008160701c9050919050565b6000613b67613b6283613b47565b613925565b9050919050565b60008160781c9050919050565b6000613b8e613b8983613b6e565b613925565b9050919050565b60008160801c9050919050565b6000613bb5613bb083613b95565b613925565b9050919050565b60008160881c9050919050565b6000613bdc613bd783613bbc565b613925565b9050919050565b60008160901c9050919050565b6000613c03613bfe83613be3565b613925565b9050919050565b60008160981c9050919050565b6000613c2a613c2583613c0a565b613925565b9050919050565b60008160a01c9050919050565b6000613c51613c4c83613c31565b613925565b9050919050565b60008160a81c9050919050565b6000613c78613c7383613c58565b613925565b9050919050565b60008160b01c9050919050565b6000613c9f613c9a83613c7f565b613925565b9050919050565b60008160b81c9050919050565b6000613cc6613cc183613ca6565b613925565b9050919050565b60008160c01c9050919050565b6000613ced613ce883613ccd565b613925565b9050919050565b60008160c81c9050919050565b6000613d14613d0f83613cf4565b613925565b9050919050565b60008160d01c9050919050565b6000613d3b613d3683613d1b565b613925565b9050919050565b60008160d81c9050919050565b6000613d62613d5d83613d42565b613925565b9050919050565b60008160e01c9050919050565b6000613d89613d8483613d69565b613925565b9050919050565b60008160e81c9050919050565b6000613db0613dab83613d90565b613925565b9050919050565b60008160f01c9050919050565b6000613dd7613dd283613db7565b613925565b9050919050565b60008160f81c9050919050565b6000613dfe613df983613dde565b613925565b9050919050565b6000613e10826138f8565b613e1a8185612ac6565b935083613e2684613903565b6000600115614153575b83600160200382011015614152578154613e5288613e4d83613932565b612ae7565b602088019750613e6a88613e6583613959565b612ae7565b602088019750613e8288613e7d83613980565b612ae7565b602088019750613e9a88613e95836139a7565b612ae7565b602088019750613eb288613ead836139ce565b612ae7565b602088019750613eca88613ec5836139f5565b612ae7565b602088019750613ee288613edd83613a1c565b612ae7565b602088019750613efa88613ef583613a43565b612ae7565b602088019750613f1288613f0d83613a6a565b612ae7565b602088019750613f2a88613f2583613a91565b612ae7565b602088019750613f4288613f3d83613ab8565b612ae7565b602088019750613f5a88613f5583613adf565b612ae7565b602088019750613f7288613f6d83613b06565b612ae7565b602088019750613f8a88613f8583613b2d565b612ae7565b602088019750613fa288613f9d83613b54565b612ae7565b602088019750613fba88613fb583613b7b565b612ae7565b602088019750613fd288613fcd83613ba2565b612ae7565b602088019750613fea88613fe583613bc9565b612ae7565b60208801975061400288613ffd83613bf0565b612ae7565b60208801975061401a8861401583613c17565b612ae7565b6020880197506140328861402d83613c3e565b612ae7565b60208801975061404a8861404583613c65565b612ae7565b6020880197506140628861405d83613c8c565b612ae7565b60208801975061407a8861407583613cb3565b612ae7565b6020880197506140928861408d83613cda565b612ae7565b6020880197506140aa886140a583613d01565b612ae7565b6020880197506140c2886140bd83613d28565b612ae7565b6020880197506140da886140d583613d4f565b612ae7565b6020880197506140f2886140ed83613d76565b612ae7565b60208801975061410a8861410583613d9d565b612ae7565b6020880197506141228861411d83613dc4565b612ae7565b60208801975061413a8861413583613deb565b612ae7565b60208801975060018301925050602081019050613e30565b5b60011561463e57815484821015614183576141768861417183613932565b612ae7565b6020880197506001820191505b848210156141aa5761419d8861419883613959565b612ae7565b6020880197506001820191505b848210156141d1576141c4886141bf83613980565b612ae7565b6020880197506001820191505b848210156141f8576141eb886141e6836139a7565b612ae7565b6020880197506001820191505b8482101561421f576142128861420d836139ce565b612ae7565b6020880197506001820191505b848210156142465761423988614234836139f5565b612ae7565b6020880197506001820191505b8482101561426d576142608861425b83613a1c565b612ae7565b6020880197506001820191505b84821015614294576142878861428283613a43565b612ae7565b6020880197506001820191505b848210156142bb576142ae886142a983613a6a565b612ae7565b6020880197506001820191505b848210156142e2576142d5886142d083613a91565b612ae7565b6020880197506001820191505b84821015614309576142fc886142f783613ab8565b612ae7565b6020880197506001820191505b84821015614330576143238861431e83613adf565b612ae7565b6020880197506001820191505b848210156143575761434a8861434583613b06565b612ae7565b6020880197506001820191505b8482101561437e576143718861436c83613b2d565b612ae7565b6020880197506001820191505b848210156143a5576143988861439383613b54565b612ae7565b6020880197506001820191505b848210156143cc576143bf886143ba83613b7b565b612ae7565b6020880197506001820191505b848210156143f3576143e6886143e183613ba2565b612ae7565b6020880197506001820191505b8482101561441a5761440d8861440883613bc9565b612ae7565b6020880197506001820191505b84821015614441576144348861442f83613bf0565b612ae7565b6020880197506001820191505b848210156144685761445b8861445683613c17565b612ae7565b6020880197506001820191505b8482101561448f576144828861447d83613c3e565b612ae7565b6020880197506001820191505b848210156144b6576144a9886144a483613c65565b612ae7565b6020880197506001820191505b848210156144dd576144d0886144cb83613c8c565b612ae7565b6020880197506001820191505b84821015614504576144f7886144f283613cb3565b612ae7565b6020880197506001820191505b8482101561452b5761451e8861451983613cda565b612ae7565b6020880197506001820191505b84821015614552576145458861454083613d01565b612ae7565b6020880197506001820191505b848210156145795761456c8861456783613d28565b612ae7565b6020880197506001820191505b848210156145a0576145938861458e83613d4f565b612ae7565b6020880197506001820191505b848210156145c7576145ba886145b583613d76565b612ae7565b6020880197506001820191505b848210156145ee576145e1886145dc83613d9d565b612ae7565b6020880197506001820191505b84821015614615576146088861460383613dc4565b612ae7565b6020880197506001820191505b8482101561463c5761462f8861462a83613deb565b612ae7565b6020880197506001820191505b505b8694505050505092915050565b60006040820190506146606000830185612692565b81810360208301526146728184613e05565b90509392505050565b600060808201905061469060008301876136a2565b61469d6020830186612692565b6146aa6040830185612be0565b6146b76060830184612692565b95945050505050565b6000819050919050565b6146db6146d682612c56565b6146c0565b82525050565b6000819050919050565b6146fc6146f782612688565b6146e1565b82525050565b600061470e82856146ca565b60208201915061471e82846146eb565b602082019150819050939250505056fea26469706673582212204eff1e834977055f38d156450c962264b0a39b39daab0bcaeba9bdeb1ab0491e64736f6c63430008120033",
  "immutableReferences": {
    "73": [
      {
        "length": 32,
        "start": 3589
      },
      {
        "length": 32,
        "start": 5740
      }
    ],
    "75": [
      {
        "length": 32,
        "start": 4450
      },
      {
        "length": 32,
        "start": 5800
      }
    ]
  },
  "source": "pragma solidity ^0.8.0;\n\nimport \"@openzeppelin/contracts/utils/math/SafeMath.sol\";\nimport \"@openzeppelin/contracts/access/Ownable.sol\";\nimport \"@chainlink/contracts/src/v0.8/VRFConsumerBase.sol\";\nimport \"./interfaces/ILottoToken.sol\";\n\ncontract Game is VRFConsumerBase, Ownable {\n    using SafeMath for uint256;\n\n    struct Round {\n        uint256 roundId;\n        uint256 ticketsSold;\n        uint8[] winningNumbers;\n        uint256 drawnAt;\n        uint256 prizePool;\n        mapping(uint256 => address[]) winners;\n    }\n\n    ILottoToken token;\n\n    bytes32 private keyHash;\n    uint256 private fee;\n    uint256 public randomResult;\n\n    uint256 public ticketPrice;\n    uint256 public ticketCount;\n    uint256 public roundId;\n\n    mapping(address => uint256[]) public userTickets;\n    mapping(uint256 => address payable) public tickets;\n    mapping(uint256 => uint8[]) public ticketNumbers;\n    mapping(uint256 => Round) public rounds;\n\n    event TicketPurchased(\n        address indexed buyer,\n        uint256 ticketCount,\n        uint8[] numbers\n    );\n    event WinningNumbers(uint256 roundId, uint8[] numbers);\n    event PrizeClaimed(address indexed winner, uint256 amount);\n    event TokenHolderPrizeClaimed(address indexed winner, uint256 amount);\n\n    constructor(\n        uint256 _ticketPrice,\n        address _lottoToken,\n        address _vrfCoordinator,\n        address _linkToken,\n        bytes32 _keyHash,\n        uint256 _fee\n    ) VRFConsumerBase(_vrfCoordinator, _linkToken) {\n        ticketPrice = _ticketPrice;\n        token = ILottoToken(_lottoToken);\n        keyHash = _keyHash;\n        // keyHash = keccak256(abi.encodePacked(\"TEST_KEY_HASH\"));\n        fee = _fee;\n        roundId = 1;\n    }\n\n    // Update the ticket price (only callable by the contract owner)\n    function updateTicketPrice(uint256 newTicketPrice) public onlyOwner {\n        require(newTicketPrice > 0, \"New ticket price must be greater than 0.\");\n        ticketPrice = newTicketPrice;\n    }\n\n    // Buy a ticket with 6 unique numbers, mint a token for the buyer\n    function buyTicket(uint8[] memory numbers) public payable {\n        require(msg.value == ticketPrice, \"Incorrect ticket price.\");\n        require(\n            numbers.length == 6,\n            \"You must provide exactly 6 unique numbers.\"\n        );\n\n        // Sort the numbers in ascending order\n        uint8[] memory sortedNumbers = _sortNumbers(numbers);\n\n        // Validate the provided numbers\n        for (uint256 i = 0; i < sortedNumbers.length; i++) {\n            require(\n                sortedNumbers[i] >= 1 && sortedNumbers[i] <= 50,\n                \"Numbers must be between 1 and 50.\"\n            );\n            if (i < sortedNumbers.length - 1) {\n                require(\n                    sortedNumbers[i] != sortedNumbers[i + 1],\n                    \"Numbers must be unique.\"\n                );\n            }\n        }\n\n        ticketCount = ticketCount.add(1);\n        tickets[ticketCount] = payable(msg.sender);\n        ticketNumbers[ticketCount] = sortedNumbers;\n        userTickets[msg.sender].push(ticketCount);\n        emit TicketPurchased(msg.sender, ticketCount, sortedNumbers);\n\n        // Mint a token for the user\n        token.mint(msg.sender, 1);\n    }\n\n    function getTicketsByAddress(\n        address account\n    ) public view returns (uint256[] memory) {\n        return userTickets[account];\n    }\n\n    function getTicketNumbers(\n        uint256 ticketNr\n    ) public view returns (uint8[] memory) {\n        return ticketNumbers[ticketNr];\n    }\n\n    function getRoundWinningNumbers(uint256 roundNr) public view returns(uint8[] memory) {\n        return rounds[roundNr].winningNumbers;\n    }\n\n    function getRound(\n        uint256 roundNr\n    )\n        public\n        view\n        returns (\n            uint256 ticketsSold,\n            uint256 drawnAt,\n            uint256 prizePool,\n            uint8[] memory\n        )\n    {\n        return (\n            rounds[roundNr].ticketsSold,\n            rounds[roundNr].drawnAt,\n            rounds[roundNr].prizePool,\n            rounds[roundNr].winningNumbers\n        );\n    }\n\n    function getRoundWinners(\n        uint256 roundNr\n    )\n        public\n        view\n        returns (\n            address[] memory matchOne,\n            address[] memory matchTwo,\n            address[] memory matchThree,\n            address[] memory matchFour,\n            address[] memory matchFive,\n            address[] memory matchSix\n        )\n    {\n        return (\n            rounds[roundNr].winners[1],\n            rounds[roundNr].winners[2],\n            rounds[roundNr].winners[3],\n            rounds[roundNr].winners[4],\n            rounds[roundNr].winners[5],\n            rounds[roundNr].winners[6]\n        );\n    }\n\n    // Draw winning numbers using Chainlink VRF\n    function drawWinningNumbers() external onlyOwner {\n        require(ticketCount > 0, \"No tickets have been sold.\");\n        require(\n            rounds[roundId].winningNumbers.length == 0,\n            \"Winning numbers have already been drawn.\"\n        );\n        require(\n            LINK.balanceOf(address(this)) >= fee,\n            \"Not enough LINK to pay the fee.\"\n        );\n\n        requestRandomness(keyHash, fee);\n    }\n\n    // Fulfill randomness from Chainlink VRF and distribute prizes\n    function fulfillRandomness(\n        bytes32 requestId,\n        uint256 randomness\n    ) internal override {\n        randomResult = randomness;\n\n        // Generate unique winning numbers\n        uint8[] memory usedNumbers = new uint8[](50);\n        uint256 usedCount = 0;\n        uint256 generatedNumbers = 0;\n        while (generatedNumbers < 6) {\n            uint8 newNumber = uint8((randomResult % 50) + 1);\n            randomResult /= 50;\n\n            bool isNumberUsed = false;\n            for (uint256 i = 0; i < usedCount; i++) {\n                if (usedNumbers[i] == newNumber) {\n                    isNumberUsed = true;\n                    break;\n                }\n            }\n\n            if (!isNumberUsed) {\n                usedNumbers[usedCount++] = newNumber;\n                rounds[roundId].winningNumbers.push(newNumber);\n                generatedNumbers++;\n            }\n        }\n\n        // Sort winning numbers\n        rounds[roundId].winningNumbers = _sortNumbers(\n            rounds[roundId].winningNumbers\n        );\n        emit WinningNumbers(roundId, rounds[roundId].winningNumbers);\n    }\n\n    function distributePrizes() external onlyOwner {\n        require(\n            rounds[roundId].winningNumbers.length == 6,\n            \"Winning numbers have not been drawn yet.\"\n        );\n        // Update the winners\n        _updateWinners();\n\n        // Calculate and distribute prizes\n        _distributePrizes();\n\n        // Start a new round\n        _reset();\n    }\n\n    // Distribute prizes among the winners\n    function _distributePrizes() private {\n        // Send 10% of the current contract balance to the contract owner\n        uint256 totalPrizePool = address(this).balance;\n        uint256 prizePool = totalPrizePool;\n        uint256 ownerShare = (prizePool * 10) / 100;\n        payable(owner()).transfer(ownerShare);\n\n        // Send out the prizes to the winners\n        for (uint8 correctGuesses = 6; correctGuesses >= 1; correctGuesses--) {\n            uint256 winnerCount = rounds[roundId]\n                .winners[correctGuesses]\n                .length;\n            uint256 prizePerWinner = _calculatePrize(\n                totalPrizePool,\n                correctGuesses\n            ) / winnerCount;\n\n            for (uint256 i = 0; i < winnerCount; i++) {\n                address winner = rounds[roundId].winners[correctGuesses][i];\n                payable(winner).transfer(prizePerWinner);\n                emit PrizeClaimed(winner, prizePerWinner);\n            }\n        }\n\n        // Distribute token holder prizes\n        _distributeTokenHolderPrizes(totalPrizePool);\n\n        // Set the round details\n        rounds[roundId].ticketsSold = ticketCount;\n        rounds[roundId].drawnAt = block.timestamp;\n        rounds[roundId].prizePool = totalPrizePool;\n    }\n\n    function _updateWinners() private {\n        for (uint256 i = 1; i <= ticketCount; i++) {\n            uint256 correctGuesses = _getCorrectGuesses(i);\n            if (correctGuesses >= 1) {\n                rounds[roundId].winners[correctGuesses].push(tickets[i]);\n            }\n        }\n    }\n\n    function _distributeTokenHolderPrizes(uint256 totalPrizePool) private {\n        uint256 tokenHolderPrizePool = (totalPrizePool * 5) / 100;\n        uint256 totalTokensHeldByPlayers = 0;\n\n        // Calculate the total tokens held by players who participated in the game\n        for (uint256 i = 1; i <= ticketCount; i++) {\n            address player = tickets[i];\n            uint256 playerTokenBalance = token.balanceOf(player);\n            totalTokensHeldByPlayers = totalTokensHeldByPlayers.add(\n                playerTokenBalance\n            );\n        }\n\n        // Distribute the token holder prize pool based on the number of tokens held by each player\n        for (uint256 i = 1; i <= ticketCount; i++) {\n            address player = tickets[i];\n            uint256 playerTokenBalance = token.balanceOf(player);\n            if (playerTokenBalance > 0) {\n                uint256 playerPrize = (tokenHolderPrizePool *\n                    playerTokenBalance) / totalTokensHeldByPlayers;\n                payable(player).transfer(playerPrize);\n                emit TokenHolderPrizeClaimed(player, playerPrize);\n            }\n        }\n    }\n\n    // Get the count of correct guesses for a given ticket\n    function _getCorrectGuesses(\n        uint256 ticketNumber\n    ) private view returns (uint256) {\n        uint8[] memory userNumbers = ticketNumbers[ticketNumber];\n        uint256 correctGuesses = 0;\n        uint8[] memory winningNumbers = rounds[roundId].winningNumbers;\n\n        for (uint256 i = 0; i < userNumbers.length; i++) {\n            for (uint256 j = 0; j < winningNumbers.length; j++) {\n                if (userNumbers[i] == winningNumbers[j]) {\n                    correctGuesses++;\n                    break;\n                }\n            }\n        }\n\n        return correctGuesses;\n    }\n\n    // Calculate the prize amount based on the number of correct guesses\n    function _calculatePrize(\n        uint256 prizePool,\n        uint256 correctGuesses\n    ) private view returns (uint256) {\n        uint256 winnerCount;\n\n        if (correctGuesses == 6) {\n            winnerCount = _getWinnerCount(6);\n            return (prizePool * 40) / 100 / winnerCount; // 40% of the prize pool for 6 correct guesses\n        } else if (correctGuesses == 5) {\n            winnerCount = _getWinnerCount(5);\n            return (prizePool * 25) / 100 / winnerCount; // 20% of the prize pool for 5 correct guesses\n        } else if (correctGuesses == 4) {\n            winnerCount = _getWinnerCount(4);\n            return (prizePool * 10) / 100 / winnerCount; // 10% of the prize pool for 4 correct guesses\n        } else if (correctGuesses == 3) {\n            winnerCount = _getWinnerCount(3);\n            return (prizePool * 5) / 100 / winnerCount; // 5% of the prize pool for 3 correct guesses\n        } else if (correctGuesses == 2) {\n            winnerCount = _getWinnerCount(2);\n            return (prizePool * 3) / 100 / winnerCount; // 3% of the prize pool for 2 correct guesses\n        } else if (correctGuesses == 1) {\n            winnerCount = _getWinnerCount(1);\n            return (prizePool * 2) / 100 / winnerCount; // 2% of the prize pool for 1 correct guesses\n        }\n\n        return 0;\n    }\n\n    // Get the count of winners for a specific category (e.g., 6 correct guesses, 5 correct guesses, etc.)\n    function _getWinnerCount(\n        uint256 correctGuesses\n    ) private view returns (uint256) {\n        uint256 winnerCount = 0;\n\n        for (uint256 i = 1; i <= ticketCount; i++) {\n            if (_getCorrectGuesses(i) == correctGuesses) {\n                winnerCount++;\n            }\n        }\n\n        return winnerCount;\n    }\n\n    function _reset() private {\n        roundId++;\n        ticketCount = 0;\n    }\n\n    // Sorts an array of numbers in ascending order using Bubble Sort\n    function _sortNumbers(\n        uint8[] memory numbers\n    ) private pure returns (uint8[] memory) {\n        for (uint256 i = 0; i < numbers.length - 1; i++) {\n            for (uint256 j = 0; j < numbers.length - i - 1; j++) {\n                if (numbers[j] > numbers[j + 1]) {\n                    uint8 temp = numbers[j];\n                    numbers[j] = numbers[j + 1];\n                    numbers[j + 1] = temp;\n                }\n            }\n        }\n        return numbers;\n    }\n}\n",
  "sourcePath": "/home/d4fttasiii/git/gpt-lotto/src/lotto-contract/contracts/Game.sol",
  "compiler": {
    "name": "solc",
    "version": "0.8.18+commit.87f61d96.Emscripten.clang"
  },
  "schemaVersion": "3.4.11",
  "updatedAt": "2023-04-15T12:57:01.535Z",
  "devdoc": {
    "kind": "dev",
    "methods": {
      "owner()": {
        "details": "Returns the address of the current owner."
      },
      "renounceOwnership()": {
        "details": "Leaves the contract without owner. It will not be possible to call `onlyOwner` functions anymore. Can only be called by the current owner. NOTE: Renouncing ownership will leave the contract without an owner, thereby removing any functionality that is only available to the owner."
      },
      "transferOwnership(address)": {
        "details": "Transfers ownership of the contract to a new account (`newOwner`). Can only be called by the current owner."
      }
    },
    "version": 1
  },
  "userdoc": {
    "kind": "user",
    "methods": {},
    "version": 1
  }
}