{
  "contractName": "Game",
  "abi": [
    {
      "inputs": [
        {
          "internalType": "uint256",
          "name": "_ticketPrice",
          "type": "uint256"
        },
        {
          "internalType": "address",
          "name": "vrfCoordinator",
          "type": "address"
        },
        {
          "internalType": "address",
          "name": "linkToken",
          "type": "address"
        },
        {
          "internalType": "bytes32",
          "name": "_keyHash",
          "type": "bytes32"
        },
        {
          "internalType": "uint256",
          "name": "_fee",
          "type": "uint256"
        }
      ],
      "stateMutability": "nonpayable",
      "type": "constructor"
    },
    {
      "anonymous": false,
      "inputs": [
        {
          "indexed": true,
          "internalType": "address",
          "name": "previousOwner",
          "type": "address"
        },
        {
          "indexed": true,
          "internalType": "address",
          "name": "newOwner",
          "type": "address"
        }
      ],
      "name": "OwnershipTransferred",
      "type": "event"
    },
    {
      "anonymous": false,
      "inputs": [
        {
          "indexed": true,
          "internalType": "address",
          "name": "winner",
          "type": "address"
        },
        {
          "indexed": false,
          "internalType": "uint256",
          "name": "amount",
          "type": "uint256"
        }
      ],
      "name": "PrizeClaimed",
      "type": "event"
    },
    {
      "anonymous": false,
      "inputs": [
        {
          "indexed": true,
          "internalType": "address",
          "name": "buyer",
          "type": "address"
        },
        {
          "indexed": false,
          "internalType": "uint256",
          "name": "ticketCount",
          "type": "uint256"
        },
        {
          "indexed": false,
          "internalType": "uint256[]",
          "name": "numbers",
          "type": "uint256[]"
        }
      ],
      "name": "TicketPurchased",
      "type": "event"
    },
    {
      "anonymous": false,
      "inputs": [
        {
          "indexed": false,
          "internalType": "uint256[]",
          "name": "numbers",
          "type": "uint256[]"
        }
      ],
      "name": "WinningNumbers",
      "type": "event"
    },
    {
      "inputs": [],
      "name": "owner",
      "outputs": [
        {
          "internalType": "address",
          "name": "",
          "type": "address"
        }
      ],
      "stateMutability": "view",
      "type": "function"
    },
    {
      "inputs": [],
      "name": "randomResult",
      "outputs": [
        {
          "internalType": "uint256",
          "name": "",
          "type": "uint256"
        }
      ],
      "stateMutability": "view",
      "type": "function"
    },
    {
      "inputs": [
        {
          "internalType": "bytes32",
          "name": "requestId",
          "type": "bytes32"
        },
        {
          "internalType": "uint256",
          "name": "randomness",
          "type": "uint256"
        }
      ],
      "name": "rawFulfillRandomness",
      "outputs": [],
      "stateMutability": "nonpayable",
      "type": "function"
    },
    {
      "inputs": [],
      "name": "renounceOwnership",
      "outputs": [],
      "stateMutability": "nonpayable",
      "type": "function"
    },
    {
      "inputs": [],
      "name": "ticketCount",
      "outputs": [
        {
          "internalType": "uint256",
          "name": "",
          "type": "uint256"
        }
      ],
      "stateMutability": "view",
      "type": "function"
    },
    {
      "inputs": [
        {
          "internalType": "uint256",
          "name": "",
          "type": "uint256"
        },
        {
          "internalType": "uint256",
          "name": "",
          "type": "uint256"
        }
      ],
      "name": "ticketNumbers",
      "outputs": [
        {
          "internalType": "uint256",
          "name": "",
          "type": "uint256"
        }
      ],
      "stateMutability": "view",
      "type": "function"
    },
    {
      "inputs": [],
      "name": "ticketPrice",
      "outputs": [
        {
          "internalType": "uint256",
          "name": "",
          "type": "uint256"
        }
      ],
      "stateMutability": "view",
      "type": "function"
    },
    {
      "inputs": [
        {
          "internalType": "uint256",
          "name": "",
          "type": "uint256"
        }
      ],
      "name": "tickets",
      "outputs": [
        {
          "internalType": "address payable",
          "name": "",
          "type": "address"
        }
      ],
      "stateMutability": "view",
      "type": "function"
    },
    {
      "inputs": [
        {
          "internalType": "address",
          "name": "newOwner",
          "type": "address"
        }
      ],
      "name": "transferOwnership",
      "outputs": [],
      "stateMutability": "nonpayable",
      "type": "function"
    },
    {
      "inputs": [
        {
          "internalType": "uint256",
          "name": "",
          "type": "uint256"
        }
      ],
      "name": "winningNumbers",
      "outputs": [
        {
          "internalType": "uint256",
          "name": "",
          "type": "uint256"
        }
      ],
      "stateMutability": "view",
      "type": "function"
    },
    {
      "inputs": [
        {
          "internalType": "uint256[]",
          "name": "numbers",
          "type": "uint256[]"
        }
      ],
      "name": "buyTicket",
      "outputs": [],
      "stateMutability": "payable",
      "type": "function"
    },
    {
      "inputs": [],
      "name": "drawWinningNumbers",
      "outputs": [],
      "stateMutability": "nonpayable",
      "type": "function"
    }
  ],
  "bytecode": "0x60c06040523480156200001157600080fd5b506040516200257738038062002577833981810160405281019062000037919062000291565b83838173ffffffffffffffffffffffffffffffffffffffff1660a08173ffffffffffffffffffffffffffffffffffffffff16815250508073ffffffffffffffffffffffffffffffffffffffff1660808173ffffffffffffffffffffffffffffffffffffffff16815250505050620000c3620000b7620000e360201b60201c565b620000eb60201b60201c565b846005819055508160028190555080600381905550505050505062000319565b600033905090565b6000600160009054906101000a900473ffffffffffffffffffffffffffffffffffffffff16905081600160006101000a81548173ffffffffffffffffffffffffffffffffffffffff021916908373ffffffffffffffffffffffffffffffffffffffff1602179055508173ffffffffffffffffffffffffffffffffffffffff168173ffffffffffffffffffffffffffffffffffffffff167f8be0079c531659141344cd1fd0a4f28419497f9722a3daafe3b4186f6b6457e060405160405180910390a35050565b600080fd5b6000819050919050565b620001cb81620001b6565b8114620001d757600080fd5b50565b600081519050620001eb81620001c0565b92915050565b600073ffffffffffffffffffffffffffffffffffffffff82169050919050565b60006200021e82620001f1565b9050919050565b620002308162000211565b81146200023c57600080fd5b50565b600081519050620002508162000225565b92915050565b6000819050919050565b6200026b8162000256565b81146200027757600080fd5b50565b6000815190506200028b8162000260565b92915050565b600080600080600060a08688031215620002b057620002af620001b1565b5b6000620002c088828901620001da565b9550506020620002d3888289016200023f565b9450506040620002e6888289016200023f565b9350506060620002f9888289016200027a565b92505060806200030c88828901620001da565b9150509295509295909350565b60805160a05161222a6200034d6000396000818161079301526109a50152600081816103a80152610969015261222a6000f3fe6080604052600436106100a75760003560e01c8063716cac9611610064578063716cac96146101aa5780638da5cb5b146101c657806394985ddd146101f1578063b217be051461021a578063cfbd900f14610257578063f2fde38b14610282576100a7565b80631209b1f6146100ac57806342619f66146100d75780634e45f0951461010257806350b447121461013f578063608620aa1461017c578063715018a614610193575b600080fd5b3480156100b857600080fd5b506100c16102ab565b6040516100ce919061132c565b60405180910390f35b3480156100e357600080fd5b506100ec6102b1565b6040516100f9919061132c565b60405180910390f35b34801561010e57600080fd5b5061012960048036038101906101249190611387565b6102b7565b604051610136919061132c565b60405180910390f35b34801561014b57600080fd5b5061016660048036038101906101619190611387565b6102db565b60405161017391906113f5565b60405180910390f35b34801561018857600080fd5b5061019161030e565b005b34801561019f57600080fd5b506101a8610492565b005b6101c460048036038101906101bf9190611569565b6104a6565b005b3480156101d257600080fd5b506101db610767565b6040516101e891906115d3565b60405180910390f35b3480156101fd57600080fd5b5061021860048036038101906102139190611624565b610791565b005b34801561022657600080fd5b50610241600480360381019061023c9190611664565b61082d565b60405161024e919061132c565b60405180910390f35b34801561026357600080fd5b5061026c61085e565b604051610279919061132c565b60405180910390f35b34801561028e57600080fd5b506102a960048036038101906102a491906116d0565b610864565b005b60055481565b60045481565b600781815481106102c757600080fd5b906000526020600020016000915090505481565b60086020528060005260406000206000915054906101000a900473ffffffffffffffffffffffffffffffffffffffff1681565b6103166108e7565b60006006541161035b576040517f08c379a00000000000000000000000000000000000000000000000000000000081526004016103529061175a565b60405180910390fd5b6000600780549050146103a3576040517f08c379a000000000000000000000000000000000000000000000000000000000815260040161039a906117ec565b60405180910390fd5b6003547f000000000000000000000000000000000000000000000000000000000000000073ffffffffffffffffffffffffffffffffffffffff166370a08231306040518263ffffffff1660e01b81526004016103ff91906115d3565b602060405180830381865afa15801561041c573d6000803e3d6000fd5b505050506040513d601f19601f820116820180604052508101906104409190611821565b1015610481576040517f08c379a00000000000000000000000000000000000000000000000000000000081526004016104789061189a565b60405180910390fd5b61048f600254600354610965565b50565b61049a6108e7565b6104a46000610ab5565b565b60055434146104ea576040517f08c379a00000000000000000000000000000000000000000000000000000000081526004016104e190611906565b60405180910390fd5b600681511461052e576040517f08c379a000000000000000000000000000000000000000000000000000000000815260040161052590611998565b60405180910390fd5b60005b815181101561067757600182828151811061054f5761054e6119b8565b5b60200260200101511015801561058057506032828281518110610575576105746119b8565b5b602002602001015111155b6105bf576040517f08c379a00000000000000000000000000000000000000000000000000000000081526004016105b690611a59565b60405180910390fd5b60006001826105ce9190611aa8565b90505b8251811015610663578281815181106105ed576105ec6119b8565b5b6020026020010151838381518110610608576106076119b8565b5b602002602001015103610650576040517f08c379a000000000000000000000000000000000000000000000000000000000815260040161064790611b28565b60405180910390fd5b808061065b90611b48565b9150506105d1565b50808061066f90611b48565b915050610531565b5061068e6001600654610b7b90919063ffffffff16565b6006819055503360086000600654815260200190815260200160002060006101000a81548173ffffffffffffffffffffffffffffffffffffffff021916908373ffffffffffffffffffffffffffffffffffffffff1602179055508060096000600654815260200190815260200160002090805190602001906107119291906112a9565b503373ffffffffffffffffffffffffffffffffffffffff167f2546fcbd360d6d1cc109f2e4ab1f9d658fe6067fd8d3640cd5dd9c3940e19d6f6006548360405161075c929190611c4e565b60405180910390a250565b6000600160009054906101000a900473ffffffffffffffffffffffffffffffffffffffff16905090565b7f000000000000000000000000000000000000000000000000000000000000000073ffffffffffffffffffffffffffffffffffffffff163373ffffffffffffffffffffffffffffffffffffffff161461081f576040517f08c379a000000000000000000000000000000000000000000000000000000000815260040161081690611cca565b60405180910390fd5b6108298282610b91565b5050565b6009602052816000526040600020818154811061084957600080fd5b90600052602060002001600091509150505481565b60065481565b61086c6108e7565b600073ffffffffffffffffffffffffffffffffffffffff168173ffffffffffffffffffffffffffffffffffffffff16036108db576040517f08c379a00000000000000000000000000000000000000000000000000000000081526004016108d290611d5c565b60405180910390fd5b6108e481610ab5565b50565b6108ef610d2d565b73ffffffffffffffffffffffffffffffffffffffff1661090d610767565b73ffffffffffffffffffffffffffffffffffffffff1614610963576040517f08c379a000000000000000000000000000000000000000000000000000000000815260040161095a90611dc8565b60405180910390fd5b565b60007f000000000000000000000000000000000000000000000000000000000000000073ffffffffffffffffffffffffffffffffffffffff16634000aea07f0000000000000000000000000000000000000000000000000000000000000000848660006040516020016109d9929190611df7565b6040516020818303038152906040526040518463ffffffff1660e01b8152600401610a0693929190611e9f565b6020604051808303816000875af1158015610a25573d6000803e3d6000fd5b505050506040513d601f19601f82011682018060405250810190610a499190611f15565b506000610a6b8460003060008089815260200190815260200160002054610d35565b9050600160008086815260200190815260200160002054610a8c9190611aa8565b60008086815260200190815260200160002081905550610aac8482610d71565b91505092915050565b6000600160009054906101000a900473ffffffffffffffffffffffffffffffffffffffff16905081600160006101000a81548173ffffffffffffffffffffffffffffffffffffffff021916908373ffffffffffffffffffffffffffffffffffffffff1602179055508173ffffffffffffffffffffffffffffffffffffffff168173ffffffffffffffffffffffffffffffffffffffff167f8be0079c531659141344cd1fd0a4f28419497f9722a3daafe3b4186f6b6457e060405160405180910390a35050565b60008183610b899190611aa8565b905092915050565b806004819055506000603267ffffffffffffffff811115610bb557610bb4611426565b5b604051908082528060200260200182016040528015610be35781602001602082028036833780820191505090505b5090506000805b6006811015610ce657600060016032600454610c069190611f71565b610c109190611aa8565b9050603260046000828254610c259190611fa2565b925050819055506000805b84811015610c755782868281518110610c4c57610c4b6119b8565b5b602002602001015103610c625760019150610c75565b8080610c6d90611b48565b915050610c30565b5080610cdf5781858580610c8890611b48565b965081518110610c9b57610c9a6119b8565b5b60200260200101818152505060078290806001815401808255809150506001900390600052602060002001600090919091909150558280610cdb90611b48565b9350505b5050610bea565b7fd388f1b6879288c1fd416bc5d6d9d3fec6eacfa73bb80b2ef0a2c63adc6fd2606007604051610d1691906120a9565b60405180910390a1610d26610da4565b5050505050565b600033905090565b600084848484604051602001610d4e94939291906120cb565b6040516020818303038152906040528051906020012060001c9050949350505050565b60008282604051602001610d86929190612152565b60405160208183030381529060405280519060200120905092915050565b6000600654600554610db6919061217e565b9050600060065467ffffffffffffffff811115610dd657610dd5611426565b5b604051908082528060200260200182016040528015610e045781602001602082028036833780820191505090505b509050600060065467ffffffffffffffff811115610e2557610e24611426565b5b604051908082528060200260200182016040528015610e535781602001602082028036833780820191505090505b509050600080600190505b6006548111610f08576000610e7282611069565b90506000610e7f82611171565b9050600081118015610e915750868111155b15610ef35782868581518110610eaa57610ea96119b8565b5b60200260200101818152505080858581518110610eca57610ec96119b8565b5b6020026020010181815250508380610ee190611b48565b9450508087610ef091906121c0565b96505b50508080610f0090611b48565b915050610e5e565b5060005b81811015611062576000848281518110610f2957610f286119b8565b5b602002602001015190506000848381518110610f4857610f476119b8565b5b602002602001015190506008600083815260200190815260200160002060009054906101000a900473ffffffffffffffffffffffffffffffffffffffff1673ffffffffffffffffffffffffffffffffffffffff166108fc829081150290604051600060405180830381858888f19350505050158015610fcb573d6000803e3d6000fd5b506008600083815260200190815260200160002060009054906101000a900473ffffffffffffffffffffffffffffffffffffffff1673ffffffffffffffffffffffffffffffffffffffff167f95681e512bc0fe659e195e06c283eada494316f3d801213e48e7101af92bf77082604051611045919061132c565b60405180910390a25050808061105a90611b48565b915050610f0c565b5050505050565b600080600960008481526020019081526020016000208054806020026020016040519081016040528092919081815260200182805480156110c957602002820191906000526020600020905b8154815260200190600101908083116110b5575b505050505090506000805b82518110156111665760005b6007805490508110156111525760078181548110611101576111006119b8565b5b906000526020600020015484838151811061111f5761111e6119b8565b5b60200260200101510361113f57828061113790611b48565b935050611152565b808061114a90611b48565b9150506110e0565b50808061115e90611b48565b9150506110d4565b508092505050919050565b600080600654600554611184919061217e565b90506000600684036111c95761119a6006611257565b90508060646032846111ac919061217e565b6111b69190611fa2565b6111c09190611fa2565b92505050611252565b6005840361120a576111db6005611257565b90508060646019846111ed919061217e565b6111f79190611fa2565b6112019190611fa2565b92505050611252565b6004840361124b5761121c6004611257565b9050806064600a8461122e919061217e565b6112389190611fa2565b6112429190611fa2565b92505050611252565b6000925050505b919050565b600080600090506000600190505b600654811161129f578361127882611069565b0361128c57818061128890611b48565b9250505b808061129790611b48565b915050611265565b5080915050919050565b8280548282559060005260206000209081019282156112e5579160200282015b828111156112e45782518255916020019190600101906112c9565b5b5090506112f291906112f6565b5090565b5b8082111561130f5760008160009055506001016112f7565b5090565b6000819050919050565b61132681611313565b82525050565b6000602082019050611341600083018461131d565b92915050565b6000604051905090565b600080fd5b600080fd5b61136481611313565b811461136f57600080fd5b50565b6000813590506113818161135b565b92915050565b60006020828403121561139d5761139c611351565b5b60006113ab84828501611372565b91505092915050565b600073ffffffffffffffffffffffffffffffffffffffff82169050919050565b60006113df826113b4565b9050919050565b6113ef816113d4565b82525050565b600060208201905061140a60008301846113e6565b92915050565b600080fd5b6000601f19601f8301169050919050565b7f4e487b7100000000000000000000000000000000000000000000000000000000600052604160045260246000fd5b61145e82611415565b810181811067ffffffffffffffff8211171561147d5761147c611426565b5b80604052505050565b6000611490611347565b905061149c8282611455565b919050565b600067ffffffffffffffff8211156114bc576114bb611426565b5b602082029050602081019050919050565b600080fd5b60006114e56114e0846114a1565b611486565b90508083825260208201905060208402830185811115611508576115076114cd565b5b835b81811015611531578061151d8882611372565b84526020840193505060208101905061150a565b5050509392505050565b600082601f8301126115505761154f611410565b5b81356115608482602086016114d2565b91505092915050565b60006020828403121561157f5761157e611351565b5b600082013567ffffffffffffffff81111561159d5761159c611356565b5b6115a98482850161153b565b91505092915050565b60006115bd826113b4565b9050919050565b6115cd816115b2565b82525050565b60006020820190506115e860008301846115c4565b92915050565b6000819050919050565b611601816115ee565b811461160c57600080fd5b50565b60008135905061161e816115f8565b92915050565b6000806040838503121561163b5761163a611351565b5b60006116498582860161160f565b925050602061165a85828601611372565b9150509250929050565b6000806040838503121561167b5761167a611351565b5b600061168985828601611372565b925050602061169a85828601611372565b9150509250929050565b6116ad816115b2565b81146116b857600080fd5b50565b6000813590506116ca816116a4565b92915050565b6000602082840312156116e6576116e5611351565b5b60006116f4848285016116bb565b91505092915050565b600082825260208201905092915050565b7f4e6f207469636b6574732068617665206265656e20736f6c642e000000000000600082015250565b6000611744601a836116fd565b915061174f8261170e565b602082019050919050565b6000602082019050818103600083015261177381611737565b9050919050565b7f57696e6e696e67206e756d62657273206861766520616c72656164792062656560008201527f6e20647261776e2e000000000000000000000000000000000000000000000000602082015250565b60006117d66028836116fd565b91506117e18261177a565b604082019050919050565b60006020820190508181036000830152611805816117c9565b9050919050565b60008151905061181b8161135b565b92915050565b60006020828403121561183757611836611351565b5b60006118458482850161180c565b91505092915050565b7f4e6f7420656e6f756768204c494e4b20746f2070617920746865206665652e00600082015250565b6000611884601f836116fd565b915061188f8261184e565b602082019050919050565b600060208201905081810360008301526118b381611877565b9050919050565b7f496e636f7272656374207469636b65742070726963652e000000000000000000600082015250565b60006118f06017836116fd565b91506118fb826118ba565b602082019050919050565b6000602082019050818103600083015261191f816118e3565b9050919050565b7f596f75206d7573742070726f766964652065786163746c79203620756e69717560008201527f65206e756d626572732e00000000000000000000000000000000000000000000602082015250565b6000611982602a836116fd565b915061198d82611926565b604082019050919050565b600060208201905081810360008301526119b181611975565b9050919050565b7f4e487b7100000000000000000000000000000000000000000000000000000000600052603260045260246000fd5b7f4e756d62657273206d757374206265206265747765656e203120616e6420353060008201527f2e00000000000000000000000000000000000000000000000000000000000000602082015250565b6000611a436021836116fd565b9150611a4e826119e7565b604082019050919050565b60006020820190508181036000830152611a7281611a36565b9050919050565b7f4e487b7100000000000000000000000000000000000000000000000000000000600052601160045260246000fd5b6000611ab382611313565b9150611abe83611313565b9250828201905080821115611ad657611ad5611a79565b5b92915050565b7f4e756d62657273206d75737420626520756e697175652e000000000000000000600082015250565b6000611b126017836116fd565b9150611b1d82611adc565b602082019050919050565b60006020820190508181036000830152611b4181611b05565b9050919050565b6000611b5382611313565b91507fffffffffffffffffffffffffffffffffffffffffffffffffffffffffffffffff8203611b8557611b84611a79565b5b600182019050919050565b600081519050919050565b600082825260208201905092915050565b6000819050602082019050919050565b611bc581611313565b82525050565b6000611bd78383611bbc565b60208301905092915050565b6000602082019050919050565b6000611bfb82611b90565b611c058185611b9b565b9350611c1083611bac565b8060005b83811015611c41578151611c288882611bcb565b9750611c3383611be3565b925050600181019050611c14565b5085935050505092915050565b6000604082019050611c63600083018561131d565b8181036020830152611c758184611bf0565b90509392505050565b7f4f6e6c7920565246436f6f7264696e61746f722063616e2066756c66696c6c00600082015250565b6000611cb4601f836116fd565b9150611cbf82611c7e565b602082019050919050565b60006020820190508181036000830152611ce381611ca7565b9050919050565b7f4f776e61626c653a206e6577206f776e657220697320746865207a65726f206160008201527f6464726573730000000000000000000000000000000000000000000000000000602082015250565b6000611d466026836116fd565b9150611d5182611cea565b604082019050919050565b60006020820190508181036000830152611d7581611d39565b9050919050565b7f4f776e61626c653a2063616c6c6572206973206e6f7420746865206f776e6572600082015250565b6000611db26020836116fd565b9150611dbd82611d7c565b602082019050919050565b60006020820190508181036000830152611de181611da5565b9050919050565b611df1816115ee565b82525050565b6000604082019050611e0c6000830185611de8565b611e19602083018461131d565b9392505050565b600081519050919050565b600082825260208201905092915050565b60005b83811015611e5a578082015181840152602081019050611e3f565b60008484015250505050565b6000611e7182611e20565b611e7b8185611e2b565b9350611e8b818560208601611e3c565b611e9481611415565b840191505092915050565b6000606082019050611eb460008301866115c4565b611ec1602083018561131d565b8181036040830152611ed38184611e66565b9050949350505050565b60008115159050919050565b611ef281611edd565b8114611efd57600080fd5b50565b600081519050611f0f81611ee9565b92915050565b600060208284031215611f2b57611f2a611351565b5b6000611f3984828501611f00565b91505092915050565b7f4e487b7100000000000000000000000000000000000000000000000000000000600052601260045260246000fd5b6000611f7c82611313565b9150611f8783611313565b925082611f9757611f96611f42565b5b828206905092915050565b6000611fad82611313565b9150611fb883611313565b925082611fc857611fc7611f42565b5b828204905092915050565b600081549050919050565b60008190508160005260206000209050919050565b60008160001c9050919050565b6000819050919050565b600061201d61201883611ff3565b612000565b9050919050565b6000612030825461200a565b9050919050565b6000600182019050919050565b600061204f82611fd3565b6120598185611b9b565b935061206483611fde565b8060005b8381101561209c5761207982612024565b6120838882611bcb565b975061208e83612037565b925050600181019050612068565b5085935050505092915050565b600060208201905081810360008301526120c38184612044565b905092915050565b60006080820190506120e06000830187611de8565b6120ed602083018661131d565b6120fa60408301856115c4565b612107606083018461131d565b95945050505050565b6000819050919050565b61212b612126826115ee565b612110565b82525050565b6000819050919050565b61214c61214782611313565b612131565b82525050565b600061215e828561211a565b60208201915061216e828461213b565b6020820191508190509392505050565b600061218982611313565b915061219483611313565b92508282026121a281611313565b915082820484148315176121b9576121b8611a79565b5b5092915050565b60006121cb82611313565b91506121d683611313565b92508282039050818111156121ee576121ed611a79565b5b9291505056fea2646970667358221220d617f559af55fc45e0455249e36d81c269ff7e0acf7dbfaa1c4cb6a899051c5464736f6c63430008120033",
  "immutableReferences": {
    "73": [
      {
        "length": 32,
        "start": 936
      },
      {
        "length": 32,
        "start": 2409
      }
    ],
    "75": [
      {
        "length": 32,
        "start": 1939
      },
      {
        "length": 32,
        "start": 2469
      }
    ]
  },
  "source": "pragma solidity ^0.8.0;\n\nimport \"@openzeppelin/contracts/utils/math/SafeMath.sol\";\nimport \"@openzeppelin/contracts/access/Ownable.sol\";\nimport \"@chainlink/contracts/src/v0.8/VRFConsumerBase.sol\";\n\ncontract Game is VRFConsumerBase, Ownable {\n    using SafeMath for uint256;\n\n    bytes32 private keyHash;\n    uint256 private fee;\n    uint256 public randomResult;\n\n    uint256 public ticketPrice;\n    uint256 public ticketCount;\n    uint256[] public winningNumbers;\n    mapping(uint256 => address payable) public tickets;\n    mapping(uint256 => uint256[]) public ticketNumbers;\n\n    event TicketPurchased(\n        address indexed buyer,\n        uint256 ticketCount,\n        uint256[] numbers\n    );\n    event WinningNumbers(uint256[] numbers);\n    event PrizeClaimed(address indexed winner, uint256 amount);\n\n    constructor(\n        uint256 _ticketPrice,\n        address vrfCoordinator,\n        address linkToken,\n        bytes32 _keyHash,\n        uint256 _fee\n    ) VRFConsumerBase(vrfCoordinator, linkToken) {\n        ticketPrice = _ticketPrice;\n        keyHash = _keyHash;\n        fee = _fee;\n    }\n\n    function buyTicket(uint256[] memory numbers) public payable {\n        require(msg.value == ticketPrice, \"Incorrect ticket price.\");\n        require(\n            numbers.length == 6,\n            \"You must provide exactly 6 unique numbers.\"\n        );\n\n        // Validate the provided numbers\n        for (uint256 i = 0; i < numbers.length; i++) {\n            require(\n                numbers[i] >= 1 && numbers[i] <= 50,\n                \"Numbers must be between 1 and 50.\"\n            );\n            for (uint256 j = i + 1; j < numbers.length; j++) {\n                require(numbers[i] != numbers[j], \"Numbers must be unique.\");\n            }\n        }\n\n        ticketCount = ticketCount.add(1);\n        tickets[ticketCount] = payable(msg.sender);\n        ticketNumbers[ticketCount] = numbers;\n        emit TicketPurchased(msg.sender, ticketCount, numbers);\n    }\n\n    function drawWinningNumbers() public onlyOwner {\n        require(ticketCount > 0, \"No tickets have been sold.\");\n        require(\n            winningNumbers.length == 0,\n            \"Winning numbers have already been drawn.\"\n        );\n        require(\n            LINK.balanceOf(address(this)) >= fee,\n            \"Not enough LINK to pay the fee.\"\n        );\n\n        requestRandomness(keyHash, fee);\n    }\n\n    function fulfillRandomness(\n        bytes32 requestId,\n        uint256 randomness\n    ) internal override {\n        randomResult = randomness;\n\n        // Generate unique winning numbers\n        uint256[] memory usedNumbers = new uint256[](50);\n        uint256 usedCount = 0;\n        uint256 generatedNumbers = 0;\n        while (generatedNumbers < 6) {\n            uint256 newNumber = (randomResult % 50) + 1;\n            randomResult /= 50;\n\n            bool isNumberUsed = false;\n            for (uint256 i = 0; i < usedCount; i++) {\n                if (usedNumbers[i] == newNumber) {\n                    isNumberUsed = true;\n                    break;\n                }\n            }\n\n            if (!isNumberUsed) {\n                usedNumbers[usedCount++] = newNumber;\n                winningNumbers.push(newNumber);\n                generatedNumbers++;\n            }\n        }\n        emit WinningNumbers(winningNumbers);\n\n        // Calculate and distribute prizes\n        distributePrizes();\n    }\n\n    function distributePrizes() private {\n        uint256 prizePool = ticketPrice * ticketCount;\n        uint256[] memory winnerTicketIndexes = new uint256[](ticketCount);\n        uint256[] memory winnerPrizes = new uint256[](ticketCount);\n        uint256 winnerCount = 0;\n\n        // Calculate the winners and their prizes\n        for (uint256 i = 1; i <= ticketCount; i++) {\n            uint256 correctGuesses = getCorrectGuesses(i);\n            uint256 prize = calculatePrize(correctGuesses);\n\n            if (prize > 0 && prize <= prizePool) {\n                winnerTicketIndexes[winnerCount] = i;\n                winnerPrizes[winnerCount] = prize;\n                winnerCount++;\n                prizePool -= prize;\n            }\n        }\n\n        // Send out the prizes to the winners\n        for (uint256 i = 0; i < winnerCount; i++) {\n            uint256 ticketIndex = winnerTicketIndexes[i];\n            uint256 prize = winnerPrizes[i];\n            payable(tickets[ticketIndex]).transfer(prize);\n            emit PrizeClaimed(tickets[ticketIndex], prize);\n        }\n    }\n\n    function getCorrectGuesses(\n        uint256 ticketNumber\n    ) private view returns (uint256) {\n        uint256[] memory userNumbers = ticketNumbers[ticketNumber];\n        uint256 correctGuesses = 0;\n\n        for (uint256 i = 0; i < userNumbers.length; i++) {\n            for (uint256 j = 0; j < winningNumbers.length; j++) {\n                if (userNumbers[i] == winningNumbers[j]) {\n                    correctGuesses++;\n                    break;\n                }\n            }\n        }\n\n        return correctGuesses;\n    }\n\n    function calculatePrize(\n        uint256 correctGuesses\n    ) private view returns (uint256) {\n        uint256 prizePool = ticketPrice * ticketCount;\n        uint256 winnerCount;\n\n        if (correctGuesses == 6) {\n            winnerCount = getWinnerCount(6);\n            return (prizePool * 50) / 100 / winnerCount; // 50% of the prize pool for 6 correct guesses\n        } else if (correctGuesses == 5) {\n            winnerCount = getWinnerCount(5);\n            return (prizePool * 25) / 100 / winnerCount; // 25% of the prize pool for 5 correct guesses\n        } else if (correctGuesses == 4) {\n            winnerCount = getWinnerCount(4);\n            return (prizePool * 10) / 100 / winnerCount; // 10% of the prize pool for 4 correct guesses\n        }\n\n        return 0;\n    }\n\n    function getWinnerCount(\n        uint256 correctGuesses\n    ) private view returns (uint256) {\n        uint256 winnerCount = 0;\n\n        for (uint256 i = 1; i <= ticketCount; i++) {\n            if (getCorrectGuesses(i) == correctGuesses) {\n                winnerCount++;\n            }\n        }\n\n        return winnerCount;\n    }\n}\n",
  "sourcePath": "/home/d4fttasiii/git/gpt-lotto/src/lotto-contract/contracts/Game.sol",
  "compiler": {
    "name": "solc",
    "version": "0.8.18+commit.87f61d96.Emscripten.clang"
  },
  "schemaVersion": "3.4.11",
  "updatedAt": "2023-04-08T12:13:35.366Z",
  "devdoc": {
    "kind": "dev",
    "methods": {
      "owner()": {
        "details": "Returns the address of the current owner."
      },
      "renounceOwnership()": {
        "details": "Leaves the contract without owner. It will not be possible to call `onlyOwner` functions anymore. Can only be called by the current owner. NOTE: Renouncing ownership will leave the contract without an owner, thereby removing any functionality that is only available to the owner."
      },
      "transferOwnership(address)": {
        "details": "Transfers ownership of the contract to a new account (`newOwner`). Can only be called by the current owner."
      }
    },
    "version": 1
  },
  "userdoc": {
    "kind": "user",
    "methods": {},
    "version": 1
  }
}