{
  "contractName": "Game",
  "abi": [
    {
      "inputs": [
        {
          "internalType": "uint256",
          "name": "_ticketPrice",
          "type": "uint256"
        },
        {
          "internalType": "address",
          "name": "_lottoToken",
          "type": "address"
        },
        {
          "internalType": "address",
          "name": "vrfCoordinator",
          "type": "address"
        },
        {
          "internalType": "address",
          "name": "linkToken",
          "type": "address"
        },
        {
          "internalType": "bytes32",
          "name": "_keyHash",
          "type": "bytes32"
        },
        {
          "internalType": "uint256",
          "name": "_fee",
          "type": "uint256"
        }
      ],
      "stateMutability": "nonpayable",
      "type": "constructor"
    },
    {
      "anonymous": false,
      "inputs": [
        {
          "indexed": true,
          "internalType": "address",
          "name": "previousOwner",
          "type": "address"
        },
        {
          "indexed": true,
          "internalType": "address",
          "name": "newOwner",
          "type": "address"
        }
      ],
      "name": "OwnershipTransferred",
      "type": "event"
    },
    {
      "anonymous": false,
      "inputs": [
        {
          "indexed": true,
          "internalType": "address",
          "name": "winner",
          "type": "address"
        },
        {
          "indexed": false,
          "internalType": "uint256",
          "name": "amount",
          "type": "uint256"
        }
      ],
      "name": "PrizeClaimed",
      "type": "event"
    },
    {
      "anonymous": false,
      "inputs": [
        {
          "indexed": true,
          "internalType": "address",
          "name": "buyer",
          "type": "address"
        },
        {
          "indexed": false,
          "internalType": "uint256",
          "name": "ticketCount",
          "type": "uint256"
        },
        {
          "indexed": false,
          "internalType": "uint8[]",
          "name": "numbers",
          "type": "uint8[]"
        }
      ],
      "name": "TicketPurchased",
      "type": "event"
    },
    {
      "anonymous": false,
      "inputs": [
        {
          "indexed": true,
          "internalType": "address",
          "name": "winner",
          "type": "address"
        },
        {
          "indexed": false,
          "internalType": "uint256",
          "name": "amount",
          "type": "uint256"
        }
      ],
      "name": "TokenHolderPrizeClaimed",
      "type": "event"
    },
    {
      "anonymous": false,
      "inputs": [
        {
          "indexed": false,
          "internalType": "uint256",
          "name": "roundId",
          "type": "uint256"
        },
        {
          "indexed": false,
          "internalType": "uint8[]",
          "name": "numbers",
          "type": "uint8[]"
        }
      ],
      "name": "WinningNumbers",
      "type": "event"
    },
    {
      "inputs": [],
      "name": "owner",
      "outputs": [
        {
          "internalType": "address",
          "name": "",
          "type": "address"
        }
      ],
      "stateMutability": "view",
      "type": "function",
      "constant": true
    },
    {
      "inputs": [],
      "name": "randomResult",
      "outputs": [
        {
          "internalType": "uint256",
          "name": "",
          "type": "uint256"
        }
      ],
      "stateMutability": "view",
      "type": "function",
      "constant": true
    },
    {
      "inputs": [
        {
          "internalType": "bytes32",
          "name": "requestId",
          "type": "bytes32"
        },
        {
          "internalType": "uint256",
          "name": "randomness",
          "type": "uint256"
        }
      ],
      "name": "rawFulfillRandomness",
      "outputs": [],
      "stateMutability": "nonpayable",
      "type": "function"
    },
    {
      "inputs": [],
      "name": "renounceOwnership",
      "outputs": [],
      "stateMutability": "nonpayable",
      "type": "function"
    },
    {
      "inputs": [],
      "name": "roundId",
      "outputs": [
        {
          "internalType": "uint256",
          "name": "",
          "type": "uint256"
        }
      ],
      "stateMutability": "view",
      "type": "function",
      "constant": true
    },
    {
      "inputs": [
        {
          "internalType": "uint256",
          "name": "",
          "type": "uint256"
        }
      ],
      "name": "rounds",
      "outputs": [
        {
          "internalType": "uint256",
          "name": "roundId",
          "type": "uint256"
        },
        {
          "internalType": "uint256",
          "name": "ticketsSold",
          "type": "uint256"
        },
        {
          "internalType": "uint256",
          "name": "drawnAt",
          "type": "uint256"
        },
        {
          "internalType": "uint256",
          "name": "prizePool",
          "type": "uint256"
        }
      ],
      "stateMutability": "view",
      "type": "function",
      "constant": true
    },
    {
      "inputs": [],
      "name": "ticketCount",
      "outputs": [
        {
          "internalType": "uint256",
          "name": "",
          "type": "uint256"
        }
      ],
      "stateMutability": "view",
      "type": "function",
      "constant": true
    },
    {
      "inputs": [
        {
          "internalType": "uint256",
          "name": "",
          "type": "uint256"
        },
        {
          "internalType": "uint256",
          "name": "",
          "type": "uint256"
        }
      ],
      "name": "ticketNumbers",
      "outputs": [
        {
          "internalType": "uint8",
          "name": "",
          "type": "uint8"
        }
      ],
      "stateMutability": "view",
      "type": "function",
      "constant": true
    },
    {
      "inputs": [],
      "name": "ticketPrice",
      "outputs": [
        {
          "internalType": "uint256",
          "name": "",
          "type": "uint256"
        }
      ],
      "stateMutability": "view",
      "type": "function",
      "constant": true
    },
    {
      "inputs": [
        {
          "internalType": "uint256",
          "name": "",
          "type": "uint256"
        }
      ],
      "name": "tickets",
      "outputs": [
        {
          "internalType": "address payable",
          "name": "",
          "type": "address"
        }
      ],
      "stateMutability": "view",
      "type": "function",
      "constant": true
    },
    {
      "inputs": [
        {
          "internalType": "address",
          "name": "newOwner",
          "type": "address"
        }
      ],
      "name": "transferOwnership",
      "outputs": [],
      "stateMutability": "nonpayable",
      "type": "function"
    },
    {
      "inputs": [
        {
          "internalType": "address",
          "name": "",
          "type": "address"
        },
        {
          "internalType": "uint256",
          "name": "",
          "type": "uint256"
        }
      ],
      "name": "userTickets",
      "outputs": [
        {
          "internalType": "uint256",
          "name": "",
          "type": "uint256"
        }
      ],
      "stateMutability": "view",
      "type": "function",
      "constant": true
    },
    {
      "inputs": [
        {
          "internalType": "uint256",
          "name": "",
          "type": "uint256"
        }
      ],
      "name": "winningNumbers",
      "outputs": [
        {
          "internalType": "uint8",
          "name": "",
          "type": "uint8"
        }
      ],
      "stateMutability": "view",
      "type": "function",
      "constant": true
    },
    {
      "inputs": [
        {
          "internalType": "uint256",
          "name": "newTicketPrice",
          "type": "uint256"
        }
      ],
      "name": "updateTicketPrice",
      "outputs": [],
      "stateMutability": "nonpayable",
      "type": "function"
    },
    {
      "inputs": [
        {
          "internalType": "uint8[]",
          "name": "numbers",
          "type": "uint8[]"
        }
      ],
      "name": "buyTicket",
      "outputs": [],
      "stateMutability": "payable",
      "type": "function",
      "payable": true
    },
    {
      "inputs": [
        {
          "internalType": "address",
          "name": "account",
          "type": "address"
        }
      ],
      "name": "getTicketsByAddress",
      "outputs": [
        {
          "internalType": "uint256[]",
          "name": "",
          "type": "uint256[]"
        }
      ],
      "stateMutability": "view",
      "type": "function",
      "constant": true
    },
    {
      "inputs": [
        {
          "internalType": "uint256",
          "name": "ticketNr",
          "type": "uint256"
        }
      ],
      "name": "getTicketNumbers",
      "outputs": [
        {
          "internalType": "uint8[]",
          "name": "",
          "type": "uint8[]"
        }
      ],
      "stateMutability": "view",
      "type": "function",
      "constant": true
    },
    {
      "inputs": [
        {
          "internalType": "uint256",
          "name": "roundNr",
          "type": "uint256"
        }
      ],
      "name": "getRound",
      "outputs": [
        {
          "internalType": "uint256",
          "name": "ticketsSold",
          "type": "uint256"
        },
        {
          "internalType": "uint256",
          "name": "drawnAt",
          "type": "uint256"
        },
        {
          "internalType": "uint256",
          "name": "prizePool",
          "type": "uint256"
        },
        {
          "internalType": "uint8[]",
          "name": "",
          "type": "uint8[]"
        }
      ],
      "stateMutability": "view",
      "type": "function",
      "constant": true
    },
    {
      "inputs": [
        {
          "internalType": "uint256",
          "name": "roundNr",
          "type": "uint256"
        }
      ],
      "name": "getRoundWinners",
      "outputs": [
        {
          "internalType": "address[]",
          "name": "matchOne",
          "type": "address[]"
        },
        {
          "internalType": "address[]",
          "name": "matchTwo",
          "type": "address[]"
        },
        {
          "internalType": "address[]",
          "name": "matchThree",
          "type": "address[]"
        },
        {
          "internalType": "address[]",
          "name": "matchFour",
          "type": "address[]"
        },
        {
          "internalType": "address[]",
          "name": "matchFive",
          "type": "address[]"
        },
        {
          "internalType": "address[]",
          "name": "matchSix",
          "type": "address[]"
        }
      ],
      "stateMutability": "view",
      "type": "function",
      "constant": true
    },
    {
      "inputs": [],
      "name": "drawWinningNumbers",
      "outputs": [],
      "stateMutability": "nonpayable",
      "type": "function"
    },
    {
      "inputs": [],
      "name": "distributePrizes",
      "outputs": [],
      "stateMutability": "nonpayable",
      "type": "function"
    }
  ],
  "bytecode": "0x60c06040523480156200001157600080fd5b5060405162004a6e38038062004a6e8339818101604052810190620000379190620002db565b83838173ffffffffffffffffffffffffffffffffffffffff1660a08173ffffffffffffffffffffffffffffffffffffffff16815250508073ffffffffffffffffffffffffffffffffffffffff1660808173ffffffffffffffffffffffffffffffffffffffff16815250505050620000c3620000b76200012d60201b60201c565b6200013560201b60201c565b8560068190555084600260006101000a81548173ffffffffffffffffffffffffffffffffffffffff021916908373ffffffffffffffffffffffffffffffffffffffff1602179055508160038190555080600481905550600160088190555050505050505062000377565b600033905090565b6000600160009054906101000a900473ffffffffffffffffffffffffffffffffffffffff16905081600160006101000a81548173ffffffffffffffffffffffffffffffffffffffff021916908373ffffffffffffffffffffffffffffffffffffffff1602179055508173ffffffffffffffffffffffffffffffffffffffff168173ffffffffffffffffffffffffffffffffffffffff167f8be0079c531659141344cd1fd0a4f28419497f9722a3daafe3b4186f6b6457e060405160405180910390a35050565b600080fd5b6000819050919050565b620002158162000200565b81146200022157600080fd5b50565b60008151905062000235816200020a565b92915050565b600073ffffffffffffffffffffffffffffffffffffffff82169050919050565b600062000268826200023b565b9050919050565b6200027a816200025b565b81146200028657600080fd5b50565b6000815190506200029a816200026f565b92915050565b6000819050919050565b620002b581620002a0565b8114620002c157600080fd5b50565b600081519050620002d581620002aa565b92915050565b60008060008060008060c08789031215620002fb57620002fa620001fb565b5b60006200030b89828a0162000224565b96505060206200031e89828a0162000289565b95505060406200033189828a0162000289565b94505060606200034489828a0162000289565b93505060806200035789828a01620002c4565b92505060a06200036a89828a0162000224565b9150509295509295509295565b60805160a0516146c3620003ab600039600081816110d6015261161c015260008181610e2301526115e001526146c36000f3fe60806040526004361061012a5760003560e01c80638cd221c9116100ab578063b217be051161006f578063b217be05146103de578063cf260baf1461041b578063cfbd900f14610458578063f02137c814610483578063f2fde38b146104ac578063f5e47f96146104d55761012a565b80638cd221c9146102e25780638da5cb5b1461030d5780638f1327c01461033857806394985ddd146103785780639839eafd146103a15761012a565b80635e349acc116100f25780635e349acc14610241578063608620aa1461025d578063715018a6146102745780637ce52eb61461028b5780638c65c81f146102a25761012a565b80631209b1f61461012f5780632e8814711461015a57806342619f661461019c5780634e45f095146101c757806350b4471214610204575b600080fd5b34801561013b57600080fd5b50610144610512565b6040516101519190612600565b60405180910390f35b34801561016657600080fd5b50610181600480360381019061017c919061265b565b610518565b60405161019396959493929190612778565b60405180910390f35b3480156101a857600080fd5b506101b1610956565b6040516101be9190612600565b60405180910390f35b3480156101d357600080fd5b506101ee60048036038101906101e9919061265b565b61095c565b6040516101fb919061281f565b60405180910390f35b34801561021057600080fd5b5061022b6004803603810190610226919061265b565b610990565b604051610238919061285b565b60405180910390f35b61025b600480360381019061025691906129fb565b6109c3565b005b34801561026957600080fd5b50610272610d89565b005b34801561028057600080fd5b50610289610f0d565b005b34801561029757600080fd5b506102a0610f21565b005b3480156102ae57600080fd5b506102c960048036038101906102c4919061265b565b610f8b565b6040516102d99493929190612a44565b60405180910390f35b3480156102ee57600080fd5b506102f7610fbb565b6040516103049190612600565b60405180910390f35b34801561031957600080fd5b50610322610fc1565b60405161032f9190612a98565b60405180910390f35b34801561034457600080fd5b5061035f600480360381019061035a919061265b565b610feb565b60405161036f9493929190612b71565b60405180910390f35b34801561038457600080fd5b5061039f600480360381019061039a9190612bf3565b6110d4565b005b3480156103ad57600080fd5b506103c860048036038101906103c3919061265b565b611170565b6040516103d59190612c33565b60405180910390f35b3480156103ea57600080fd5b5061040560048036038101906104009190612c55565b611201565b604051610412919061281f565b60405180910390f35b34801561042757600080fd5b50610442600480360381019061043d9190612cc1565b611244565b60405161044f9190612600565b60405180910390f35b34801561046457600080fd5b5061046d611275565b60405161047a9190612600565b60405180910390f35b34801561048f57600080fd5b506104aa60048036038101906104a5919061265b565b61127b565b005b3480156104b857600080fd5b506104d360048036038101906104ce9190612d01565b6112d0565b005b3480156104e157600080fd5b506104fc60048036038101906104f79190612d01565b611353565b6040516105099190612dec565b60405180910390f35b60065481565b606080606080606080600d6000888152602001908152602001600020600501600060018152602001908152602001600020600d6000898152602001908152602001600020600501600060028152602001908152602001600020600d60008a8152602001908152602001600020600501600060038152602001908152602001600020600d60008b8152602001908152602001600020600501600060048152602001908152602001600020600d60008c8152602001908152602001600020600501600060058152602001908152602001600020600d60008d81526020019081526020016000206005016000600681526020019081526020016000208580548060200260200160405190810160405280929190818152602001828054801561069257602002820191906000526020600020905b8160009054906101000a900473ffffffffffffffffffffffffffffffffffffffff1673ffffffffffffffffffffffffffffffffffffffff1681526020019060010190808311610648575b505050505095508480548060200260200160405190810160405280929190818152602001828054801561071a57602002820191906000526020600020905b8160009054906101000a900473ffffffffffffffffffffffffffffffffffffffff1673ffffffffffffffffffffffffffffffffffffffff16815260200190600101908083116106d0575b50505050509450838054806020026020016040519081016040528092919081815260200182805480156107a257602002820191906000526020600020905b8160009054906101000a900473ffffffffffffffffffffffffffffffffffffffff1673ffffffffffffffffffffffffffffffffffffffff1681526020019060010190808311610758575b505050505093508280548060200260200160405190810160405280929190818152602001828054801561082a57602002820191906000526020600020905b8160009054906101000a900473ffffffffffffffffffffffffffffffffffffffff1673ffffffffffffffffffffffffffffffffffffffff16815260200190600101908083116107e0575b50505050509250818054806020026020016040519081016040528092919081815260200182805480156108b257602002820191906000526020600020905b8160009054906101000a900473ffffffffffffffffffffffffffffffffffffffff1673ffffffffffffffffffffffffffffffffffffffff1681526020019060010190808311610868575b505050505091508080548060200260200160405190810160405280929190818152602001828054801561093a57602002820191906000526020600020905b8160009054906101000a900473ffffffffffffffffffffffffffffffffffffffff1673ffffffffffffffffffffffffffffffffffffffff16815260200190600101908083116108f0575b5050505050905095509550955095509550955091939550919395565b60055481565b6009818154811061096c57600080fd5b9060005260206000209060209182820401919006915054906101000a900460ff1681565b600b6020528060005260406000206000915054906101000a900473ffffffffffffffffffffffffffffffffffffffff1681565b6006543414610a07576040517f08c379a00000000000000000000000000000000000000000000000000000000081526004016109fe90612e6b565b60405180910390fd5b6006815114610a4b576040517f08c379a0000000000000000000000000000000000000000000000000000000008152600401610a4290612efd565b60405180910390fd5b6000610a56826113ea565b905060005b8151811015610ba0576001828281518110610a7957610a78612f1d565b5b602002602001015160ff1610158015610ab057506032828281518110610aa257610aa1612f1d565b5b602002602001015160ff1611155b610aef576040517f08c379a0000000000000000000000000000000000000000000000000000000008152600401610ae690612fbe565b60405180910390fd5b60018251610afd919061300d565b811015610b8d5781600182610b129190613041565b81518110610b2357610b22612f1d565b5b602002602001015160ff16828281518110610b4157610b40612f1d565b5b602002602001015160ff1603610b8c576040517f08c379a0000000000000000000000000000000000000000000000000000000008152600401610b83906130c1565b60405180910390fd5b5b8080610b98906130e1565b915050610a5b565b50610bb7600160075461154890919063ffffffff16565b60078190555033600b6000600754815260200190815260200160002060006101000a81548173ffffffffffffffffffffffffffffffffffffffff021916908373ffffffffffffffffffffffffffffffffffffffff16021790555080600c600060075481526020019081526020016000209080519060200190610c3a929190612523565b50600a60003373ffffffffffffffffffffffffffffffffffffffff1673ffffffffffffffffffffffffffffffffffffffff16815260200190815260200160002060075490806001815401808255809150506001900390600052602060002001600090919091909150553373ffffffffffffffffffffffffffffffffffffffff167f2a1ef9a510c66163c8c27e9cfbafcb5c15f78e0c979458e4d40103d6bb9dbbd360075483604051610ced929190613129565b60405180910390a2600260009054906101000a900473ffffffffffffffffffffffffffffffffffffffff1673ffffffffffffffffffffffffffffffffffffffff166340c10f193360016040518363ffffffff1660e01b8152600401610d5392919061319e565b600060405180830381600087803b158015610d6d57600080fd5b505af1158015610d81573d6000803e3d6000fd5b505050505050565b610d9161155e565b600060075411610dd6576040517f08c379a0000000000000000000000000000000000000000000000000000000008152600401610dcd90613213565b60405180910390fd5b600060098054905014610e1e576040517f08c379a0000000000000000000000000000000000000000000000000000000008152600401610e15906132a5565b60405180910390fd5b6004547f000000000000000000000000000000000000000000000000000000000000000073ffffffffffffffffffffffffffffffffffffffff166370a08231306040518263ffffffff1660e01b8152600401610e7a9190612a98565b602060405180830381865afa158015610e97573d6000803e3d6000fd5b505050506040513d601f19601f82011682018060405250810190610ebb91906132da565b1015610efc576040517f08c379a0000000000000000000000000000000000000000000000000000000008152600401610ef390613353565b60405180910390fd5b610f0a6003546004546115dc565b50565b610f1561155e565b610f1f600061172c565b565b610f2961155e565b600660098054905014610f71576040517f08c379a0000000000000000000000000000000000000000000000000000000008152600401610f68906133e5565b60405180910390fd5b610f796117f2565b610f816118ec565b610f89611b62565b565b600d6020528060005260406000206000915090508060000154908060010154908060030154908060040154905084565b60085481565b6000600160009054906101000a900473ffffffffffffffffffffffffffffffffffffffff16905090565b60008060006060600d600086815260200190815260200160002060010154600d600087815260200190815260200160002060030154600d600088815260200190815260200160002060040154600d6000898152602001908152602001600020600201808054806020026020016040519081016040528092919081815260200182805480156110be57602002820191906000526020600020906000905b82829054906101000a900460ff1660ff16815260200190600101906020826000010492830192600103820291508084116110875790505b5050505050905093509350935093509193509193565b7f000000000000000000000000000000000000000000000000000000000000000073ffffffffffffffffffffffffffffffffffffffff163373ffffffffffffffffffffffffffffffffffffffff1614611162576040517f08c379a000000000000000000000000000000000000000000000000000000000815260040161115990613451565b60405180910390fd5b61116c8282611be4565b5050565b6060600c60008381526020019081526020016000208054806020026020016040519081016040528092919081815260200182805480156111f557602002820191906000526020600020906000905b82829054906101000a900460ff1660ff16815260200190600101906020826000010492830192600103820291508084116111be5790505b50505050509050919050565b600c602052816000526040600020818154811061121d57600080fd5b9060005260206000209060209182820401919006915091509054906101000a900460ff1681565b600a602052816000526040600020818154811061126057600080fd5b90600052602060002001600091509150505481565b60075481565b61128361155e565b600081116112c6576040517f08c379a00000000000000000000000000000000000000000000000000000000081526004016112bd906134e3565b60405180910390fd5b8060068190555050565b6112d861155e565b600073ffffffffffffffffffffffffffffffffffffffff168173ffffffffffffffffffffffffffffffffffffffff1603611347576040517f08c379a000000000000000000000000000000000000000000000000000000000815260040161133e90613575565b60405180910390fd5b6113508161172c565b50565b6060600a60008373ffffffffffffffffffffffffffffffffffffffff1673ffffffffffffffffffffffffffffffffffffffff1681526020019081526020016000208054806020026020016040519081016040528092919081815260200182805480156113de57602002820191906000526020600020905b8154815260200190600101908083116113ca575b50505050509050919050565b606060005b600183516113fd919061300d565b81101561153f5760005b6001828551611416919061300d565b611420919061300d565b81101561152b57836001826114359190613041565b8151811061144657611445612f1d565b5b602002602001015160ff1684828151811061146457611463612f1d565b5b602002602001015160ff16111561151857600084828151811061148a57611489612f1d565b5b60200260200101519050846001836114a29190613041565b815181106114b3576114b2612f1d565b5b60200260200101518583815181106114ce576114cd612f1d565b5b602002602001019060ff16908160ff168152505080856001846114f19190613041565b8151811061150257611501612f1d565b5b602002602001019060ff16908160ff1681525050505b8080611523906130e1565b915050611407565b508080611537906130e1565b9150506113ef565b50819050919050565b600081836115569190613041565b905092915050565b611566611e93565b73ffffffffffffffffffffffffffffffffffffffff16611584610fc1565b73ffffffffffffffffffffffffffffffffffffffff16146115da576040517f08c379a00000000000000000000000000000000000000000000000000000000081526004016115d1906135e1565b60405180910390fd5b565b60007f000000000000000000000000000000000000000000000000000000000000000073ffffffffffffffffffffffffffffffffffffffff16634000aea07f000000000000000000000000000000000000000000000000000000000000000084866000604051602001611650929190613610565b6040516020818303038152906040526040518463ffffffff1660e01b815260040161167d939291906136b8565b6020604051808303816000875af115801561169c573d6000803e3d6000fd5b505050506040513d601f19601f820116820180604052508101906116c0919061372e565b5060006116e28460003060008089815260200190815260200160002054611e9b565b90506001600080868152602001908152602001600020546117039190613041565b600080868152602001908152602001600020819055506117238482611ed7565b91505092915050565b6000600160009054906101000a900473ffffffffffffffffffffffffffffffffffffffff16905081600160006101000a81548173ffffffffffffffffffffffffffffffffffffffff021916908373ffffffffffffffffffffffffffffffffffffffff1602179055508173ffffffffffffffffffffffffffffffffffffffff168173ffffffffffffffffffffffffffffffffffffffff167f8be0079c531659141344cd1fd0a4f28419497f9722a3daafe3b4186f6b6457e060405160405180910390a35050565b6000600190505b60075481116118e957600061180d82611f0a565b9050600181106118d557600d600060085481526020019081526020016000206005016000828152602001908152602001600020600b600084815260200190815260200160002060009054906101000a900473ffffffffffffffffffffffffffffffffffffffff169080600181540180825580915050600190039060005260206000200160009091909190916101000a81548173ffffffffffffffffffffffffffffffffffffffff021916908373ffffffffffffffffffffffffffffffffffffffff1602179055505b5080806118e1906130e1565b9150506117f9565b50565b6000479050600081905060006064600a83611907919061375b565b61191191906137cc565b905061191b610fc1565b73ffffffffffffffffffffffffffffffffffffffff166108fc829081150290604051600060405180830381858888f19350505050158015611960573d6000803e3d6000fd5b506000600690505b60018160ff1610611afa576000600d6000600854815260200190815260200160002060050160008360ff1681526020019081526020016000208054905090506000816119b7878560ff16612053565b6119c191906137cc565b905060005b82811015611ae4576000600d6000600854815260200190815260200160002060050160008660ff1681526020019081526020016000208281548110611a0e57611a0d612f1d565b5b9060005260206000200160009054906101000a900473ffffffffffffffffffffffffffffffffffffffff1690508073ffffffffffffffffffffffffffffffffffffffff166108fc849081150290604051600060405180830381858888f19350505050158015611a81573d6000803e3d6000fd5b508073ffffffffffffffffffffffffffffffffffffffff167f95681e512bc0fe659e195e06c283eada494316f3d801213e48e7101af92bf77084604051611ac89190612600565b60405180910390a2508080611adc906130e1565b9150506119c6565b5050508080611af2906137fd565b915050611968565b50611b04836121e2565b600754600d600060085481526020019081526020016000206001018190555042600d600060085481526020019081526020016000206003018190555082600d6000600854815260200190815260200160002060040181905550505050565b60086000815480929190611b75906130e1565b91905055506000600781905550600067ffffffffffffffff811115611b9d57611b9c61288c565b5b604051908082528060200260200182016040528015611bcb5781602001602082028036833780820191505090505b5060099080519060200190611be1929190612523565b50565b806005819055506000603267ffffffffffffffff811115611c0857611c0761288c565b5b604051908082528060200260200182016040528015611c365781602001602082028036833780820191505090505b5090506000805b6006811015611d7957600060016032600554611c599190613826565b611c639190613041565b9050603260056000828254611c7891906137cc565b925050819055506000805b84811015611cce578260ff16868281518110611ca257611ca1612f1d565b5b602002602001015160ff1603611cbb5760019150611cce565b8080611cc6906130e1565b915050611c83565b5080611d725781858580611ce1906130e1565b965081518110611cf457611cf3612f1d565b5b602002602001019060ff16908160ff1681525050600d600060085481526020019081526020016000206002018290806001815401808255809150506001900390600052602060002090602091828204019190069091909190916101000a81548160ff021916908360ff1602179055508280611d6e906130e1565b9350505b5050611c3d565b611e0e600d60006008548152602001908152602001600020600201805480602002602001604051908101604052809291908181526020018280548015611e0457602002820191906000526020600020906000905b82829054906101000a900460ff1660ff1681526020019060010190602082600001049283019260010382029150808411611dcd5790505b50505050506113ea565b600d600060085481526020019081526020016000206002019080519060200190611e39929190612523565b507facdd977f06d88d990c56c596f96141830d83e7fc86f94424a37de0f5e0532e69600854600d60006008548152602001908152602001600020600201604051611e849291906145aa565b60405180910390a15050505050565b600033905090565b600084848484604051602001611eb494939291906145da565b6040516020818303038152906040528051906020012060001c9050949350505050565b60008282604051602001611eec929190614661565b60405160208183030381529060405280519060200120905092915050565b600080600c6000848152602001908152602001600020805480602002602001604051908101604052809291908181526020018280548015611f9057602002820191906000526020600020906000905b82829054906101000a900460ff1660ff1681526020019060010190602082600001049283019260010382029150808411611f595790505b505050505090506000805b82518110156120485760005b6009805490508110156120345760098181548110611fc857611fc7612f1d565b5b90600052602060002090602091828204019190069054906101000a900460ff1660ff16848381518110611ffe57611ffd612f1d565b5b602002602001015160ff1603612021578280612019906130e1565b935050612034565b808061202c906130e1565b915050611fa7565b508080612040906130e1565b915050611f9b565b508092505050919050565b600080600683036120965761206860066124d1565b905080606460288661207a919061375b565b61208491906137cc565b61208e91906137cc565b9150506121dc565b600583036120d6576120a860056124d1565b90508060646019866120ba919061375b565b6120c491906137cc565b6120ce91906137cc565b9150506121dc565b60048303612116576120e860046124d1565b9050806064600a866120fa919061375b565b61210491906137cc565b61210e91906137cc565b9150506121dc565b600383036121565761212860036124d1565b905080606460058661213a919061375b565b61214491906137cc565b61214e91906137cc565b9150506121dc565b600283036121965761216860026124d1565b905080606460038661217a919061375b565b61218491906137cc565b61218e91906137cc565b9150506121dc565b600183036121d6576121a860016124d1565b90508060646002866121ba919061375b565b6121c491906137cc565b6121ce91906137cc565b9150506121dc565b60009150505b92915050565b600060646005836121f3919061375b565b6121fd91906137cc565b9050600080600190505b6007548111612312576000600b600083815260200190815260200160002060009054906101000a900473ffffffffffffffffffffffffffffffffffffffff1690506000600260009054906101000a900473ffffffffffffffffffffffffffffffffffffffff1673ffffffffffffffffffffffffffffffffffffffff166370a08231836040518263ffffffff1660e01b81526004016122a59190612a98565b602060405180830381865afa1580156122c2573d6000803e3d6000fd5b505050506040513d601f19601f820116820180604052508101906122e691906132da565b90506122fb818561154890919063ffffffff16565b93505050808061230a906130e1565b915050612207565b506000600190505b60075481116124cb576000600b600083815260200190815260200160002060009054906101000a900473ffffffffffffffffffffffffffffffffffffffff1690506000600260009054906101000a900473ffffffffffffffffffffffffffffffffffffffff1673ffffffffffffffffffffffffffffffffffffffff166370a08231836040518263ffffffff1660e01b81526004016123b89190612a98565b602060405180830381865afa1580156123d5573d6000803e3d6000fd5b505050506040513d601f19601f820116820180604052508101906123f991906132da565b905060008111156124b6576000848287612413919061375b565b61241d91906137cc565b90508273ffffffffffffffffffffffffffffffffffffffff166108fc829081150290604051600060405180830381858888f19350505050158015612465573d6000803e3d6000fd5b508273ffffffffffffffffffffffffffffffffffffffff167f0286f58f3dcaa16e784242f672696ff068857ee598355de9af938efa271b73ca826040516124ac9190612600565b60405180910390a2505b505080806124c3906130e1565b91505061231a565b50505050565b600080600090506000600190505b600754811161251957836124f282611f0a565b03612506578180612502906130e1565b9250505b8080612511906130e1565b9150506124df565b5080915050919050565b82805482825590600052602060002090601f016020900481019282156125b95791602002820160005b8382111561258a57835183826101000a81548160ff021916908360ff160217905550926020019260010160208160000104928301926001030261254c565b80156125b75782816101000a81549060ff021916905560010160208160000104928301926001030261258a565b505b5090506125c691906125ca565b5090565b5b808211156125e35760008160009055506001016125cb565b5090565b6000819050919050565b6125fa816125e7565b82525050565b600060208201905061261560008301846125f1565b92915050565b6000604051905090565b600080fd5b600080fd5b612638816125e7565b811461264357600080fd5b50565b6000813590506126558161262f565b92915050565b60006020828403121561267157612670612625565b5b600061267f84828501612646565b91505092915050565b600081519050919050565b600082825260208201905092915050565b6000819050602082019050919050565b600073ffffffffffffffffffffffffffffffffffffffff82169050919050565b60006126df826126b4565b9050919050565b6126ef816126d4565b82525050565b600061270183836126e6565b60208301905092915050565b6000602082019050919050565b600061272582612688565b61272f8185612693565b935061273a836126a4565b8060005b8381101561276b57815161275288826126f5565b975061275d8361270d565b92505060018101905061273e565b5085935050505092915050565b600060c0820190508181036000830152612792818961271a565b905081810360208301526127a6818861271a565b905081810360408301526127ba818761271a565b905081810360608301526127ce818661271a565b905081810360808301526127e2818561271a565b905081810360a08301526127f6818461271a565b9050979650505050505050565b600060ff82169050919050565b61281981612803565b82525050565b60006020820190506128346000830184612810565b92915050565b6000612845826126b4565b9050919050565b6128558161283a565b82525050565b6000602082019050612870600083018461284c565b92915050565b600080fd5b6000601f19601f8301169050919050565b7f4e487b7100000000000000000000000000000000000000000000000000000000600052604160045260246000fd5b6128c48261287b565b810181811067ffffffffffffffff821117156128e3576128e261288c565b5b80604052505050565b60006128f661261b565b905061290282826128bb565b919050565b600067ffffffffffffffff8211156129225761292161288c565b5b602082029050602081019050919050565b600080fd5b61294181612803565b811461294c57600080fd5b50565b60008135905061295e81612938565b92915050565b600061297761297284612907565b6128ec565b9050808382526020820190506020840283018581111561299a57612999612933565b5b835b818110156129c357806129af888261294f565b84526020840193505060208101905061299c565b5050509392505050565b600082601f8301126129e2576129e1612876565b5b81356129f2848260208601612964565b91505092915050565b600060208284031215612a1157612a10612625565b5b600082013567ffffffffffffffff811115612a2f57612a2e61262a565b5b612a3b848285016129cd565b91505092915050565b6000608082019050612a5960008301876125f1565b612a6660208301866125f1565b612a7360408301856125f1565b612a8060608301846125f1565b95945050505050565b612a92816126d4565b82525050565b6000602082019050612aad6000830184612a89565b92915050565b600081519050919050565b600082825260208201905092915050565b6000819050602082019050919050565b612ae881612803565b82525050565b6000612afa8383612adf565b60208301905092915050565b6000602082019050919050565b6000612b1e82612ab3565b612b288185612abe565b9350612b3383612acf565b8060005b83811015612b64578151612b4b8882612aee565b9750612b5683612b06565b925050600181019050612b37565b5085935050505092915050565b6000608082019050612b8660008301876125f1565b612b9360208301866125f1565b612ba060408301856125f1565b8181036060830152612bb28184612b13565b905095945050505050565b6000819050919050565b612bd081612bbd565b8114612bdb57600080fd5b50565b600081359050612bed81612bc7565b92915050565b60008060408385031215612c0a57612c09612625565b5b6000612c1885828601612bde565b9250506020612c2985828601612646565b9150509250929050565b60006020820190508181036000830152612c4d8184612b13565b905092915050565b60008060408385031215612c6c57612c6b612625565b5b6000612c7a85828601612646565b9250506020612c8b85828601612646565b9150509250929050565b612c9e816126d4565b8114612ca957600080fd5b50565b600081359050612cbb81612c95565b92915050565b60008060408385031215612cd857612cd7612625565b5b6000612ce685828601612cac565b9250506020612cf785828601612646565b9150509250929050565b600060208284031215612d1757612d16612625565b5b6000612d2584828501612cac565b91505092915050565b600081519050919050565b600082825260208201905092915050565b6000819050602082019050919050565b612d63816125e7565b82525050565b6000612d758383612d5a565b60208301905092915050565b6000602082019050919050565b6000612d9982612d2e565b612da38185612d39565b9350612dae83612d4a565b8060005b83811015612ddf578151612dc68882612d69565b9750612dd183612d81565b925050600181019050612db2565b5085935050505092915050565b60006020820190508181036000830152612e068184612d8e565b905092915050565b600082825260208201905092915050565b7f496e636f7272656374207469636b65742070726963652e000000000000000000600082015250565b6000612e55601783612e0e565b9150612e6082612e1f565b602082019050919050565b60006020820190508181036000830152612e8481612e48565b9050919050565b7f596f75206d7573742070726f766964652065786163746c79203620756e69717560008201527f65206e756d626572732e00000000000000000000000000000000000000000000602082015250565b6000612ee7602a83612e0e565b9150612ef282612e8b565b604082019050919050565b60006020820190508181036000830152612f1681612eda565b9050919050565b7f4e487b7100000000000000000000000000000000000000000000000000000000600052603260045260246000fd5b7f4e756d62657273206d757374206265206265747765656e203120616e6420353060008201527f2e00000000000000000000000000000000000000000000000000000000000000602082015250565b6000612fa8602183612e0e565b9150612fb382612f4c565b604082019050919050565b60006020820190508181036000830152612fd781612f9b565b9050919050565b7f4e487b7100000000000000000000000000000000000000000000000000000000600052601160045260246000fd5b6000613018826125e7565b9150613023836125e7565b925082820390508181111561303b5761303a612fde565b5b92915050565b600061304c826125e7565b9150613057836125e7565b925082820190508082111561306f5761306e612fde565b5b92915050565b7f4e756d62657273206d75737420626520756e697175652e000000000000000000600082015250565b60006130ab601783612e0e565b91506130b682613075565b602082019050919050565b600060208201905081810360008301526130da8161309e565b9050919050565b60006130ec826125e7565b91507fffffffffffffffffffffffffffffffffffffffffffffffffffffffffffffffff820361311e5761311d612fde565b5b600182019050919050565b600060408201905061313e60008301856125f1565b81810360208301526131508184612b13565b90509392505050565b6000819050919050565b6000819050919050565b600061318861318361317e84613159565b613163565b6125e7565b9050919050565b6131988161316d565b82525050565b60006040820190506131b36000830185612a89565b6131c0602083018461318f565b9392505050565b7f4e6f207469636b6574732068617665206265656e20736f6c642e000000000000600082015250565b60006131fd601a83612e0e565b9150613208826131c7565b602082019050919050565b6000602082019050818103600083015261322c816131f0565b9050919050565b7f57696e6e696e67206e756d62657273206861766520616c72656164792062656560008201527f6e20647261776e2e000000000000000000000000000000000000000000000000602082015250565b600061328f602883612e0e565b915061329a82613233565b604082019050919050565b600060208201905081810360008301526132be81613282565b9050919050565b6000815190506132d48161262f565b92915050565b6000602082840312156132f0576132ef612625565b5b60006132fe848285016132c5565b91505092915050565b7f4e6f7420656e6f756768204c494e4b20746f2070617920746865206665652e00600082015250565b600061333d601f83612e0e565b915061334882613307565b602082019050919050565b6000602082019050818103600083015261336c81613330565b9050919050565b7f57696e6e696e67206e756d626572732068617665206e6f74206265656e20647260008201527f61776e207965742e000000000000000000000000000000000000000000000000602082015250565b60006133cf602883612e0e565b91506133da82613373565b604082019050919050565b600060208201905081810360008301526133fe816133c2565b9050919050565b7f4f6e6c7920565246436f6f7264696e61746f722063616e2066756c66696c6c00600082015250565b600061343b601f83612e0e565b915061344682613405565b602082019050919050565b6000602082019050818103600083015261346a8161342e565b9050919050565b7f4e6577207469636b6574207072696365206d757374206265206772656174657260008201527f207468616e20302e000000000000000000000000000000000000000000000000602082015250565b60006134cd602883612e0e565b91506134d882613471565b604082019050919050565b600060208201905081810360008301526134fc816134c0565b9050919050565b7f4f776e61626c653a206e6577206f776e657220697320746865207a65726f206160008201527f6464726573730000000000000000000000000000000000000000000000000000602082015250565b600061355f602683612e0e565b915061356a82613503565b604082019050919050565b6000602082019050818103600083015261358e81613552565b9050919050565b7f4f776e61626c653a2063616c6c6572206973206e6f7420746865206f776e6572600082015250565b60006135cb602083612e0e565b91506135d682613595565b602082019050919050565b600060208201905081810360008301526135fa816135be565b9050919050565b61360a81612bbd565b82525050565b60006040820190506136256000830185613601565b61363260208301846125f1565b9392505050565b600081519050919050565b600082825260208201905092915050565b60005b83811015613673578082015181840152602081019050613658565b60008484015250505050565b600061368a82613639565b6136948185613644565b93506136a4818560208601613655565b6136ad8161287b565b840191505092915050565b60006060820190506136cd6000830186612a89565b6136da60208301856125f1565b81810360408301526136ec818461367f565b9050949350505050565b60008115159050919050565b61370b816136f6565b811461371657600080fd5b50565b60008151905061372881613702565b92915050565b60006020828403121561374457613743612625565b5b600061375284828501613719565b91505092915050565b6000613766826125e7565b9150613771836125e7565b925082820261377f816125e7565b9150828204841483151761379657613795612fde565b5b5092915050565b7f4e487b7100000000000000000000000000000000000000000000000000000000600052601260045260246000fd5b60006137d7826125e7565b91506137e2836125e7565b9250826137f2576137f161379d565b5b828204905092915050565b600061380882612803565b91506000820361381b5761381a612fde565b5b600182039050919050565b6000613831826125e7565b915061383c836125e7565b92508261384c5761384b61379d565b5b828206905092915050565b600081549050919050565b60008190508160005260206000209050919050565b60008160001c9050919050565b600060ff82169050919050565b60006138a461389f83613877565b613884565b9050919050565b60008160081c9050919050565b60006138cb6138c6836138ab565b613884565b9050919050565b60008160101c9050919050565b60006138f26138ed836138d2565b613884565b9050919050565b60008160181c9050919050565b6000613919613914836138f9565b613884565b9050919050565b60008160201c9050919050565b600061394061393b83613920565b613884565b9050919050565b60008160281c9050919050565b600061396761396283613947565b613884565b9050919050565b60008160301c9050919050565b600061398e6139898361396e565b613884565b9050919050565b60008160381c9050919050565b60006139b56139b083613995565b613884565b9050919050565b60008160401c9050919050565b60006139dc6139d7836139bc565b613884565b9050919050565b60008160481c9050919050565b6000613a036139fe836139e3565b613884565b9050919050565b60008160501c9050919050565b6000613a2a613a2583613a0a565b613884565b9050919050565b60008160581c9050919050565b6000613a51613a4c83613a31565b613884565b9050919050565b60008160601c9050919050565b6000613a78613a7383613a58565b613884565b9050919050565b60008160681c9050919050565b6000613a9f613a9a83613a7f565b613884565b9050919050565b60008160701c9050919050565b6000613ac6613ac183613aa6565b613884565b9050919050565b60008160781c9050919050565b6000613aed613ae883613acd565b613884565b9050919050565b60008160801c9050919050565b6000613b14613b0f83613af4565b613884565b9050919050565b60008160881c9050919050565b6000613b3b613b3683613b1b565b613884565b9050919050565b60008160901c9050919050565b6000613b62613b5d83613b42565b613884565b9050919050565b60008160981c9050919050565b6000613b89613b8483613b69565b613884565b9050919050565b60008160a01c9050919050565b6000613bb0613bab83613b90565b613884565b9050919050565b60008160a81c9050919050565b6000613bd7613bd283613bb7565b613884565b9050919050565b60008160b01c9050919050565b6000613bfe613bf983613bde565b613884565b9050919050565b60008160b81c9050919050565b6000613c25613c2083613c05565b613884565b9050919050565b60008160c01c9050919050565b6000613c4c613c4783613c2c565b613884565b9050919050565b60008160c81c9050919050565b6000613c73613c6e83613c53565b613884565b9050919050565b60008160d01c9050919050565b6000613c9a613c9583613c7a565b613884565b9050919050565b60008160d81c9050919050565b6000613cc1613cbc83613ca1565b613884565b9050919050565b60008160e01c9050919050565b6000613ce8613ce383613cc8565b613884565b9050919050565b60008160e81c9050919050565b6000613d0f613d0a83613cef565b613884565b9050919050565b60008160f01c9050919050565b6000613d36613d3183613d16565b613884565b9050919050565b60008160f81c9050919050565b6000613d5d613d5883613d3d565b613884565b9050919050565b6000613d6f82613857565b613d798185612abe565b935083613d8584613862565b60006001156140b2575b836001602003820110156140b1578154613db188613dac83613891565b612adf565b602088019750613dc988613dc4836138b8565b612adf565b602088019750613de188613ddc836138df565b612adf565b602088019750613df988613df483613906565b612adf565b602088019750613e1188613e0c8361392d565b612adf565b602088019750613e2988613e2483613954565b612adf565b602088019750613e4188613e3c8361397b565b612adf565b602088019750613e5988613e54836139a2565b612adf565b602088019750613e7188613e6c836139c9565b612adf565b602088019750613e8988613e84836139f0565b612adf565b602088019750613ea188613e9c83613a17565b612adf565b602088019750613eb988613eb483613a3e565b612adf565b602088019750613ed188613ecc83613a65565b612adf565b602088019750613ee988613ee483613a8c565b612adf565b602088019750613f0188613efc83613ab3565b612adf565b602088019750613f1988613f1483613ada565b612adf565b602088019750613f3188613f2c83613b01565b612adf565b602088019750613f4988613f4483613b28565b612adf565b602088019750613f6188613f5c83613b4f565b612adf565b602088019750613f7988613f7483613b76565b612adf565b602088019750613f9188613f8c83613b9d565b612adf565b602088019750613fa988613fa483613bc4565b612adf565b602088019750613fc188613fbc83613beb565b612adf565b602088019750613fd988613fd483613c12565b612adf565b602088019750613ff188613fec83613c39565b612adf565b6020880197506140098861400483613c60565b612adf565b6020880197506140218861401c83613c87565b612adf565b6020880197506140398861403483613cae565b612adf565b6020880197506140518861404c83613cd5565b612adf565b6020880197506140698861406483613cfc565b612adf565b6020880197506140818861407c83613d23565b612adf565b6020880197506140998861409483613d4a565b612adf565b60208801975060018301925050602081019050613d8f565b5b60011561459d578154848210156140e2576140d5886140d083613891565b612adf565b6020880197506001820191505b84821015614109576140fc886140f7836138b8565b612adf565b6020880197506001820191505b84821015614130576141238861411e836138df565b612adf565b6020880197506001820191505b848210156141575761414a8861414583613906565b612adf565b6020880197506001820191505b8482101561417e576141718861416c8361392d565b612adf565b6020880197506001820191505b848210156141a5576141988861419383613954565b612adf565b6020880197506001820191505b848210156141cc576141bf886141ba8361397b565b612adf565b6020880197506001820191505b848210156141f3576141e6886141e1836139a2565b612adf565b6020880197506001820191505b8482101561421a5761420d88614208836139c9565b612adf565b6020880197506001820191505b84821015614241576142348861422f836139f0565b612adf565b6020880197506001820191505b848210156142685761425b8861425683613a17565b612adf565b6020880197506001820191505b8482101561428f576142828861427d83613a3e565b612adf565b6020880197506001820191505b848210156142b6576142a9886142a483613a65565b612adf565b6020880197506001820191505b848210156142dd576142d0886142cb83613a8c565b612adf565b6020880197506001820191505b84821015614304576142f7886142f283613ab3565b612adf565b6020880197506001820191505b8482101561432b5761431e8861431983613ada565b612adf565b6020880197506001820191505b84821015614352576143458861434083613b01565b612adf565b6020880197506001820191505b848210156143795761436c8861436783613b28565b612adf565b6020880197506001820191505b848210156143a0576143938861438e83613b4f565b612adf565b6020880197506001820191505b848210156143c7576143ba886143b583613b76565b612adf565b6020880197506001820191505b848210156143ee576143e1886143dc83613b9d565b612adf565b6020880197506001820191505b84821015614415576144088861440383613bc4565b612adf565b6020880197506001820191505b8482101561443c5761442f8861442a83613beb565b612adf565b6020880197506001820191505b84821015614463576144568861445183613c12565b612adf565b6020880197506001820191505b8482101561448a5761447d8861447883613c39565b612adf565b6020880197506001820191505b848210156144b1576144a48861449f83613c60565b612adf565b6020880197506001820191505b848210156144d8576144cb886144c683613c87565b612adf565b6020880197506001820191505b848210156144ff576144f2886144ed83613cae565b612adf565b6020880197506001820191505b84821015614526576145198861451483613cd5565b612adf565b6020880197506001820191505b8482101561454d576145408861453b83613cfc565b612adf565b6020880197506001820191505b84821015614574576145678861456283613d23565b612adf565b6020880197506001820191505b8482101561459b5761458e8861458983613d4a565b612adf565b6020880197506001820191505b505b8694505050505092915050565b60006040820190506145bf60008301856125f1565b81810360208301526145d18184613d64565b90509392505050565b60006080820190506145ef6000830187613601565b6145fc60208301866125f1565b6146096040830185612a89565b61461660608301846125f1565b95945050505050565b6000819050919050565b61463a61463582612bbd565b61461f565b82525050565b6000819050919050565b61465b614656826125e7565b614640565b82525050565b600061466d8285614629565b60208201915061467d828461464a565b602082019150819050939250505056fea26469706673582212208e7e60c4f2fb3aef6df42aa8adcb2b82f87e449ae546a63aab56837248091f9564736f6c63430008120033",
  "immutableReferences": {
    "73": [
      {
        "length": 32,
        "start": 3619
      },
      {
        "length": 32,
        "start": 5600
      }
    ],
    "75": [
      {
        "length": 32,
        "start": 4310
      },
      {
        "length": 32,
        "start": 5660
      }
    ]
  },
  "source": "pragma solidity ^0.8.0;\n\nimport \"@openzeppelin/contracts/utils/math/SafeMath.sol\";\nimport \"@openzeppelin/contracts/access/Ownable.sol\";\nimport \"@chainlink/contracts/src/v0.8/VRFConsumerBase.sol\";\nimport \"./interfaces/ILottoToken.sol\";\n\ncontract Game is VRFConsumerBase, Ownable {\n    using SafeMath for uint256;\n\n    struct Round {\n        uint256 roundId;\n        uint256 ticketsSold;\n        uint8[] winningNumbers;\n        uint256 drawnAt;\n        uint256 prizePool;\n        mapping(uint256 => address[]) winners;\n    }\n\n    ILottoToken token;\n\n    bytes32 private keyHash;\n    uint256 private fee;\n    uint256 public randomResult;\n\n    uint256 public ticketPrice;\n    uint256 public ticketCount;\n    uint256 public roundId;\n    uint8[] public winningNumbers;\n\n    mapping(address => uint256[]) public userTickets;\n    mapping(uint256 => address payable) public tickets;\n    mapping(uint256 => uint8[]) public ticketNumbers;\n    mapping(uint256 => Round) public rounds;\n\n    event TicketPurchased(\n        address indexed buyer,\n        uint256 ticketCount,\n        uint8[] numbers\n    );\n    event WinningNumbers(uint256 roundId, uint8[] numbers);\n    event PrizeClaimed(address indexed winner, uint256 amount);\n    event TokenHolderPrizeClaimed(address indexed winner, uint256 amount);\n\n    constructor(\n        uint256 _ticketPrice,\n        address _lottoToken,\n        address vrfCoordinator,\n        address linkToken,\n        bytes32 _keyHash,\n        uint256 _fee\n    ) VRFConsumerBase(vrfCoordinator, linkToken) {\n        ticketPrice = _ticketPrice;\n        token = ILottoToken(_lottoToken);\n        keyHash = _keyHash;\n        fee = _fee;\n        roundId = 1;\n    }\n\n    // Update the ticket price (only callable by the contract owner)\n    function updateTicketPrice(uint256 newTicketPrice) public onlyOwner {\n        require(newTicketPrice > 0, \"New ticket price must be greater than 0.\");\n        ticketPrice = newTicketPrice;\n    }\n\n    // Buy a ticket with 6 unique numbers, mint a token for the buyer\n    function buyTicket(uint8[] memory numbers) public payable {\n        require(msg.value == ticketPrice, \"Incorrect ticket price.\");\n        require(\n            numbers.length == 6,\n            \"You must provide exactly 6 unique numbers.\"\n        );\n\n        // Sort the numbers in ascending order\n        uint8[] memory sortedNumbers = _sortNumbers(numbers);\n\n        // Validate the provided numbers\n        for (uint256 i = 0; i < sortedNumbers.length; i++) {\n            require(\n                sortedNumbers[i] >= 1 && sortedNumbers[i] <= 50,\n                \"Numbers must be between 1 and 50.\"\n            );\n            if (i < sortedNumbers.length - 1) {\n                require(\n                    sortedNumbers[i] != sortedNumbers[i + 1],\n                    \"Numbers must be unique.\"\n                );\n            }\n        }\n\n        ticketCount = ticketCount.add(1);\n        tickets[ticketCount] = payable(msg.sender);\n        ticketNumbers[ticketCount] = sortedNumbers;\n        userTickets[msg.sender].push(ticketCount);\n        emit TicketPurchased(msg.sender, ticketCount, sortedNumbers);\n\n        // Mint a token for the user\n        token.mint(msg.sender, 1);\n    }\n\n    function getTicketsByAddress(\n        address account\n    ) public view returns (uint256[] memory) {\n        return userTickets[account];\n    }\n\n    function getTicketNumbers(\n        uint256 ticketNr\n    ) public view returns (uint8[] memory) {\n        return ticketNumbers[ticketNr];\n    }\n\n    function getRound(\n        uint256 roundNr\n    )\n        public\n        view\n        returns (\n            uint256 ticketsSold,\n            uint256 drawnAt,\n            uint256 prizePool,\n            uint8[] memory\n        )\n    {\n        return (\n            rounds[roundNr].ticketsSold,\n            rounds[roundNr].drawnAt,\n            rounds[roundNr].prizePool,\n            rounds[roundNr].winningNumbers\n        );\n    }\n\n    function getRoundWinners(\n        uint256 roundNr\n    )\n        public\n        view\n        returns (\n            address[] memory matchOne,\n            address[] memory matchTwo,\n            address[] memory matchThree,\n            address[] memory matchFour,\n            address[] memory matchFive,\n            address[] memory matchSix\n        )\n    {\n        return (\n            rounds[roundNr].winners[1],\n            rounds[roundNr].winners[2],\n            rounds[roundNr].winners[3],\n            rounds[roundNr].winners[4],\n            rounds[roundNr].winners[5],\n            rounds[roundNr].winners[6]\n        );\n    }\n\n    // Draw winning numbers using Chainlink VRF\n    function drawWinningNumbers() external onlyOwner {\n        require(ticketCount > 0, \"No tickets have been sold.\");\n        require(\n            winningNumbers.length == 0,\n            \"Winning numbers have already been drawn.\"\n        );\n        require(\n            LINK.balanceOf(address(this)) >= fee,\n            \"Not enough LINK to pay the fee.\"\n        );\n\n        requestRandomness(keyHash, fee);\n    }\n\n    // Fulfill randomness from Chainlink VRF and distribute prizes\n    function fulfillRandomness(\n        bytes32 requestId,\n        uint256 randomness\n    ) internal override {\n        randomResult = randomness;\n\n        // Generate unique winning numbers\n        uint8[] memory usedNumbers = new uint8[](50);\n        uint256 usedCount = 0;\n        uint256 generatedNumbers = 0;\n        while (generatedNumbers < 6) {\n            uint8 newNumber = uint8((randomResult % 50) + 1);\n            randomResult /= 50;\n\n            bool isNumberUsed = false;\n            for (uint256 i = 0; i < usedCount; i++) {\n                if (usedNumbers[i] == newNumber) {\n                    isNumberUsed = true;\n                    break;\n                }\n            }\n\n            if (!isNumberUsed) {\n                usedNumbers[usedCount++] = newNumber;\n                rounds[roundId].winningNumbers.push(newNumber);\n                generatedNumbers++;\n            }\n        }\n\n        // Sort winning numbers\n        rounds[roundId].winningNumbers = _sortNumbers(\n            rounds[roundId].winningNumbers\n        );\n        emit WinningNumbers(roundId, rounds[roundId].winningNumbers);\n    }\n\n    function distributePrizes() external onlyOwner {\n        require(\n            winningNumbers.length == 6,\n            \"Winning numbers have not been drawn yet.\"\n        );\n        // Update the winners\n        _updateWinners();\n\n        // Calculate and distribute prizes\n        _distributePrizes();\n\n        // Start a new round\n        _reset();\n    }\n\n    // Distribute prizes among the winners\n    function _distributePrizes() private {\n        // Send 10% of the current contract balance to the contract owner\n        uint256 totalPrizePool = address(this).balance;\n        uint256 prizePool = totalPrizePool;\n        uint256 ownerShare = (prizePool * 10) / 100;\n        payable(owner()).transfer(ownerShare);\n\n        // Send out the prizes to the winners\n        for (uint8 correctGuesses = 6; correctGuesses >= 1; correctGuesses--) {\n            uint256 winnerCount = rounds[roundId]\n                .winners[correctGuesses]\n                .length;\n            uint256 prizePerWinner = _calculatePrize(\n                totalPrizePool,\n                correctGuesses\n            ) / winnerCount;\n\n            for (uint256 i = 0; i < winnerCount; i++) {\n                address winner = rounds[roundId].winners[correctGuesses][i];\n                payable(winner).transfer(prizePerWinner);\n                emit PrizeClaimed(winner, prizePerWinner);\n            }\n        }\n\n        // Distribute token holder prizes\n        _distributeTokenHolderPrizes(totalPrizePool);\n\n        // Set the round details\n        rounds[roundId].ticketsSold = ticketCount;\n        rounds[roundId].drawnAt = block.timestamp;\n        rounds[roundId].prizePool = totalPrizePool;\n    }\n\n    function _updateWinners() private {\n        for (uint256 i = 1; i <= ticketCount; i++) {\n            uint256 correctGuesses = _getCorrectGuesses(i);\n            if (correctGuesses >= 1) {\n                rounds[roundId].winners[correctGuesses].push(tickets[i]);\n            }\n        }\n    }\n\n    function _distributeTokenHolderPrizes(uint256 totalPrizePool) private {\n        uint256 tokenHolderPrizePool = (totalPrizePool * 5) / 100;\n        uint256 totalTokensHeldByPlayers = 0;\n\n        // Calculate the total tokens held by players who participated in the game\n        for (uint256 i = 1; i <= ticketCount; i++) {\n            address player = tickets[i];\n            uint256 playerTokenBalance = token.balanceOf(player);\n            totalTokensHeldByPlayers = totalTokensHeldByPlayers.add(\n                playerTokenBalance\n            );\n        }\n\n        // Distribute the token holder prize pool based on the number of tokens held by each player\n        for (uint256 i = 1; i <= ticketCount; i++) {\n            address player = tickets[i];\n            uint256 playerTokenBalance = token.balanceOf(player);\n            if (playerTokenBalance > 0) {\n                uint256 playerPrize = (tokenHolderPrizePool *\n                    playerTokenBalance) / totalTokensHeldByPlayers;\n                payable(player).transfer(playerPrize);\n                emit TokenHolderPrizeClaimed(player, playerPrize);\n            }\n        }\n    }\n\n    // Get the count of correct guesses for a given ticket\n    function _getCorrectGuesses(\n        uint256 ticketNumber\n    ) private view returns (uint256) {\n        uint8[] memory userNumbers = ticketNumbers[ticketNumber];\n        uint256 correctGuesses = 0;\n\n        for (uint256 i = 0; i < userNumbers.length; i++) {\n            for (uint256 j = 0; j < winningNumbers.length; j++) {\n                if (userNumbers[i] == winningNumbers[j]) {\n                    correctGuesses++;\n                    break;\n                }\n            }\n        }\n\n        return correctGuesses;\n    }\n\n    // Calculate the prize amount based on the number of correct guesses\n    function _calculatePrize(\n        uint256 prizePool,\n        uint256 correctGuesses\n    ) private view returns (uint256) {\n        uint256 winnerCount;\n\n        if (correctGuesses == 6) {\n            winnerCount = _getWinnerCount(6);\n            return (prizePool * 40) / 100 / winnerCount; // 40% of the prize pool for 6 correct guesses\n        } else if (correctGuesses == 5) {\n            winnerCount = _getWinnerCount(5);\n            return (prizePool * 25) / 100 / winnerCount; // 20% of the prize pool for 5 correct guesses\n        } else if (correctGuesses == 4) {\n            winnerCount = _getWinnerCount(4);\n            return (prizePool * 10) / 100 / winnerCount; // 10% of the prize pool for 4 correct guesses\n        } else if (correctGuesses == 3) {\n            winnerCount = _getWinnerCount(3);\n            return (prizePool * 5) / 100 / winnerCount; // 5% of the prize pool for 3 correct guesses\n        } else if (correctGuesses == 2) {\n            winnerCount = _getWinnerCount(2);\n            return (prizePool * 3) / 100 / winnerCount; // 3% of the prize pool for 2 correct guesses\n        } else if (correctGuesses == 1) {\n            winnerCount = _getWinnerCount(1);\n            return (prizePool * 2) / 100 / winnerCount; // 2% of the prize pool for 1 correct guesses\n        }\n\n        return 0;\n    }\n\n    // Get the count of winners for a specific category (e.g., 6 correct guesses, 5 correct guesses, etc.)\n    function _getWinnerCount(\n        uint256 correctGuesses\n    ) private view returns (uint256) {\n        uint256 winnerCount = 0;\n\n        for (uint256 i = 1; i <= ticketCount; i++) {\n            if (_getCorrectGuesses(i) == correctGuesses) {\n                winnerCount++;\n            }\n        }\n\n        return winnerCount;\n    }\n\n    function _reset() private {\n        roundId++;\n        ticketCount = 0;\n        winningNumbers = new uint8[](0);\n    }\n\n    // Sorts an array of numbers in ascending order using Bubble Sort\n    function _sortNumbers(\n        uint8[] memory numbers\n    ) private pure returns (uint8[] memory) {\n        for (uint256 i = 0; i < numbers.length - 1; i++) {\n            for (uint256 j = 0; j < numbers.length - i - 1; j++) {\n                if (numbers[j] > numbers[j + 1]) {\n                    uint8 temp = numbers[j];\n                    numbers[j] = numbers[j + 1];\n                    numbers[j + 1] = temp;\n                }\n            }\n        }\n        return numbers;\n    }\n}\n",
  "sourcePath": "/home/d4fttasiii/git/gpt-lotto/src/lotto-contract/contracts/Game.sol",
  "compiler": {
    "name": "solc",
    "version": "0.8.18+commit.87f61d96.Emscripten.clang"
  },
  "schemaVersion": "3.4.11",
  "updatedAt": "2023-04-14T17:40:48.017Z",
  "networkType": "ethereum",
  "devdoc": {
    "kind": "dev",
    "methods": {
      "owner()": {
        "details": "Returns the address of the current owner."
      },
      "renounceOwnership()": {
        "details": "Leaves the contract without owner. It will not be possible to call `onlyOwner` functions anymore. Can only be called by the current owner. NOTE: Renouncing ownership will leave the contract without an owner, thereby removing any functionality that is only available to the owner."
      },
      "transferOwnership(address)": {
        "details": "Transfers ownership of the contract to a new account (`newOwner`). Can only be called by the current owner."
      }
    },
    "version": 1
  },
  "userdoc": {
    "kind": "user",
    "methods": {},
    "version": 1
  }
}