{
  "contractName": "Lotto",
  "abi": [
    {
      "inputs": [
        {
          "internalType": "uint256",
          "name": "_ticketPrice",
          "type": "uint256"
        },
        {
          "internalType": "address",
          "name": "vrfCoordinator",
          "type": "address"
        },
        {
          "internalType": "address",
          "name": "linkToken",
          "type": "address"
        },
        {
          "internalType": "bytes32",
          "name": "_keyHash",
          "type": "bytes32"
        },
        {
          "internalType": "uint256",
          "name": "_fee",
          "type": "uint256"
        }
      ],
      "stateMutability": "nonpayable",
      "type": "constructor"
    },
    {
      "anonymous": false,
      "inputs": [
        {
          "indexed": true,
          "internalType": "address",
          "name": "previousOwner",
          "type": "address"
        },
        {
          "indexed": true,
          "internalType": "address",
          "name": "newOwner",
          "type": "address"
        }
      ],
      "name": "OwnershipTransferred",
      "type": "event"
    },
    {
      "anonymous": false,
      "inputs": [
        {
          "indexed": true,
          "internalType": "address",
          "name": "winner",
          "type": "address"
        },
        {
          "indexed": false,
          "internalType": "uint256",
          "name": "amount",
          "type": "uint256"
        }
      ],
      "name": "PrizeClaimed",
      "type": "event"
    },
    {
      "anonymous": false,
      "inputs": [
        {
          "indexed": true,
          "internalType": "address",
          "name": "buyer",
          "type": "address"
        },
        {
          "indexed": false,
          "internalType": "uint256",
          "name": "ticketCount",
          "type": "uint256"
        },
        {
          "indexed": false,
          "internalType": "uint256[]",
          "name": "numbers",
          "type": "uint256[]"
        }
      ],
      "name": "TicketPurchased",
      "type": "event"
    },
    {
      "anonymous": false,
      "inputs": [
        {
          "indexed": false,
          "internalType": "uint256[]",
          "name": "numbers",
          "type": "uint256[]"
        }
      ],
      "name": "WinningNumbers",
      "type": "event"
    },
    {
      "inputs": [],
      "name": "owner",
      "outputs": [
        {
          "internalType": "address",
          "name": "",
          "type": "address"
        }
      ],
      "stateMutability": "view",
      "type": "function"
    },
    {
      "inputs": [],
      "name": "randomResult",
      "outputs": [
        {
          "internalType": "uint256",
          "name": "",
          "type": "uint256"
        }
      ],
      "stateMutability": "view",
      "type": "function"
    },
    {
      "inputs": [
        {
          "internalType": "bytes32",
          "name": "requestId",
          "type": "bytes32"
        },
        {
          "internalType": "uint256",
          "name": "randomness",
          "type": "uint256"
        }
      ],
      "name": "rawFulfillRandomness",
      "outputs": [],
      "stateMutability": "nonpayable",
      "type": "function"
    },
    {
      "inputs": [],
      "name": "renounceOwnership",
      "outputs": [],
      "stateMutability": "nonpayable",
      "type": "function"
    },
    {
      "inputs": [],
      "name": "ticketCount",
      "outputs": [
        {
          "internalType": "uint256",
          "name": "",
          "type": "uint256"
        }
      ],
      "stateMutability": "view",
      "type": "function"
    },
    {
      "inputs": [
        {
          "internalType": "uint256",
          "name": "",
          "type": "uint256"
        },
        {
          "internalType": "uint256",
          "name": "",
          "type": "uint256"
        }
      ],
      "name": "ticketNumbers",
      "outputs": [
        {
          "internalType": "uint256",
          "name": "",
          "type": "uint256"
        }
      ],
      "stateMutability": "view",
      "type": "function"
    },
    {
      "inputs": [],
      "name": "ticketPrice",
      "outputs": [
        {
          "internalType": "uint256",
          "name": "",
          "type": "uint256"
        }
      ],
      "stateMutability": "view",
      "type": "function"
    },
    {
      "inputs": [
        {
          "internalType": "uint256",
          "name": "",
          "type": "uint256"
        }
      ],
      "name": "tickets",
      "outputs": [
        {
          "internalType": "address payable",
          "name": "",
          "type": "address"
        }
      ],
      "stateMutability": "view",
      "type": "function"
    },
    {
      "inputs": [
        {
          "internalType": "address",
          "name": "newOwner",
          "type": "address"
        }
      ],
      "name": "transferOwnership",
      "outputs": [],
      "stateMutability": "nonpayable",
      "type": "function"
    },
    {
      "inputs": [
        {
          "internalType": "uint256",
          "name": "",
          "type": "uint256"
        }
      ],
      "name": "winningNumbers",
      "outputs": [
        {
          "internalType": "uint256",
          "name": "",
          "type": "uint256"
        }
      ],
      "stateMutability": "view",
      "type": "function"
    },
    {
      "inputs": [
        {
          "internalType": "uint256[]",
          "name": "numbers",
          "type": "uint256[]"
        }
      ],
      "name": "buyTicket",
      "outputs": [],
      "stateMutability": "payable",
      "type": "function"
    },
    {
      "inputs": [],
      "name": "drawWinningNumbers",
      "outputs": [],
      "stateMutability": "nonpayable",
      "type": "function"
    }
  ],
  "bytecode": "0x60c06040523480156200001157600080fd5b506040516200237d3803806200237d833981810160405281019062000037919062000291565b83838173ffffffffffffffffffffffffffffffffffffffff1660a08173ffffffffffffffffffffffffffffffffffffffff16815250508073ffffffffffffffffffffffffffffffffffffffff1660808173ffffffffffffffffffffffffffffffffffffffff16815250505050620000c3620000b7620000e360201b60201c565b620000eb60201b60201c565b846005819055508160028190555080600381905550505050505062000319565b600033905090565b6000600160009054906101000a900473ffffffffffffffffffffffffffffffffffffffff16905081600160006101000a81548173ffffffffffffffffffffffffffffffffffffffff021916908373ffffffffffffffffffffffffffffffffffffffff1602179055508173ffffffffffffffffffffffffffffffffffffffff168173ffffffffffffffffffffffffffffffffffffffff167f8be0079c531659141344cd1fd0a4f28419497f9722a3daafe3b4186f6b6457e060405160405180910390a35050565b600080fd5b6000819050919050565b620001cb81620001b6565b8114620001d757600080fd5b50565b600081519050620001eb81620001c0565b92915050565b600073ffffffffffffffffffffffffffffffffffffffff82169050919050565b60006200021e82620001f1565b9050919050565b620002308162000211565b81146200023c57600080fd5b50565b600081519050620002508162000225565b92915050565b6000819050919050565b6200026b8162000256565b81146200027757600080fd5b50565b6000815190506200028b8162000260565b92915050565b600080600080600060a08688031215620002b057620002af620001b1565b5b6000620002c088828901620001da565b9550506020620002d3888289016200023f565b9450506040620002e6888289016200023f565b9350506060620002f9888289016200027a565b92505060806200030c88828901620001da565b9150509295509295909350565b60805160a0516120306200034d6000396000818161079301526109a50152600081816103a8015261096901526120306000f3fe6080604052600436106100a75760003560e01c8063716cac9611610064578063716cac96146101aa5780638da5cb5b146101c657806394985ddd146101f1578063b217be051461021a578063cfbd900f14610257578063f2fde38b14610282576100a7565b80631209b1f6146100ac57806342619f66146100d75780634e45f0951461010257806350b447121461013f578063608620aa1461017c578063715018a614610193575b600080fd5b3480156100b857600080fd5b506100c16102ab565b6040516100ce9190611132565b60405180910390f35b3480156100e357600080fd5b506100ec6102b1565b6040516100f99190611132565b60405180910390f35b34801561010e57600080fd5b506101296004803603810190610124919061118d565b6102b7565b6040516101369190611132565b60405180910390f35b34801561014b57600080fd5b506101666004803603810190610161919061118d565b6102db565b60405161017391906111fb565b60405180910390f35b34801561018857600080fd5b5061019161030e565b005b34801561019f57600080fd5b506101a8610492565b005b6101c460048036038101906101bf919061136f565b6104a6565b005b3480156101d257600080fd5b506101db610767565b6040516101e891906113d9565b60405180910390f35b3480156101fd57600080fd5b506102186004803603810190610213919061142a565b610791565b005b34801561022657600080fd5b50610241600480360381019061023c919061146a565b61082d565b60405161024e9190611132565b60405180910390f35b34801561026357600080fd5b5061026c61085e565b6040516102799190611132565b60405180910390f35b34801561028e57600080fd5b506102a960048036038101906102a491906114d6565b610864565b005b60055481565b60045481565b600781815481106102c757600080fd5b906000526020600020016000915090505481565b60086020528060005260406000206000915054906101000a900473ffffffffffffffffffffffffffffffffffffffff1681565b6103166108e7565b60006006541161035b576040517f08c379a000000000000000000000000000000000000000000000000000000000815260040161035290611560565b60405180910390fd5b6000600780549050146103a3576040517f08c379a000000000000000000000000000000000000000000000000000000000815260040161039a906115f2565b60405180910390fd5b6003547f000000000000000000000000000000000000000000000000000000000000000073ffffffffffffffffffffffffffffffffffffffff166370a08231306040518263ffffffff1660e01b81526004016103ff91906113d9565b602060405180830381865afa15801561041c573d6000803e3d6000fd5b505050506040513d601f19601f820116820180604052508101906104409190611627565b1015610481576040517f08c379a0000000000000000000000000000000000000000000000000000000008152600401610478906116a0565b60405180910390fd5b61048f600254600354610965565b50565b61049a6108e7565b6104a46000610ab5565b565b60055434146104ea576040517f08c379a00000000000000000000000000000000000000000000000000000000081526004016104e19061170c565b60405180910390fd5b600681511461052e576040517f08c379a00000000000000000000000000000000000000000000000000000000081526004016105259061179e565b60405180910390fd5b60005b815181101561067757600182828151811061054f5761054e6117be565b5b60200260200101511015801561058057506032828281518110610575576105746117be565b5b602002602001015111155b6105bf576040517f08c379a00000000000000000000000000000000000000000000000000000000081526004016105b69061185f565b60405180910390fd5b60006001826105ce91906118ae565b90505b8251811015610663578281815181106105ed576105ec6117be565b5b6020026020010151838381518110610608576106076117be565b5b602002602001015103610650576040517f08c379a00000000000000000000000000000000000000000000000000000000081526004016106479061192e565b60405180910390fd5b808061065b9061194e565b9150506105d1565b50808061066f9061194e565b915050610531565b5061068e6001600654610b7b90919063ffffffff16565b6006819055503360086000600654815260200190815260200160002060006101000a81548173ffffffffffffffffffffffffffffffffffffffff021916908373ffffffffffffffffffffffffffffffffffffffff1602179055508060096000600654815260200190815260200160002090805190602001906107119291906110af565b503373ffffffffffffffffffffffffffffffffffffffff167f2546fcbd360d6d1cc109f2e4ab1f9d658fe6067fd8d3640cd5dd9c3940e19d6f6006548360405161075c929190611a54565b60405180910390a250565b6000600160009054906101000a900473ffffffffffffffffffffffffffffffffffffffff16905090565b7f000000000000000000000000000000000000000000000000000000000000000073ffffffffffffffffffffffffffffffffffffffff163373ffffffffffffffffffffffffffffffffffffffff161461081f576040517f08c379a000000000000000000000000000000000000000000000000000000000815260040161081690611ad0565b60405180910390fd5b6108298282610b91565b5050565b6009602052816000526040600020818154811061084957600080fd5b90600052602060002001600091509150505481565b60065481565b61086c6108e7565b600073ffffffffffffffffffffffffffffffffffffffff168173ffffffffffffffffffffffffffffffffffffffff16036108db576040517f08c379a00000000000000000000000000000000000000000000000000000000081526004016108d290611b62565b60405180910390fd5b6108e481610ab5565b50565b6108ef610d2d565b73ffffffffffffffffffffffffffffffffffffffff1661090d610767565b73ffffffffffffffffffffffffffffffffffffffff1614610963576040517f08c379a000000000000000000000000000000000000000000000000000000000815260040161095a90611bce565b60405180910390fd5b565b60007f000000000000000000000000000000000000000000000000000000000000000073ffffffffffffffffffffffffffffffffffffffff16634000aea07f0000000000000000000000000000000000000000000000000000000000000000848660006040516020016109d9929190611bfd565b6040516020818303038152906040526040518463ffffffff1660e01b8152600401610a0693929190611ca5565b6020604051808303816000875af1158015610a25573d6000803e3d6000fd5b505050506040513d601f19601f82011682018060405250810190610a499190611d1b565b506000610a6b8460003060008089815260200190815260200160002054610d35565b9050600160008086815260200190815260200160002054610a8c91906118ae565b60008086815260200190815260200160002081905550610aac8482610d71565b91505092915050565b6000600160009054906101000a900473ffffffffffffffffffffffffffffffffffffffff16905081600160006101000a81548173ffffffffffffffffffffffffffffffffffffffff021916908373ffffffffffffffffffffffffffffffffffffffff1602179055508173ffffffffffffffffffffffffffffffffffffffff168173ffffffffffffffffffffffffffffffffffffffff167f8be0079c531659141344cd1fd0a4f28419497f9722a3daafe3b4186f6b6457e060405160405180910390a35050565b60008183610b8991906118ae565b905092915050565b806004819055506000603267ffffffffffffffff811115610bb557610bb461122c565b5b604051908082528060200260200182016040528015610be35781602001602082028036833780820191505090505b5090506000805b6006811015610ce657600060016032600454610c069190611d77565b610c1091906118ae565b9050603260046000828254610c259190611da8565b925050819055506000805b84811015610c755782868281518110610c4c57610c4b6117be565b5b602002602001015103610c625760019150610c75565b8080610c6d9061194e565b915050610c30565b5080610cdf5781858580610c889061194e565b965081518110610c9b57610c9a6117be565b5b60200260200101818152505060078290806001815401808255809150506001900390600052602060002001600090919091909150558280610cdb9061194e565b9350505b5050610bea565b7fd388f1b6879288c1fd416bc5d6d9d3fec6eacfa73bb80b2ef0a2c63adc6fd2606007604051610d169190611eaf565b60405180910390a1610d26610da4565b5050505050565b600033905090565b600084848484604051602001610d4e9493929190611ed1565b6040516020818303038152906040528051906020012060001c9050949350505050565b60008282604051602001610d86929190611f58565b60405160208183030381529060405280519060200120905092915050565b6000600654600554610db69190611f84565b90506000600190505b6006548111610f16576000610dd382610f1a565b90506000610de082611022565b9050600081118015610df25750838111155b15610f01576008600084815260200190815260200160002060009054906101000a900473ffffffffffffffffffffffffffffffffffffffff1673ffffffffffffffffffffffffffffffffffffffff166108fc829081150290604051600060405180830381858888f19350505050158015610e70573d6000803e3d6000fd5b506008600084815260200190815260200160002060009054906101000a900473ffffffffffffffffffffffffffffffffffffffff1673ffffffffffffffffffffffffffffffffffffffff167f95681e512bc0fe659e195e06c283eada494316f3d801213e48e7101af92bf77082604051610eea9190611132565b60405180910390a28084610efe9190611fc6565b93505b50508080610f0e9061194e565b915050610dbf565b5050565b60008060096000848152602001908152602001600020805480602002602001604051908101604052809291908181526020018280548015610f7a57602002820191906000526020600020905b815481526020019060010190808311610f66575b505050505090506000805b82518110156110175760005b6007805490508110156110035760078181548110610fb257610fb16117be565b5b9060005260206000200154848381518110610fd057610fcf6117be565b5b602002602001015103610ff0578280610fe89061194e565b935050611003565b8080610ffb9061194e565b915050610f91565b50808061100f9061194e565b915050610f85565b508092505050919050565b60006006820361104f57600260065460055461103e9190611f84565b6110489190611da8565b90506110aa565b6005820361107a5760046006546005546110699190611f84565b6110739190611da8565b90506110aa565b600482036110a557600a6006546005546110949190611f84565b61109e9190611da8565b90506110aa565b600090505b919050565b8280548282559060005260206000209081019282156110eb579160200282015b828111156110ea5782518255916020019190600101906110cf565b5b5090506110f891906110fc565b5090565b5b808211156111155760008160009055506001016110fd565b5090565b6000819050919050565b61112c81611119565b82525050565b60006020820190506111476000830184611123565b92915050565b6000604051905090565b600080fd5b600080fd5b61116a81611119565b811461117557600080fd5b50565b60008135905061118781611161565b92915050565b6000602082840312156111a3576111a2611157565b5b60006111b184828501611178565b91505092915050565b600073ffffffffffffffffffffffffffffffffffffffff82169050919050565b60006111e5826111ba565b9050919050565b6111f5816111da565b82525050565b600060208201905061121060008301846111ec565b92915050565b600080fd5b6000601f19601f8301169050919050565b7f4e487b7100000000000000000000000000000000000000000000000000000000600052604160045260246000fd5b6112648261121b565b810181811067ffffffffffffffff821117156112835761128261122c565b5b80604052505050565b600061129661114d565b90506112a2828261125b565b919050565b600067ffffffffffffffff8211156112c2576112c161122c565b5b602082029050602081019050919050565b600080fd5b60006112eb6112e6846112a7565b61128c565b9050808382526020820190506020840283018581111561130e5761130d6112d3565b5b835b8181101561133757806113238882611178565b845260208401935050602081019050611310565b5050509392505050565b600082601f83011261135657611355611216565b5b81356113668482602086016112d8565b91505092915050565b60006020828403121561138557611384611157565b5b600082013567ffffffffffffffff8111156113a3576113a261115c565b5b6113af84828501611341565b91505092915050565b60006113c3826111ba565b9050919050565b6113d3816113b8565b82525050565b60006020820190506113ee60008301846113ca565b92915050565b6000819050919050565b611407816113f4565b811461141257600080fd5b50565b600081359050611424816113fe565b92915050565b6000806040838503121561144157611440611157565b5b600061144f85828601611415565b925050602061146085828601611178565b9150509250929050565b6000806040838503121561148157611480611157565b5b600061148f85828601611178565b92505060206114a085828601611178565b9150509250929050565b6114b3816113b8565b81146114be57600080fd5b50565b6000813590506114d0816114aa565b92915050565b6000602082840312156114ec576114eb611157565b5b60006114fa848285016114c1565b91505092915050565b600082825260208201905092915050565b7f4e6f207469636b6574732068617665206265656e20736f6c642e000000000000600082015250565b600061154a601a83611503565b915061155582611514565b602082019050919050565b600060208201905081810360008301526115798161153d565b9050919050565b7f57696e6e696e67206e756d62657273206861766520616c72656164792062656560008201527f6e20647261776e2e000000000000000000000000000000000000000000000000602082015250565b60006115dc602883611503565b91506115e782611580565b604082019050919050565b6000602082019050818103600083015261160b816115cf565b9050919050565b60008151905061162181611161565b92915050565b60006020828403121561163d5761163c611157565b5b600061164b84828501611612565b91505092915050565b7f4e6f7420656e6f756768204c494e4b20746f2070617920746865206665652e00600082015250565b600061168a601f83611503565b915061169582611654565b602082019050919050565b600060208201905081810360008301526116b98161167d565b9050919050565b7f496e636f7272656374207469636b65742070726963652e000000000000000000600082015250565b60006116f6601783611503565b9150611701826116c0565b602082019050919050565b60006020820190508181036000830152611725816116e9565b9050919050565b7f596f75206d7573742070726f766964652065786163746c79203620756e69717560008201527f65206e756d626572732e00000000000000000000000000000000000000000000602082015250565b6000611788602a83611503565b91506117938261172c565b604082019050919050565b600060208201905081810360008301526117b78161177b565b9050919050565b7f4e487b7100000000000000000000000000000000000000000000000000000000600052603260045260246000fd5b7f4e756d62657273206d757374206265206265747765656e203120616e6420353060008201527f2e00000000000000000000000000000000000000000000000000000000000000602082015250565b6000611849602183611503565b9150611854826117ed565b604082019050919050565b600060208201905081810360008301526118788161183c565b9050919050565b7f4e487b7100000000000000000000000000000000000000000000000000000000600052601160045260246000fd5b60006118b982611119565b91506118c483611119565b92508282019050808211156118dc576118db61187f565b5b92915050565b7f4e756d62657273206d75737420626520756e697175652e000000000000000000600082015250565b6000611918601783611503565b9150611923826118e2565b602082019050919050565b600060208201905081810360008301526119478161190b565b9050919050565b600061195982611119565b91507fffffffffffffffffffffffffffffffffffffffffffffffffffffffffffffffff820361198b5761198a61187f565b5b600182019050919050565b600081519050919050565b600082825260208201905092915050565b6000819050602082019050919050565b6119cb81611119565b82525050565b60006119dd83836119c2565b60208301905092915050565b6000602082019050919050565b6000611a0182611996565b611a0b81856119a1565b9350611a16836119b2565b8060005b83811015611a47578151611a2e88826119d1565b9750611a39836119e9565b925050600181019050611a1a565b5085935050505092915050565b6000604082019050611a696000830185611123565b8181036020830152611a7b81846119f6565b90509392505050565b7f4f6e6c7920565246436f6f7264696e61746f722063616e2066756c66696c6c00600082015250565b6000611aba601f83611503565b9150611ac582611a84565b602082019050919050565b60006020820190508181036000830152611ae981611aad565b9050919050565b7f4f776e61626c653a206e6577206f776e657220697320746865207a65726f206160008201527f6464726573730000000000000000000000000000000000000000000000000000602082015250565b6000611b4c602683611503565b9150611b5782611af0565b604082019050919050565b60006020820190508181036000830152611b7b81611b3f565b9050919050565b7f4f776e61626c653a2063616c6c6572206973206e6f7420746865206f776e6572600082015250565b6000611bb8602083611503565b9150611bc382611b82565b602082019050919050565b60006020820190508181036000830152611be781611bab565b9050919050565b611bf7816113f4565b82525050565b6000604082019050611c126000830185611bee565b611c1f6020830184611123565b9392505050565b600081519050919050565b600082825260208201905092915050565b60005b83811015611c60578082015181840152602081019050611c45565b60008484015250505050565b6000611c7782611c26565b611c818185611c31565b9350611c91818560208601611c42565b611c9a8161121b565b840191505092915050565b6000606082019050611cba60008301866113ca565b611cc76020830185611123565b8181036040830152611cd98184611c6c565b9050949350505050565b60008115159050919050565b611cf881611ce3565b8114611d0357600080fd5b50565b600081519050611d1581611cef565b92915050565b600060208284031215611d3157611d30611157565b5b6000611d3f84828501611d06565b91505092915050565b7f4e487b7100000000000000000000000000000000000000000000000000000000600052601260045260246000fd5b6000611d8282611119565b9150611d8d83611119565b925082611d9d57611d9c611d48565b5b828206905092915050565b6000611db382611119565b9150611dbe83611119565b925082611dce57611dcd611d48565b5b828204905092915050565b600081549050919050565b60008190508160005260206000209050919050565b60008160001c9050919050565b6000819050919050565b6000611e23611e1e83611df9565b611e06565b9050919050565b6000611e368254611e10565b9050919050565b6000600182019050919050565b6000611e5582611dd9565b611e5f81856119a1565b9350611e6a83611de4565b8060005b83811015611ea257611e7f82611e2a565b611e8988826119d1565b9750611e9483611e3d565b925050600181019050611e6e565b5085935050505092915050565b60006020820190508181036000830152611ec98184611e4a565b905092915050565b6000608082019050611ee66000830187611bee565b611ef36020830186611123565b611f0060408301856113ca565b611f0d6060830184611123565b95945050505050565b6000819050919050565b611f31611f2c826113f4565b611f16565b82525050565b6000819050919050565b611f52611f4d82611119565b611f37565b82525050565b6000611f648285611f20565b602082019150611f748284611f41565b6020820191508190509392505050565b6000611f8f82611119565b9150611f9a83611119565b9250828202611fa881611119565b91508282048414831517611fbf57611fbe61187f565b5b5092915050565b6000611fd182611119565b9150611fdc83611119565b9250828203905081811115611ff457611ff361187f565b5b9291505056fea2646970667358221220509abbbb257756f066c18c03426db5dab7c19ea364867917a20a85cc6789fd6c64736f6c63430008120033",
  "immutableReferences": {
    "73": [
      {
        "length": 32,
        "start": 936
      },
      {
        "length": 32,
        "start": 2409
      }
    ],
    "75": [
      {
        "length": 32,
        "start": 1939
      },
      {
        "length": 32,
        "start": 2469
      }
    ]
  },
  "source": "pragma solidity ^0.8.0;\n\nimport \"@openzeppelin/contracts/utils/math/SafeMath.sol\";\nimport \"@openzeppelin/contracts/access/Ownable.sol\";\nimport \"@chainlink/contracts/src/v0.8/VRFConsumerBase.sol\";\n\ncontract Lotto is VRFConsumerBase, Ownable {\n    using SafeMath for uint256;\n\n    bytes32 private keyHash;\n    uint256 private fee;\n    uint256 public randomResult;\n\n    uint256 public ticketPrice;\n    uint256 public ticketCount;\n    uint256[] public winningNumbers;\n    mapping(uint256 => address payable) public tickets;\n    mapping(uint256 => uint256[]) public ticketNumbers;\n\n    event TicketPurchased(\n        address indexed buyer,\n        uint256 ticketCount,\n        uint256[] numbers\n    );\n    event WinningNumbers(uint256[] numbers);\n    event PrizeClaimed(address indexed winner, uint256 amount);\n\n    constructor(\n        uint256 _ticketPrice,\n        address vrfCoordinator,\n        address linkToken,\n        bytes32 _keyHash,\n        uint256 _fee\n    ) VRFConsumerBase(vrfCoordinator, linkToken) {\n        ticketPrice = _ticketPrice;\n        keyHash = _keyHash;\n        fee = _fee;\n    }\n\n    function buyTicket(uint256[] memory numbers) public payable {\n        require(msg.value == ticketPrice, \"Incorrect ticket price.\");\n        require(\n            numbers.length == 6,\n            \"You must provide exactly 6 unique numbers.\"\n        );\n\n        // Validate the provided numbers\n        for (uint256 i = 0; i < numbers.length; i++) {\n            require(\n                numbers[i] >= 1 && numbers[i] <= 50,\n                \"Numbers must be between 1 and 50.\"\n            );\n            for (uint256 j = i + 1; j < numbers.length; j++) {\n                require(numbers[i] != numbers[j], \"Numbers must be unique.\");\n            }\n        }\n\n        ticketCount = ticketCount.add(1);\n        tickets[ticketCount] = payable(msg.sender);\n        ticketNumbers[ticketCount] = numbers;\n        emit TicketPurchased(msg.sender, ticketCount, numbers);\n    }\n\n    function drawWinningNumbers() public onlyOwner {\n        require(ticketCount > 0, \"No tickets have been sold.\");\n        require(\n            winningNumbers.length == 0,\n            \"Winning numbers have already been drawn.\"\n        );\n        require(\n            LINK.balanceOf(address(this)) >= fee,\n            \"Not enough LINK to pay the fee.\"\n        );\n\n        requestRandomness(keyHash, fee);\n    }\n\n    function fulfillRandomness(\n        bytes32 requestId,\n        uint256 randomness\n    ) internal override {\n        randomResult = randomness;\n\n        // Generate unique winning numbers\n        uint256[] memory usedNumbers = new uint256[](50);\n        uint256 usedCount = 0;\n        uint256 generatedNumbers = 0;\n        while (generatedNumbers < 6) {\n            uint256 newNumber = (randomResult % 50) + 1;\n            randomResult /= 50;\n\n            bool isNumberUsed = false;\n            for (uint256 i = 0; i < usedCount; i++) {\n                if (usedNumbers[i] == newNumber) {\n                    isNumberUsed = true;\n                    break;\n                }\n            }\n\n            if (!isNumberUsed) {\n                usedNumbers[usedCount++] = newNumber;\n                winningNumbers.push(newNumber);\n                generatedNumbers++;\n            }\n        }\n        emit WinningNumbers(winningNumbers);\n\n        // Calculate and distribute prizes\n        distributePrizes();\n    }\n\n    function distributePrizes() private {\n        uint256 prizePool = ticketPrice * ticketCount;\n\n        for (uint256 i = 1; i <= ticketCount; i++) {\n            uint256 correctGuesses = getCorrectGuesses(i);\n            uint256 prize = calculatePrize(correctGuesses);\n\n            if (prize > 0 && prize <= prizePool) {\n                payable(tickets[i]).transfer(prize);\n                emit PrizeClaimed(tickets[i], prize);\n                prizePool -= prize;\n            }\n        }\n    }\n\n    function getCorrectGuesses(\n        uint256 ticketNumber\n    ) private view returns (uint256) {\n        uint256[] memory userNumbers = ticketNumbers[ticketNumber];\n        uint256 correctGuesses = 0;\n\n        for (uint256 i = 0; i < userNumbers.length; i++) {\n            for (uint256 j = 0; j < winningNumbers.length; j++) {\n                if (userNumbers[i] == winningNumbers[j]) {\n                    correctGuesses++;\n                    break;\n                }\n            }\n        }\n\n        return correctGuesses;\n    }\n\n    function calculatePrize(\n        uint256 correctGuesses\n    ) private view returns (uint256) {\n        // Implement the prize calculation based on the number of correct guesses\n        // This can be a fixed amount or a percentage of the total prize pool\n        // For example:\n        if (correctGuesses == 6) {\n            return (ticketPrice * ticketCount) / 2; // 50% of the prize pool for 6 correct guesses\n        } else if (correctGuesses == 5) {\n            return (ticketPrice * ticketCount) / 4; // 25% of the prize pool for 5 correct guesses\n        } else if (correctGuesses == 4) {\n            return (ticketPrice * ticketCount) / 10; // 10% of the prize pool for 4 correct guesses\n        }\n\n        return 0;\n    }\n}\n",
  "sourcePath": "/home/d4fttasiii/git/gpt-lotto/src/lotto-contract/contracts/Lotto.sol",
  "compiler": {
    "name": "solc",
    "version": "0.8.18+commit.87f61d96.Emscripten.clang"
  },
  "schemaVersion": "3.4.11",
  "updatedAt": "2023-04-08T09:36:21.474Z",
  "devdoc": {
    "kind": "dev",
    "methods": {
      "owner()": {
        "details": "Returns the address of the current owner."
      },
      "renounceOwnership()": {
        "details": "Leaves the contract without owner. It will not be possible to call `onlyOwner` functions anymore. Can only be called by the current owner. NOTE: Renouncing ownership will leave the contract without an owner, thereby removing any functionality that is only available to the owner."
      },
      "transferOwnership(address)": {
        "details": "Transfers ownership of the contract to a new account (`newOwner`). Can only be called by the current owner."
      }
    },
    "version": 1
  },
  "userdoc": {
    "kind": "user",
    "methods": {},
    "version": 1
  }
}