{
  "contractName": "LuckyShibaReserve",
  "abi": [
    {
      "inputs": [],
      "stateMutability": "nonpayable",
      "type": "constructor"
    },
    {
      "anonymous": false,
      "inputs": [
        {
          "indexed": true,
          "internalType": "address",
          "name": "previousOwner",
          "type": "address"
        },
        {
          "indexed": true,
          "internalType": "address",
          "name": "newOwner",
          "type": "address"
        }
      ],
      "name": "OwnershipTransferred",
      "type": "event"
    },
    {
      "anonymous": false,
      "inputs": [
        {
          "indexed": false,
          "internalType": "uint8",
          "name": "requiredSignatures",
          "type": "uint8"
        }
      ],
      "name": "RequiredSignaturesChanged",
      "type": "event"
    },
    {
      "anonymous": false,
      "inputs": [
        {
          "indexed": false,
          "internalType": "address",
          "name": "signer",
          "type": "address"
        }
      ],
      "name": "SignerAdded",
      "type": "event"
    },
    {
      "anonymous": false,
      "inputs": [
        {
          "indexed": false,
          "internalType": "address",
          "name": "signer",
          "type": "address"
        }
      ],
      "name": "SignerRemoved",
      "type": "event"
    },
    {
      "anonymous": false,
      "inputs": [
        {
          "indexed": true,
          "internalType": "bytes32",
          "name": "transferId",
          "type": "bytes32"
        },
        {
          "indexed": false,
          "internalType": "address",
          "name": "to",
          "type": "address"
        },
        {
          "indexed": false,
          "internalType": "uint256",
          "name": "amount",
          "type": "uint256"
        }
      ],
      "name": "TransferCreated",
      "type": "event"
    },
    {
      "anonymous": false,
      "inputs": [
        {
          "indexed": true,
          "internalType": "bytes32",
          "name": "transferId",
          "type": "bytes32"
        },
        {
          "indexed": false,
          "internalType": "address",
          "name": "to",
          "type": "address"
        },
        {
          "indexed": false,
          "internalType": "uint256",
          "name": "amount",
          "type": "uint256"
        },
        {
          "indexed": false,
          "internalType": "uint256",
          "name": "executeAt",
          "type": "uint256"
        }
      ],
      "name": "TransferExecuted",
      "type": "event"
    },
    {
      "anonymous": false,
      "inputs": [
        {
          "indexed": true,
          "internalType": "bytes32",
          "name": "transferId",
          "type": "bytes32"
        },
        {
          "indexed": false,
          "internalType": "address",
          "name": "signer",
          "type": "address"
        }
      ],
      "name": "TransferSigned",
      "type": "event"
    },
    {
      "inputs": [],
      "name": "_requiredSignatures",
      "outputs": [
        {
          "internalType": "uint8",
          "name": "",
          "type": "uint8"
        }
      ],
      "stateMutability": "view",
      "type": "function"
    },
    {
      "inputs": [
        {
          "internalType": "bytes32",
          "name": "",
          "type": "bytes32"
        }
      ],
      "name": "executedTransfers",
      "outputs": [
        {
          "internalType": "bool",
          "name": "",
          "type": "bool"
        }
      ],
      "stateMutability": "view",
      "type": "function"
    },
    {
      "inputs": [],
      "name": "owner",
      "outputs": [
        {
          "internalType": "address",
          "name": "",
          "type": "address"
        }
      ],
      "stateMutability": "view",
      "type": "function"
    },
    {
      "inputs": [],
      "name": "renounceOwnership",
      "outputs": [],
      "stateMutability": "nonpayable",
      "type": "function"
    },
    {
      "inputs": [
        {
          "internalType": "address",
          "name": "",
          "type": "address"
        }
      ],
      "name": "signers",
      "outputs": [
        {
          "internalType": "bool",
          "name": "",
          "type": "bool"
        }
      ],
      "stateMutability": "view",
      "type": "function"
    },
    {
      "inputs": [
        {
          "internalType": "address",
          "name": "newOwner",
          "type": "address"
        }
      ],
      "name": "transferOwnership",
      "outputs": [],
      "stateMutability": "nonpayable",
      "type": "function"
    },
    {
      "inputs": [
        {
          "internalType": "bytes32",
          "name": "",
          "type": "bytes32"
        }
      ],
      "name": "transfers",
      "outputs": [
        {
          "internalType": "address",
          "name": "token",
          "type": "address"
        },
        {
          "internalType": "address",
          "name": "to",
          "type": "address"
        },
        {
          "internalType": "uint256",
          "name": "amount",
          "type": "uint256"
        },
        {
          "internalType": "uint256",
          "name": "createdAt",
          "type": "uint256"
        }
      ],
      "stateMutability": "view",
      "type": "function"
    },
    {
      "inputs": [
        {
          "internalType": "address[]",
          "name": "initialSigners",
          "type": "address[]"
        }
      ],
      "name": "initializeSigners",
      "outputs": [],
      "stateMutability": "nonpayable",
      "type": "function"
    },
    {
      "inputs": [
        {
          "internalType": "uint8",
          "name": "requiredSignatures",
          "type": "uint8"
        }
      ],
      "name": "initializeRequiredSignatures",
      "outputs": [],
      "stateMutability": "nonpayable",
      "type": "function"
    },
    {
      "inputs": [
        {
          "internalType": "address",
          "name": "signer",
          "type": "address"
        }
      ],
      "name": "removeSigner",
      "outputs": [],
      "stateMutability": "nonpayable",
      "type": "function"
    },
    {
      "inputs": [
        {
          "internalType": "address",
          "name": "token",
          "type": "address"
        },
        {
          "internalType": "address",
          "name": "to",
          "type": "address"
        },
        {
          "internalType": "uint256",
          "name": "amount",
          "type": "uint256"
        }
      ],
      "name": "createTransfer",
      "outputs": [
        {
          "internalType": "bytes32",
          "name": "",
          "type": "bytes32"
        }
      ],
      "stateMutability": "nonpayable",
      "type": "function"
    },
    {
      "inputs": [
        {
          "internalType": "bytes32",
          "name": "transferId",
          "type": "bytes32"
        }
      ],
      "name": "approveTransfer",
      "outputs": [],
      "stateMutability": "nonpayable",
      "type": "function"
    },
    {
      "inputs": [
        {
          "internalType": "bytes32",
          "name": "transferId",
          "type": "bytes32"
        }
      ],
      "name": "getTransferDetails",
      "outputs": [
        {
          "internalType": "address",
          "name": "txToken",
          "type": "address"
        },
        {
          "internalType": "address",
          "name": "txTo",
          "type": "address"
        },
        {
          "internalType": "uint256",
          "name": "txAmount",
          "type": "uint256"
        },
        {
          "internalType": "uint256",
          "name": "txCreatedAt",
          "type": "uint256"
        },
        {
          "internalType": "address[]",
          "name": "txSigners",
          "type": "address[]"
        }
      ],
      "stateMutability": "view",
      "type": "function"
    },
    {
      "inputs": [
        {
          "internalType": "bytes32",
          "name": "transferId",
          "type": "bytes32"
        },
        {
          "internalType": "address",
          "name": "signer",
          "type": "address"
        }
      ],
      "name": "hasSignedAlready",
      "outputs": [
        {
          "internalType": "bool",
          "name": "",
          "type": "bool"
        }
      ],
      "stateMutability": "view",
      "type": "function"
    }
  ],
  "bytecode": "0x608060405234801561001057600080fd5b5061002d61002261008960201b60201c565b61009160201b60201c565b60018060003373ffffffffffffffffffffffffffffffffffffffff1673ffffffffffffffffffffffffffffffffffffffff16815260200190815260200160002060006101000a81548160ff021916908315150217905550610155565b600033905090565b60008060009054906101000a900473ffffffffffffffffffffffffffffffffffffffff169050816000806101000a81548173ffffffffffffffffffffffffffffffffffffffff021916908373ffffffffffffffffffffffffffffffffffffffff1602179055508173ffffffffffffffffffffffffffffffffffffffff168173ffffffffffffffffffffffffffffffffffffffff167f8be0079c531659141344cd1fd0a4f28419497f9722a3daafe3b4186f6b6457e060405160405180910390a35050565b611d25806101646000396000f3fe608060405234801561001057600080fd5b50600436106100ea5760003560e01c8063736c0d5b1161008c57806392a050871161006657806392a050871461024c5780639a9f76da14610280578063ba33984a146102b0578063f2fde38b146102cc576100ea565b8063736c0d5b146101e0578063834e988b146102105780638da5cb5b1461022e576100ea565b80634377158f116100c85780634377158f1461015a5780634d5264191461018a57806363b3fabb146101a6578063715018a6146101d6576100ea565b80630e316ab7146100ef57806335ed10d81461010b5780633c64f04b14610127575b600080fd5b61010960048036038101906101049190611249565b6102e8565b005b610125600480360381019061012091906112af565b610382565b005b610141600480360381019061013c9190611312565b61042f565b6040516101519493929190611367565b60405180910390f35b610174600480360381019061016f91906113d8565b61049f565b604051610181919061143a565b60405180910390f35b6101a4600480360381019061019f91906114ba565b6107a1565b005b6101c060048036038101906101bb9190611507565b6108fb565b6040516101cd9190611562565b60405180910390f35b6101de610a1f565b005b6101fa60048036038101906101f59190611249565b610a33565b6040516102079190611562565b60405180910390f35b610218610a53565b604051610225919061158c565b60405180910390f35b610236610a66565b60405161024391906115a7565b60405180910390f35b61026660048036038101906102619190611312565b610a8f565b604051610277959493929190611680565b60405180910390f35b61029a60048036038101906102959190611312565b610be4565b6040516102a79190611562565b60405180910390f35b6102ca60048036038101906102c59190611312565b610c04565b005b6102e660048036038101906102e19190611249565b610fdb565b005b6102f061105e565b6000600160008373ffffffffffffffffffffffffffffffffffffffff1673ffffffffffffffffffffffffffffffffffffffff16815260200190815260200160002060006101000a81548160ff0219169083151502179055507f3525e22824a8a7df2c9a6029941c824cf95b6447f1e13d5128fd3826d35afe8b8160405161037791906115a7565b60405180910390a150565b61038a61105e565b600060169054906101000a900460ff16156103da576040517f08c379a00000000000000000000000000000000000000000000000000000000081526004016103d19061175d565b60405180910390fd5b80600060146101000a81548160ff021916908360ff1602179055507fdf1c15a9f2bd146bf342978380e3ae0ac96f34ae43ef3e51ae4ed4179e99332681604051610424919061158c565b60405180910390a150565b60026020528060005260406000206000915090508060000160009054906101000a900473ffffffffffffffffffffffffffffffffffffffff16908060010160009054906101000a900473ffffffffffffffffffffffffffffffffffffffff16908060020154908060030154905084565b6000600160003373ffffffffffffffffffffffffffffffffffffffff1673ffffffffffffffffffffffffffffffffffffffff16815260200190815260200160002060009054906101000a900460ff1661052d576040517f08c379a0000000000000000000000000000000000000000000000000000000008152600401610524906117c9565b60405180910390fd5b60008473ffffffffffffffffffffffffffffffffffffffff166370a08231306040518263ffffffff1660e01b815260040161056891906115a7565b602060405180830381865afa158015610585573d6000803e3d6000fd5b505050506040513d601f19601f820116820180604052508101906105a991906117fe565b9050828110156105ee576040517f08c379a00000000000000000000000000000000000000000000000000000000081526004016105e590611877565b60405180910390fd5b60004290506000610601878787856110dc565b9050866002600083815260200190815260200160002060000160006101000a81548173ffffffffffffffffffffffffffffffffffffffff021916908373ffffffffffffffffffffffffffffffffffffffff160217905550856002600083815260200190815260200160002060010160006101000a81548173ffffffffffffffffffffffffffffffffffffffff021916908373ffffffffffffffffffffffffffffffffffffffff16021790555084600260008381526020019081526020016000206002018190555081600260008381526020019081526020016000206003018190555060026000828152602001908152602001600020600401339080600181540180825580915050600190039060005260206000200160009091909190916101000a81548173ffffffffffffffffffffffffffffffffffffffff021916908373ffffffffffffffffffffffffffffffffffffffff160217905550807fac807dea616f25999406940d232325a9ced52bbbbc7b84dca8880e5fd87a4e5a878760405161078c929190611897565b60405180910390a28093505050509392505050565b6107a961105e565b600060159054906101000a900460ff16156107f9576040517f08c379a00000000000000000000000000000000000000000000000000000000081526004016107f09061190c565b60405180910390fd5b60005b828290508110156108f657600180600085858581811061081f5761081e61192c565b5b90506020020160208101906108349190611249565b73ffffffffffffffffffffffffffffffffffffffff1673ffffffffffffffffffffffffffffffffffffffff16815260200190815260200160002060006101000a81548160ff0219169083151502179055507f47d1c22a25bb3a5d4e481b9b1e6944c2eade3181a0a20b495ed61d35b5323f248383838181106108b9576108b861192c565b5b90506020020160208101906108ce9190611249565b6040516108db91906115a7565b60405180910390a180806108ee9061198a565b9150506107fc565b505050565b6000806002600085815260200190815260200160002060040180548060200260200160405190810160405280929190818152602001828054801561099457602002820191906000526020600020905b8160009054906101000a900473ffffffffffffffffffffffffffffffffffffffff1673ffffffffffffffffffffffffffffffffffffffff168152602001906001019080831161094a575b5050505050905060005b8151811015610a12578373ffffffffffffffffffffffffffffffffffffffff168282815181106109d1576109d061192c565b5b602002602001015173ffffffffffffffffffffffffffffffffffffffff16036109ff57600192505050610a19565b8080610a0a9061198a565b91505061099e565b5060009150505b92915050565b610a2761105e565b610a316000611115565b565b60016020528060005260406000206000915054906101000a900460ff1681565b600060149054906101000a900460ff1681565b60008060009054906101000a900473ffffffffffffffffffffffffffffffffffffffff16905090565b60008060008060606002600087815260200190815260200160002060000160009054906101000a900473ffffffffffffffffffffffffffffffffffffffff166002600088815260200190815260200160002060010160009054906101000a900473ffffffffffffffffffffffffffffffffffffffff166002600089815260200190815260200160002060020154600260008a815260200190815260200160002060030154600260008b815260200190815260200160002060040180805480602002602001604051908101604052809291908181526020018280548015610bca57602002820191906000526020600020905b8160009054906101000a900473ffffffffffffffffffffffffffffffffffffffff1673ffffffffffffffffffffffffffffffffffffffff1681526020019060010190808311610b80575b505050505090509450945094509450945091939590929450565b60036020528060005260406000206000915054906101000a900460ff1681565b600160003373ffffffffffffffffffffffffffffffffffffffff1673ffffffffffffffffffffffffffffffffffffffff16815260200190815260200160002060009054906101000a900460ff16610c90576040517f08c379a0000000000000000000000000000000000000000000000000000000008152600401610c87906117c9565b60405180910390fd5b6003600082815260200190815260200160002060009054906101000a900460ff1615610cf1576040517f08c379a0000000000000000000000000000000000000000000000000000000008152600401610ce890611a1e565b60405180910390fd5b610cfb81336108fb565b15610d3b576040517f08c379a0000000000000000000000000000000000000000000000000000000008152600401610d3290611a8a565b60405180910390fd5b60026000828152602001908152602001600020600401339080600181540180825580915050600190039060005260206000200160009091909190916101000a81548173ffffffffffffffffffffffffffffffffffffffff021916908373ffffffffffffffffffffffffffffffffffffffff160217905550807f27966dcf9ee150cce13fb26a69879fcc90f79c741bc642032ff1777d8f9eb0e433604051610de291906115a7565b60405180910390a2600060149054906101000a900460ff1660ff16600260008381526020019081526020016000206004018054905010610fd85760006002600083815260200190815260200160002060000160009054906101000a900473ffffffffffffffffffffffffffffffffffffffff1690508073ffffffffffffffffffffffffffffffffffffffff1663a9059cbb6002600085815260200190815260200160002060010160009054906101000a900473ffffffffffffffffffffffffffffffffffffffff1660026000868152602001908152602001600020600201546040518363ffffffff1660e01b8152600401610ede929190611897565b6020604051808303816000875af1158015610efd573d6000803e3d6000fd5b505050506040513d601f19601f82011682018060405250810190610f219190611ad6565b5060016003600084815260200190815260200160002060006101000a81548160ff021916908315150217905550817f706d19a0419829f5b040af42eceaa508d974f5d02cd30b93ec3d2c9a02b958156002600085815260200190815260200160002060010160009054906101000a900473ffffffffffffffffffffffffffffffffffffffff16600260008681526020019081526020016000206002015442604051610fce93929190611b03565b60405180910390a2505b50565b610fe361105e565b600073ffffffffffffffffffffffffffffffffffffffff168173ffffffffffffffffffffffffffffffffffffffff1603611052576040517f08c379a000000000000000000000000000000000000000000000000000000000815260040161104990611bac565b60405180910390fd5b61105b81611115565b50565b6110666111d9565b73ffffffffffffffffffffffffffffffffffffffff16611084610a66565b73ffffffffffffffffffffffffffffffffffffffff16146110da576040517f08c379a00000000000000000000000000000000000000000000000000000000081526004016110d190611c18565b60405180910390fd5b565b6000848484846040516020016110f59493929190611ca1565b604051602081830303815290604052805190602001209050949350505050565b60008060009054906101000a900473ffffffffffffffffffffffffffffffffffffffff169050816000806101000a81548173ffffffffffffffffffffffffffffffffffffffff021916908373ffffffffffffffffffffffffffffffffffffffff1602179055508173ffffffffffffffffffffffffffffffffffffffff168173ffffffffffffffffffffffffffffffffffffffff167f8be0079c531659141344cd1fd0a4f28419497f9722a3daafe3b4186f6b6457e060405160405180910390a35050565b600033905090565b600080fd5b600080fd5b600073ffffffffffffffffffffffffffffffffffffffff82169050919050565b6000611216826111eb565b9050919050565b6112268161120b565b811461123157600080fd5b50565b6000813590506112438161121d565b92915050565b60006020828403121561125f5761125e6111e1565b5b600061126d84828501611234565b91505092915050565b600060ff82169050919050565b61128c81611276565b811461129757600080fd5b50565b6000813590506112a981611283565b92915050565b6000602082840312156112c5576112c46111e1565b5b60006112d38482850161129a565b91505092915050565b6000819050919050565b6112ef816112dc565b81146112fa57600080fd5b50565b60008135905061130c816112e6565b92915050565b600060208284031215611328576113276111e1565b5b6000611336848285016112fd565b91505092915050565b6113488161120b565b82525050565b6000819050919050565b6113618161134e565b82525050565b600060808201905061137c600083018761133f565b611389602083018661133f565b6113966040830185611358565b6113a36060830184611358565b95945050505050565b6113b58161134e565b81146113c057600080fd5b50565b6000813590506113d2816113ac565b92915050565b6000806000606084860312156113f1576113f06111e1565b5b60006113ff86828701611234565b935050602061141086828701611234565b9250506040611421868287016113c3565b9150509250925092565b611434816112dc565b82525050565b600060208201905061144f600083018461142b565b92915050565b600080fd5b600080fd5b600080fd5b60008083601f84011261147a57611479611455565b5b8235905067ffffffffffffffff8111156114975761149661145a565b5b6020830191508360208202830111156114b3576114b261145f565b5b9250929050565b600080602083850312156114d1576114d06111e1565b5b600083013567ffffffffffffffff8111156114ef576114ee6111e6565b5b6114fb85828601611464565b92509250509250929050565b6000806040838503121561151e5761151d6111e1565b5b600061152c858286016112fd565b925050602061153d85828601611234565b9150509250929050565b60008115159050919050565b61155c81611547565b82525050565b60006020820190506115776000830184611553565b92915050565b61158681611276565b82525050565b60006020820190506115a1600083018461157d565b92915050565b60006020820190506115bc600083018461133f565b92915050565b600081519050919050565b600082825260208201905092915050565b6000819050602082019050919050565b6115f78161120b565b82525050565b600061160983836115ee565b60208301905092915050565b6000602082019050919050565b600061162d826115c2565b61163781856115cd565b9350611642836115de565b8060005b8381101561167357815161165a88826115fd565b975061166583611615565b925050600181019050611646565b5085935050505092915050565b600060a082019050611695600083018861133f565b6116a2602083018761133f565b6116af6040830186611358565b6116bc6060830185611358565b81810360808301526116ce8184611622565b90509695505050505050565b600082825260208201905092915050565b7f5265717569726564207369676e61747572657320616c726561647920696e697460008201527f69616c697a656400000000000000000000000000000000000000000000000000602082015250565b60006117476027836116da565b9150611752826116eb565b604082019050919050565b600060208201905081810360008301526117768161173a565b9050919050565b7f4e6f742061207369676e65720000000000000000000000000000000000000000600082015250565b60006117b3600c836116da565b91506117be8261177d565b602082019050919050565b600060208201905081810360008301526117e2816117a6565b9050919050565b6000815190506117f8816113ac565b92915050565b600060208284031215611814576118136111e1565b5b6000611822848285016117e9565b91505092915050565b7f496e73756666696369656e7420636f6e74726163742062616c616e6365000000600082015250565b6000611861601d836116da565b915061186c8261182b565b602082019050919050565b6000602082019050818103600083015261189081611854565b9050919050565b60006040820190506118ac600083018561133f565b6118b96020830184611358565b9392505050565b7f5369676e65727320616c726561647920696e697469616c697a65640000000000600082015250565b60006118f6601b836116da565b9150611901826118c0565b602082019050919050565b60006020820190508181036000830152611925816118e9565b9050919050565b7f4e487b7100000000000000000000000000000000000000000000000000000000600052603260045260246000fd5b7f4e487b7100000000000000000000000000000000000000000000000000000000600052601160045260246000fd5b60006119958261134e565b91507fffffffffffffffffffffffffffffffffffffffffffffffffffffffffffffffff82036119c7576119c661195b565b5b600182019050919050565b7f5472616e7366657220616c726561647920657865637574656400000000000000600082015250565b6000611a086019836116da565b9150611a13826119d2565b602082019050919050565b60006020820190508181036000830152611a37816119fb565b9050919050565b7f43616c6c65722068617320616c7265616479207369676e656400000000000000600082015250565b6000611a746019836116da565b9150611a7f82611a3e565b602082019050919050565b60006020820190508181036000830152611aa381611a67565b9050919050565b611ab381611547565b8114611abe57600080fd5b50565b600081519050611ad081611aaa565b92915050565b600060208284031215611aec57611aeb6111e1565b5b6000611afa84828501611ac1565b91505092915050565b6000606082019050611b18600083018661133f565b611b256020830185611358565b611b326040830184611358565b949350505050565b7f4f776e61626c653a206e6577206f776e657220697320746865207a65726f206160008201527f6464726573730000000000000000000000000000000000000000000000000000602082015250565b6000611b966026836116da565b9150611ba182611b3a565b604082019050919050565b60006020820190508181036000830152611bc581611b89565b9050919050565b7f4f776e61626c653a2063616c6c6572206973206e6f7420746865206f776e6572600082015250565b6000611c026020836116da565b9150611c0d82611bcc565b602082019050919050565b60006020820190508181036000830152611c3181611bf5565b9050919050565b60008160601b9050919050565b6000611c5082611c38565b9050919050565b6000611c6282611c45565b9050919050565b611c7a611c758261120b565b611c57565b82525050565b6000819050919050565b611c9b611c968261134e565b611c80565b82525050565b6000611cad8287611c69565b601482019150611cbd8286611c69565b601482019150611ccd8285611c8a565b602082019150611cdd8284611c8a565b6020820191508190509594505050505056fea26469706673582212208b3905faaf9f76d74729df129a36f09d870c56c5c9bb7be5fefb98141a52aacb64736f6c63430008120033",
  "immutableReferences": {},
  "source": "// SPDX-License-Identifier: MIT\npragma solidity ^0.8.0;\n\nimport \"@openzeppelin/contracts/token/ERC20/IERC20.sol\";\nimport \"@openzeppelin/contracts/access/Ownable.sol\";\n\ncontract LuckyShibaReserve is Ownable {\n    uint8 public _requiredSignatures;\n    bool private _signersInitialized;\n    bool private _requiredSignaturesInitialized;\n\n    struct Transfer {\n        address token;\n        address to;\n        uint256 amount;\n        uint256 createdAt;\n        address[] signers;\n    }\n\n    mapping(address => bool) public signers;\n    mapping(bytes32 => Transfer) public transfers;\n    mapping(bytes32 => bool) public executedTransfers;\n\n    event SignerAdded(address signer);\n    event SignerRemoved(address signer);\n    event RequiredSignaturesChanged(uint8 requiredSignatures);\n    event TransferCreated(\n        bytes32 indexed transferId,\n        address to,\n        uint256 amount\n    );\n    event TransferSigned(bytes32 indexed transferId, address signer);\n    event TransferExecuted(\n        bytes32 indexed transferId,\n        address to,\n        uint256 amount,\n        uint256 executeAt\n    );\n\n    modifier onlySigner() {\n        require(signers[msg.sender], \"Not a signer\");\n        _;\n    }\n\n    constructor() {\n        // Setting owner as the first signer\n        signers[msg.sender] = true;\n    }\n\n    function initializeSigners(\n        address[] calldata initialSigners\n    ) external onlyOwner {\n        require(!_signersInitialized, \"Signers already initialized\");\n        for (uint256 i = 0; i < initialSigners.length; i++) {\n            signers[initialSigners[i]] = true;\n            emit SignerAdded(initialSigners[i]);\n        }\n    }\n\n    function initializeRequiredSignatures(\n        uint8 requiredSignatures\n    ) external onlyOwner {\n        require(\n            !_requiredSignaturesInitialized,\n            \"Required signatures already initialized\"\n        );\n        _requiredSignatures = requiredSignatures;\n        emit RequiredSignaturesChanged(requiredSignatures);\n    }\n\n    function removeSigner(address signer) external onlyOwner {\n        signers[signer] = false;\n        emit SignerRemoved(signer);\n    }\n\n    function createTransfer(\n        address token,\n        address to,\n        uint256 amount\n    ) external onlySigner returns (bytes32) {\n        uint256 contractBalance = IERC20(token).balanceOf(address(this));\n        require(contractBalance >= amount, \"Insufficient contract balance\");\n        \n        uint256 createdAt = block.timestamp;\n        bytes32 transferId = getTransferId(token, to, amount, createdAt);\n\n        transfers[transferId].token = token;\n        transfers[transferId].to = to;\n        transfers[transferId].amount = amount;\n        transfers[transferId].createdAt = createdAt;\n        transfers[transferId].signers.push(msg.sender);\n\n        emit TransferCreated(transferId, to, amount);\n\n        return transferId;\n    }\n\n    function approveTransfer(bytes32 transferId) external onlySigner {\n        require(!executedTransfers[transferId], \"Transfer already executed\");\n        require(\n            !hasSignedAlready(transferId, msg.sender),\n            \"Caller has already signed\"\n        );\n\n        transfers[transferId].signers.push(msg.sender);\n        emit TransferSigned(transferId, msg.sender);\n\n        if (transfers[transferId].signers.length >= _requiredSignatures) {\n            IERC20 token = IERC20(transfers[transferId].token);\n            token.transfer(\n                transfers[transferId].to,\n                transfers[transferId].amount\n            );\n            executedTransfers[transferId] = true;\n            emit TransferExecuted(\n                transferId,\n                transfers[transferId].to,\n                transfers[transferId].amount,\n                block.timestamp\n            );\n        }\n    }\n\n    function getTransferDetails(\n        bytes32 transferId\n    )\n        public\n        view\n        returns (\n            address txToken,\n            address txTo,\n            uint256 txAmount,\n            uint256 txCreatedAt,\n            address[] memory txSigners\n        )\n    {\n        return (\n            transfers[transferId].token,\n            transfers[transferId].to,\n            transfers[transferId].amount,\n            transfers[transferId].createdAt,\n            transfers[transferId].signers\n        );\n    }\n\n    function getTransferId(\n        address token,\n        address to,\n        uint256 amount,\n        uint256 timestamp\n    ) private pure returns (bytes32) {\n        return keccak256(abi.encodePacked(token, to, amount, timestamp));\n    }\n\n    function hasSignedAlready(\n        bytes32 transferId,\n        address signer\n    ) public view returns (bool) {\n        address[] memory currentSigners = transfers[transferId].signers;\n        for (uint256 i = 0; i < currentSigners.length; i++) {\n            if (currentSigners[i] == signer) {\n                return true;\n            }\n        }\n\n        return false;\n    }\n}\n",
  "sourcePath": "/home/d4fttasiii/git/gpt-lotto/src/lotto-contract/contracts/LuckyShibaReserve.sol",
  "compiler": {
    "name": "solc",
    "version": "0.8.18+commit.87f61d96.Emscripten.clang"
  },
  "schemaVersion": "3.4.11",
  "updatedAt": "2023-04-21T10:23:23.078Z",
  "devdoc": {
    "kind": "dev",
    "methods": {
      "owner()": {
        "details": "Returns the address of the current owner."
      },
      "renounceOwnership()": {
        "details": "Leaves the contract without owner. It will not be possible to call `onlyOwner` functions anymore. Can only be called by the current owner. NOTE: Renouncing ownership will leave the contract without an owner, thereby removing any functionality that is only available to the owner."
      },
      "transferOwnership(address)": {
        "details": "Transfers ownership of the contract to a new account (`newOwner`). Can only be called by the current owner."
      }
    },
    "version": 1
  },
  "userdoc": {
    "kind": "user",
    "methods": {},
    "version": 1
  }
}