{
  "contractName": "LuckyShiba",
  "abi": [
    {
      "inputs": [
        {
          "internalType": "uint256",
          "name": "_ticketPrice",
          "type": "uint256"
        },
        {
          "internalType": "address",
          "name": "_lottoToken",
          "type": "address"
        },
        {
          "internalType": "address",
          "name": "_application",
          "type": "address"
        },
        {
          "internalType": "address",
          "name": "_vrfCoordinator",
          "type": "address"
        },
        {
          "internalType": "address",
          "name": "_linkToken",
          "type": "address"
        },
        {
          "internalType": "bytes32",
          "name": "_keyHash",
          "type": "bytes32"
        },
        {
          "internalType": "uint256",
          "name": "_fee",
          "type": "uint256"
        }
      ],
      "stateMutability": "nonpayable",
      "type": "constructor"
    },
    {
      "anonymous": false,
      "inputs": [
        {
          "indexed": true,
          "internalType": "address",
          "name": "previousOwner",
          "type": "address"
        },
        {
          "indexed": true,
          "internalType": "address",
          "name": "newOwner",
          "type": "address"
        }
      ],
      "name": "OwnershipTransferred",
      "type": "event"
    },
    {
      "anonymous": false,
      "inputs": [
        {
          "indexed": true,
          "internalType": "address",
          "name": "winner",
          "type": "address"
        },
        {
          "indexed": false,
          "internalType": "uint256",
          "name": "amount",
          "type": "uint256"
        }
      ],
      "name": "PrizeClaimed",
      "type": "event"
    },
    {
      "anonymous": false,
      "inputs": [
        {
          "indexed": false,
          "internalType": "bytes32",
          "name": "requestId",
          "type": "bytes32"
        },
        {
          "indexed": false,
          "internalType": "uint256",
          "name": "randomness",
          "type": "uint256"
        }
      ],
      "name": "RequestFulfilled",
      "type": "event"
    },
    {
      "anonymous": false,
      "inputs": [
        {
          "indexed": true,
          "internalType": "address",
          "name": "buyer",
          "type": "address"
        },
        {
          "indexed": false,
          "internalType": "uint256",
          "name": "ticketCount",
          "type": "uint256"
        },
        {
          "indexed": false,
          "internalType": "uint8[]",
          "name": "numbers",
          "type": "uint8[]"
        }
      ],
      "name": "TicketPurchased",
      "type": "event"
    },
    {
      "anonymous": false,
      "inputs": [
        {
          "indexed": true,
          "internalType": "address",
          "name": "winner",
          "type": "address"
        },
        {
          "indexed": false,
          "internalType": "uint256",
          "name": "amount",
          "type": "uint256"
        }
      ],
      "name": "TokenHolderPrizeClaimed",
      "type": "event"
    },
    {
      "anonymous": false,
      "inputs": [
        {
          "indexed": false,
          "internalType": "uint256",
          "name": "roundId",
          "type": "uint256"
        },
        {
          "indexed": false,
          "internalType": "uint8[]",
          "name": "numbers",
          "type": "uint8[]"
        }
      ],
      "name": "WinningNumbers",
      "type": "event"
    },
    {
      "inputs": [],
      "name": "application",
      "outputs": [
        {
          "internalType": "address",
          "name": "",
          "type": "address"
        }
      ],
      "stateMutability": "view",
      "type": "function"
    },
    {
      "inputs": [],
      "name": "lastRequestId",
      "outputs": [
        {
          "internalType": "bytes32",
          "name": "",
          "type": "bytes32"
        }
      ],
      "stateMutability": "view",
      "type": "function"
    },
    {
      "inputs": [],
      "name": "owner",
      "outputs": [
        {
          "internalType": "address",
          "name": "",
          "type": "address"
        }
      ],
      "stateMutability": "view",
      "type": "function"
    },
    {
      "inputs": [],
      "name": "randomResult",
      "outputs": [
        {
          "internalType": "uint256",
          "name": "",
          "type": "uint256"
        }
      ],
      "stateMutability": "view",
      "type": "function"
    },
    {
      "inputs": [
        {
          "internalType": "bytes32",
          "name": "requestId",
          "type": "bytes32"
        },
        {
          "internalType": "uint256",
          "name": "randomness",
          "type": "uint256"
        }
      ],
      "name": "rawFulfillRandomness",
      "outputs": [],
      "stateMutability": "nonpayable",
      "type": "function"
    },
    {
      "inputs": [],
      "name": "renounceOwnership",
      "outputs": [],
      "stateMutability": "nonpayable",
      "type": "function"
    },
    {
      "inputs": [],
      "name": "roundId",
      "outputs": [
        {
          "internalType": "uint256",
          "name": "",
          "type": "uint256"
        }
      ],
      "stateMutability": "view",
      "type": "function"
    },
    {
      "inputs": [],
      "name": "roundInProgress",
      "outputs": [
        {
          "internalType": "bool",
          "name": "",
          "type": "bool"
        }
      ],
      "stateMutability": "view",
      "type": "function"
    },
    {
      "inputs": [
        {
          "internalType": "uint256",
          "name": "",
          "type": "uint256"
        }
      ],
      "name": "rounds",
      "outputs": [
        {
          "internalType": "uint256",
          "name": "roundId",
          "type": "uint256"
        },
        {
          "internalType": "uint256",
          "name": "ticketCount",
          "type": "uint256"
        },
        {
          "internalType": "uint256",
          "name": "drawnAt",
          "type": "uint256"
        },
        {
          "internalType": "uint256",
          "name": "prizePool",
          "type": "uint256"
        }
      ],
      "stateMutability": "view",
      "type": "function"
    },
    {
      "inputs": [],
      "name": "ticketPrice",
      "outputs": [
        {
          "internalType": "uint256",
          "name": "",
          "type": "uint256"
        }
      ],
      "stateMutability": "view",
      "type": "function"
    },
    {
      "inputs": [
        {
          "internalType": "address",
          "name": "newOwner",
          "type": "address"
        }
      ],
      "name": "transferOwnership",
      "outputs": [],
      "stateMutability": "nonpayable",
      "type": "function"
    },
    {
      "inputs": [
        {
          "internalType": "address",
          "name": "newApplication",
          "type": "address"
        }
      ],
      "name": "updateApplicationAddress",
      "outputs": [],
      "stateMutability": "nonpayable",
      "type": "function"
    },
    {
      "inputs": [
        {
          "internalType": "uint256",
          "name": "newTicketPrice",
          "type": "uint256"
        }
      ],
      "name": "updateTicketPrice",
      "outputs": [],
      "stateMutability": "nonpayable",
      "type": "function"
    },
    {
      "inputs": [
        {
          "internalType": "uint8[]",
          "name": "numbers",
          "type": "uint8[]"
        }
      ],
      "name": "buyTicket",
      "outputs": [],
      "stateMutability": "payable",
      "type": "function"
    },
    {
      "inputs": [],
      "name": "getTicketCount",
      "outputs": [
        {
          "internalType": "uint256",
          "name": "",
          "type": "uint256"
        }
      ],
      "stateMutability": "view",
      "type": "function"
    },
    {
      "inputs": [
        {
          "internalType": "address",
          "name": "account",
          "type": "address"
        }
      ],
      "name": "getTicketsByAddress",
      "outputs": [
        {
          "internalType": "uint256[]",
          "name": "",
          "type": "uint256[]"
        }
      ],
      "stateMutability": "view",
      "type": "function"
    },
    {
      "inputs": [
        {
          "internalType": "uint256",
          "name": "ticketNr",
          "type": "uint256"
        }
      ],
      "name": "getTicketNumbers",
      "outputs": [
        {
          "internalType": "uint8[]",
          "name": "",
          "type": "uint8[]"
        }
      ],
      "stateMutability": "view",
      "type": "function"
    },
    {
      "inputs": [
        {
          "internalType": "uint256",
          "name": "roundNr",
          "type": "uint256"
        }
      ],
      "name": "getRoundWinningNumbers",
      "outputs": [
        {
          "internalType": "uint8[]",
          "name": "",
          "type": "uint8[]"
        }
      ],
      "stateMutability": "view",
      "type": "function"
    },
    {
      "inputs": [
        {
          "internalType": "uint256",
          "name": "roundNr",
          "type": "uint256"
        }
      ],
      "name": "getRound",
      "outputs": [
        {
          "internalType": "uint256",
          "name": "ticketCount",
          "type": "uint256"
        },
        {
          "internalType": "uint256",
          "name": "drawnAt",
          "type": "uint256"
        },
        {
          "internalType": "uint256",
          "name": "prizePool",
          "type": "uint256"
        },
        {
          "internalType": "uint8[]",
          "name": "",
          "type": "uint8[]"
        }
      ],
      "stateMutability": "view",
      "type": "function"
    },
    {
      "inputs": [
        {
          "internalType": "uint256",
          "name": "roundNr",
          "type": "uint256"
        }
      ],
      "name": "getRoundWinners",
      "outputs": [
        {
          "internalType": "address[]",
          "name": "matchOne",
          "type": "address[]"
        },
        {
          "internalType": "address[]",
          "name": "matchTwo",
          "type": "address[]"
        },
        {
          "internalType": "address[]",
          "name": "matchThree",
          "type": "address[]"
        },
        {
          "internalType": "address[]",
          "name": "matchFour",
          "type": "address[]"
        },
        {
          "internalType": "address[]",
          "name": "matchFive",
          "type": "address[]"
        },
        {
          "internalType": "address[]",
          "name": "matchSix",
          "type": "address[]"
        }
      ],
      "stateMutability": "view",
      "type": "function"
    },
    {
      "inputs": [],
      "name": "drawWinningNumbers",
      "outputs": [],
      "stateMutability": "nonpayable",
      "type": "function"
    },
    {
      "inputs": [],
      "name": "distributePrizes",
      "outputs": [],
      "stateMutability": "nonpayable",
      "type": "function"
    }
  ],
  "bytecode": "0x60c06040523480156200001157600080fd5b506040516200502c3803806200502c833981810160405281019062000037919062000338565b83838173ffffffffffffffffffffffffffffffffffffffff1660a08173ffffffffffffffffffffffffffffffffffffffff16815250508073ffffffffffffffffffffffffffffffffffffffff1660808173ffffffffffffffffffffffffffffffffffffffff16815250505050620000c3620000b76200018a60201b60201c565b6200019260201b60201c565b8660078190555085600260006101000a81548173ffffffffffffffffffffffffffffffffffffffff021916908373ffffffffffffffffffffffffffffffffffffffff16021790555084600960006101000a81548173ffffffffffffffffffffffffffffffffffffffff021916908373ffffffffffffffffffffffffffffffffffffffff160217905550816003819055508060048190555060016008819055506001600960146101000a81548160ff02191690831515021790555050505050505050620003eb565b600033905090565b6000600160009054906101000a900473ffffffffffffffffffffffffffffffffffffffff16905081600160006101000a81548173ffffffffffffffffffffffffffffffffffffffff021916908373ffffffffffffffffffffffffffffffffffffffff1602179055508173ffffffffffffffffffffffffffffffffffffffff168173ffffffffffffffffffffffffffffffffffffffff167f8be0079c531659141344cd1fd0a4f28419497f9722a3daafe3b4186f6b6457e060405160405180910390a35050565b600080fd5b6000819050919050565b62000272816200025d565b81146200027e57600080fd5b50565b600081519050620002928162000267565b92915050565b600073ffffffffffffffffffffffffffffffffffffffff82169050919050565b6000620002c58262000298565b9050919050565b620002d781620002b8565b8114620002e357600080fd5b50565b600081519050620002f781620002cc565b92915050565b6000819050919050565b6200031281620002fd565b81146200031e57600080fd5b50565b600081519050620003328162000307565b92915050565b600080600080600080600060e0888a0312156200035a576200035962000258565b5b60006200036a8a828b0162000281565b97505060206200037d8a828b01620002e6565b9650506040620003908a828b01620002e6565b9550506060620003a38a828b01620002e6565b9450506080620003b68a828b01620002e6565b93505060a0620003c98a828b0162000321565b92505060c0620003dc8a828b0162000281565b91505092959891949750929550565b60805160a051614c0d6200041f60003960008181611436015261193101526000818161103101526118f50152614c0d6000f3fe6080604052600436106101355760003560e01c80638c65c81f116100ab5780639839eafd1161006f5780639839eafd146103ee578063ea5ab0ba1461042b578063f02137c814610456578063f2fde38b1461047f578063f5e47f96146104a8578063fc2a88c3146104e557610135565b80638c65c81f146102ef5780638cd221c91461032f5780638da5cb5b1461035a5780638f1327c01461038557806394985ddd146103c557610135565b806342619f66116100fd57806342619f66146102265780635e349acc14610251578063608620aa1461026d57806364069e7114610284578063715018a6146102c15780637ce52eb6146102d857610135565b80631209b1f61461013a57806321c63a471461016557806326e4ca82146101905780632786e402146101bb5780632e881471146101e4575b600080fd5b34801561014657600080fd5b5061014f610510565b60405161015c9190612a15565b60405180910390f35b34801561017157600080fd5b5061017a610516565b6040516101879190612a15565b60405180910390f35b34801561019c57600080fd5b506101a5610536565b6040516101b29190612a71565b60405180910390f35b3480156101c757600080fd5b506101e260048036038101906101dd9190612acc565b61055c565b005b3480156101f057600080fd5b5061020b60048036038101906102069190612b25565b610617565b60405161021d96959493929190612c10565b60405180910390f35b34801561023257600080fd5b5061023b610a55565b6040516102489190612a15565b60405180910390f35b61026b60048036038101906102669190612e2d565b610a5b565b005b34801561027957600080fd5b50610282610ee3565b005b34801561029057600080fd5b506102ab60048036038101906102a69190612b25565b61113b565b6040516102b89190612f34565b60405180910390f35b3480156102cd57600080fd5b506102d66111cf565b005b3480156102e457600080fd5b506102ed6111e3565b005b3480156102fb57600080fd5b5061031660048036038101906103119190612b25565b6112eb565b6040516103269493929190612f56565b60405180910390f35b34801561033b57600080fd5b5061034461131b565b6040516103519190612a15565b60405180910390f35b34801561036657600080fd5b5061036f611321565b60405161037c9190612a71565b60405180910390f35b34801561039157600080fd5b506103ac60048036038101906103a79190612b25565b61134b565b6040516103bc9493929190612f9b565b60405180910390f35b3480156103d157600080fd5b506103ec60048036038101906103e7919061301d565b611434565b005b3480156103fa57600080fd5b5061041560048036038101906104109190612b25565b6114d0565b6040516104229190612f34565b60405180910390f35b34801561043757600080fd5b50610440611577565b60405161044d9190613078565b60405180910390f35b34801561046257600080fd5b5061047d60048036038101906104789190612b25565b61158a565b005b34801561048b57600080fd5b506104a660048036038101906104a19190612acc565b6115df565b005b3480156104b457600080fd5b506104cf60048036038101906104ca9190612acc565b611662565b6040516104dc9190613151565b60405180910390f35b3480156104f157600080fd5b506104fa61170f565b6040516105079190613182565b60405180910390f35b60075481565b6000600a6000600854815260200190815260200160002060010154905090565b600960009054906101000a900473ffffffffffffffffffffffffffffffffffffffff1681565b610564611715565b600073ffffffffffffffffffffffffffffffffffffffff168173ffffffffffffffffffffffffffffffffffffffff16036105d3576040517f08c379a00000000000000000000000000000000000000000000000000000000081526004016105ca90613220565b60405180910390fd5b80600960006101000a81548173ffffffffffffffffffffffffffffffffffffffff021916908373ffffffffffffffffffffffffffffffffffffffff16021790555050565b606080606080606080600a6000888152602001908152602001600020600501600060018152602001908152602001600020600a6000898152602001908152602001600020600501600060028152602001908152602001600020600a60008a8152602001908152602001600020600501600060038152602001908152602001600020600a60008b8152602001908152602001600020600501600060048152602001908152602001600020600a60008c8152602001908152602001600020600501600060058152602001908152602001600020600a60008d81526020019081526020016000206005016000600681526020019081526020016000208580548060200260200160405190810160405280929190818152602001828054801561079157602002820191906000526020600020905b8160009054906101000a900473ffffffffffffffffffffffffffffffffffffffff1673ffffffffffffffffffffffffffffffffffffffff1681526020019060010190808311610747575b505050505095508480548060200260200160405190810160405280929190818152602001828054801561081957602002820191906000526020600020905b8160009054906101000a900473ffffffffffffffffffffffffffffffffffffffff1673ffffffffffffffffffffffffffffffffffffffff16815260200190600101908083116107cf575b50505050509450838054806020026020016040519081016040528092919081815260200182805480156108a157602002820191906000526020600020905b8160009054906101000a900473ffffffffffffffffffffffffffffffffffffffff1673ffffffffffffffffffffffffffffffffffffffff1681526020019060010190808311610857575b505050505093508280548060200260200160405190810160405280929190818152602001828054801561092957602002820191906000526020600020905b8160009054906101000a900473ffffffffffffffffffffffffffffffffffffffff1673ffffffffffffffffffffffffffffffffffffffff16815260200190600101908083116108df575b50505050509250818054806020026020016040519081016040528092919081815260200182805480156109b157602002820191906000526020600020905b8160009054906101000a900473ffffffffffffffffffffffffffffffffffffffff1673ffffffffffffffffffffffffffffffffffffffff1681526020019060010190808311610967575b5050505050915080805480602002602001604051908101604052809291908181526020018280548015610a3957602002820191906000526020600020905b8160009054906101000a900473ffffffffffffffffffffffffffffffffffffffff1673ffffffffffffffffffffffffffffffffffffffff16815260200190600101908083116109ef575b5050505050905095509550955095509550955091939550919395565b60065481565b600960149054906101000a900460ff16610aaa576040517f08c379a0000000000000000000000000000000000000000000000000000000008152600401610aa19061328c565b60405180910390fd5b6007543414610aee576040517f08c379a0000000000000000000000000000000000000000000000000000000008152600401610ae5906132f8565b60405180910390fd5b6006815114610b32576040517f08c379a0000000000000000000000000000000000000000000000000000000008152600401610b299061338a565b60405180910390fd5b6000610b3d82611793565b905060005b8151811015610c87576001828281518110610b6057610b5f6133aa565b5b602002602001015160ff1610158015610b9757506032828281518110610b8957610b886133aa565b5b602002602001015160ff1611155b610bd6576040517f08c379a0000000000000000000000000000000000000000000000000000000008152600401610bcd9061344b565b60405180910390fd5b60018251610be4919061349a565b811015610c745781600182610bf991906134ce565b81518110610c0a57610c096133aa565b5b602002602001015160ff16828281518110610c2857610c276133aa565b5b602002602001015160ff1603610c73576040517f08c379a0000000000000000000000000000000000000000000000000000000008152600401610c6a9061354e565b60405180910390fd5b5b8080610c7f9061356e565b915050610b42565b506001600a600060085481526020019081526020016000206001016000828254610cb191906134ce565b925050819055506000600a6000600854815260200190815260200160002060010154905033600a60006008548152602001908152602001600020600701600083815260200190815260200160002060006101000a81548173ffffffffffffffffffffffffffffffffffffffff021916908373ffffffffffffffffffffffffffffffffffffffff16021790555081600a6000600854815260200190815260200160002060080160008381526020019081526020016000209080519060200190610d7a929190612938565b50600a6000600854815260200190815260200160002060060160003373ffffffffffffffffffffffffffffffffffffffff1673ffffffffffffffffffffffffffffffffffffffff1681526020019081526020016000208190806001815401808255809150506001900390600052602060002001600090919091909150553373ffffffffffffffffffffffffffffffffffffffff167f2a1ef9a510c66163c8c27e9cfbafcb5c15f78e0c979458e4d40103d6bb9dbbd38284604051610e3f9291906135b6565b60405180910390a2600260009054906101000a900473ffffffffffffffffffffffffffffffffffffffff1673ffffffffffffffffffffffffffffffffffffffff166340c10f1933670de0b6b3a76400006040518363ffffffff1660e01b8152600401610eac92919061362b565b600060405180830381600087803b158015610ec657600080fd5b505af1158015610eda573d6000803e3d6000fd5b50505050505050565b600960009054906101000a900473ffffffffffffffffffffffffffffffffffffffff1673ffffffffffffffffffffffffffffffffffffffff163373ffffffffffffffffffffffffffffffffffffffff1614610f73576040517f08c379a0000000000000000000000000000000000000000000000000000000008152600401610f6a906136a0565b60405180910390fd5b6000600a600060085481526020019081526020016000206001015411610fce576040517f08c379a0000000000000000000000000000000000000000000000000000000008152600401610fc59061370c565b60405180910390fd5b6000600a60006008548152602001908152602001600020600201805490501461102c576040517f08c379a00000000000000000000000000000000000000000000000000000000081526004016110239061379e565b60405180910390fd5b6004547f000000000000000000000000000000000000000000000000000000000000000073ffffffffffffffffffffffffffffffffffffffff166370a08231306040518263ffffffff1660e01b81526004016110889190612a71565b602060405180830381865afa1580156110a5573d6000803e3d6000fd5b505050506040513d601f19601f820116820180604052508101906110c991906137d3565b101561110a576040517f08c379a00000000000000000000000000000000000000000000000000000000081526004016111019061384c565b60405180910390fd5b6000600960146101000a81548160ff0219169083151502179055506111336003546004546118f1565b600581905550565b6060600a60008381526020019081526020016000206002018054806020026020016040519081016040528092919081815260200182805480156111c357602002820191906000526020600020906000905b82829054906101000a900460ff1660ff168152602001906001019060208260000104928301926001038202915080841161118c5790505b50505050509050919050565b6111d7611715565b6111e16000611a41565b565b600960009054906101000a900473ffffffffffffffffffffffffffffffffffffffff1673ffffffffffffffffffffffffffffffffffffffff163373ffffffffffffffffffffffffffffffffffffffff1614611273576040517f08c379a000000000000000000000000000000000000000000000000000000000815260040161126a906136a0565b60405180910390fd5b6006600a6000600854815260200190815260200160002060020180549050146112d1576040517f08c379a00000000000000000000000000000000000000000000000000000000081526004016112c8906138de565b60405180910390fd5b6112d9611b07565b6112e1611c2d565b6112e9611e8e565b565b600a6020528060005260406000206000915090508060000154908060010154908060030154908060040154905084565b60085481565b6000600160009054906101000a900473ffffffffffffffffffffffffffffffffffffffff16905090565b60008060006060600a600086815260200190815260200160002060010154600a600087815260200190815260200160002060030154600a600088815260200190815260200160002060040154600a60008981526020019081526020016000206002018080548060200260200160405190810160405280929190818152602001828054801561141e57602002820191906000526020600020906000905b82829054906101000a900460ff1660ff16815260200190600101906020826000010492830192600103820291508084116113e75790505b5050505050905093509350935093509193509193565b7f000000000000000000000000000000000000000000000000000000000000000073ffffffffffffffffffffffffffffffffffffffff163373ffffffffffffffffffffffffffffffffffffffff16146114c2576040517f08c379a00000000000000000000000000000000000000000000000000000000081526004016114b99061394a565b60405180910390fd5b6114cc8282611ec3565b5050565b6060600a60006008548152602001908152602001600020600801600083815260200190815260200160002080548060200260200160405190810160405280929190818152602001828054801561156b57602002820191906000526020600020906000905b82829054906101000a900460ff1660ff16815260200190600101906020826000010492830192600103820291508084116115345790505b50505050509050919050565b600960149054906101000a900460ff1681565b611592611715565b600081116115d5576040517f08c379a00000000000000000000000000000000000000000000000000000000081526004016115cc906139dc565b60405180910390fd5b8060078190555050565b6115e7611715565b600073ffffffffffffffffffffffffffffffffffffffff168173ffffffffffffffffffffffffffffffffffffffff1603611656576040517f08c379a000000000000000000000000000000000000000000000000000000000815260040161164d90613a6e565b60405180910390fd5b61165f81611a41565b50565b6060600a6000600854815260200190815260200160002060060160008373ffffffffffffffffffffffffffffffffffffffff1673ffffffffffffffffffffffffffffffffffffffff16815260200190815260200160002080548060200260200160405190810160405280929190818152602001828054801561170357602002820191906000526020600020905b8154815260200190600101908083116116ef575b50505050509050919050565b60055481565b61171d6121b6565b73ffffffffffffffffffffffffffffffffffffffff1661173b611321565b73ffffffffffffffffffffffffffffffffffffffff1614611791576040517f08c379a000000000000000000000000000000000000000000000000000000000815260040161178890613ada565b60405180910390fd5b565b606060005b600183516117a6919061349a565b8110156118e85760005b60018285516117bf919061349a565b6117c9919061349a565b8110156118d457836001826117de91906134ce565b815181106117ef576117ee6133aa565b5b602002602001015160ff1684828151811061180d5761180c6133aa565b5b602002602001015160ff1611156118c1576000848281518110611833576118326133aa565b5b602002602001015190508460018361184b91906134ce565b8151811061185c5761185b6133aa565b5b6020026020010151858381518110611877576118766133aa565b5b602002602001019060ff16908160ff1681525050808560018461189a91906134ce565b815181106118ab576118aa6133aa565b5b602002602001019060ff16908160ff1681525050505b80806118cc9061356e565b9150506117b0565b5080806118e09061356e565b915050611798565b50819050919050565b60007f000000000000000000000000000000000000000000000000000000000000000073ffffffffffffffffffffffffffffffffffffffff16634000aea07f000000000000000000000000000000000000000000000000000000000000000084866000604051602001611965929190613afa565b6040516020818303038152906040526040518463ffffffff1660e01b815260040161199293929190613ba2565b6020604051808303816000875af11580156119b1573d6000803e3d6000fd5b505050506040513d601f19601f820116820180604052508101906119d59190613c0c565b5060006119f784600030600080898152602001908152602001600020546121be565b9050600160008086815260200190815260200160002054611a1891906134ce565b60008086815260200190815260200160002081905550611a3884826121fa565b91505092915050565b6000600160009054906101000a900473ffffffffffffffffffffffffffffffffffffffff16905081600160006101000a81548173ffffffffffffffffffffffffffffffffffffffff021916908373ffffffffffffffffffffffffffffffffffffffff1602179055508173ffffffffffffffffffffffffffffffffffffffff168173ffffffffffffffffffffffffffffffffffffffff167f8be0079c531659141344cd1fd0a4f28419497f9722a3daafe3b4186f6b6457e060405160405180910390a35050565b6000600190505b600a60006008548152602001908152602001600020600101548111611c2a576000611b388261222d565b905060018110611c1657600a600060085481526020019081526020016000206005016000828152602001908152602001600020600a60006008548152602001908152602001600020600701600084815260200190815260200160002060009054906101000a900473ffffffffffffffffffffffffffffffffffffffff169080600181540180825580915050600190039060005260206000200160009091909190916101000a81548173ffffffffffffffffffffffffffffffffffffffff021916908373ffffffffffffffffffffffffffffffffffffffff1602179055505b508080611c229061356e565b915050611b0e565b50565b6000479050600081905060006064600a83611c489190613c39565b611c529190613caa565b9050611c5c611321565b73ffffffffffffffffffffffffffffffffffffffff166108fc829081150290604051600060405180830381858888f19350505050158015611ca1573d6000803e3d6000fd5b506000600690505b60018160ff1610611e45576000600a6000600854815260200190815260200160002060050160008360ff1681526020019081526020016000208054905090506000811115611e3157600081611d01878560ff16612401565b611d0b9190613caa565b905060005b82811015611e2e576000600a6000600854815260200190815260200160002060050160008660ff1681526020019081526020016000208281548110611d5857611d576133aa565b5b9060005260206000200160009054906101000a900473ffffffffffffffffffffffffffffffffffffffff1690508073ffffffffffffffffffffffffffffffffffffffff166108fc849081150290604051600060405180830381858888f19350505050158015611dcb573d6000803e3d6000fd5b508073ffffffffffffffffffffffffffffffffffffffff167f95681e512bc0fe659e195e06c283eada494316f3d801213e48e7101af92bf77084604051611e129190612a15565b60405180910390a2508080611e269061356e565b915050611d10565b50505b508080611e3d90613cdb565b915050611ca9565b50611e4f83612590565b42600a600060085481526020019081526020016000206003018190555082600a6000600854815260200190815260200160002060040181905550505050565b60086000815480929190611ea19061356e565b91905055506001600960146101000a81548160ff021916908315150217905550565b8160055414611f07576040517f08c379a0000000000000000000000000000000000000000000000000000000008152600401611efe90613d50565b60405180910390fd5b806006819055506000603267ffffffffffffffff811115611f2b57611f2a612cb1565b5b604051908082528060200260200182016040528015611f595781602001602082028036833780820191505090505b5090506000805b600681101561209c57600060016032600654611f7c9190613d70565b611f8691906134ce565b9050603260066000828254611f9b9190613caa565b925050819055506000805b84811015611ff1578260ff16868281518110611fc557611fc46133aa565b5b602002602001015160ff1603611fde5760019150611ff1565b8080611fe99061356e565b915050611fa6565b508061209557818585806120049061356e565b965081518110612017576120166133aa565b5b602002602001019060ff16908160ff1681525050600a600060085481526020019081526020016000206002018290806001815401808255809150506001900390600052602060002090602091828204019190069091909190916101000a81548160ff021916908360ff16021790555082806120919061356e565b9350505b5050611f60565b612131600a6000600854815260200190815260200160002060020180548060200260200160405190810160405280929190818152602001828054801561212757602002820191906000526020600020906000905b82829054906101000a900460ff1660ff16815260200190600101906020826000010492830192600103820291508084116120f05790505b5050505050611793565b600a60006008548152602001908152602001600020600201908051906020019061215c929190612938565b507facdd977f06d88d990c56c596f96141830d83e7fc86f94424a37de0f5e0532e69600854600a600060085481526020019081526020016000206002016040516121a7929190614af4565b60405180910390a15050505050565b600033905090565b6000848484846040516020016121d79493929190614b24565b6040516020818303038152906040528051906020012060001c9050949350505050565b6000828260405160200161220f929190614bab565b60405160208183030381529060405280519060200120905092915050565b600080600a6000600854815260200190815260200160002060080160008481526020019081526020016000208054806020026020016040519081016040528092919081815260200182805480156122c957602002820191906000526020600020906000905b82829054906101000a900460ff1660ff16815260200190600101906020826000010492830192600103820291508084116122925790505b50505050509050600080600a6000600854815260200190815260200160002060020180548060200260200160405190810160405280929190818152602001828054801561235b57602002820191906000526020600020906000905b82829054906101000a900460ff1660ff16815260200190600101906020826000010492830192600103820291508084116123245790505b5050505050905060005b83518110156123f55760005b82518110156123e15782818151811061238d5761238c6133aa565b5b602002602001015160ff168583815181106123ab576123aa6133aa565b5b602002602001015160ff16036123ce5783806123c69061356e565b9450506123e1565b80806123d99061356e565b915050612371565b5080806123ed9061356e565b915050612365565b50819350505050919050565b600080600683036124445761241660066128d0565b90508060646028866124289190613c39565b6124329190613caa565b61243c9190613caa565b91505061258a565b600583036124845761245660056128d0565b90508060646019866124689190613c39565b6124729190613caa565b61247c9190613caa565b91505061258a565b600483036124c45761249660046128d0565b9050806064600a866124a89190613c39565b6124b29190613caa565b6124bc9190613caa565b91505061258a565b60038303612504576124d660036128d0565b90508060646005866124e89190613c39565b6124f29190613caa565b6124fc9190613caa565b91505061258a565b600283036125445761251660026128d0565b90508060646003866125289190613c39565b6125329190613caa565b61253c9190613caa565b91505061258a565b600183036125845761255660016128d0565b90508060646002866125689190613c39565b6125729190613caa565b61257c9190613caa565b91505061258a565b60009150505b92915050565b600060646005836125a19190613c39565b6125ab9190613caa565b9050600080600190505b600a600060085481526020019081526020016000206001015481116126e5576000600a60006008548152602001908152602001600020600701600083815260200190815260200160002060009054906101000a900473ffffffffffffffffffffffffffffffffffffffff1690506000600260009054906101000a900473ffffffffffffffffffffffffffffffffffffffff1673ffffffffffffffffffffffffffffffffffffffff166370a08231836040518263ffffffff1660e01b815260040161267f9190612a71565b602060405180830381865afa15801561269c573d6000803e3d6000fd5b505050506040513d601f19601f820116820180604052508101906126c091906137d3565b905080846126ce91906134ce565b9350505080806126dd9061356e565b9150506125b5565b506000600190505b600a600060085481526020019081526020016000206001015481116128ca576000600a60006008548152602001908152602001600020600701600083815260200190815260200160002060009054906101000a900473ffffffffffffffffffffffffffffffffffffffff1690506000600260009054906101000a900473ffffffffffffffffffffffffffffffffffffffff1673ffffffffffffffffffffffffffffffffffffffff166370a08231836040518263ffffffff1660e01b81526004016127b79190612a71565b602060405180830381865afa1580156127d4573d6000803e3d6000fd5b505050506040513d601f19601f820116820180604052508101906127f891906137d3565b905060008111156128b55760008482876128129190613c39565b61281c9190613caa565b90508273ffffffffffffffffffffffffffffffffffffffff166108fc829081150290604051600060405180830381858888f19350505050158015612864573d6000803e3d6000fd5b508273ffffffffffffffffffffffffffffffffffffffff167f0286f58f3dcaa16e784242f672696ff068857ee598355de9af938efa271b73ca826040516128ab9190612a15565b60405180910390a2505b505080806128c29061356e565b9150506126ed565b50505050565b600080600090506000600190505b600a6000600854815260200190815260200160002060010154811161292e57836129078261222d565b0361291b5781806129179061356e565b9250505b80806129269061356e565b9150506128de565b5080915050919050565b82805482825590600052602060002090601f016020900481019282156129ce5791602002820160005b8382111561299f57835183826101000a81548160ff021916908360ff1602179055509260200192600101602081600001049283019260010302612961565b80156129cc5782816101000a81549060ff021916905560010160208160000104928301926001030261299f565b505b5090506129db91906129df565b5090565b5b808211156129f85760008160009055506001016129e0565b5090565b6000819050919050565b612a0f816129fc565b82525050565b6000602082019050612a2a6000830184612a06565b92915050565b600073ffffffffffffffffffffffffffffffffffffffff82169050919050565b6000612a5b82612a30565b9050919050565b612a6b81612a50565b82525050565b6000602082019050612a866000830184612a62565b92915050565b6000604051905090565b600080fd5b600080fd5b612aa981612a50565b8114612ab457600080fd5b50565b600081359050612ac681612aa0565b92915050565b600060208284031215612ae257612ae1612a96565b5b6000612af084828501612ab7565b91505092915050565b612b02816129fc565b8114612b0d57600080fd5b50565b600081359050612b1f81612af9565b92915050565b600060208284031215612b3b57612b3a612a96565b5b6000612b4984828501612b10565b91505092915050565b600081519050919050565b600082825260208201905092915050565b6000819050602082019050919050565b612b8781612a50565b82525050565b6000612b998383612b7e565b60208301905092915050565b6000602082019050919050565b6000612bbd82612b52565b612bc78185612b5d565b9350612bd283612b6e565b8060005b83811015612c03578151612bea8882612b8d565b9750612bf583612ba5565b925050600181019050612bd6565b5085935050505092915050565b600060c0820190508181036000830152612c2a8189612bb2565b90508181036020830152612c3e8188612bb2565b90508181036040830152612c528187612bb2565b90508181036060830152612c668186612bb2565b90508181036080830152612c7a8185612bb2565b905081810360a0830152612c8e8184612bb2565b9050979650505050505050565b600080fd5b6000601f19601f8301169050919050565b7f4e487b7100000000000000000000000000000000000000000000000000000000600052604160045260246000fd5b612ce982612ca0565b810181811067ffffffffffffffff82111715612d0857612d07612cb1565b5b80604052505050565b6000612d1b612a8c565b9050612d278282612ce0565b919050565b600067ffffffffffffffff821115612d4757612d46612cb1565b5b602082029050602081019050919050565b600080fd5b600060ff82169050919050565b612d7381612d5d565b8114612d7e57600080fd5b50565b600081359050612d9081612d6a565b92915050565b6000612da9612da484612d2c565b612d11565b90508083825260208201905060208402830185811115612dcc57612dcb612d58565b5b835b81811015612df55780612de18882612d81565b845260208401935050602081019050612dce565b5050509392505050565b600082601f830112612e1457612e13612c9b565b5b8135612e24848260208601612d96565b91505092915050565b600060208284031215612e4357612e42612a96565b5b600082013567ffffffffffffffff811115612e6157612e60612a9b565b5b612e6d84828501612dff565b91505092915050565b600081519050919050565b600082825260208201905092915050565b6000819050602082019050919050565b612eab81612d5d565b82525050565b6000612ebd8383612ea2565b60208301905092915050565b6000602082019050919050565b6000612ee182612e76565b612eeb8185612e81565b9350612ef683612e92565b8060005b83811015612f27578151612f0e8882612eb1565b9750612f1983612ec9565b925050600181019050612efa565b5085935050505092915050565b60006020820190508181036000830152612f4e8184612ed6565b905092915050565b6000608082019050612f6b6000830187612a06565b612f786020830186612a06565b612f856040830185612a06565b612f926060830184612a06565b95945050505050565b6000608082019050612fb06000830187612a06565b612fbd6020830186612a06565b612fca6040830185612a06565b8181036060830152612fdc8184612ed6565b905095945050505050565b6000819050919050565b612ffa81612fe7565b811461300557600080fd5b50565b60008135905061301781612ff1565b92915050565b6000806040838503121561303457613033612a96565b5b600061304285828601613008565b925050602061305385828601612b10565b9150509250929050565b60008115159050919050565b6130728161305d565b82525050565b600060208201905061308d6000830184613069565b92915050565b600081519050919050565b600082825260208201905092915050565b6000819050602082019050919050565b6130c8816129fc565b82525050565b60006130da83836130bf565b60208301905092915050565b6000602082019050919050565b60006130fe82613093565b613108818561309e565b9350613113836130af565b8060005b8381101561314457815161312b88826130ce565b9750613136836130e6565b925050600181019050613117565b5085935050505092915050565b6000602082019050818103600083015261316b81846130f3565b905092915050565b61317c81612fe7565b82525050565b60006020820190506131976000830184613173565b92915050565b600082825260208201905092915050565b7f4e6577206170706c69636174696f6e2061646472657373206d757374206e6f7460008201527f206265207a65726f20616464726573732e000000000000000000000000000000602082015250565b600061320a60318361319d565b9150613215826131ae565b604082019050919050565b60006020820190508181036000830152613239816131fd565b9050919050565b7f526f756e64206973206e6f7420696e2070726f67726573732e00000000000000600082015250565b600061327660198361319d565b915061328182613240565b602082019050919050565b600060208201905081810360008301526132a581613269565b9050919050565b7f496e636f7272656374207469636b65742070726963652e000000000000000000600082015250565b60006132e260178361319d565b91506132ed826132ac565b602082019050919050565b60006020820190508181036000830152613311816132d5565b9050919050565b7f596f75206d7573742070726f766964652065786163746c79203620756e69717560008201527f65206e756d626572732e00000000000000000000000000000000000000000000602082015250565b6000613374602a8361319d565b915061337f82613318565b604082019050919050565b600060208201905081810360008301526133a381613367565b9050919050565b7f4e487b7100000000000000000000000000000000000000000000000000000000600052603260045260246000fd5b7f4e756d62657273206d757374206265206265747765656e203120616e6420353060008201527f2e00000000000000000000000000000000000000000000000000000000000000602082015250565b600061343560218361319d565b9150613440826133d9565b604082019050919050565b6000602082019050818103600083015261346481613428565b9050919050565b7f4e487b7100000000000000000000000000000000000000000000000000000000600052601160045260246000fd5b60006134a5826129fc565b91506134b0836129fc565b92508282039050818111156134c8576134c761346b565b5b92915050565b60006134d9826129fc565b91506134e4836129fc565b92508282019050808211156134fc576134fb61346b565b5b92915050565b7f4e756d62657273206d75737420626520756e697175652e000000000000000000600082015250565b600061353860178361319d565b915061354382613502565b602082019050919050565b600060208201905081810360008301526135678161352b565b9050919050565b6000613579826129fc565b91507fffffffffffffffffffffffffffffffffffffffffffffffffffffffffffffffff82036135ab576135aa61346b565b5b600182019050919050565b60006040820190506135cb6000830185612a06565b81810360208301526135dd8184612ed6565b90509392505050565b6000819050919050565b6000819050919050565b600061361561361061360b846135e6565b6135f0565b6129fc565b9050919050565b613625816135fa565b82525050565b60006040820190506136406000830185612a62565b61364d602083018461361c565b9392505050565b7f43616c6c6572206973206e6f7420746865206170706c69636174696f6e2e0000600082015250565b600061368a601e8361319d565b915061369582613654565b602082019050919050565b600060208201905081810360008301526136b98161367d565b9050919050565b7f4e6f207469636b6574732068617665206265656e20736f6c642e000000000000600082015250565b60006136f6601a8361319d565b9150613701826136c0565b602082019050919050565b60006020820190508181036000830152613725816136e9565b9050919050565b7f57696e6e696e67206e756d62657273206861766520616c72656164792062656560008201527f6e20647261776e2e000000000000000000000000000000000000000000000000602082015250565b600061378860288361319d565b91506137938261372c565b604082019050919050565b600060208201905081810360008301526137b78161377b565b9050919050565b6000815190506137cd81612af9565b92915050565b6000602082840312156137e9576137e8612a96565b5b60006137f7848285016137be565b91505092915050565b7f4e6f7420656e6f756768204c494e4b20746f2070617920746865206665652e00600082015250565b6000613836601f8361319d565b915061384182613800565b602082019050919050565b6000602082019050818103600083015261386581613829565b9050919050565b7f57696e6e696e67206e756d626572732068617665206e6f74206265656e20647260008201527f61776e207965742e000000000000000000000000000000000000000000000000602082015250565b60006138c860288361319d565b91506138d38261386c565b604082019050919050565b600060208201905081810360008301526138f7816138bb565b9050919050565b7f4f6e6c7920565246436f6f7264696e61746f722063616e2066756c66696c6c00600082015250565b6000613934601f8361319d565b915061393f826138fe565b602082019050919050565b6000602082019050818103600083015261396381613927565b9050919050565b7f4e6577207469636b6574207072696365206d757374206265206772656174657260008201527f207468616e20302e000000000000000000000000000000000000000000000000602082015250565b60006139c660288361319d565b91506139d18261396a565b604082019050919050565b600060208201905081810360008301526139f5816139b9565b9050919050565b7f4f776e61626c653a206e6577206f776e657220697320746865207a65726f206160008201527f6464726573730000000000000000000000000000000000000000000000000000602082015250565b6000613a5860268361319d565b9150613a63826139fc565b604082019050919050565b60006020820190508181036000830152613a8781613a4b565b9050919050565b7f4f776e61626c653a2063616c6c6572206973206e6f7420746865206f776e6572600082015250565b6000613ac460208361319d565b9150613acf82613a8e565b602082019050919050565b60006020820190508181036000830152613af381613ab7565b9050919050565b6000604082019050613b0f6000830185613173565b613b1c6020830184612a06565b9392505050565b600081519050919050565b600082825260208201905092915050565b60005b83811015613b5d578082015181840152602081019050613b42565b60008484015250505050565b6000613b7482613b23565b613b7e8185613b2e565b9350613b8e818560208601613b3f565b613b9781612ca0565b840191505092915050565b6000606082019050613bb76000830186612a62565b613bc46020830185612a06565b8181036040830152613bd68184613b69565b9050949350505050565b613be98161305d565b8114613bf457600080fd5b50565b600081519050613c0681613be0565b92915050565b600060208284031215613c2257613c21612a96565b5b6000613c3084828501613bf7565b91505092915050565b6000613c44826129fc565b9150613c4f836129fc565b9250828202613c5d816129fc565b91508282048414831517613c7457613c7361346b565b5b5092915050565b7f4e487b7100000000000000000000000000000000000000000000000000000000600052601260045260246000fd5b6000613cb5826129fc565b9150613cc0836129fc565b925082613cd057613ccf613c7b565b5b828204905092915050565b6000613ce682612d5d565b915060008203613cf957613cf861346b565b5b600182039050919050565b7f57726f6e67207265717565737449642070726f76696465642100000000000000600082015250565b6000613d3a60198361319d565b9150613d4582613d04565b602082019050919050565b60006020820190508181036000830152613d6981613d2d565b9050919050565b6000613d7b826129fc565b9150613d86836129fc565b925082613d9657613d95613c7b565b5b828206905092915050565b600081549050919050565b60008190508160005260206000209050919050565b60008160001c9050919050565b600060ff82169050919050565b6000613dee613de983613dc1565b613dce565b9050919050565b60008160081c9050919050565b6000613e15613e1083613df5565b613dce565b9050919050565b60008160101c9050919050565b6000613e3c613e3783613e1c565b613dce565b9050919050565b60008160181c9050919050565b6000613e63613e5e83613e43565b613dce565b9050919050565b60008160201c9050919050565b6000613e8a613e8583613e6a565b613dce565b9050919050565b60008160281c9050919050565b6000613eb1613eac83613e91565b613dce565b9050919050565b60008160301c9050919050565b6000613ed8613ed383613eb8565b613dce565b9050919050565b60008160381c9050919050565b6000613eff613efa83613edf565b613dce565b9050919050565b60008160401c9050919050565b6000613f26613f2183613f06565b613dce565b9050919050565b60008160481c9050919050565b6000613f4d613f4883613f2d565b613dce565b9050919050565b60008160501c9050919050565b6000613f74613f6f83613f54565b613dce565b9050919050565b60008160581c9050919050565b6000613f9b613f9683613f7b565b613dce565b9050919050565b60008160601c9050919050565b6000613fc2613fbd83613fa2565b613dce565b9050919050565b60008160681c9050919050565b6000613fe9613fe483613fc9565b613dce565b9050919050565b60008160701c9050919050565b600061401061400b83613ff0565b613dce565b9050919050565b60008160781c9050919050565b600061403761403283614017565b613dce565b9050919050565b60008160801c9050919050565b600061405e6140598361403e565b613dce565b9050919050565b60008160881c9050919050565b600061408561408083614065565b613dce565b9050919050565b60008160901c9050919050565b60006140ac6140a78361408c565b613dce565b9050919050565b60008160981c9050919050565b60006140d36140ce836140b3565b613dce565b9050919050565b60008160a01c9050919050565b60006140fa6140f5836140da565b613dce565b9050919050565b60008160a81c9050919050565b600061412161411c83614101565b613dce565b9050919050565b60008160b01c9050919050565b600061414861414383614128565b613dce565b9050919050565b60008160b81c9050919050565b600061416f61416a8361414f565b613dce565b9050919050565b60008160c01c9050919050565b600061419661419183614176565b613dce565b9050919050565b60008160c81c9050919050565b60006141bd6141b88361419d565b613dce565b9050919050565b60008160d01c9050919050565b60006141e46141df836141c4565b613dce565b9050919050565b60008160d81c9050919050565b600061420b614206836141eb565b613dce565b9050919050565b60008160e01c9050919050565b600061423261422d83614212565b613dce565b9050919050565b60008160e81c9050919050565b600061425961425483614239565b613dce565b9050919050565b60008160f01c9050919050565b600061428061427b83614260565b613dce565b9050919050565b60008160f81c9050919050565b60006142a76142a283614287565b613dce565b9050919050565b60006142b982613da1565b6142c38185612e81565b9350836142cf84613dac565b60006001156145fc575b836001602003820110156145fb5781546142fb886142f683613ddb565b612ea2565b6020880197506143138861430e83613e02565b612ea2565b60208801975061432b8861432683613e29565b612ea2565b6020880197506143438861433e83613e50565b612ea2565b60208801975061435b8861435683613e77565b612ea2565b6020880197506143738861436e83613e9e565b612ea2565b60208801975061438b8861438683613ec5565b612ea2565b6020880197506143a38861439e83613eec565b612ea2565b6020880197506143bb886143b683613f13565b612ea2565b6020880197506143d3886143ce83613f3a565b612ea2565b6020880197506143eb886143e683613f61565b612ea2565b602088019750614403886143fe83613f88565b612ea2565b60208801975061441b8861441683613faf565b612ea2565b6020880197506144338861442e83613fd6565b612ea2565b60208801975061444b8861444683613ffd565b612ea2565b6020880197506144638861445e83614024565b612ea2565b60208801975061447b886144768361404b565b612ea2565b6020880197506144938861448e83614072565b612ea2565b6020880197506144ab886144a683614099565b612ea2565b6020880197506144c3886144be836140c0565b612ea2565b6020880197506144db886144d6836140e7565b612ea2565b6020880197506144f3886144ee8361410e565b612ea2565b60208801975061450b8861450683614135565b612ea2565b6020880197506145238861451e8361415c565b612ea2565b60208801975061453b8861453683614183565b612ea2565b6020880197506145538861454e836141aa565b612ea2565b60208801975061456b88614566836141d1565b612ea2565b6020880197506145838861457e836141f8565b612ea2565b60208801975061459b886145968361421f565b612ea2565b6020880197506145b3886145ae83614246565b612ea2565b6020880197506145cb886145c68361426d565b612ea2565b6020880197506145e3886145de83614294565b612ea2565b602088019750600183019250506020810190506142d9565b5b600115614ae75781548482101561462c5761461f8861461a83613ddb565b612ea2565b6020880197506001820191505b84821015614653576146468861464183613e02565b612ea2565b6020880197506001820191505b8482101561467a5761466d8861466883613e29565b612ea2565b6020880197506001820191505b848210156146a1576146948861468f83613e50565b612ea2565b6020880197506001820191505b848210156146c8576146bb886146b683613e77565b612ea2565b6020880197506001820191505b848210156146ef576146e2886146dd83613e9e565b612ea2565b6020880197506001820191505b84821015614716576147098861470483613ec5565b612ea2565b6020880197506001820191505b8482101561473d576147308861472b83613eec565b612ea2565b6020880197506001820191505b84821015614764576147578861475283613f13565b612ea2565b6020880197506001820191505b8482101561478b5761477e8861477983613f3a565b612ea2565b6020880197506001820191505b848210156147b2576147a5886147a083613f61565b612ea2565b6020880197506001820191505b848210156147d9576147cc886147c783613f88565b612ea2565b6020880197506001820191505b84821015614800576147f3886147ee83613faf565b612ea2565b6020880197506001820191505b848210156148275761481a8861481583613fd6565b612ea2565b6020880197506001820191505b8482101561484e576148418861483c83613ffd565b612ea2565b6020880197506001820191505b84821015614875576148688861486383614024565b612ea2565b6020880197506001820191505b8482101561489c5761488f8861488a8361404b565b612ea2565b6020880197506001820191505b848210156148c3576148b6886148b183614072565b612ea2565b6020880197506001820191505b848210156148ea576148dd886148d883614099565b612ea2565b6020880197506001820191505b8482101561491157614904886148ff836140c0565b612ea2565b6020880197506001820191505b848210156149385761492b88614926836140e7565b612ea2565b6020880197506001820191505b8482101561495f576149528861494d8361410e565b612ea2565b6020880197506001820191505b84821015614986576149798861497483614135565b612ea2565b6020880197506001820191505b848210156149ad576149a08861499b8361415c565b612ea2565b6020880197506001820191505b848210156149d4576149c7886149c283614183565b612ea2565b6020880197506001820191505b848210156149fb576149ee886149e9836141aa565b612ea2565b6020880197506001820191505b84821015614a2257614a1588614a10836141d1565b612ea2565b6020880197506001820191505b84821015614a4957614a3c88614a37836141f8565b612ea2565b6020880197506001820191505b84821015614a7057614a6388614a5e8361421f565b612ea2565b6020880197506001820191505b84821015614a9757614a8a88614a8583614246565b612ea2565b6020880197506001820191505b84821015614abe57614ab188614aac8361426d565b612ea2565b6020880197506001820191505b84821015614ae557614ad888614ad383614294565b612ea2565b6020880197506001820191505b505b8694505050505092915050565b6000604082019050614b096000830185612a06565b8181036020830152614b1b81846142ae565b90509392505050565b6000608082019050614b396000830187613173565b614b466020830186612a06565b614b536040830185612a62565b614b606060830184612a06565b95945050505050565b6000819050919050565b614b84614b7f82612fe7565b614b69565b82525050565b6000819050919050565b614ba5614ba0826129fc565b614b8a565b82525050565b6000614bb78285614b73565b602082019150614bc78284614b94565b602082019150819050939250505056fea264697066735822122004cc045a42ddde89b1e0e1e2a7e3f22c7a8f4da4941b735e6612cea493eadf1c64736f6c63430008130033",
  "immutableReferences": {
    "73": [
      {
        "length": 32,
        "start": 4145
      },
      {
        "length": 32,
        "start": 6389
      }
    ],
    "75": [
      {
        "length": 32,
        "start": 5174
      },
      {
        "length": 32,
        "start": 6449
      }
    ]
  },
  "source": "// SPDX-License-Identifier: MIT\npragma solidity ^0.8.0;\n\nimport \"@openzeppelin/contracts/access/Ownable.sol\";\nimport \"@chainlink/contracts/src/v0.8/VRFConsumerBase.sol\";\nimport \"./interfaces/ILottoToken.sol\";\n\ncontract LuckyShiba is VRFConsumerBase, Ownable {\n    struct Round {\n        uint256 roundId;\n        uint256 ticketCount;\n        uint8[] winningNumbers;\n        uint256 drawnAt;\n        uint256 prizePool;\n        mapping(uint256 => address[]) winners;\n        mapping(address => uint256[]) userTickets;\n        mapping(uint256 => address payable) tickets;\n        mapping(uint256 => uint8[]) ticketNumbers;\n    }\n\n    ILottoToken token;\n\n    bytes32 private keyHash;\n    uint256 private fee;\n\n    bytes32 public lastRequestId;\n    uint256 public randomResult;\n    uint256 public ticketPrice;\n    uint256 public roundId;\n    address public application;\n    bool public roundInProgress;\n\n    mapping(uint256 => Round) public rounds;\n\n    event TicketPurchased(\n        address indexed buyer,\n        uint256 ticketCount,\n        uint8[] numbers\n    );\n    event WinningNumbers(uint256 roundId, uint8[] numbers);\n    event PrizeClaimed(address indexed winner, uint256 amount);\n    event TokenHolderPrizeClaimed(address indexed winner, uint256 amount);\n    event RequestFulfilled(bytes32 requestId, uint256 randomness);\n\n    constructor(\n        uint256 _ticketPrice,\n        address _lottoToken,\n        address _application,\n        address _vrfCoordinator,\n        address _linkToken,\n        bytes32 _keyHash,\n        uint256 _fee\n    ) VRFConsumerBase(_vrfCoordinator, _linkToken) {\n        ticketPrice = _ticketPrice;\n        token = ILottoToken(_lottoToken);\n        application = _application;\n        keyHash = _keyHash;\n        fee = _fee;\n        roundId = 1;\n        roundInProgress = true;\n    }\n\n    modifier onlyApplication() {\n        require(msg.sender == application, \"Caller is not the application.\");\n        _;\n    }\n\n    modifier onylWhenRoundInProgress() {\n        require(roundInProgress, \"Round is not in progress.\");\n        _;\n    }\n\n    modifier onylWhenRoundNotInProgress() {\n        require(!roundInProgress, \"Round is still in progress.\");\n        _;\n    }\n\n    // Update the application address (only callable by the contract owner)\n    function updateApplicationAddress(address newApplication) public onlyOwner {\n        require(\n            newApplication != address(0),\n            \"New application address must not be zero address.\"\n        );\n        application = newApplication;\n    }\n\n    // Update the ticket price (only callable by the contract owner)\n    function updateTicketPrice(uint256 newTicketPrice) public onlyOwner {\n        require(newTicketPrice > 0, \"New ticket price must be greater than 0.\");\n        ticketPrice = newTicketPrice;\n    }\n\n    // Buy a ticket with 6 unique numbers, mint a token for the buyer\n    function buyTicket(\n        uint8[] memory numbers\n    ) public payable onylWhenRoundInProgress {\n        require(msg.value == ticketPrice, \"Incorrect ticket price.\");\n        require(\n            numbers.length == 6,\n            \"You must provide exactly 6 unique numbers.\"\n        );\n\n        // Sort the numbers in ascending order\n        uint8[] memory sortedNumbers = _sortNumbers(numbers);\n\n        // Validate the provided numbers\n        for (uint256 i = 0; i < sortedNumbers.length; i++) {\n            require(\n                sortedNumbers[i] >= 1 && sortedNumbers[i] <= 50,\n                \"Numbers must be between 1 and 50.\"\n            );\n            if (i < sortedNumbers.length - 1) {\n                require(\n                    sortedNumbers[i] != sortedNumbers[i + 1],\n                    \"Numbers must be unique.\"\n                );\n            }\n        }\n\n        rounds[roundId].ticketCount += 1;\n        uint256 newTicketCount = rounds[roundId].ticketCount;\n        rounds[roundId].tickets[newTicketCount] = payable(msg.sender);\n        rounds[roundId].ticketNumbers[newTicketCount] = sortedNumbers;\n        rounds[roundId].userTickets[msg.sender].push(newTicketCount);\n        emit TicketPurchased(msg.sender, newTicketCount, sortedNumbers);\n\n        // Mint a token for the user\n        token.mint(msg.sender, 1 ether);\n    }\n\n    function getTicketCount() public view returns (uint256) {\n        return rounds[roundId].ticketCount;\n    }\n\n    function getTicketsByAddress(\n        address account\n    ) public view returns (uint256[] memory) {\n        return rounds[roundId].userTickets[account];\n    }\n\n    function getTicketNumbers(\n        uint256 ticketNr\n    ) public view returns (uint8[] memory) {\n        return rounds[roundId].ticketNumbers[ticketNr];\n    }\n\n    function getRoundWinningNumbers(\n        uint256 roundNr\n    ) public view returns (uint8[] memory) {\n        return rounds[roundNr].winningNumbers;\n    }\n\n    function getRound(\n        uint256 roundNr\n    )\n        public\n        view\n        returns (\n            uint256 ticketCount,\n            uint256 drawnAt,\n            uint256 prizePool,\n            uint8[] memory\n        )\n    {\n        return (\n            rounds[roundNr].ticketCount,\n            rounds[roundNr].drawnAt,\n            rounds[roundNr].prizePool,\n            rounds[roundNr].winningNumbers\n        );\n    }\n\n    function getRoundWinners(\n        uint256 roundNr\n    )\n        public\n        view\n        returns (\n            address[] memory matchOne,\n            address[] memory matchTwo,\n            address[] memory matchThree,\n            address[] memory matchFour,\n            address[] memory matchFive,\n            address[] memory matchSix\n        )\n    {\n        return (\n            rounds[roundNr].winners[1],\n            rounds[roundNr].winners[2],\n            rounds[roundNr].winners[3],\n            rounds[roundNr].winners[4],\n            rounds[roundNr].winners[5],\n            rounds[roundNr].winners[6]\n        );\n    }\n\n    // Draw winning numbers using Chainlink VRF\n    function drawWinningNumbers() external onlyApplication {\n        require(rounds[roundId].ticketCount > 0, \"No tickets have been sold.\");\n        require(\n            rounds[roundId].winningNumbers.length == 0,\n            \"Winning numbers have already been drawn.\"\n        );\n        require(\n            LINK.balanceOf(address(this)) >= fee,\n            \"Not enough LINK to pay the fee.\"\n        );\n\n        roundInProgress = false;\n        lastRequestId = requestRandomness(keyHash, fee);\n    }\n\n    // Fulfill randomness from Chainlink VRF and distribute prizes\n    function fulfillRandomness(\n        bytes32 requestId,\n        uint256 randomness\n    ) internal override {\n        require(lastRequestId == requestId, \"Wrong requestId provided!\");\n\n        randomResult = randomness;\n\n        // Generate unique winning numbers\n        uint8[] memory usedNumbers = new uint8[](50);\n        uint256 usedCount = 0;\n        uint256 generatedNumbers = 0;\n        while (generatedNumbers < 6) {\n            uint8 newNumber = uint8((randomResult % 50) + 1);\n            randomResult /= 50;\n\n            bool isNumberUsed = false;\n            for (uint256 i = 0; i < usedCount; i++) {\n                if (usedNumbers[i] == newNumber) {\n                    isNumberUsed = true;\n                    break;\n                }\n            }\n\n            if (!isNumberUsed) {\n                usedNumbers[usedCount++] = newNumber;\n                rounds[roundId].winningNumbers.push(newNumber);\n                generatedNumbers++;\n            }\n        }\n\n        // Sort winning numbers\n        rounds[roundId].winningNumbers = _sortNumbers(\n            rounds[roundId].winningNumbers\n        );\n        emit WinningNumbers(roundId, rounds[roundId].winningNumbers);\n    }\n\n    function distributePrizes() external onlyApplication {\n        require(\n            rounds[roundId].winningNumbers.length == 6,\n            \"Winning numbers have not been drawn yet.\"\n        );\n        // Update the winners\n        _updateWinners();\n\n        // Calculate and distribute prizes\n        _distributePrizes();\n\n        // Start a new round\n        _nextRound();\n    }\n\n    // Distribute prizes among the winners\n    function _distributePrizes() private {\n        // Send 10% of the current contract balance to the contract owner\n        uint256 totalPrizePool = address(this).balance;\n        uint256 prizePool = totalPrizePool;\n        uint256 ownerShare = (prizePool * 10) / 100;\n        payable(owner()).transfer(ownerShare);\n\n        // Send out the prizes to the winners\n        for (uint8 correctGuesses = 6; correctGuesses >= 1; correctGuesses--) {\n            uint256 winnerCount = rounds[roundId]\n                .winners[correctGuesses]\n                .length;\n            if (winnerCount > 0) {\n                uint256 prizePerWinner = _calculatePrize(\n                    totalPrizePool,\n                    correctGuesses\n                ) / winnerCount;\n\n                for (uint256 i = 0; i < winnerCount; i++) {\n                    address winner = rounds[roundId].winners[correctGuesses][i];\n                    payable(winner).transfer(prizePerWinner);\n                    emit PrizeClaimed(winner, prizePerWinner);\n                }\n            }\n        }\n\n        // Distribute token holder prizes\n        _distributeTokenHolderPrizes(totalPrizePool);\n\n        // Set the round details\n        rounds[roundId].drawnAt = block.timestamp;\n        rounds[roundId].prizePool = totalPrizePool;\n    }\n\n    function _updateWinners() private {\n        for (uint256 i = 1; i <= rounds[roundId].ticketCount; i++) {\n            uint256 correctGuesses = _getCorrectGuesses(i);\n            if (correctGuesses >= 1) {\n                rounds[roundId].winners[correctGuesses].push(\n                    rounds[roundId].tickets[i]\n                );\n            }\n        }\n    }\n\n    function _distributeTokenHolderPrizes(uint256 totalPrizePool) private {\n        uint256 tokenHolderPrizePool = (totalPrizePool * 5) / 100;\n        uint256 totalTokensHeldByPlayers = 0;\n\n        // Calculate the total tokens held by players who participated in the game\n        for (uint256 i = 1; i <= rounds[roundId].ticketCount; i++) {\n            address player = rounds[roundId].tickets[i];\n            uint256 playerTokenBalance = token.balanceOf(player);\n            totalTokensHeldByPlayers += playerTokenBalance;\n        }\n\n        // Distribute the token holder prize pool based on the number of tokens held by each player\n        for (uint256 i = 1; i <= rounds[roundId].ticketCount; i++) {\n            address player = rounds[roundId].tickets[i];\n            uint256 playerTokenBalance = token.balanceOf(player);\n            if (playerTokenBalance > 0) {\n                uint256 playerPrize = (tokenHolderPrizePool *\n                    playerTokenBalance) / totalTokensHeldByPlayers;\n                payable(player).transfer(playerPrize);\n                emit TokenHolderPrizeClaimed(player, playerPrize);\n            }\n        }\n    }\n\n    // Get the count of correct guesses for a given ticket\n    function _getCorrectGuesses(\n        uint256 ticketNumber\n    ) private view returns (uint256) {\n        uint8[] memory userNumbers = rounds[roundId].ticketNumbers[\n            ticketNumber\n        ];\n        uint256 correctGuesses = 0;\n        uint8[] memory winningNumbers = rounds[roundId].winningNumbers;\n\n        for (uint256 i = 0; i < userNumbers.length; i++) {\n            for (uint256 j = 0; j < winningNumbers.length; j++) {\n                if (userNumbers[i] == winningNumbers[j]) {\n                    correctGuesses++;\n                    break;\n                }\n            }\n        }\n\n        return correctGuesses;\n    }\n\n    // Calculate the prize amount based on the number of correct guesses\n    function _calculatePrize(\n        uint256 prizePool,\n        uint256 correctGuesses\n    ) private view returns (uint256) {\n        uint256 winnerCount;\n\n        if (correctGuesses == 6) {\n            winnerCount = _getWinnerCount(6);\n            return (prizePool * 40) / 100 / winnerCount; // 40% of the prize pool for 6 correct guesses\n        } else if (correctGuesses == 5) {\n            winnerCount = _getWinnerCount(5);\n            return (prizePool * 25) / 100 / winnerCount; // 20% of the prize pool for 5 correct guesses\n        } else if (correctGuesses == 4) {\n            winnerCount = _getWinnerCount(4);\n            return (prizePool * 10) / 100 / winnerCount; // 10% of the prize pool for 4 correct guesses\n        } else if (correctGuesses == 3) {\n            winnerCount = _getWinnerCount(3);\n            return (prizePool * 5) / 100 / winnerCount; // 5% of the prize pool for 3 correct guesses\n        } else if (correctGuesses == 2) {\n            winnerCount = _getWinnerCount(2);\n            return (prizePool * 3) / 100 / winnerCount; // 3% of the prize pool for 2 correct guesses\n        } else if (correctGuesses == 1) {\n            winnerCount = _getWinnerCount(1);\n            return (prizePool * 2) / 100 / winnerCount; // 2% of the prize pool for 1 correct guesses\n        }\n\n        return 0;\n    }\n\n    // Get the count of winners for a specific category (e.g., 6 correct guesses, 5 correct guesses, etc.)\n    function _getWinnerCount(\n        uint256 correctGuesses\n    ) private view returns (uint256) {\n        uint256 winnerCount = 0;\n\n        for (uint256 i = 1; i <= rounds[roundId].ticketCount; i++) {\n            if (_getCorrectGuesses(i) == correctGuesses) {\n                winnerCount++;\n            }\n        }\n\n        return winnerCount;\n    }\n\n    function _nextRound() private {\n        roundId++;\n        roundInProgress = true;\n    }\n\n    // Sorts an array of numbers in ascending order using Bubble Sort\n    function _sortNumbers(\n        uint8[] memory numbers\n    ) private pure returns (uint8[] memory) {\n        for (uint256 i = 0; i < numbers.length - 1; i++) {\n            for (uint256 j = 0; j < numbers.length - i - 1; j++) {\n                if (numbers[j] > numbers[j + 1]) {\n                    uint8 temp = numbers[j];\n                    numbers[j] = numbers[j + 1];\n                    numbers[j + 1] = temp;\n                }\n            }\n        }\n        return numbers;\n    }\n}\n",
  "sourcePath": "/home/d4fttasiii/git/gpt-lotto/src/lotto-contract/contracts/LuckyShiba.sol",
  "compiler": {
    "name": "solc",
    "version": "0.8.19+commit.7dd6d404.Emscripten.clang"
  },
  "schemaVersion": "3.4.11",
  "updatedAt": "2023-05-03T19:37:28.507Z",
  "devdoc": {
    "kind": "dev",
    "methods": {
      "owner()": {
        "details": "Returns the address of the current owner."
      },
      "renounceOwnership()": {
        "details": "Leaves the contract without owner. It will not be possible to call `onlyOwner` functions anymore. Can only be called by the current owner. NOTE: Renouncing ownership will leave the contract without an owner, thereby removing any functionality that is only available to the owner."
      },
      "transferOwnership(address)": {
        "details": "Transfers ownership of the contract to a new account (`newOwner`). Can only be called by the current owner."
      }
    },
    "version": 1
  },
  "userdoc": {
    "kind": "user",
    "methods": {},
    "version": 1
  }
}