{
  "contractName": "LuckyShiba",
  "abi": [
    {
      "inputs": [
        {
          "internalType": "uint256",
          "name": "_ticketPrice",
          "type": "uint256"
        },
        {
          "internalType": "address",
          "name": "_lottoToken",
          "type": "address"
        },
        {
          "internalType": "address",
          "name": "_application",
          "type": "address"
        },
        {
          "internalType": "address",
          "name": "_vrfCoordinator",
          "type": "address"
        },
        {
          "internalType": "address",
          "name": "_linkToken",
          "type": "address"
        },
        {
          "internalType": "bytes32",
          "name": "_keyHash",
          "type": "bytes32"
        },
        {
          "internalType": "uint256",
          "name": "_fee",
          "type": "uint256"
        }
      ],
      "stateMutability": "nonpayable",
      "type": "constructor"
    },
    {
      "anonymous": false,
      "inputs": [
        {
          "indexed": true,
          "internalType": "address",
          "name": "previousOwner",
          "type": "address"
        },
        {
          "indexed": true,
          "internalType": "address",
          "name": "newOwner",
          "type": "address"
        }
      ],
      "name": "OwnershipTransferred",
      "type": "event"
    },
    {
      "anonymous": false,
      "inputs": [
        {
          "indexed": true,
          "internalType": "address",
          "name": "winner",
          "type": "address"
        },
        {
          "indexed": false,
          "internalType": "uint256",
          "name": "amount",
          "type": "uint256"
        }
      ],
      "name": "PrizeClaimed",
      "type": "event"
    },
    {
      "anonymous": false,
      "inputs": [
        {
          "indexed": false,
          "internalType": "bytes32",
          "name": "requestId",
          "type": "bytes32"
        },
        {
          "indexed": false,
          "internalType": "uint256",
          "name": "randomness",
          "type": "uint256"
        }
      ],
      "name": "RequestFulfilled",
      "type": "event"
    },
    {
      "anonymous": false,
      "inputs": [
        {
          "indexed": true,
          "internalType": "address",
          "name": "buyer",
          "type": "address"
        },
        {
          "indexed": false,
          "internalType": "uint256",
          "name": "ticketCount",
          "type": "uint256"
        },
        {
          "indexed": false,
          "internalType": "uint8[]",
          "name": "numbers",
          "type": "uint8[]"
        }
      ],
      "name": "TicketPurchased",
      "type": "event"
    },
    {
      "anonymous": false,
      "inputs": [
        {
          "indexed": true,
          "internalType": "address",
          "name": "winner",
          "type": "address"
        },
        {
          "indexed": false,
          "internalType": "uint256",
          "name": "amount",
          "type": "uint256"
        }
      ],
      "name": "TokenHolderPrizeClaimed",
      "type": "event"
    },
    {
      "anonymous": false,
      "inputs": [
        {
          "indexed": false,
          "internalType": "uint256",
          "name": "roundId",
          "type": "uint256"
        },
        {
          "indexed": false,
          "internalType": "uint8[]",
          "name": "numbers",
          "type": "uint8[]"
        }
      ],
      "name": "WinningNumbers",
      "type": "event"
    },
    {
      "inputs": [],
      "name": "application",
      "outputs": [
        {
          "internalType": "address",
          "name": "",
          "type": "address"
        }
      ],
      "stateMutability": "view",
      "type": "function"
    },
    {
      "inputs": [],
      "name": "lastRequestId",
      "outputs": [
        {
          "internalType": "bytes32",
          "name": "",
          "type": "bytes32"
        }
      ],
      "stateMutability": "view",
      "type": "function"
    },
    {
      "inputs": [],
      "name": "owner",
      "outputs": [
        {
          "internalType": "address",
          "name": "",
          "type": "address"
        }
      ],
      "stateMutability": "view",
      "type": "function"
    },
    {
      "inputs": [],
      "name": "randomResult",
      "outputs": [
        {
          "internalType": "uint256",
          "name": "",
          "type": "uint256"
        }
      ],
      "stateMutability": "view",
      "type": "function"
    },
    {
      "inputs": [
        {
          "internalType": "bytes32",
          "name": "requestId",
          "type": "bytes32"
        },
        {
          "internalType": "uint256",
          "name": "randomness",
          "type": "uint256"
        }
      ],
      "name": "rawFulfillRandomness",
      "outputs": [],
      "stateMutability": "nonpayable",
      "type": "function"
    },
    {
      "inputs": [],
      "name": "renounceOwnership",
      "outputs": [],
      "stateMutability": "nonpayable",
      "type": "function"
    },
    {
      "inputs": [],
      "name": "roundId",
      "outputs": [
        {
          "internalType": "uint256",
          "name": "",
          "type": "uint256"
        }
      ],
      "stateMutability": "view",
      "type": "function"
    },
    {
      "inputs": [
        {
          "internalType": "uint256",
          "name": "",
          "type": "uint256"
        }
      ],
      "name": "rounds",
      "outputs": [
        {
          "internalType": "uint256",
          "name": "roundId",
          "type": "uint256"
        },
        {
          "internalType": "uint256",
          "name": "ticketCount",
          "type": "uint256"
        },
        {
          "internalType": "uint256",
          "name": "drawnAt",
          "type": "uint256"
        },
        {
          "internalType": "uint256",
          "name": "prizePool",
          "type": "uint256"
        }
      ],
      "stateMutability": "view",
      "type": "function"
    },
    {
      "inputs": [],
      "name": "ticketPrice",
      "outputs": [
        {
          "internalType": "uint256",
          "name": "",
          "type": "uint256"
        }
      ],
      "stateMutability": "view",
      "type": "function"
    },
    {
      "inputs": [
        {
          "internalType": "address",
          "name": "newOwner",
          "type": "address"
        }
      ],
      "name": "transferOwnership",
      "outputs": [],
      "stateMutability": "nonpayable",
      "type": "function"
    },
    {
      "inputs": [
        {
          "internalType": "address",
          "name": "newApplication",
          "type": "address"
        }
      ],
      "name": "updateApplicationAddress",
      "outputs": [],
      "stateMutability": "nonpayable",
      "type": "function"
    },
    {
      "inputs": [
        {
          "internalType": "uint256",
          "name": "newTicketPrice",
          "type": "uint256"
        }
      ],
      "name": "updateTicketPrice",
      "outputs": [],
      "stateMutability": "nonpayable",
      "type": "function"
    },
    {
      "inputs": [
        {
          "internalType": "uint8[]",
          "name": "numbers",
          "type": "uint8[]"
        }
      ],
      "name": "buyTicket",
      "outputs": [],
      "stateMutability": "payable",
      "type": "function"
    },
    {
      "inputs": [],
      "name": "getTicketCount",
      "outputs": [
        {
          "internalType": "uint256",
          "name": "",
          "type": "uint256"
        }
      ],
      "stateMutability": "view",
      "type": "function"
    },
    {
      "inputs": [
        {
          "internalType": "address",
          "name": "account",
          "type": "address"
        }
      ],
      "name": "getTicketsByAddress",
      "outputs": [
        {
          "internalType": "uint256[]",
          "name": "",
          "type": "uint256[]"
        }
      ],
      "stateMutability": "view",
      "type": "function"
    },
    {
      "inputs": [
        {
          "internalType": "uint256",
          "name": "ticketNr",
          "type": "uint256"
        }
      ],
      "name": "getTicketNumbers",
      "outputs": [
        {
          "internalType": "uint8[]",
          "name": "",
          "type": "uint8[]"
        }
      ],
      "stateMutability": "view",
      "type": "function"
    },
    {
      "inputs": [
        {
          "internalType": "uint256",
          "name": "roundNr",
          "type": "uint256"
        }
      ],
      "name": "getRoundWinningNumbers",
      "outputs": [
        {
          "internalType": "uint8[]",
          "name": "",
          "type": "uint8[]"
        }
      ],
      "stateMutability": "view",
      "type": "function"
    },
    {
      "inputs": [
        {
          "internalType": "uint256",
          "name": "roundNr",
          "type": "uint256"
        }
      ],
      "name": "getRound",
      "outputs": [
        {
          "internalType": "uint256",
          "name": "ticketCount",
          "type": "uint256"
        },
        {
          "internalType": "uint256",
          "name": "drawnAt",
          "type": "uint256"
        },
        {
          "internalType": "uint256",
          "name": "prizePool",
          "type": "uint256"
        },
        {
          "internalType": "uint8[]",
          "name": "",
          "type": "uint8[]"
        }
      ],
      "stateMutability": "view",
      "type": "function"
    },
    {
      "inputs": [
        {
          "internalType": "uint256",
          "name": "roundNr",
          "type": "uint256"
        }
      ],
      "name": "getRoundWinners",
      "outputs": [
        {
          "internalType": "address[]",
          "name": "matchOne",
          "type": "address[]"
        },
        {
          "internalType": "address[]",
          "name": "matchTwo",
          "type": "address[]"
        },
        {
          "internalType": "address[]",
          "name": "matchThree",
          "type": "address[]"
        },
        {
          "internalType": "address[]",
          "name": "matchFour",
          "type": "address[]"
        },
        {
          "internalType": "address[]",
          "name": "matchFive",
          "type": "address[]"
        },
        {
          "internalType": "address[]",
          "name": "matchSix",
          "type": "address[]"
        }
      ],
      "stateMutability": "view",
      "type": "function"
    },
    {
      "inputs": [],
      "name": "drawWinningNumbers",
      "outputs": [],
      "stateMutability": "nonpayable",
      "type": "function"
    },
    {
      "inputs": [],
      "name": "distributePrizes",
      "outputs": [],
      "stateMutability": "nonpayable",
      "type": "function"
    }
  ],
  "bytecode": "0x60c06040523480156200001157600080fd5b5060405162004eca38038062004eca83398181016040528101906200003791906200031d565b83838173ffffffffffffffffffffffffffffffffffffffff1660a08173ffffffffffffffffffffffffffffffffffffffff16815250508073ffffffffffffffffffffffffffffffffffffffff1660808173ffffffffffffffffffffffffffffffffffffffff16815250505050620000c3620000b76200016f60201b60201c565b6200017760201b60201c565b8660078190555085600260006101000a81548173ffffffffffffffffffffffffffffffffffffffff021916908373ffffffffffffffffffffffffffffffffffffffff16021790555084600960006101000a81548173ffffffffffffffffffffffffffffffffffffffff021916908373ffffffffffffffffffffffffffffffffffffffff1602179055508160038190555080600481905550600160088190555050505050505050620003d0565b600033905090565b6000600160009054906101000a900473ffffffffffffffffffffffffffffffffffffffff16905081600160006101000a81548173ffffffffffffffffffffffffffffffffffffffff021916908373ffffffffffffffffffffffffffffffffffffffff1602179055508173ffffffffffffffffffffffffffffffffffffffff168173ffffffffffffffffffffffffffffffffffffffff167f8be0079c531659141344cd1fd0a4f28419497f9722a3daafe3b4186f6b6457e060405160405180910390a35050565b600080fd5b6000819050919050565b620002578162000242565b81146200026357600080fd5b50565b60008151905062000277816200024c565b92915050565b600073ffffffffffffffffffffffffffffffffffffffff82169050919050565b6000620002aa826200027d565b9050919050565b620002bc816200029d565b8114620002c857600080fd5b50565b600081519050620002dc81620002b1565b92915050565b6000819050919050565b620002f781620002e2565b81146200030357600080fd5b50565b6000815190506200031781620002ec565b92915050565b600080600080600080600060e0888a0312156200033f576200033e6200023d565b5b60006200034f8a828b0162000266565b9750506020620003628a828b01620002cb565b9650506040620003758a828b01620002cb565b9550506060620003888a828b01620002cb565b94505060806200039b8a828b01620002cb565b93505060a0620003ae8a828b0162000306565b92505060c0620003c18a828b0162000266565b91505092959891949750929550565b60805160a051614ac66200040460003960008181611396015261187e015260008181610fac01526118420152614ac66000f3fe60806040526004361061012a5760003560e01c80637ce52eb6116100ab57806394985ddd1161006f57806394985ddd146103ba5780639839eafd146103e3578063f02137c814610420578063f2fde38b14610449578063f5e47f9614610472578063fc2a88c3146104af5761012a565b80637ce52eb6146102cd5780638c65c81f146102e45780638cd221c9146103245780638da5cb5b1461034f5780638f1327c01461037a5761012a565b806342619f66116100f257806342619f661461021b5780635e349acc14610246578063608620aa1461026257806364069e7114610279578063715018a6146102b65761012a565b80631209b1f61461012f57806321c63a471461015a57806326e4ca82146101855780632786e402146101b05780632e881471146101d9575b600080fd5b34801561013b57600080fd5b506101446104da565b6040516101519190612964565b60405180910390f35b34801561016657600080fd5b5061016f6104e0565b60405161017c9190612964565b60405180910390f35b34801561019157600080fd5b5061019a610500565b6040516101a791906129c0565b60405180910390f35b3480156101bc57600080fd5b506101d760048036038101906101d29190612a1b565b610526565b005b3480156101e557600080fd5b5061020060048036038101906101fb9190612a74565b6105e1565b60405161021296959493929190612b5f565b60405180910390f35b34801561022757600080fd5b50610230610a1f565b60405161023d9190612964565b60405180910390f35b610260600480360381019061025b9190612d7c565b610a25565b005b34801561026e57600080fd5b50610277610e5e565b005b34801561028557600080fd5b506102a0600480360381019061029b9190612a74565b61109b565b6040516102ad9190612e83565b60405180910390f35b3480156102c257600080fd5b506102cb61112f565b005b3480156102d957600080fd5b506102e2611143565b005b3480156102f057600080fd5b5061030b60048036038101906103069190612a74565b61124b565b60405161031b9493929190612ea5565b60405180910390f35b34801561033057600080fd5b5061033961127b565b6040516103469190612964565b60405180910390f35b34801561035b57600080fd5b50610364611281565b60405161037191906129c0565b60405180910390f35b34801561038657600080fd5b506103a1600480360381019061039c9190612a74565b6112ab565b6040516103b19493929190612eea565b60405180910390f35b3480156103c657600080fd5b506103e160048036038101906103dc9190612f6c565b611394565b005b3480156103ef57600080fd5b5061040a60048036038101906104059190612a74565b611430565b6040516104179190612e83565b60405180910390f35b34801561042c57600080fd5b5061044760048036038101906104429190612a74565b6114d7565b005b34801561045557600080fd5b50610470600480360381019061046b9190612a1b565b61152c565b005b34801561047e57600080fd5b5061049960048036038101906104949190612a1b565b6115af565b6040516104a6919061306a565b60405180910390f35b3480156104bb57600080fd5b506104c461165c565b6040516104d1919061309b565b60405180910390f35b60075481565b6000600a6000600854815260200190815260200160002060010154905090565b600960009054906101000a900473ffffffffffffffffffffffffffffffffffffffff1681565b61052e611662565b600073ffffffffffffffffffffffffffffffffffffffff168173ffffffffffffffffffffffffffffffffffffffff160361059d576040517f08c379a000000000000000000000000000000000000000000000000000000000815260040161059490613139565b60405180910390fd5b80600960006101000a81548173ffffffffffffffffffffffffffffffffffffffff021916908373ffffffffffffffffffffffffffffffffffffffff16021790555050565b606080606080606080600a6000888152602001908152602001600020600501600060018152602001908152602001600020600a6000898152602001908152602001600020600501600060028152602001908152602001600020600a60008a8152602001908152602001600020600501600060038152602001908152602001600020600a60008b8152602001908152602001600020600501600060048152602001908152602001600020600a60008c8152602001908152602001600020600501600060058152602001908152602001600020600a60008d81526020019081526020016000206005016000600681526020019081526020016000208580548060200260200160405190810160405280929190818152602001828054801561075b57602002820191906000526020600020905b8160009054906101000a900473ffffffffffffffffffffffffffffffffffffffff1673ffffffffffffffffffffffffffffffffffffffff1681526020019060010190808311610711575b50505050509550848054806020026020016040519081016040528092919081815260200182805480156107e357602002820191906000526020600020905b8160009054906101000a900473ffffffffffffffffffffffffffffffffffffffff1673ffffffffffffffffffffffffffffffffffffffff1681526020019060010190808311610799575b505050505094508380548060200260200160405190810160405280929190818152602001828054801561086b57602002820191906000526020600020905b8160009054906101000a900473ffffffffffffffffffffffffffffffffffffffff1673ffffffffffffffffffffffffffffffffffffffff1681526020019060010190808311610821575b50505050509350828054806020026020016040519081016040528092919081815260200182805480156108f357602002820191906000526020600020905b8160009054906101000a900473ffffffffffffffffffffffffffffffffffffffff1673ffffffffffffffffffffffffffffffffffffffff16815260200190600101908083116108a9575b505050505092508180548060200260200160405190810160405280929190818152602001828054801561097b57602002820191906000526020600020905b8160009054906101000a900473ffffffffffffffffffffffffffffffffffffffff1673ffffffffffffffffffffffffffffffffffffffff1681526020019060010190808311610931575b5050505050915080805480602002602001604051908101604052809291908181526020018280548015610a0357602002820191906000526020600020905b8160009054906101000a900473ffffffffffffffffffffffffffffffffffffffff1673ffffffffffffffffffffffffffffffffffffffff16815260200190600101908083116109b9575b5050505050905095509550955095509550955091939550919395565b60065481565b6007543414610a69576040517f08c379a0000000000000000000000000000000000000000000000000000000008152600401610a60906131a5565b60405180910390fd5b6006815114610aad576040517f08c379a0000000000000000000000000000000000000000000000000000000008152600401610aa490613237565b60405180910390fd5b6000610ab8826116e0565b905060005b8151811015610c02576001828281518110610adb57610ada613257565b5b602002602001015160ff1610158015610b1257506032828281518110610b0457610b03613257565b5b602002602001015160ff1611155b610b51576040517f08c379a0000000000000000000000000000000000000000000000000000000008152600401610b48906132f8565b60405180910390fd5b60018251610b5f9190613347565b811015610bef5781600182610b74919061337b565b81518110610b8557610b84613257565b5b602002602001015160ff16828281518110610ba357610ba2613257565b5b602002602001015160ff1603610bee576040517f08c379a0000000000000000000000000000000000000000000000000000000008152600401610be5906133fb565b60405180910390fd5b5b8080610bfa9061341b565b915050610abd565b506001600a600060085481526020019081526020016000206001016000828254610c2c919061337b565b925050819055506000600a6000600854815260200190815260200160002060010154905033600a60006008548152602001908152602001600020600701600083815260200190815260200160002060006101000a81548173ffffffffffffffffffffffffffffffffffffffff021916908373ffffffffffffffffffffffffffffffffffffffff16021790555081600a6000600854815260200190815260200160002060080160008381526020019081526020016000209080519060200190610cf5929190612887565b50600a6000600854815260200190815260200160002060060160003373ffffffffffffffffffffffffffffffffffffffff1673ffffffffffffffffffffffffffffffffffffffff1681526020019081526020016000208190806001815401808255809150506001900390600052602060002001600090919091909150553373ffffffffffffffffffffffffffffffffffffffff167f2a1ef9a510c66163c8c27e9cfbafcb5c15f78e0c979458e4d40103d6bb9dbbd38284604051610dba929190613463565b60405180910390a2600260009054906101000a900473ffffffffffffffffffffffffffffffffffffffff1673ffffffffffffffffffffffffffffffffffffffff166340c10f1933670de0b6b3a76400006040518363ffffffff1660e01b8152600401610e279291906134d8565b600060405180830381600087803b158015610e4157600080fd5b505af1158015610e55573d6000803e3d6000fd5b50505050505050565b600960009054906101000a900473ffffffffffffffffffffffffffffffffffffffff1673ffffffffffffffffffffffffffffffffffffffff163373ffffffffffffffffffffffffffffffffffffffff1614610eee576040517f08c379a0000000000000000000000000000000000000000000000000000000008152600401610ee59061354d565b60405180910390fd5b6000600a600060085481526020019081526020016000206001015411610f49576040517f08c379a0000000000000000000000000000000000000000000000000000000008152600401610f40906135b9565b60405180910390fd5b6000600a600060085481526020019081526020016000206002018054905014610fa7576040517f08c379a0000000000000000000000000000000000000000000000000000000008152600401610f9e9061364b565b60405180910390fd5b6004547f000000000000000000000000000000000000000000000000000000000000000073ffffffffffffffffffffffffffffffffffffffff166370a08231306040518263ffffffff1660e01b815260040161100391906129c0565b602060405180830381865afa158015611020573d6000803e3d6000fd5b505050506040513d601f19601f820116820180604052508101906110449190613680565b1015611085576040517f08c379a000000000000000000000000000000000000000000000000000000000815260040161107c906136f9565b60405180910390fd5b61109360035460045461183e565b600581905550565b6060600a600083815260200190815260200160002060020180548060200260200160405190810160405280929190818152602001828054801561112357602002820191906000526020600020906000905b82829054906101000a900460ff1660ff16815260200190600101906020826000010492830192600103820291508084116110ec5790505b50505050509050919050565b611137611662565b611141600061198e565b565b600960009054906101000a900473ffffffffffffffffffffffffffffffffffffffff1673ffffffffffffffffffffffffffffffffffffffff163373ffffffffffffffffffffffffffffffffffffffff16146111d3576040517f08c379a00000000000000000000000000000000000000000000000000000000081526004016111ca9061354d565b60405180910390fd5b6006600a600060085481526020019081526020016000206002018054905014611231576040517f08c379a00000000000000000000000000000000000000000000000000000000081526004016112289061378b565b60405180910390fd5b611239611a54565b611241611b7a565b611249611ddb565b565b600a6020528060005260406000206000915090508060000154908060010154908060030154908060040154905084565b60085481565b6000600160009054906101000a900473ffffffffffffffffffffffffffffffffffffffff16905090565b60008060006060600a600086815260200190815260200160002060010154600a600087815260200190815260200160002060030154600a600088815260200190815260200160002060040154600a60008981526020019081526020016000206002018080548060200260200160405190810160405280929190818152602001828054801561137e57602002820191906000526020600020906000905b82829054906101000a900460ff1660ff16815260200190600101906020826000010492830192600103820291508084116113475790505b5050505050905093509350935093509193509193565b7f000000000000000000000000000000000000000000000000000000000000000073ffffffffffffffffffffffffffffffffffffffff163373ffffffffffffffffffffffffffffffffffffffff1614611422576040517f08c379a0000000000000000000000000000000000000000000000000000000008152600401611419906137f7565b60405180910390fd5b61142c8282611df5565b5050565b6060600a6000600854815260200190815260200160002060080160008381526020019081526020016000208054806020026020016040519081016040528092919081815260200182805480156114cb57602002820191906000526020600020906000905b82829054906101000a900460ff1660ff16815260200190600101906020826000010492830192600103820291508084116114945790505b50505050509050919050565b6114df611662565b60008111611522576040517f08c379a000000000000000000000000000000000000000000000000000000000815260040161151990613889565b60405180910390fd5b8060078190555050565b611534611662565b600073ffffffffffffffffffffffffffffffffffffffff168173ffffffffffffffffffffffffffffffffffffffff16036115a3576040517f08c379a000000000000000000000000000000000000000000000000000000000815260040161159a9061391b565b60405180910390fd5b6115ac8161198e565b50565b6060600a6000600854815260200190815260200160002060060160008373ffffffffffffffffffffffffffffffffffffffff1673ffffffffffffffffffffffffffffffffffffffff16815260200190815260200160002080548060200260200160405190810160405280929190818152602001828054801561165057602002820191906000526020600020905b81548152602001906001019080831161163c575b50505050509050919050565b60055481565b61166a6120e8565b73ffffffffffffffffffffffffffffffffffffffff16611688611281565b73ffffffffffffffffffffffffffffffffffffffff16146116de576040517f08c379a00000000000000000000000000000000000000000000000000000000081526004016116d590613987565b60405180910390fd5b565b606060005b600183516116f39190613347565b8110156118355760005b600182855161170c9190613347565b6117169190613347565b811015611821578360018261172b919061337b565b8151811061173c5761173b613257565b5b602002602001015160ff1684828151811061175a57611759613257565b5b602002602001015160ff16111561180e5760008482815181106117805761177f613257565b5b6020026020010151905084600183611798919061337b565b815181106117a9576117a8613257565b5b60200260200101518583815181106117c4576117c3613257565b5b602002602001019060ff16908160ff168152505080856001846117e7919061337b565b815181106117f8576117f7613257565b5b602002602001019060ff16908160ff1681525050505b80806118199061341b565b9150506116fd565b50808061182d9061341b565b9150506116e5565b50819050919050565b60007f000000000000000000000000000000000000000000000000000000000000000073ffffffffffffffffffffffffffffffffffffffff16634000aea07f0000000000000000000000000000000000000000000000000000000000000000848660006040516020016118b29291906139a7565b6040516020818303038152906040526040518463ffffffff1660e01b81526004016118df93929190613a4f565b6020604051808303816000875af11580156118fe573d6000803e3d6000fd5b505050506040513d601f19601f820116820180604052508101906119229190613ac5565b50600061194484600030600080898152602001908152602001600020546120f0565b9050600160008086815260200190815260200160002054611965919061337b565b60008086815260200190815260200160002081905550611985848261212c565b91505092915050565b6000600160009054906101000a900473ffffffffffffffffffffffffffffffffffffffff16905081600160006101000a81548173ffffffffffffffffffffffffffffffffffffffff021916908373ffffffffffffffffffffffffffffffffffffffff1602179055508173ffffffffffffffffffffffffffffffffffffffff168173ffffffffffffffffffffffffffffffffffffffff167f8be0079c531659141344cd1fd0a4f28419497f9722a3daafe3b4186f6b6457e060405160405180910390a35050565b6000600190505b600a60006008548152602001908152602001600020600101548111611b77576000611a858261215f565b905060018110611b6357600a600060085481526020019081526020016000206005016000828152602001908152602001600020600a60006008548152602001908152602001600020600701600084815260200190815260200160002060009054906101000a900473ffffffffffffffffffffffffffffffffffffffff169080600181540180825580915050600190039060005260206000200160009091909190916101000a81548173ffffffffffffffffffffffffffffffffffffffff021916908373ffffffffffffffffffffffffffffffffffffffff1602179055505b508080611b6f9061341b565b915050611a5b565b50565b6000479050600081905060006064600a83611b959190613af2565b611b9f9190613b63565b9050611ba9611281565b73ffffffffffffffffffffffffffffffffffffffff166108fc829081150290604051600060405180830381858888f19350505050158015611bee573d6000803e3d6000fd5b506000600690505b60018160ff1610611d92576000600a6000600854815260200190815260200160002060050160008360ff1681526020019081526020016000208054905090506000811115611d7e57600081611c4e878560ff16612333565b611c589190613b63565b905060005b82811015611d7b576000600a6000600854815260200190815260200160002060050160008660ff1681526020019081526020016000208281548110611ca557611ca4613257565b5b9060005260206000200160009054906101000a900473ffffffffffffffffffffffffffffffffffffffff1690508073ffffffffffffffffffffffffffffffffffffffff166108fc849081150290604051600060405180830381858888f19350505050158015611d18573d6000803e3d6000fd5b508073ffffffffffffffffffffffffffffffffffffffff167f95681e512bc0fe659e195e06c283eada494316f3d801213e48e7101af92bf77084604051611d5f9190612964565b60405180910390a2508080611d739061341b565b915050611c5d565b50505b508080611d8a90613b94565b915050611bf6565b50611d9c836124c2565b42600a600060085481526020019081526020016000206003018190555082600a6000600854815260200190815260200160002060040181905550505050565b60086000815480929190611dee9061341b565b9190505550565b8160055414611e39576040517f08c379a0000000000000000000000000000000000000000000000000000000008152600401611e3090613c09565b60405180910390fd5b806006819055506000603267ffffffffffffffff811115611e5d57611e5c612c00565b5b604051908082528060200260200182016040528015611e8b5781602001602082028036833780820191505090505b5090506000805b6006811015611fce57600060016032600654611eae9190613c29565b611eb8919061337b565b9050603260066000828254611ecd9190613b63565b925050819055506000805b84811015611f23578260ff16868281518110611ef757611ef6613257565b5b602002602001015160ff1603611f105760019150611f23565b8080611f1b9061341b565b915050611ed8565b5080611fc75781858580611f369061341b565b965081518110611f4957611f48613257565b5b602002602001019060ff16908160ff1681525050600a600060085481526020019081526020016000206002018290806001815401808255809150506001900390600052602060002090602091828204019190069091909190916101000a81548160ff021916908360ff1602179055508280611fc39061341b565b9350505b5050611e92565b612063600a6000600854815260200190815260200160002060020180548060200260200160405190810160405280929190818152602001828054801561205957602002820191906000526020600020906000905b82829054906101000a900460ff1660ff16815260200190600101906020826000010492830192600103820291508084116120225790505b50505050506116e0565b600a60006008548152602001908152602001600020600201908051906020019061208e929190612887565b507facdd977f06d88d990c56c596f96141830d83e7fc86f94424a37de0f5e0532e69600854600a600060085481526020019081526020016000206002016040516120d99291906149ad565b60405180910390a15050505050565b600033905090565b60008484848460405160200161210994939291906149dd565b6040516020818303038152906040528051906020012060001c9050949350505050565b60008282604051602001612141929190614a64565b60405160208183030381529060405280519060200120905092915050565b600080600a6000600854815260200190815260200160002060080160008481526020019081526020016000208054806020026020016040519081016040528092919081815260200182805480156121fb57602002820191906000526020600020906000905b82829054906101000a900460ff1660ff16815260200190600101906020826000010492830192600103820291508084116121c45790505b50505050509050600080600a6000600854815260200190815260200160002060020180548060200260200160405190810160405280929190818152602001828054801561228d57602002820191906000526020600020906000905b82829054906101000a900460ff1660ff16815260200190600101906020826000010492830192600103820291508084116122565790505b5050505050905060005b83518110156123275760005b8251811015612313578281815181106122bf576122be613257565b5b602002602001015160ff168583815181106122dd576122dc613257565b5b602002602001015160ff16036123005783806122f89061341b565b945050612313565b808061230b9061341b565b9150506122a3565b50808061231f9061341b565b915050612297565b50819350505050919050565b60008060068303612376576123486006612809565b905080606460288661235a9190613af2565b6123649190613b63565b61236e9190613b63565b9150506124bc565b600583036123b6576123886005612809565b905080606460198661239a9190613af2565b6123a49190613b63565b6123ae9190613b63565b9150506124bc565b600483036123f6576123c86004612809565b9050806064600a866123da9190613af2565b6123e49190613b63565b6123ee9190613b63565b9150506124bc565b60038303612436576124086003612809565b905080606460058661241a9190613af2565b6124249190613b63565b61242e9190613b63565b9150506124bc565b60028303612476576124486002612809565b905080606460038661245a9190613af2565b6124649190613b63565b61246e9190613b63565b9150506124bc565b600183036124b6576124886001612809565b905080606460028661249a9190613af2565b6124a49190613b63565b6124ae9190613b63565b9150506124bc565b60009150505b92915050565b600060646005836124d39190613af2565b6124dd9190613b63565b9050600080600190505b600a6000600854815260200190815260200160002060010154811161261e576000600a60006008548152602001908152602001600020600701600083815260200190815260200160002060009054906101000a900473ffffffffffffffffffffffffffffffffffffffff1690506000600260009054906101000a900473ffffffffffffffffffffffffffffffffffffffff1673ffffffffffffffffffffffffffffffffffffffff166370a08231836040518263ffffffff1660e01b81526004016125b191906129c0565b602060405180830381865afa1580156125ce573d6000803e3d6000fd5b505050506040513d601f19601f820116820180604052508101906125f29190613680565b9050612607818561287190919063ffffffff16565b9350505080806126169061341b565b9150506124e7565b506000600190505b600a60006008548152602001908152602001600020600101548111612803576000600a60006008548152602001908152602001600020600701600083815260200190815260200160002060009054906101000a900473ffffffffffffffffffffffffffffffffffffffff1690506000600260009054906101000a900473ffffffffffffffffffffffffffffffffffffffff1673ffffffffffffffffffffffffffffffffffffffff166370a08231836040518263ffffffff1660e01b81526004016126f091906129c0565b602060405180830381865afa15801561270d573d6000803e3d6000fd5b505050506040513d601f19601f820116820180604052508101906127319190613680565b905060008111156127ee57600084828761274b9190613af2565b6127559190613b63565b90508273ffffffffffffffffffffffffffffffffffffffff166108fc829081150290604051600060405180830381858888f1935050505015801561279d573d6000803e3d6000fd5b508273ffffffffffffffffffffffffffffffffffffffff167f0286f58f3dcaa16e784242f672696ff068857ee598355de9af938efa271b73ca826040516127e49190612964565b60405180910390a2505b505080806127fb9061341b565b915050612626565b50505050565b600080600090506000600190505b600a6000600854815260200190815260200160002060010154811161286757836128408261215f565b036128545781806128509061341b565b9250505b808061285f9061341b565b915050612817565b5080915050919050565b6000818361287f919061337b565b905092915050565b82805482825590600052602060002090601f0160209004810192821561291d5791602002820160005b838211156128ee57835183826101000a81548160ff021916908360ff16021790555092602001926001016020816000010492830192600103026128b0565b801561291b5782816101000a81549060ff02191690556001016020816000010492830192600103026128ee565b505b50905061292a919061292e565b5090565b5b8082111561294757600081600090555060010161292f565b5090565b6000819050919050565b61295e8161294b565b82525050565b60006020820190506129796000830184612955565b92915050565b600073ffffffffffffffffffffffffffffffffffffffff82169050919050565b60006129aa8261297f565b9050919050565b6129ba8161299f565b82525050565b60006020820190506129d560008301846129b1565b92915050565b6000604051905090565b600080fd5b600080fd5b6129f88161299f565b8114612a0357600080fd5b50565b600081359050612a15816129ef565b92915050565b600060208284031215612a3157612a306129e5565b5b6000612a3f84828501612a06565b91505092915050565b612a518161294b565b8114612a5c57600080fd5b50565b600081359050612a6e81612a48565b92915050565b600060208284031215612a8a57612a896129e5565b5b6000612a9884828501612a5f565b91505092915050565b600081519050919050565b600082825260208201905092915050565b6000819050602082019050919050565b612ad68161299f565b82525050565b6000612ae88383612acd565b60208301905092915050565b6000602082019050919050565b6000612b0c82612aa1565b612b168185612aac565b9350612b2183612abd565b8060005b83811015612b52578151612b398882612adc565b9750612b4483612af4565b925050600181019050612b25565b5085935050505092915050565b600060c0820190508181036000830152612b798189612b01565b90508181036020830152612b8d8188612b01565b90508181036040830152612ba18187612b01565b90508181036060830152612bb58186612b01565b90508181036080830152612bc98185612b01565b905081810360a0830152612bdd8184612b01565b9050979650505050505050565b600080fd5b6000601f19601f8301169050919050565b7f4e487b7100000000000000000000000000000000000000000000000000000000600052604160045260246000fd5b612c3882612bef565b810181811067ffffffffffffffff82111715612c5757612c56612c00565b5b80604052505050565b6000612c6a6129db565b9050612c768282612c2f565b919050565b600067ffffffffffffffff821115612c9657612c95612c00565b5b602082029050602081019050919050565b600080fd5b600060ff82169050919050565b612cc281612cac565b8114612ccd57600080fd5b50565b600081359050612cdf81612cb9565b92915050565b6000612cf8612cf384612c7b565b612c60565b90508083825260208201905060208402830185811115612d1b57612d1a612ca7565b5b835b81811015612d445780612d308882612cd0565b845260208401935050602081019050612d1d565b5050509392505050565b600082601f830112612d6357612d62612bea565b5b8135612d73848260208601612ce5565b91505092915050565b600060208284031215612d9257612d916129e5565b5b600082013567ffffffffffffffff811115612db057612daf6129ea565b5b612dbc84828501612d4e565b91505092915050565b600081519050919050565b600082825260208201905092915050565b6000819050602082019050919050565b612dfa81612cac565b82525050565b6000612e0c8383612df1565b60208301905092915050565b6000602082019050919050565b6000612e3082612dc5565b612e3a8185612dd0565b9350612e4583612de1565b8060005b83811015612e76578151612e5d8882612e00565b9750612e6883612e18565b925050600181019050612e49565b5085935050505092915050565b60006020820190508181036000830152612e9d8184612e25565b905092915050565b6000608082019050612eba6000830187612955565b612ec76020830186612955565b612ed46040830185612955565b612ee16060830184612955565b95945050505050565b6000608082019050612eff6000830187612955565b612f0c6020830186612955565b612f196040830185612955565b8181036060830152612f2b8184612e25565b905095945050505050565b6000819050919050565b612f4981612f36565b8114612f5457600080fd5b50565b600081359050612f6681612f40565b92915050565b60008060408385031215612f8357612f826129e5565b5b6000612f9185828601612f57565b9250506020612fa285828601612a5f565b9150509250929050565b600081519050919050565b600082825260208201905092915050565b6000819050602082019050919050565b612fe18161294b565b82525050565b6000612ff38383612fd8565b60208301905092915050565b6000602082019050919050565b600061301782612fac565b6130218185612fb7565b935061302c83612fc8565b8060005b8381101561305d5781516130448882612fe7565b975061304f83612fff565b925050600181019050613030565b5085935050505092915050565b60006020820190508181036000830152613084818461300c565b905092915050565b61309581612f36565b82525050565b60006020820190506130b0600083018461308c565b92915050565b600082825260208201905092915050565b7f4e6577206170706c69636174696f6e2061646472657373206d757374206e6f7460008201527f206265207a65726f20616464726573732e000000000000000000000000000000602082015250565b60006131236031836130b6565b915061312e826130c7565b604082019050919050565b6000602082019050818103600083015261315281613116565b9050919050565b7f496e636f7272656374207469636b65742070726963652e000000000000000000600082015250565b600061318f6017836130b6565b915061319a82613159565b602082019050919050565b600060208201905081810360008301526131be81613182565b9050919050565b7f596f75206d7573742070726f766964652065786163746c79203620756e69717560008201527f65206e756d626572732e00000000000000000000000000000000000000000000602082015250565b6000613221602a836130b6565b915061322c826131c5565b604082019050919050565b6000602082019050818103600083015261325081613214565b9050919050565b7f4e487b7100000000000000000000000000000000000000000000000000000000600052603260045260246000fd5b7f4e756d62657273206d757374206265206265747765656e203120616e6420353060008201527f2e00000000000000000000000000000000000000000000000000000000000000602082015250565b60006132e26021836130b6565b91506132ed82613286565b604082019050919050565b60006020820190508181036000830152613311816132d5565b9050919050565b7f4e487b7100000000000000000000000000000000000000000000000000000000600052601160045260246000fd5b60006133528261294b565b915061335d8361294b565b925082820390508181111561337557613374613318565b5b92915050565b60006133868261294b565b91506133918361294b565b92508282019050808211156133a9576133a8613318565b5b92915050565b7f4e756d62657273206d75737420626520756e697175652e000000000000000000600082015250565b60006133e56017836130b6565b91506133f0826133af565b602082019050919050565b60006020820190508181036000830152613414816133d8565b9050919050565b60006134268261294b565b91507fffffffffffffffffffffffffffffffffffffffffffffffffffffffffffffffff820361345857613457613318565b5b600182019050919050565b60006040820190506134786000830185612955565b818103602083015261348a8184612e25565b90509392505050565b6000819050919050565b6000819050919050565b60006134c26134bd6134b884613493565b61349d565b61294b565b9050919050565b6134d2816134a7565b82525050565b60006040820190506134ed60008301856129b1565b6134fa60208301846134c9565b9392505050565b7f43616c6c6572206973206e6f7420746865206170706c69636174696f6e000000600082015250565b6000613537601d836130b6565b915061354282613501565b602082019050919050565b600060208201905081810360008301526135668161352a565b9050919050565b7f4e6f207469636b6574732068617665206265656e20736f6c642e000000000000600082015250565b60006135a3601a836130b6565b91506135ae8261356d565b602082019050919050565b600060208201905081810360008301526135d281613596565b9050919050565b7f57696e6e696e67206e756d62657273206861766520616c72656164792062656560008201527f6e20647261776e2e000000000000000000000000000000000000000000000000602082015250565b60006136356028836130b6565b9150613640826135d9565b604082019050919050565b6000602082019050818103600083015261366481613628565b9050919050565b60008151905061367a81612a48565b92915050565b600060208284031215613696576136956129e5565b5b60006136a48482850161366b565b91505092915050565b7f4e6f7420656e6f756768204c494e4b20746f2070617920746865206665652e00600082015250565b60006136e3601f836130b6565b91506136ee826136ad565b602082019050919050565b60006020820190508181036000830152613712816136d6565b9050919050565b7f57696e6e696e67206e756d626572732068617665206e6f74206265656e20647260008201527f61776e207965742e000000000000000000000000000000000000000000000000602082015250565b60006137756028836130b6565b915061378082613719565b604082019050919050565b600060208201905081810360008301526137a481613768565b9050919050565b7f4f6e6c7920565246436f6f7264696e61746f722063616e2066756c66696c6c00600082015250565b60006137e1601f836130b6565b91506137ec826137ab565b602082019050919050565b60006020820190508181036000830152613810816137d4565b9050919050565b7f4e6577207469636b6574207072696365206d757374206265206772656174657260008201527f207468616e20302e000000000000000000000000000000000000000000000000602082015250565b60006138736028836130b6565b915061387e82613817565b604082019050919050565b600060208201905081810360008301526138a281613866565b9050919050565b7f4f776e61626c653a206e6577206f776e657220697320746865207a65726f206160008201527f6464726573730000000000000000000000000000000000000000000000000000602082015250565b60006139056026836130b6565b9150613910826138a9565b604082019050919050565b60006020820190508181036000830152613934816138f8565b9050919050565b7f4f776e61626c653a2063616c6c6572206973206e6f7420746865206f776e6572600082015250565b60006139716020836130b6565b915061397c8261393b565b602082019050919050565b600060208201905081810360008301526139a081613964565b9050919050565b60006040820190506139bc600083018561308c565b6139c96020830184612955565b9392505050565b600081519050919050565b600082825260208201905092915050565b60005b83811015613a0a5780820151818401526020810190506139ef565b60008484015250505050565b6000613a21826139d0565b613a2b81856139db565b9350613a3b8185602086016139ec565b613a4481612bef565b840191505092915050565b6000606082019050613a6460008301866129b1565b613a716020830185612955565b8181036040830152613a838184613a16565b9050949350505050565b60008115159050919050565b613aa281613a8d565b8114613aad57600080fd5b50565b600081519050613abf81613a99565b92915050565b600060208284031215613adb57613ada6129e5565b5b6000613ae984828501613ab0565b91505092915050565b6000613afd8261294b565b9150613b088361294b565b9250828202613b168161294b565b91508282048414831517613b2d57613b2c613318565b5b5092915050565b7f4e487b7100000000000000000000000000000000000000000000000000000000600052601260045260246000fd5b6000613b6e8261294b565b9150613b798361294b565b925082613b8957613b88613b34565b5b828204905092915050565b6000613b9f82612cac565b915060008203613bb257613bb1613318565b5b600182039050919050565b7f57726f6e67207265717565737449642070726f76696465642100000000000000600082015250565b6000613bf36019836130b6565b9150613bfe82613bbd565b602082019050919050565b60006020820190508181036000830152613c2281613be6565b9050919050565b6000613c348261294b565b9150613c3f8361294b565b925082613c4f57613c4e613b34565b5b828206905092915050565b600081549050919050565b60008190508160005260206000209050919050565b60008160001c9050919050565b600060ff82169050919050565b6000613ca7613ca283613c7a565b613c87565b9050919050565b60008160081c9050919050565b6000613cce613cc983613cae565b613c87565b9050919050565b60008160101c9050919050565b6000613cf5613cf083613cd5565b613c87565b9050919050565b60008160181c9050919050565b6000613d1c613d1783613cfc565b613c87565b9050919050565b60008160201c9050919050565b6000613d43613d3e83613d23565b613c87565b9050919050565b60008160281c9050919050565b6000613d6a613d6583613d4a565b613c87565b9050919050565b60008160301c9050919050565b6000613d91613d8c83613d71565b613c87565b9050919050565b60008160381c9050919050565b6000613db8613db383613d98565b613c87565b9050919050565b60008160401c9050919050565b6000613ddf613dda83613dbf565b613c87565b9050919050565b60008160481c9050919050565b6000613e06613e0183613de6565b613c87565b9050919050565b60008160501c9050919050565b6000613e2d613e2883613e0d565b613c87565b9050919050565b60008160581c9050919050565b6000613e54613e4f83613e34565b613c87565b9050919050565b60008160601c9050919050565b6000613e7b613e7683613e5b565b613c87565b9050919050565b60008160681c9050919050565b6000613ea2613e9d83613e82565b613c87565b9050919050565b60008160701c9050919050565b6000613ec9613ec483613ea9565b613c87565b9050919050565b60008160781c9050919050565b6000613ef0613eeb83613ed0565b613c87565b9050919050565b60008160801c9050919050565b6000613f17613f1283613ef7565b613c87565b9050919050565b60008160881c9050919050565b6000613f3e613f3983613f1e565b613c87565b9050919050565b60008160901c9050919050565b6000613f65613f6083613f45565b613c87565b9050919050565b60008160981c9050919050565b6000613f8c613f8783613f6c565b613c87565b9050919050565b60008160a01c9050919050565b6000613fb3613fae83613f93565b613c87565b9050919050565b60008160a81c9050919050565b6000613fda613fd583613fba565b613c87565b9050919050565b60008160b01c9050919050565b6000614001613ffc83613fe1565b613c87565b9050919050565b60008160b81c9050919050565b600061402861402383614008565b613c87565b9050919050565b60008160c01c9050919050565b600061404f61404a8361402f565b613c87565b9050919050565b60008160c81c9050919050565b600061407661407183614056565b613c87565b9050919050565b60008160d01c9050919050565b600061409d6140988361407d565b613c87565b9050919050565b60008160d81c9050919050565b60006140c46140bf836140a4565b613c87565b9050919050565b60008160e01c9050919050565b60006140eb6140e6836140cb565b613c87565b9050919050565b60008160e81c9050919050565b600061411261410d836140f2565b613c87565b9050919050565b60008160f01c9050919050565b600061413961413483614119565b613c87565b9050919050565b60008160f81c9050919050565b600061416061415b83614140565b613c87565b9050919050565b600061417282613c5a565b61417c8185612dd0565b93508361418884613c65565b60006001156144b5575b836001602003820110156144b45781546141b4886141af83613c94565b612df1565b6020880197506141cc886141c783613cbb565b612df1565b6020880197506141e4886141df83613ce2565b612df1565b6020880197506141fc886141f783613d09565b612df1565b6020880197506142148861420f83613d30565b612df1565b60208801975061422c8861422783613d57565b612df1565b6020880197506142448861423f83613d7e565b612df1565b60208801975061425c8861425783613da5565b612df1565b6020880197506142748861426f83613dcc565b612df1565b60208801975061428c8861428783613df3565b612df1565b6020880197506142a48861429f83613e1a565b612df1565b6020880197506142bc886142b783613e41565b612df1565b6020880197506142d4886142cf83613e68565b612df1565b6020880197506142ec886142e783613e8f565b612df1565b602088019750614304886142ff83613eb6565b612df1565b60208801975061431c8861431783613edd565b612df1565b6020880197506143348861432f83613f04565b612df1565b60208801975061434c8861434783613f2b565b612df1565b6020880197506143648861435f83613f52565b612df1565b60208801975061437c8861437783613f79565b612df1565b6020880197506143948861438f83613fa0565b612df1565b6020880197506143ac886143a783613fc7565b612df1565b6020880197506143c4886143bf83613fee565b612df1565b6020880197506143dc886143d783614015565b612df1565b6020880197506143f4886143ef8361403c565b612df1565b60208801975061440c8861440783614063565b612df1565b6020880197506144248861441f8361408a565b612df1565b60208801975061443c88614437836140b1565b612df1565b6020880197506144548861444f836140d8565b612df1565b60208801975061446c88614467836140ff565b612df1565b6020880197506144848861447f83614126565b612df1565b60208801975061449c886144978361414d565b612df1565b60208801975060018301925050602081019050614192565b5b6001156149a0578154848210156144e5576144d8886144d383613c94565b612df1565b6020880197506001820191505b8482101561450c576144ff886144fa83613cbb565b612df1565b6020880197506001820191505b84821015614533576145268861452183613ce2565b612df1565b6020880197506001820191505b8482101561455a5761454d8861454883613d09565b612df1565b6020880197506001820191505b84821015614581576145748861456f83613d30565b612df1565b6020880197506001820191505b848210156145a85761459b8861459683613d57565b612df1565b6020880197506001820191505b848210156145cf576145c2886145bd83613d7e565b612df1565b6020880197506001820191505b848210156145f6576145e9886145e483613da5565b612df1565b6020880197506001820191505b8482101561461d576146108861460b83613dcc565b612df1565b6020880197506001820191505b84821015614644576146378861463283613df3565b612df1565b6020880197506001820191505b8482101561466b5761465e8861465983613e1a565b612df1565b6020880197506001820191505b84821015614692576146858861468083613e41565b612df1565b6020880197506001820191505b848210156146b9576146ac886146a783613e68565b612df1565b6020880197506001820191505b848210156146e0576146d3886146ce83613e8f565b612df1565b6020880197506001820191505b84821015614707576146fa886146f583613eb6565b612df1565b6020880197506001820191505b8482101561472e576147218861471c83613edd565b612df1565b6020880197506001820191505b84821015614755576147488861474383613f04565b612df1565b6020880197506001820191505b8482101561477c5761476f8861476a83613f2b565b612df1565b6020880197506001820191505b848210156147a3576147968861479183613f52565b612df1565b6020880197506001820191505b848210156147ca576147bd886147b883613f79565b612df1565b6020880197506001820191505b848210156147f1576147e4886147df83613fa0565b612df1565b6020880197506001820191505b848210156148185761480b8861480683613fc7565b612df1565b6020880197506001820191505b8482101561483f576148328861482d83613fee565b612df1565b6020880197506001820191505b84821015614866576148598861485483614015565b612df1565b6020880197506001820191505b8482101561488d576148808861487b8361403c565b612df1565b6020880197506001820191505b848210156148b4576148a7886148a283614063565b612df1565b6020880197506001820191505b848210156148db576148ce886148c98361408a565b612df1565b6020880197506001820191505b84821015614902576148f5886148f0836140b1565b612df1565b6020880197506001820191505b848210156149295761491c88614917836140d8565b612df1565b6020880197506001820191505b84821015614950576149438861493e836140ff565b612df1565b6020880197506001820191505b848210156149775761496a8861496583614126565b612df1565b6020880197506001820191505b8482101561499e576149918861498c8361414d565b612df1565b6020880197506001820191505b505b8694505050505092915050565b60006040820190506149c26000830185612955565b81810360208301526149d48184614167565b90509392505050565b60006080820190506149f2600083018761308c565b6149ff6020830186612955565b614a0c60408301856129b1565b614a196060830184612955565b95945050505050565b6000819050919050565b614a3d614a3882612f36565b614a22565b82525050565b6000819050919050565b614a5e614a598261294b565b614a43565b82525050565b6000614a708285614a2c565b602082019150614a808284614a4d565b602082019150819050939250505056fea264697066735822122094fc74b20a1aae91d4f8d6b603ba6f1de1f9f04f2efb51359afd4dbb59ec089f64736f6c63430008120033",
  "immutableReferences": {
    "73": [
      {
        "length": 32,
        "start": 4012
      },
      {
        "length": 32,
        "start": 6210
      }
    ],
    "75": [
      {
        "length": 32,
        "start": 5014
      },
      {
        "length": 32,
        "start": 6270
      }
    ]
  },
  "source": "// SPDX-License-Identifier: MIT\npragma solidity ^0.8.0;\n\nimport \"@openzeppelin/contracts/utils/math/SafeMath.sol\";\nimport \"@openzeppelin/contracts/access/Ownable.sol\";\nimport \"@chainlink/contracts/src/v0.8/VRFConsumerBase.sol\";\nimport \"./interfaces/ILottoToken.sol\";\n\ncontract LuckyShiba is VRFConsumerBase, Ownable {\n    using SafeMath for uint256;\n\n    struct Round {\n        uint256 roundId;\n        uint256 ticketCount;\n        uint8[] winningNumbers;\n        uint256 drawnAt;\n        uint256 prizePool;\n        mapping(uint256 => address[]) winners;\n        mapping(address => uint256[]) userTickets;\n        mapping(uint256 => address payable) tickets;\n        mapping(uint256 => uint8[]) ticketNumbers;\n    }\n\n    ILottoToken token;\n\n    bytes32 private keyHash;\n    uint256 private fee;\n\n    bytes32 public lastRequestId;\n    uint256 public randomResult;\n    uint256 public ticketPrice;\n    uint256 public roundId;\n    address public application;\n\n\n    mapping(uint256 => Round) public rounds;\n\n    event TicketPurchased(\n        address indexed buyer,\n        uint256 ticketCount,\n        uint8[] numbers\n    );\n    event WinningNumbers(uint256 roundId, uint8[] numbers);\n    event PrizeClaimed(address indexed winner, uint256 amount);\n    event TokenHolderPrizeClaimed(address indexed winner, uint256 amount);\n    event RequestFulfilled(bytes32 requestId, uint256 randomness);\n\n    constructor(\n        uint256 _ticketPrice,\n        address _lottoToken,\n        address _application,\n        address _vrfCoordinator,\n        address _linkToken,\n        bytes32 _keyHash,\n        uint256 _fee\n    ) VRFConsumerBase(_vrfCoordinator, _linkToken) {\n        ticketPrice = _ticketPrice;\n        token = ILottoToken(_lottoToken);\n        application = _application;\n        keyHash = _keyHash;\n        fee = _fee;\n        roundId = 1;\n    }\n\n    modifier onlyApplication() {\n        require(msg.sender == application, \"Caller is not the application\");\n        _;\n    }\n\n    // Update the application address (only callable by the contract owner)\n    function updateApplicationAddress(address newApplication) public onlyOwner {\n        require(newApplication != address(0), \"New application address must not be zero address.\");\n        application = newApplication;\n    }\n\n    // Update the ticket price (only callable by the contract owner)\n    function updateTicketPrice(uint256 newTicketPrice) public onlyOwner {\n        require(newTicketPrice > 0, \"New ticket price must be greater than 0.\");\n        ticketPrice = newTicketPrice;\n    }\n\n    // Buy a ticket with 6 unique numbers, mint a token for the buyer\n    function buyTicket(uint8[] memory numbers) public payable {\n        require(msg.value == ticketPrice, \"Incorrect ticket price.\");\n        require(\n            numbers.length == 6,\n            \"You must provide exactly 6 unique numbers.\"\n        );\n\n        // Sort the numbers in ascending order\n        uint8[] memory sortedNumbers = _sortNumbers(numbers);\n\n        // Validate the provided numbers\n        for (uint256 i = 0; i < sortedNumbers.length; i++) {\n            require(\n                sortedNumbers[i] >= 1 && sortedNumbers[i] <= 50,\n                \"Numbers must be between 1 and 50.\"\n            );\n            if (i < sortedNumbers.length - 1) {\n                require(\n                    sortedNumbers[i] != sortedNumbers[i + 1],\n                    \"Numbers must be unique.\"\n                );\n            }\n        }\n\n        rounds[roundId].ticketCount += 1;\n        uint256 newTicketCount = rounds[roundId].ticketCount;\n        rounds[roundId].tickets[newTicketCount] = payable(msg.sender);\n        rounds[roundId].ticketNumbers[newTicketCount] = sortedNumbers;\n        rounds[roundId].userTickets[msg.sender].push(newTicketCount);\n        emit TicketPurchased(msg.sender, newTicketCount, sortedNumbers);\n\n        // Mint a token for the user\n        token.mint(msg.sender, 1 ether);\n    }\n\n    function getTicketCount() public view returns (uint256) {\n        return rounds[roundId].ticketCount;\n    }\n\n    function getTicketsByAddress(\n        address account\n    ) public view returns (uint256[] memory) {\n        return rounds[roundId].userTickets[account];\n    }\n\n    function getTicketNumbers(\n        uint256 ticketNr\n    ) public view returns (uint8[] memory) {\n        return rounds[roundId].ticketNumbers[ticketNr];\n    }\n\n    function getRoundWinningNumbers(\n        uint256 roundNr\n    ) public view returns (uint8[] memory) {\n        return rounds[roundNr].winningNumbers;\n    }\n\n    function getRound(\n        uint256 roundNr\n    )\n        public\n        view\n        returns (\n            uint256 ticketCount,\n            uint256 drawnAt,\n            uint256 prizePool,\n            uint8[] memory\n        )\n    {\n        return (\n            rounds[roundNr].ticketCount,\n            rounds[roundNr].drawnAt,\n            rounds[roundNr].prizePool,\n            rounds[roundNr].winningNumbers\n        );\n    }\n\n    function getRoundWinners(\n        uint256 roundNr\n    )\n        public\n        view\n        returns (\n            address[] memory matchOne,\n            address[] memory matchTwo,\n            address[] memory matchThree,\n            address[] memory matchFour,\n            address[] memory matchFive,\n            address[] memory matchSix\n        )\n    {\n        return (\n            rounds[roundNr].winners[1],\n            rounds[roundNr].winners[2],\n            rounds[roundNr].winners[3],\n            rounds[roundNr].winners[4],\n            rounds[roundNr].winners[5],\n            rounds[roundNr].winners[6]\n        );\n    }\n\n    // Draw winning numbers using Chainlink VRF\n    function drawWinningNumbers() external onlyApplication {\n        require(rounds[roundId].ticketCount > 0, \"No tickets have been sold.\");\n        require(\n            rounds[roundId].winningNumbers.length == 0,\n            \"Winning numbers have already been drawn.\"\n        );\n        require(\n            LINK.balanceOf(address(this)) >= fee,\n            \"Not enough LINK to pay the fee.\"\n        );\n\n        lastRequestId = requestRandomness(keyHash, fee);\n    }\n\n    // Fulfill randomness from Chainlink VRF and distribute prizes\n    function fulfillRandomness(\n        bytes32 requestId,\n        uint256 randomness\n    ) internal override {\n        require(lastRequestId == requestId, \"Wrong requestId provided!\");\n\n        randomResult = randomness;\n\n        // Generate unique winning numbers\n        uint8[] memory usedNumbers = new uint8[](50);\n        uint256 usedCount = 0;\n        uint256 generatedNumbers = 0;\n        while (generatedNumbers < 6) {\n            uint8 newNumber = uint8((randomResult % 50) + 1);\n            randomResult /= 50;\n\n            bool isNumberUsed = false;\n            for (uint256 i = 0; i < usedCount; i++) {\n                if (usedNumbers[i] == newNumber) {\n                    isNumberUsed = true;\n                    break;\n                }\n            }\n\n            if (!isNumberUsed) {\n                usedNumbers[usedCount++] = newNumber;\n                rounds[roundId].winningNumbers.push(newNumber);\n                generatedNumbers++;\n            }\n        }\n\n        // Sort winning numbers\n        rounds[roundId].winningNumbers = _sortNumbers(\n            rounds[roundId].winningNumbers\n        );\n        emit WinningNumbers(roundId, rounds[roundId].winningNumbers);\n    }\n\n    function distributePrizes() external onlyApplication {\n        require(\n            rounds[roundId].winningNumbers.length == 6,\n            \"Winning numbers have not been drawn yet.\"\n        );\n        // Update the winners\n        _updateWinners();\n\n        // Calculate and distribute prizes\n        _distributePrizes();\n\n        // Start a new round\n        _nextRound();\n    }\n\n    // Distribute prizes among the winners\n    function _distributePrizes() private {\n        // Send 10% of the current contract balance to the contract owner\n        uint256 totalPrizePool = address(this).balance;\n        uint256 prizePool = totalPrizePool;\n        uint256 ownerShare = (prizePool * 10) / 100;\n        payable(owner()).transfer(ownerShare);\n\n        // Send out the prizes to the winners\n        for (uint8 correctGuesses = 6; correctGuesses >= 1; correctGuesses--) {\n            uint256 winnerCount = rounds[roundId]\n                .winners[correctGuesses]\n                .length;\n            if (winnerCount > 0) {\n                uint256 prizePerWinner = _calculatePrize(\n                    totalPrizePool,\n                    correctGuesses\n                ) / winnerCount;\n\n                for (uint256 i = 0; i < winnerCount; i++) {\n                    address winner = rounds[roundId].winners[correctGuesses][i];\n                    payable(winner).transfer(prizePerWinner);\n                    emit PrizeClaimed(winner, prizePerWinner);\n                }\n            }\n        }\n\n        // Distribute token holder prizes\n        _distributeTokenHolderPrizes(totalPrizePool);\n\n        // Set the round details\n        rounds[roundId].drawnAt = block.timestamp;\n        rounds[roundId].prizePool = totalPrizePool;\n    }\n\n    function _updateWinners() private {\n        for (uint256 i = 1; i <= rounds[roundId].ticketCount; i++) {\n            uint256 correctGuesses = _getCorrectGuesses(i);\n            if (correctGuesses >= 1) {\n                rounds[roundId].winners[correctGuesses].push(\n                    rounds[roundId].tickets[i]\n                );\n            }\n        }\n    }\n\n    function _distributeTokenHolderPrizes(uint256 totalPrizePool) private {\n        uint256 tokenHolderPrizePool = (totalPrizePool * 5) / 100;\n        uint256 totalTokensHeldByPlayers = 0;\n\n        // Calculate the total tokens held by players who participated in the game\n        for (uint256 i = 1; i <= rounds[roundId].ticketCount; i++) {\n            address player = rounds[roundId].tickets[i];\n            uint256 playerTokenBalance = token.balanceOf(player);\n            totalTokensHeldByPlayers = totalTokensHeldByPlayers.add(\n                playerTokenBalance\n            );\n        }\n\n        // Distribute the token holder prize pool based on the number of tokens held by each player\n        for (uint256 i = 1; i <= rounds[roundId].ticketCount; i++) {\n            address player = rounds[roundId].tickets[i];\n            uint256 playerTokenBalance = token.balanceOf(player);\n            if (playerTokenBalance > 0) {\n                uint256 playerPrize = (tokenHolderPrizePool *\n                    playerTokenBalance) / totalTokensHeldByPlayers;\n                payable(player).transfer(playerPrize);\n                emit TokenHolderPrizeClaimed(player, playerPrize);\n            }\n        }\n    }\n\n    // Get the count of correct guesses for a given ticket\n    function _getCorrectGuesses(\n        uint256 ticketNumber\n    ) private view returns (uint256) {\n        uint8[] memory userNumbers = rounds[roundId].ticketNumbers[\n            ticketNumber\n        ];\n        uint256 correctGuesses = 0;\n        uint8[] memory winningNumbers = rounds[roundId].winningNumbers;\n\n        for (uint256 i = 0; i < userNumbers.length; i++) {\n            for (uint256 j = 0; j < winningNumbers.length; j++) {\n                if (userNumbers[i] == winningNumbers[j]) {\n                    correctGuesses++;\n                    break;\n                }\n            }\n        }\n\n        return correctGuesses;\n    }\n\n    // Calculate the prize amount based on the number of correct guesses\n    function _calculatePrize(\n        uint256 prizePool,\n        uint256 correctGuesses\n    ) private view returns (uint256) {\n        uint256 winnerCount;\n\n        if (correctGuesses == 6) {\n            winnerCount = _getWinnerCount(6);\n            return (prizePool * 40) / 100 / winnerCount; // 40% of the prize pool for 6 correct guesses\n        } else if (correctGuesses == 5) {\n            winnerCount = _getWinnerCount(5);\n            return (prizePool * 25) / 100 / winnerCount; // 20% of the prize pool for 5 correct guesses\n        } else if (correctGuesses == 4) {\n            winnerCount = _getWinnerCount(4);\n            return (prizePool * 10) / 100 / winnerCount; // 10% of the prize pool for 4 correct guesses\n        } else if (correctGuesses == 3) {\n            winnerCount = _getWinnerCount(3);\n            return (prizePool * 5) / 100 / winnerCount; // 5% of the prize pool for 3 correct guesses\n        } else if (correctGuesses == 2) {\n            winnerCount = _getWinnerCount(2);\n            return (prizePool * 3) / 100 / winnerCount; // 3% of the prize pool for 2 correct guesses\n        } else if (correctGuesses == 1) {\n            winnerCount = _getWinnerCount(1);\n            return (prizePool * 2) / 100 / winnerCount; // 2% of the prize pool for 1 correct guesses\n        }\n\n        return 0;\n    }\n\n    // Get the count of winners for a specific category (e.g., 6 correct guesses, 5 correct guesses, etc.)\n    function _getWinnerCount(\n        uint256 correctGuesses\n    ) private view returns (uint256) {\n        uint256 winnerCount = 0;\n\n        for (uint256 i = 1; i <= rounds[roundId].ticketCount; i++) {\n            if (_getCorrectGuesses(i) == correctGuesses) {\n                winnerCount++;\n            }\n        }\n\n        return winnerCount;\n    }\n\n    function _nextRound() private {\n        roundId++;\n    }\n\n    // Sorts an array of numbers in ascending order using Bubble Sort\n    function _sortNumbers(\n        uint8[] memory numbers\n    ) private pure returns (uint8[] memory) {\n        for (uint256 i = 0; i < numbers.length - 1; i++) {\n            for (uint256 j = 0; j < numbers.length - i - 1; j++) {\n                if (numbers[j] > numbers[j + 1]) {\n                    uint8 temp = numbers[j];\n                    numbers[j] = numbers[j + 1];\n                    numbers[j + 1] = temp;\n                }\n            }\n        }\n        return numbers;\n    }\n}\n",
  "sourcePath": "/home/d4fttasiii/git/gpt-lotto/src/lotto-contract/contracts/LuckyShiba.sol",
  "compiler": {
    "name": "solc",
    "version": "0.8.18+commit.87f61d96.Emscripten.clang"
  },
  "schemaVersion": "3.4.11",
  "updatedAt": "2023-04-24T15:40:13.940Z",
  "devdoc": {
    "kind": "dev",
    "methods": {
      "owner()": {
        "details": "Returns the address of the current owner."
      },
      "renounceOwnership()": {
        "details": "Leaves the contract without owner. It will not be possible to call `onlyOwner` functions anymore. Can only be called by the current owner. NOTE: Renouncing ownership will leave the contract without an owner, thereby removing any functionality that is only available to the owner."
      },
      "transferOwnership(address)": {
        "details": "Transfers ownership of the contract to a new account (`newOwner`). Can only be called by the current owner."
      }
    },
    "version": 1
  },
  "userdoc": {
    "kind": "user",
    "methods": {},
    "version": 1
  }
}