{
  "contractName": "LuckyShiba",
  "abi": [
    {
      "inputs": [
        {
          "internalType": "uint256",
          "name": "_ticketPrice",
          "type": "uint256"
        },
        {
          "internalType": "address",
          "name": "_lottoToken",
          "type": "address"
        },
        {
          "internalType": "address",
          "name": "_vrfCoordinator",
          "type": "address"
        },
        {
          "internalType": "address",
          "name": "_linkToken",
          "type": "address"
        },
        {
          "internalType": "bytes32",
          "name": "_keyHash",
          "type": "bytes32"
        },
        {
          "internalType": "uint256",
          "name": "_fee",
          "type": "uint256"
        }
      ],
      "stateMutability": "nonpayable",
      "type": "constructor"
    },
    {
      "anonymous": false,
      "inputs": [
        {
          "indexed": true,
          "internalType": "address",
          "name": "previousOwner",
          "type": "address"
        },
        {
          "indexed": true,
          "internalType": "address",
          "name": "newOwner",
          "type": "address"
        }
      ],
      "name": "OwnershipTransferred",
      "type": "event"
    },
    {
      "anonymous": false,
      "inputs": [
        {
          "indexed": true,
          "internalType": "address",
          "name": "winner",
          "type": "address"
        },
        {
          "indexed": false,
          "internalType": "uint256",
          "name": "amount",
          "type": "uint256"
        }
      ],
      "name": "PrizeClaimed",
      "type": "event"
    },
    {
      "anonymous": false,
      "inputs": [
        {
          "indexed": false,
          "internalType": "bytes32",
          "name": "requestId",
          "type": "bytes32"
        },
        {
          "indexed": false,
          "internalType": "uint256",
          "name": "randomness",
          "type": "uint256"
        }
      ],
      "name": "RequestFulfilled",
      "type": "event"
    },
    {
      "anonymous": false,
      "inputs": [
        {
          "indexed": true,
          "internalType": "address",
          "name": "buyer",
          "type": "address"
        },
        {
          "indexed": false,
          "internalType": "uint256",
          "name": "ticketCount",
          "type": "uint256"
        },
        {
          "indexed": false,
          "internalType": "uint8[]",
          "name": "numbers",
          "type": "uint8[]"
        }
      ],
      "name": "TicketPurchased",
      "type": "event"
    },
    {
      "anonymous": false,
      "inputs": [
        {
          "indexed": true,
          "internalType": "address",
          "name": "winner",
          "type": "address"
        },
        {
          "indexed": false,
          "internalType": "uint256",
          "name": "amount",
          "type": "uint256"
        }
      ],
      "name": "TokenHolderPrizeClaimed",
      "type": "event"
    },
    {
      "anonymous": false,
      "inputs": [
        {
          "indexed": false,
          "internalType": "uint256",
          "name": "roundId",
          "type": "uint256"
        },
        {
          "indexed": false,
          "internalType": "uint8[]",
          "name": "numbers",
          "type": "uint8[]"
        }
      ],
      "name": "WinningNumbers",
      "type": "event"
    },
    {
      "inputs": [],
      "name": "lastRequestId",
      "outputs": [
        {
          "internalType": "bytes32",
          "name": "",
          "type": "bytes32"
        }
      ],
      "stateMutability": "view",
      "type": "function"
    },
    {
      "inputs": [],
      "name": "owner",
      "outputs": [
        {
          "internalType": "address",
          "name": "",
          "type": "address"
        }
      ],
      "stateMutability": "view",
      "type": "function"
    },
    {
      "inputs": [],
      "name": "randomResult",
      "outputs": [
        {
          "internalType": "uint256",
          "name": "",
          "type": "uint256"
        }
      ],
      "stateMutability": "view",
      "type": "function"
    },
    {
      "inputs": [
        {
          "internalType": "bytes32",
          "name": "requestId",
          "type": "bytes32"
        },
        {
          "internalType": "uint256",
          "name": "randomness",
          "type": "uint256"
        }
      ],
      "name": "rawFulfillRandomness",
      "outputs": [],
      "stateMutability": "nonpayable",
      "type": "function"
    },
    {
      "inputs": [],
      "name": "renounceOwnership",
      "outputs": [],
      "stateMutability": "nonpayable",
      "type": "function"
    },
    {
      "inputs": [],
      "name": "roundId",
      "outputs": [
        {
          "internalType": "uint256",
          "name": "",
          "type": "uint256"
        }
      ],
      "stateMutability": "view",
      "type": "function"
    },
    {
      "inputs": [
        {
          "internalType": "uint256",
          "name": "",
          "type": "uint256"
        }
      ],
      "name": "rounds",
      "outputs": [
        {
          "internalType": "uint256",
          "name": "roundId",
          "type": "uint256"
        },
        {
          "internalType": "uint256",
          "name": "ticketCount",
          "type": "uint256"
        },
        {
          "internalType": "uint256",
          "name": "drawnAt",
          "type": "uint256"
        },
        {
          "internalType": "uint256",
          "name": "prizePool",
          "type": "uint256"
        }
      ],
      "stateMutability": "view",
      "type": "function"
    },
    {
      "inputs": [],
      "name": "ticketPrice",
      "outputs": [
        {
          "internalType": "uint256",
          "name": "",
          "type": "uint256"
        }
      ],
      "stateMutability": "view",
      "type": "function"
    },
    {
      "inputs": [
        {
          "internalType": "address",
          "name": "newOwner",
          "type": "address"
        }
      ],
      "name": "transferOwnership",
      "outputs": [],
      "stateMutability": "nonpayable",
      "type": "function"
    },
    {
      "inputs": [
        {
          "internalType": "uint256",
          "name": "newTicketPrice",
          "type": "uint256"
        }
      ],
      "name": "updateTicketPrice",
      "outputs": [],
      "stateMutability": "nonpayable",
      "type": "function"
    },
    {
      "inputs": [
        {
          "internalType": "uint8[]",
          "name": "numbers",
          "type": "uint8[]"
        }
      ],
      "name": "buyTicket",
      "outputs": [],
      "stateMutability": "payable",
      "type": "function"
    },
    {
      "inputs": [],
      "name": "getTicketCount",
      "outputs": [
        {
          "internalType": "uint256",
          "name": "",
          "type": "uint256"
        }
      ],
      "stateMutability": "view",
      "type": "function"
    },
    {
      "inputs": [
        {
          "internalType": "address",
          "name": "account",
          "type": "address"
        }
      ],
      "name": "getTicketsByAddress",
      "outputs": [
        {
          "internalType": "uint256[]",
          "name": "",
          "type": "uint256[]"
        }
      ],
      "stateMutability": "view",
      "type": "function"
    },
    {
      "inputs": [
        {
          "internalType": "uint256",
          "name": "ticketNr",
          "type": "uint256"
        }
      ],
      "name": "getTicketNumbers",
      "outputs": [
        {
          "internalType": "uint8[]",
          "name": "",
          "type": "uint8[]"
        }
      ],
      "stateMutability": "view",
      "type": "function"
    },
    {
      "inputs": [
        {
          "internalType": "uint256",
          "name": "roundNr",
          "type": "uint256"
        }
      ],
      "name": "getRoundWinningNumbers",
      "outputs": [
        {
          "internalType": "uint8[]",
          "name": "",
          "type": "uint8[]"
        }
      ],
      "stateMutability": "view",
      "type": "function"
    },
    {
      "inputs": [
        {
          "internalType": "uint256",
          "name": "roundNr",
          "type": "uint256"
        }
      ],
      "name": "getRound",
      "outputs": [
        {
          "internalType": "uint256",
          "name": "ticketCount",
          "type": "uint256"
        },
        {
          "internalType": "uint256",
          "name": "drawnAt",
          "type": "uint256"
        },
        {
          "internalType": "uint256",
          "name": "prizePool",
          "type": "uint256"
        },
        {
          "internalType": "uint8[]",
          "name": "",
          "type": "uint8[]"
        }
      ],
      "stateMutability": "view",
      "type": "function"
    },
    {
      "inputs": [
        {
          "internalType": "uint256",
          "name": "roundNr",
          "type": "uint256"
        }
      ],
      "name": "getRoundWinners",
      "outputs": [
        {
          "internalType": "address[]",
          "name": "matchOne",
          "type": "address[]"
        },
        {
          "internalType": "address[]",
          "name": "matchTwo",
          "type": "address[]"
        },
        {
          "internalType": "address[]",
          "name": "matchThree",
          "type": "address[]"
        },
        {
          "internalType": "address[]",
          "name": "matchFour",
          "type": "address[]"
        },
        {
          "internalType": "address[]",
          "name": "matchFive",
          "type": "address[]"
        },
        {
          "internalType": "address[]",
          "name": "matchSix",
          "type": "address[]"
        }
      ],
      "stateMutability": "view",
      "type": "function"
    },
    {
      "inputs": [],
      "name": "drawWinningNumbers",
      "outputs": [],
      "stateMutability": "nonpayable",
      "type": "function"
    },
    {
      "inputs": [],
      "name": "distributePrizes",
      "outputs": [],
      "stateMutability": "nonpayable",
      "type": "function"
    }
  ],
  "bytecode": "0x60c06040523480156200001157600080fd5b5060405162004b1838038062004b188339818101604052810190620000379190620002db565b83838173ffffffffffffffffffffffffffffffffffffffff1660a08173ffffffffffffffffffffffffffffffffffffffff16815250508073ffffffffffffffffffffffffffffffffffffffff1660808173ffffffffffffffffffffffffffffffffffffffff16815250505050620000c3620000b76200012d60201b60201c565b6200013560201b60201c565b8560078190555084600260006101000a81548173ffffffffffffffffffffffffffffffffffffffff021916908373ffffffffffffffffffffffffffffffffffffffff1602179055508160038190555080600481905550600160088190555050505050505062000377565b600033905090565b6000600160009054906101000a900473ffffffffffffffffffffffffffffffffffffffff16905081600160006101000a81548173ffffffffffffffffffffffffffffffffffffffff021916908373ffffffffffffffffffffffffffffffffffffffff1602179055508173ffffffffffffffffffffffffffffffffffffffff168173ffffffffffffffffffffffffffffffffffffffff167f8be0079c531659141344cd1fd0a4f28419497f9722a3daafe3b4186f6b6457e060405160405180910390a35050565b600080fd5b6000819050919050565b620002158162000200565b81146200022157600080fd5b50565b60008151905062000235816200020a565b92915050565b600073ffffffffffffffffffffffffffffffffffffffff82169050919050565b600062000268826200023b565b9050919050565b6200027a816200025b565b81146200028657600080fd5b50565b6000815190506200029a816200026f565b92915050565b6000819050919050565b620002b581620002a0565b8114620002c157600080fd5b50565b600081519050620002d581620002aa565b92915050565b60008060008060008060c08789031215620002fb57620002fa620001fb565b5b60006200030b89828a0162000224565b96505060206200031e89828a0162000289565b95505060406200033189828a0162000289565b94505060606200034489828a0162000289565b93505060806200035789828a01620002c4565b92505060a06200036a89828a0162000224565b9150509295509295509295565b60805160a05161476d620003ab6000396000818161113b0152611623015260008181610dd901526115e7015261476d6000f3fe6080604052600436106101145760003560e01c80638c65c81f116100a05780639839eafd116100645780639839eafd14610379578063f02137c8146103b6578063f2fde38b146103df578063f5e47f9614610408578063fc2a88c31461044557610114565b80638c65c81f1461027a5780638cd221c9146102ba5780638da5cb5b146102e55780638f1327c01461031057806394985ddd1461035057610114565b80635e349acc116100e75780635e349acc146101dc578063608620aa146101f857806364069e711461020f578063715018a61461024c5780637ce52eb61461026357610114565b80631209b1f61461011957806321c63a47146101445780632e8814711461016f57806342619f66146101b1575b600080fd5b34801561012557600080fd5b5061012e610470565b60405161013b9190612709565b60405180910390f35b34801561015057600080fd5b50610159610476565b6040516101669190612709565b60405180910390f35b34801561017b57600080fd5b5061019660048036038101906101919190612764565b610496565b6040516101a896959493929190612881565b60405180910390f35b3480156101bd57600080fd5b506101c66108d4565b6040516101d39190612709565b60405180910390f35b6101f660048036038101906101f19190612a9e565b6108da565b005b34801561020457600080fd5b5061020d610d13565b005b34801561021b57600080fd5b5061023660048036038101906102319190612764565b610ec8565b6040516102439190612ba5565b60405180910390f35b34801561025857600080fd5b50610261610f5c565b005b34801561026f57600080fd5b50610278610f70565b005b34801561028657600080fd5b506102a1600480360381019061029c9190612764565b610ff0565b6040516102b19493929190612bc7565b60405180910390f35b3480156102c657600080fd5b506102cf611020565b6040516102dc9190612709565b60405180910390f35b3480156102f157600080fd5b506102fa611026565b6040516103079190612c1b565b60405180910390f35b34801561031c57600080fd5b5061033760048036038101906103329190612764565b611050565b6040516103479493929190612c36565b60405180910390f35b34801561035c57600080fd5b5061037760048036038101906103729190612cb8565b611139565b005b34801561038557600080fd5b506103a0600480360381019061039b9190612764565b6111d5565b6040516103ad9190612ba5565b60405180910390f35b3480156103c257600080fd5b506103dd60048036038101906103d89190612764565b61127c565b005b3480156103eb57600080fd5b5061040660048036038101906104019190612d24565b6112d1565b005b34801561041457600080fd5b5061042f600480360381019061042a9190612d24565b611354565b60405161043c9190612e0f565b60405180910390f35b34801561045157600080fd5b5061045a611401565b6040516104679190612e40565b60405180910390f35b60075481565b600060096000600854815260200190815260200160002060010154905090565b6060806060806060806009600088815260200190815260200160002060050160006001815260200190815260200160002060096000898152602001908152602001600020600501600060028152602001908152602001600020600960008a8152602001908152602001600020600501600060038152602001908152602001600020600960008b8152602001908152602001600020600501600060048152602001908152602001600020600960008c8152602001908152602001600020600501600060058152602001908152602001600020600960008d81526020019081526020016000206005016000600681526020019081526020016000208580548060200260200160405190810160405280929190818152602001828054801561061057602002820191906000526020600020905b8160009054906101000a900473ffffffffffffffffffffffffffffffffffffffff1673ffffffffffffffffffffffffffffffffffffffff16815260200190600101908083116105c6575b505050505095508480548060200260200160405190810160405280929190818152602001828054801561069857602002820191906000526020600020905b8160009054906101000a900473ffffffffffffffffffffffffffffffffffffffff1673ffffffffffffffffffffffffffffffffffffffff168152602001906001019080831161064e575b505050505094508380548060200260200160405190810160405280929190818152602001828054801561072057602002820191906000526020600020905b8160009054906101000a900473ffffffffffffffffffffffffffffffffffffffff1673ffffffffffffffffffffffffffffffffffffffff16815260200190600101908083116106d6575b50505050509350828054806020026020016040519081016040528092919081815260200182805480156107a857602002820191906000526020600020905b8160009054906101000a900473ffffffffffffffffffffffffffffffffffffffff1673ffffffffffffffffffffffffffffffffffffffff168152602001906001019080831161075e575b505050505092508180548060200260200160405190810160405280929190818152602001828054801561083057602002820191906000526020600020905b8160009054906101000a900473ffffffffffffffffffffffffffffffffffffffff1673ffffffffffffffffffffffffffffffffffffffff16815260200190600101908083116107e6575b50505050509150808054806020026020016040519081016040528092919081815260200182805480156108b857602002820191906000526020600020905b8160009054906101000a900473ffffffffffffffffffffffffffffffffffffffff1673ffffffffffffffffffffffffffffffffffffffff168152602001906001019080831161086e575b5050505050905095509550955095509550955091939550919395565b60065481565b600754341461091e576040517f08c379a000000000000000000000000000000000000000000000000000000000815260040161091590612eb8565b60405180910390fd5b6006815114610962576040517f08c379a000000000000000000000000000000000000000000000000000000000815260040161095990612f4a565b60405180910390fd5b600061096d82611407565b905060005b8151811015610ab75760018282815181106109905761098f612f6a565b5b602002602001015160ff16101580156109c7575060328282815181106109b9576109b8612f6a565b5b602002602001015160ff1611155b610a06576040517f08c379a00000000000000000000000000000000000000000000000000000000081526004016109fd9061300b565b60405180910390fd5b60018251610a14919061305a565b811015610aa45781600182610a29919061308e565b81518110610a3a57610a39612f6a565b5b602002602001015160ff16828281518110610a5857610a57612f6a565b5b602002602001015160ff1603610aa3576040517f08c379a0000000000000000000000000000000000000000000000000000000008152600401610a9a9061310e565b60405180910390fd5b5b8080610aaf9061312e565b915050610972565b5060016009600060085481526020019081526020016000206001016000828254610ae1919061308e565b92505081905550600060096000600854815260200190815260200160002060010154905033600960006008548152602001908152602001600020600701600083815260200190815260200160002060006101000a81548173ffffffffffffffffffffffffffffffffffffffff021916908373ffffffffffffffffffffffffffffffffffffffff1602179055508160096000600854815260200190815260200160002060080160008381526020019081526020016000209080519060200190610baa92919061262c565b5060096000600854815260200190815260200160002060060160003373ffffffffffffffffffffffffffffffffffffffff1673ffffffffffffffffffffffffffffffffffffffff1681526020019081526020016000208190806001815401808255809150506001900390600052602060002001600090919091909150553373ffffffffffffffffffffffffffffffffffffffff167f2a1ef9a510c66163c8c27e9cfbafcb5c15f78e0c979458e4d40103d6bb9dbbd38284604051610c6f929190613176565b60405180910390a2600260009054906101000a900473ffffffffffffffffffffffffffffffffffffffff1673ffffffffffffffffffffffffffffffffffffffff166340c10f1933670de0b6b3a76400006040518363ffffffff1660e01b8152600401610cdc9291906131eb565b600060405180830381600087803b158015610cf657600080fd5b505af1158015610d0a573d6000803e3d6000fd5b50505050505050565b610d1b611565565b60006009600060085481526020019081526020016000206001015411610d76576040517f08c379a0000000000000000000000000000000000000000000000000000000008152600401610d6d90613260565b60405180910390fd5b60006009600060085481526020019081526020016000206002018054905014610dd4576040517f08c379a0000000000000000000000000000000000000000000000000000000008152600401610dcb906132f2565b60405180910390fd5b6004547f000000000000000000000000000000000000000000000000000000000000000073ffffffffffffffffffffffffffffffffffffffff166370a08231306040518263ffffffff1660e01b8152600401610e309190612c1b565b602060405180830381865afa158015610e4d573d6000803e3d6000fd5b505050506040513d601f19601f82011682018060405250810190610e719190613327565b1015610eb2576040517f08c379a0000000000000000000000000000000000000000000000000000000008152600401610ea9906133a0565b60405180910390fd5b610ec06003546004546115e3565b600581905550565b606060096000838152602001908152602001600020600201805480602002602001604051908101604052809291908181526020018280548015610f5057602002820191906000526020600020906000905b82829054906101000a900460ff1660ff1681526020019060010190602082600001049283019260010382029150808411610f195790505b50505050509050919050565b610f64611565565b610f6e6000611733565b565b610f78611565565b60066009600060085481526020019081526020016000206002018054905014610fd6576040517f08c379a0000000000000000000000000000000000000000000000000000000008152600401610fcd90613432565b60405180910390fd5b610fde6117f9565b610fe661191f565b610fee611b80565b565b60096020528060005260406000206000915090508060000154908060010154908060030154908060040154905084565b60085481565b6000600160009054906101000a900473ffffffffffffffffffffffffffffffffffffffff16905090565b60008060006060600960008681526020019081526020016000206001015460096000878152602001908152602001600020600301546009600088815260200190815260200160002060040154600960008981526020019081526020016000206002018080548060200260200160405190810160405280929190818152602001828054801561112357602002820191906000526020600020906000905b82829054906101000a900460ff1660ff16815260200190600101906020826000010492830192600103820291508084116110ec5790505b5050505050905093509350935093509193509193565b7f000000000000000000000000000000000000000000000000000000000000000073ffffffffffffffffffffffffffffffffffffffff163373ffffffffffffffffffffffffffffffffffffffff16146111c7576040517f08c379a00000000000000000000000000000000000000000000000000000000081526004016111be9061349e565b60405180910390fd5b6111d18282611b9a565b5050565b6060600960006008548152602001908152602001600020600801600083815260200190815260200160002080548060200260200160405190810160405280929190818152602001828054801561127057602002820191906000526020600020906000905b82829054906101000a900460ff1660ff16815260200190600101906020826000010492830192600103820291508084116112395790505b50505050509050919050565b611284611565565b600081116112c7576040517f08c379a00000000000000000000000000000000000000000000000000000000081526004016112be90613530565b60405180910390fd5b8060078190555050565b6112d9611565565b600073ffffffffffffffffffffffffffffffffffffffff168173ffffffffffffffffffffffffffffffffffffffff1603611348576040517f08c379a000000000000000000000000000000000000000000000000000000000815260040161133f906135c2565b60405180910390fd5b61135181611733565b50565b606060096000600854815260200190815260200160002060060160008373ffffffffffffffffffffffffffffffffffffffff1673ffffffffffffffffffffffffffffffffffffffff1681526020019081526020016000208054806020026020016040519081016040528092919081815260200182805480156113f557602002820191906000526020600020905b8154815260200190600101908083116113e1575b50505050509050919050565b60055481565b606060005b6001835161141a919061305a565b81101561155c5760005b6001828551611433919061305a565b61143d919061305a565b8110156115485783600182611452919061308e565b8151811061146357611462612f6a565b5b602002602001015160ff1684828151811061148157611480612f6a565b5b602002602001015160ff1611156115355760008482815181106114a7576114a6612f6a565b5b60200260200101519050846001836114bf919061308e565b815181106114d0576114cf612f6a565b5b60200260200101518583815181106114eb576114ea612f6a565b5b602002602001019060ff16908160ff1681525050808560018461150e919061308e565b8151811061151f5761151e612f6a565b5b602002602001019060ff16908160ff1681525050505b80806115409061312e565b915050611424565b5080806115549061312e565b91505061140c565b50819050919050565b61156d611e8d565b73ffffffffffffffffffffffffffffffffffffffff1661158b611026565b73ffffffffffffffffffffffffffffffffffffffff16146115e1576040517f08c379a00000000000000000000000000000000000000000000000000000000081526004016115d89061362e565b60405180910390fd5b565b60007f000000000000000000000000000000000000000000000000000000000000000073ffffffffffffffffffffffffffffffffffffffff16634000aea07f00000000000000000000000000000000000000000000000000000000000000008486600060405160200161165792919061364e565b6040516020818303038152906040526040518463ffffffff1660e01b8152600401611684939291906136f6565b6020604051808303816000875af11580156116a3573d6000803e3d6000fd5b505050506040513d601f19601f820116820180604052508101906116c7919061376c565b5060006116e98460003060008089815260200190815260200160002054611e95565b905060016000808681526020019081526020016000205461170a919061308e565b6000808681526020019081526020016000208190555061172a8482611ed1565b91505092915050565b6000600160009054906101000a900473ffffffffffffffffffffffffffffffffffffffff16905081600160006101000a81548173ffffffffffffffffffffffffffffffffffffffff021916908373ffffffffffffffffffffffffffffffffffffffff1602179055508173ffffffffffffffffffffffffffffffffffffffff168173ffffffffffffffffffffffffffffffffffffffff167f8be0079c531659141344cd1fd0a4f28419497f9722a3daafe3b4186f6b6457e060405160405180910390a35050565b6000600190505b60096000600854815260200190815260200160002060010154811161191c57600061182a82611f04565b905060018110611908576009600060085481526020019081526020016000206005016000828152602001908152602001600020600960006008548152602001908152602001600020600701600084815260200190815260200160002060009054906101000a900473ffffffffffffffffffffffffffffffffffffffff169080600181540180825580915050600190039060005260206000200160009091909190916101000a81548173ffffffffffffffffffffffffffffffffffffffff021916908373ffffffffffffffffffffffffffffffffffffffff1602179055505b5080806119149061312e565b915050611800565b50565b6000479050600081905060006064600a8361193a9190613799565b611944919061380a565b905061194e611026565b73ffffffffffffffffffffffffffffffffffffffff166108fc829081150290604051600060405180830381858888f19350505050158015611993573d6000803e3d6000fd5b506000600690505b60018160ff1610611b3757600060096000600854815260200190815260200160002060050160008360ff1681526020019081526020016000208054905090506000811115611b23576000816119f3878560ff166120d8565b6119fd919061380a565b905060005b82811015611b2057600060096000600854815260200190815260200160002060050160008660ff1681526020019081526020016000208281548110611a4a57611a49612f6a565b5b9060005260206000200160009054906101000a900473ffffffffffffffffffffffffffffffffffffffff1690508073ffffffffffffffffffffffffffffffffffffffff166108fc849081150290604051600060405180830381858888f19350505050158015611abd573d6000803e3d6000fd5b508073ffffffffffffffffffffffffffffffffffffffff167f95681e512bc0fe659e195e06c283eada494316f3d801213e48e7101af92bf77084604051611b049190612709565b60405180910390a2508080611b189061312e565b915050611a02565b50505b508080611b2f9061383b565b91505061199b565b50611b4183612267565b42600960006008548152602001908152602001600020600301819055508260096000600854815260200190815260200160002060040181905550505050565b60086000815480929190611b939061312e565b9190505550565b8160055414611bde576040517f08c379a0000000000000000000000000000000000000000000000000000000008152600401611bd5906138b0565b60405180910390fd5b806006819055506000603267ffffffffffffffff811115611c0257611c01612922565b5b604051908082528060200260200182016040528015611c305781602001602082028036833780820191505090505b5090506000805b6006811015611d7357600060016032600654611c5391906138d0565b611c5d919061308e565b9050603260066000828254611c72919061380a565b925050819055506000805b84811015611cc8578260ff16868281518110611c9c57611c9b612f6a565b5b602002602001015160ff1603611cb55760019150611cc8565b8080611cc09061312e565b915050611c7d565b5080611d6c5781858580611cdb9061312e565b965081518110611cee57611ced612f6a565b5b602002602001019060ff16908160ff16815250506009600060085481526020019081526020016000206002018290806001815401808255809150506001900390600052602060002090602091828204019190069091909190916101000a81548160ff021916908360ff1602179055508280611d689061312e565b9350505b5050611c37565b611e08600960006008548152602001908152602001600020600201805480602002602001604051908101604052809291908181526020018280548015611dfe57602002820191906000526020600020906000905b82829054906101000a900460ff1660ff1681526020019060010190602082600001049283019260010382029150808411611dc75790505b5050505050611407565b6009600060085481526020019081526020016000206002019080519060200190611e3392919061262c565b507facdd977f06d88d990c56c596f96141830d83e7fc86f94424a37de0f5e0532e69600854600960006008548152602001908152602001600020600201604051611e7e929190614654565b60405180910390a15050505050565b600033905090565b600084848484604051602001611eae9493929190614684565b6040516020818303038152906040528051906020012060001c9050949350505050565b60008282604051602001611ee692919061470b565b60405160208183030381529060405280519060200120905092915050565b6000806009600060085481526020019081526020016000206008016000848152602001908152602001600020805480602002602001604051908101604052809291908181526020018280548015611fa057602002820191906000526020600020906000905b82829054906101000a900460ff1660ff1681526020019060010190602082600001049283019260010382029150808411611f695790505b5050505050905060008060096000600854815260200190815260200160002060020180548060200260200160405190810160405280929190818152602001828054801561203257602002820191906000526020600020906000905b82829054906101000a900460ff1660ff1681526020019060010190602082600001049283019260010382029150808411611ffb5790505b5050505050905060005b83518110156120cc5760005b82518110156120b85782818151811061206457612063612f6a565b5b602002602001015160ff1685838151811061208257612081612f6a565b5b602002602001015160ff16036120a557838061209d9061312e565b9450506120b8565b80806120b09061312e565b915050612048565b5080806120c49061312e565b91505061203c565b50819350505050919050565b6000806006830361211b576120ed60066125ae565b90508060646028866120ff9190613799565b612109919061380a565b612113919061380a565b915050612261565b6005830361215b5761212d60056125ae565b905080606460198661213f9190613799565b612149919061380a565b612153919061380a565b915050612261565b6004830361219b5761216d60046125ae565b9050806064600a8661217f9190613799565b612189919061380a565b612193919061380a565b915050612261565b600383036121db576121ad60036125ae565b90508060646005866121bf9190613799565b6121c9919061380a565b6121d3919061380a565b915050612261565b6002830361221b576121ed60026125ae565b90508060646003866121ff9190613799565b612209919061380a565b612213919061380a565b915050612261565b6001830361225b5761222d60016125ae565b905080606460028661223f9190613799565b612249919061380a565b612253919061380a565b915050612261565b60009150505b92915050565b600060646005836122789190613799565b612282919061380a565b9050600080600190505b6009600060085481526020019081526020016000206001015481116123c3576000600960006008548152602001908152602001600020600701600083815260200190815260200160002060009054906101000a900473ffffffffffffffffffffffffffffffffffffffff1690506000600260009054906101000a900473ffffffffffffffffffffffffffffffffffffffff1673ffffffffffffffffffffffffffffffffffffffff166370a08231836040518263ffffffff1660e01b81526004016123569190612c1b565b602060405180830381865afa158015612373573d6000803e3d6000fd5b505050506040513d601f19601f820116820180604052508101906123979190613327565b90506123ac818561261690919063ffffffff16565b9350505080806123bb9061312e565b91505061228c565b506000600190505b6009600060085481526020019081526020016000206001015481116125a8576000600960006008548152602001908152602001600020600701600083815260200190815260200160002060009054906101000a900473ffffffffffffffffffffffffffffffffffffffff1690506000600260009054906101000a900473ffffffffffffffffffffffffffffffffffffffff1673ffffffffffffffffffffffffffffffffffffffff166370a08231836040518263ffffffff1660e01b81526004016124959190612c1b565b602060405180830381865afa1580156124b2573d6000803e3d6000fd5b505050506040513d601f19601f820116820180604052508101906124d69190613327565b905060008111156125935760008482876124f09190613799565b6124fa919061380a565b90508273ffffffffffffffffffffffffffffffffffffffff166108fc829081150290604051600060405180830381858888f19350505050158015612542573d6000803e3d6000fd5b508273ffffffffffffffffffffffffffffffffffffffff167f0286f58f3dcaa16e784242f672696ff068857ee598355de9af938efa271b73ca826040516125899190612709565b60405180910390a2505b505080806125a09061312e565b9150506123cb565b50505050565b600080600090506000600190505b60096000600854815260200190815260200160002060010154811161260c57836125e582611f04565b036125f95781806125f59061312e565b9250505b80806126049061312e565b9150506125bc565b5080915050919050565b60008183612624919061308e565b905092915050565b82805482825590600052602060002090601f016020900481019282156126c25791602002820160005b8382111561269357835183826101000a81548160ff021916908360ff1602179055509260200192600101602081600001049283019260010302612655565b80156126c05782816101000a81549060ff0219169055600101602081600001049283019260010302612693565b505b5090506126cf91906126d3565b5090565b5b808211156126ec5760008160009055506001016126d4565b5090565b6000819050919050565b612703816126f0565b82525050565b600060208201905061271e60008301846126fa565b92915050565b6000604051905090565b600080fd5b600080fd5b612741816126f0565b811461274c57600080fd5b50565b60008135905061275e81612738565b92915050565b60006020828403121561277a5761277961272e565b5b60006127888482850161274f565b91505092915050565b600081519050919050565b600082825260208201905092915050565b6000819050602082019050919050565b600073ffffffffffffffffffffffffffffffffffffffff82169050919050565b60006127e8826127bd565b9050919050565b6127f8816127dd565b82525050565b600061280a83836127ef565b60208301905092915050565b6000602082019050919050565b600061282e82612791565b612838818561279c565b9350612843836127ad565b8060005b8381101561287457815161285b88826127fe565b975061286683612816565b925050600181019050612847565b5085935050505092915050565b600060c082019050818103600083015261289b8189612823565b905081810360208301526128af8188612823565b905081810360408301526128c38187612823565b905081810360608301526128d78186612823565b905081810360808301526128eb8185612823565b905081810360a08301526128ff8184612823565b9050979650505050505050565b600080fd5b6000601f19601f8301169050919050565b7f4e487b7100000000000000000000000000000000000000000000000000000000600052604160045260246000fd5b61295a82612911565b810181811067ffffffffffffffff8211171561297957612978612922565b5b80604052505050565b600061298c612724565b90506129988282612951565b919050565b600067ffffffffffffffff8211156129b8576129b7612922565b5b602082029050602081019050919050565b600080fd5b600060ff82169050919050565b6129e4816129ce565b81146129ef57600080fd5b50565b600081359050612a01816129db565b92915050565b6000612a1a612a158461299d565b612982565b90508083825260208201905060208402830185811115612a3d57612a3c6129c9565b5b835b81811015612a665780612a5288826129f2565b845260208401935050602081019050612a3f565b5050509392505050565b600082601f830112612a8557612a8461290c565b5b8135612a95848260208601612a07565b91505092915050565b600060208284031215612ab457612ab361272e565b5b600082013567ffffffffffffffff811115612ad257612ad1612733565b5b612ade84828501612a70565b91505092915050565b600081519050919050565b600082825260208201905092915050565b6000819050602082019050919050565b612b1c816129ce565b82525050565b6000612b2e8383612b13565b60208301905092915050565b6000602082019050919050565b6000612b5282612ae7565b612b5c8185612af2565b9350612b6783612b03565b8060005b83811015612b98578151612b7f8882612b22565b9750612b8a83612b3a565b925050600181019050612b6b565b5085935050505092915050565b60006020820190508181036000830152612bbf8184612b47565b905092915050565b6000608082019050612bdc60008301876126fa565b612be960208301866126fa565b612bf660408301856126fa565b612c0360608301846126fa565b95945050505050565b612c15816127dd565b82525050565b6000602082019050612c306000830184612c0c565b92915050565b6000608082019050612c4b60008301876126fa565b612c5860208301866126fa565b612c6560408301856126fa565b8181036060830152612c778184612b47565b905095945050505050565b6000819050919050565b612c9581612c82565b8114612ca057600080fd5b50565b600081359050612cb281612c8c565b92915050565b60008060408385031215612ccf57612cce61272e565b5b6000612cdd85828601612ca3565b9250506020612cee8582860161274f565b9150509250929050565b612d01816127dd565b8114612d0c57600080fd5b50565b600081359050612d1e81612cf8565b92915050565b600060208284031215612d3a57612d3961272e565b5b6000612d4884828501612d0f565b91505092915050565b600081519050919050565b600082825260208201905092915050565b6000819050602082019050919050565b612d86816126f0565b82525050565b6000612d988383612d7d565b60208301905092915050565b6000602082019050919050565b6000612dbc82612d51565b612dc68185612d5c565b9350612dd183612d6d565b8060005b83811015612e02578151612de98882612d8c565b9750612df483612da4565b925050600181019050612dd5565b5085935050505092915050565b60006020820190508181036000830152612e298184612db1565b905092915050565b612e3a81612c82565b82525050565b6000602082019050612e556000830184612e31565b92915050565b600082825260208201905092915050565b7f496e636f7272656374207469636b65742070726963652e000000000000000000600082015250565b6000612ea2601783612e5b565b9150612ead82612e6c565b602082019050919050565b60006020820190508181036000830152612ed181612e95565b9050919050565b7f596f75206d7573742070726f766964652065786163746c79203620756e69717560008201527f65206e756d626572732e00000000000000000000000000000000000000000000602082015250565b6000612f34602a83612e5b565b9150612f3f82612ed8565b604082019050919050565b60006020820190508181036000830152612f6381612f27565b9050919050565b7f4e487b7100000000000000000000000000000000000000000000000000000000600052603260045260246000fd5b7f4e756d62657273206d757374206265206265747765656e203120616e6420353060008201527f2e00000000000000000000000000000000000000000000000000000000000000602082015250565b6000612ff5602183612e5b565b915061300082612f99565b604082019050919050565b6000602082019050818103600083015261302481612fe8565b9050919050565b7f4e487b7100000000000000000000000000000000000000000000000000000000600052601160045260246000fd5b6000613065826126f0565b9150613070836126f0565b92508282039050818111156130885761308761302b565b5b92915050565b6000613099826126f0565b91506130a4836126f0565b92508282019050808211156130bc576130bb61302b565b5b92915050565b7f4e756d62657273206d75737420626520756e697175652e000000000000000000600082015250565b60006130f8601783612e5b565b9150613103826130c2565b602082019050919050565b60006020820190508181036000830152613127816130eb565b9050919050565b6000613139826126f0565b91507fffffffffffffffffffffffffffffffffffffffffffffffffffffffffffffffff820361316b5761316a61302b565b5b600182019050919050565b600060408201905061318b60008301856126fa565b818103602083015261319d8184612b47565b90509392505050565b6000819050919050565b6000819050919050565b60006131d56131d06131cb846131a6565b6131b0565b6126f0565b9050919050565b6131e5816131ba565b82525050565b60006040820190506132006000830185612c0c565b61320d60208301846131dc565b9392505050565b7f4e6f207469636b6574732068617665206265656e20736f6c642e000000000000600082015250565b600061324a601a83612e5b565b915061325582613214565b602082019050919050565b600060208201905081810360008301526132798161323d565b9050919050565b7f57696e6e696e67206e756d62657273206861766520616c72656164792062656560008201527f6e20647261776e2e000000000000000000000000000000000000000000000000602082015250565b60006132dc602883612e5b565b91506132e782613280565b604082019050919050565b6000602082019050818103600083015261330b816132cf565b9050919050565b60008151905061332181612738565b92915050565b60006020828403121561333d5761333c61272e565b5b600061334b84828501613312565b91505092915050565b7f4e6f7420656e6f756768204c494e4b20746f2070617920746865206665652e00600082015250565b600061338a601f83612e5b565b915061339582613354565b602082019050919050565b600060208201905081810360008301526133b98161337d565b9050919050565b7f57696e6e696e67206e756d626572732068617665206e6f74206265656e20647260008201527f61776e207965742e000000000000000000000000000000000000000000000000602082015250565b600061341c602883612e5b565b9150613427826133c0565b604082019050919050565b6000602082019050818103600083015261344b8161340f565b9050919050565b7f4f6e6c7920565246436f6f7264696e61746f722063616e2066756c66696c6c00600082015250565b6000613488601f83612e5b565b915061349382613452565b602082019050919050565b600060208201905081810360008301526134b78161347b565b9050919050565b7f4e6577207469636b6574207072696365206d757374206265206772656174657260008201527f207468616e20302e000000000000000000000000000000000000000000000000602082015250565b600061351a602883612e5b565b9150613525826134be565b604082019050919050565b600060208201905081810360008301526135498161350d565b9050919050565b7f4f776e61626c653a206e6577206f776e657220697320746865207a65726f206160008201527f6464726573730000000000000000000000000000000000000000000000000000602082015250565b60006135ac602683612e5b565b91506135b782613550565b604082019050919050565b600060208201905081810360008301526135db8161359f565b9050919050565b7f4f776e61626c653a2063616c6c6572206973206e6f7420746865206f776e6572600082015250565b6000613618602083612e5b565b9150613623826135e2565b602082019050919050565b600060208201905081810360008301526136478161360b565b9050919050565b60006040820190506136636000830185612e31565b61367060208301846126fa565b9392505050565b600081519050919050565b600082825260208201905092915050565b60005b838110156136b1578082015181840152602081019050613696565b60008484015250505050565b60006136c882613677565b6136d28185613682565b93506136e2818560208601613693565b6136eb81612911565b840191505092915050565b600060608201905061370b6000830186612c0c565b61371860208301856126fa565b818103604083015261372a81846136bd565b9050949350505050565b60008115159050919050565b61374981613734565b811461375457600080fd5b50565b60008151905061376681613740565b92915050565b6000602082840312156137825761378161272e565b5b600061379084828501613757565b91505092915050565b60006137a4826126f0565b91506137af836126f0565b92508282026137bd816126f0565b915082820484148315176137d4576137d361302b565b5b5092915050565b7f4e487b7100000000000000000000000000000000000000000000000000000000600052601260045260246000fd5b6000613815826126f0565b9150613820836126f0565b9250826138305761382f6137db565b5b828204905092915050565b6000613846826129ce565b9150600082036138595761385861302b565b5b600182039050919050565b7f57726f6e67207265717565737449642070726f76696465642100000000000000600082015250565b600061389a601983612e5b565b91506138a582613864565b602082019050919050565b600060208201905081810360008301526138c98161388d565b9050919050565b60006138db826126f0565b91506138e6836126f0565b9250826138f6576138f56137db565b5b828206905092915050565b600081549050919050565b60008190508160005260206000209050919050565b60008160001c9050919050565b600060ff82169050919050565b600061394e61394983613921565b61392e565b9050919050565b60008160081c9050919050565b600061397561397083613955565b61392e565b9050919050565b60008160101c9050919050565b600061399c6139978361397c565b61392e565b9050919050565b60008160181c9050919050565b60006139c36139be836139a3565b61392e565b9050919050565b60008160201c9050919050565b60006139ea6139e5836139ca565b61392e565b9050919050565b60008160281c9050919050565b6000613a11613a0c836139f1565b61392e565b9050919050565b60008160301c9050919050565b6000613a38613a3383613a18565b61392e565b9050919050565b60008160381c9050919050565b6000613a5f613a5a83613a3f565b61392e565b9050919050565b60008160401c9050919050565b6000613a86613a8183613a66565b61392e565b9050919050565b60008160481c9050919050565b6000613aad613aa883613a8d565b61392e565b9050919050565b60008160501c9050919050565b6000613ad4613acf83613ab4565b61392e565b9050919050565b60008160581c9050919050565b6000613afb613af683613adb565b61392e565b9050919050565b60008160601c9050919050565b6000613b22613b1d83613b02565b61392e565b9050919050565b60008160681c9050919050565b6000613b49613b4483613b29565b61392e565b9050919050565b60008160701c9050919050565b6000613b70613b6b83613b50565b61392e565b9050919050565b60008160781c9050919050565b6000613b97613b9283613b77565b61392e565b9050919050565b60008160801c9050919050565b6000613bbe613bb983613b9e565b61392e565b9050919050565b60008160881c9050919050565b6000613be5613be083613bc5565b61392e565b9050919050565b60008160901c9050919050565b6000613c0c613c0783613bec565b61392e565b9050919050565b60008160981c9050919050565b6000613c33613c2e83613c13565b61392e565b9050919050565b60008160a01c9050919050565b6000613c5a613c5583613c3a565b61392e565b9050919050565b60008160a81c9050919050565b6000613c81613c7c83613c61565b61392e565b9050919050565b60008160b01c9050919050565b6000613ca8613ca383613c88565b61392e565b9050919050565b60008160b81c9050919050565b6000613ccf613cca83613caf565b61392e565b9050919050565b60008160c01c9050919050565b6000613cf6613cf183613cd6565b61392e565b9050919050565b60008160c81c9050919050565b6000613d1d613d1883613cfd565b61392e565b9050919050565b60008160d01c9050919050565b6000613d44613d3f83613d24565b61392e565b9050919050565b60008160d81c9050919050565b6000613d6b613d6683613d4b565b61392e565b9050919050565b60008160e01c9050919050565b6000613d92613d8d83613d72565b61392e565b9050919050565b60008160e81c9050919050565b6000613db9613db483613d99565b61392e565b9050919050565b60008160f01c9050919050565b6000613de0613ddb83613dc0565b61392e565b9050919050565b60008160f81c9050919050565b6000613e07613e0283613de7565b61392e565b9050919050565b6000613e1982613901565b613e238185612af2565b935083613e2f8461390c565b600060011561415c575b8360016020038201101561415b578154613e5b88613e568361393b565b612b13565b602088019750613e7388613e6e83613962565b612b13565b602088019750613e8b88613e8683613989565b612b13565b602088019750613ea388613e9e836139b0565b612b13565b602088019750613ebb88613eb6836139d7565b612b13565b602088019750613ed388613ece836139fe565b612b13565b602088019750613eeb88613ee683613a25565b612b13565b602088019750613f0388613efe83613a4c565b612b13565b602088019750613f1b88613f1683613a73565b612b13565b602088019750613f3388613f2e83613a9a565b612b13565b602088019750613f4b88613f4683613ac1565b612b13565b602088019750613f6388613f5e83613ae8565b612b13565b602088019750613f7b88613f7683613b0f565b612b13565b602088019750613f9388613f8e83613b36565b612b13565b602088019750613fab88613fa683613b5d565b612b13565b602088019750613fc388613fbe83613b84565b612b13565b602088019750613fdb88613fd683613bab565b612b13565b602088019750613ff388613fee83613bd2565b612b13565b60208801975061400b8861400683613bf9565b612b13565b6020880197506140238861401e83613c20565b612b13565b60208801975061403b8861403683613c47565b612b13565b6020880197506140538861404e83613c6e565b612b13565b60208801975061406b8861406683613c95565b612b13565b6020880197506140838861407e83613cbc565b612b13565b60208801975061409b8861409683613ce3565b612b13565b6020880197506140b3886140ae83613d0a565b612b13565b6020880197506140cb886140c683613d31565b612b13565b6020880197506140e3886140de83613d58565b612b13565b6020880197506140fb886140f683613d7f565b612b13565b6020880197506141138861410e83613da6565b612b13565b60208801975061412b8861412683613dcd565b612b13565b6020880197506141438861413e83613df4565b612b13565b60208801975060018301925050602081019050613e39565b5b6001156146475781548482101561418c5761417f8861417a8361393b565b612b13565b6020880197506001820191505b848210156141b3576141a6886141a183613962565b612b13565b6020880197506001820191505b848210156141da576141cd886141c883613989565b612b13565b6020880197506001820191505b84821015614201576141f4886141ef836139b0565b612b13565b6020880197506001820191505b848210156142285761421b88614216836139d7565b612b13565b6020880197506001820191505b8482101561424f576142428861423d836139fe565b612b13565b6020880197506001820191505b84821015614276576142698861426483613a25565b612b13565b6020880197506001820191505b8482101561429d576142908861428b83613a4c565b612b13565b6020880197506001820191505b848210156142c4576142b7886142b283613a73565b612b13565b6020880197506001820191505b848210156142eb576142de886142d983613a9a565b612b13565b6020880197506001820191505b84821015614312576143058861430083613ac1565b612b13565b6020880197506001820191505b848210156143395761432c8861432783613ae8565b612b13565b6020880197506001820191505b84821015614360576143538861434e83613b0f565b612b13565b6020880197506001820191505b848210156143875761437a8861437583613b36565b612b13565b6020880197506001820191505b848210156143ae576143a18861439c83613b5d565b612b13565b6020880197506001820191505b848210156143d5576143c8886143c383613b84565b612b13565b6020880197506001820191505b848210156143fc576143ef886143ea83613bab565b612b13565b6020880197506001820191505b84821015614423576144168861441183613bd2565b612b13565b6020880197506001820191505b8482101561444a5761443d8861443883613bf9565b612b13565b6020880197506001820191505b84821015614471576144648861445f83613c20565b612b13565b6020880197506001820191505b848210156144985761448b8861448683613c47565b612b13565b6020880197506001820191505b848210156144bf576144b2886144ad83613c6e565b612b13565b6020880197506001820191505b848210156144e6576144d9886144d483613c95565b612b13565b6020880197506001820191505b8482101561450d57614500886144fb83613cbc565b612b13565b6020880197506001820191505b84821015614534576145278861452283613ce3565b612b13565b6020880197506001820191505b8482101561455b5761454e8861454983613d0a565b612b13565b6020880197506001820191505b84821015614582576145758861457083613d31565b612b13565b6020880197506001820191505b848210156145a95761459c8861459783613d58565b612b13565b6020880197506001820191505b848210156145d0576145c3886145be83613d7f565b612b13565b6020880197506001820191505b848210156145f7576145ea886145e583613da6565b612b13565b6020880197506001820191505b8482101561461e576146118861460c83613dcd565b612b13565b6020880197506001820191505b84821015614645576146388861463383613df4565b612b13565b6020880197506001820191505b505b8694505050505092915050565b600060408201905061466960008301856126fa565b818103602083015261467b8184613e0e565b90509392505050565b60006080820190506146996000830187612e31565b6146a660208301866126fa565b6146b36040830185612c0c565b6146c060608301846126fa565b95945050505050565b6000819050919050565b6146e46146df82612c82565b6146c9565b82525050565b6000819050919050565b614705614700826126f0565b6146ea565b82525050565b600061471782856146d3565b60208201915061472782846146f4565b602082019150819050939250505056fea264697066735822122051de86d468c4fbb36d08122d3701b161f6b2ef4ab3a512d71246349a5698684564736f6c63430008120033",
  "immutableReferences": {
    "73": [
      {
        "length": 32,
        "start": 3545
      },
      {
        "length": 32,
        "start": 5607
      }
    ],
    "75": [
      {
        "length": 32,
        "start": 4411
      },
      {
        "length": 32,
        "start": 5667
      }
    ]
  },
  "source": "// SPDX-License-Identifier: MIT\npragma solidity ^0.8.0;\n\nimport \"@openzeppelin/contracts/utils/math/SafeMath.sol\";\nimport \"@openzeppelin/contracts/access/Ownable.sol\";\nimport \"@chainlink/contracts/src/v0.8/VRFConsumerBase.sol\";\nimport \"./interfaces/ILottoToken.sol\";\n\ncontract LuckyShiba is VRFConsumerBase, Ownable {\n    using SafeMath for uint256;\n\n    struct Round {\n        uint256 roundId;\n        uint256 ticketCount;\n        uint8[] winningNumbers;\n        uint256 drawnAt;\n        uint256 prizePool;\n        mapping(uint256 => address[]) winners;\n        mapping(address => uint256[]) userTickets;\n        mapping(uint256 => address payable) tickets;\n        mapping(uint256 => uint8[]) ticketNumbers;\n    }\n\n    ILottoToken token;\n\n    bytes32 private keyHash;\n    uint256 private fee;\n\n    bytes32 public lastRequestId;\n    uint256 public randomResult;\n\n    uint256 public ticketPrice;\n    uint256 public roundId;\n\n    mapping(uint256 => Round) public rounds;\n\n    event TicketPurchased(\n        address indexed buyer,\n        uint256 ticketCount,\n        uint8[] numbers\n    );\n    event WinningNumbers(uint256 roundId, uint8[] numbers);\n    event PrizeClaimed(address indexed winner, uint256 amount);\n    event TokenHolderPrizeClaimed(address indexed winner, uint256 amount);\n    event RequestFulfilled(bytes32 requestId, uint256 randomness);\n\n    constructor(\n        uint256 _ticketPrice,\n        address _lottoToken,\n        address _vrfCoordinator,\n        address _linkToken,\n        bytes32 _keyHash,\n        uint256 _fee\n    ) VRFConsumerBase(_vrfCoordinator, _linkToken) {\n        ticketPrice = _ticketPrice;\n        token = ILottoToken(_lottoToken);\n        keyHash = _keyHash;\n        fee = _fee;\n        roundId = 1;\n    }\n\n    // Update the ticket price (only callable by the contract owner)\n    function updateTicketPrice(uint256 newTicketPrice) public onlyOwner {\n        require(newTicketPrice > 0, \"New ticket price must be greater than 0.\");\n        ticketPrice = newTicketPrice;\n    }\n\n    // Buy a ticket with 6 unique numbers, mint a token for the buyer\n    function buyTicket(uint8[] memory numbers) public payable {\n        require(msg.value == ticketPrice, \"Incorrect ticket price.\");\n        require(\n            numbers.length == 6,\n            \"You must provide exactly 6 unique numbers.\"\n        );\n\n        // Sort the numbers in ascending order\n        uint8[] memory sortedNumbers = _sortNumbers(numbers);\n\n        // Validate the provided numbers\n        for (uint256 i = 0; i < sortedNumbers.length; i++) {\n            require(\n                sortedNumbers[i] >= 1 && sortedNumbers[i] <= 50,\n                \"Numbers must be between 1 and 50.\"\n            );\n            if (i < sortedNumbers.length - 1) {\n                require(\n                    sortedNumbers[i] != sortedNumbers[i + 1],\n                    \"Numbers must be unique.\"\n                );\n            }\n        }\n\n        rounds[roundId].ticketCount += 1;\n        uint256 newTicketCount = rounds[roundId].ticketCount;\n        rounds[roundId].tickets[newTicketCount] = payable(msg.sender);\n        rounds[roundId].ticketNumbers[newTicketCount] = sortedNumbers;\n        rounds[roundId].userTickets[msg.sender].push(newTicketCount);\n        emit TicketPurchased(msg.sender, newTicketCount, sortedNumbers);\n\n        // Mint a token for the user\n        token.mint(msg.sender, 1 ether);\n    }\n\n    function getTicketCount() public view returns (uint256) {\n        return rounds[roundId].ticketCount;\n    }\n\n    function getTicketsByAddress(\n        address account\n    ) public view returns (uint256[] memory) {\n        return rounds[roundId].userTickets[account];\n    }\n\n    function getTicketNumbers(\n        uint256 ticketNr\n    ) public view returns (uint8[] memory) {\n        return rounds[roundId].ticketNumbers[ticketNr];\n    }\n\n    function getRoundWinningNumbers(\n        uint256 roundNr\n    ) public view returns (uint8[] memory) {\n        return rounds[roundNr].winningNumbers;\n    }\n\n    function getRound(\n        uint256 roundNr\n    )\n        public\n        view\n        returns (\n            uint256 ticketCount,\n            uint256 drawnAt,\n            uint256 prizePool,\n            uint8[] memory\n        )\n    {\n        return (\n            rounds[roundNr].ticketCount,\n            rounds[roundNr].drawnAt,\n            rounds[roundNr].prizePool,\n            rounds[roundNr].winningNumbers\n        );\n    }\n\n    function getRoundWinners(\n        uint256 roundNr\n    )\n        public\n        view\n        returns (\n            address[] memory matchOne,\n            address[] memory matchTwo,\n            address[] memory matchThree,\n            address[] memory matchFour,\n            address[] memory matchFive,\n            address[] memory matchSix\n        )\n    {\n        return (\n            rounds[roundNr].winners[1],\n            rounds[roundNr].winners[2],\n            rounds[roundNr].winners[3],\n            rounds[roundNr].winners[4],\n            rounds[roundNr].winners[5],\n            rounds[roundNr].winners[6]\n        );\n    }\n\n    // Draw winning numbers using Chainlink VRF\n    function drawWinningNumbers() external onlyOwner {\n        require(rounds[roundId].ticketCount > 0, \"No tickets have been sold.\");\n        require(\n            rounds[roundId].winningNumbers.length == 0,\n            \"Winning numbers have already been drawn.\"\n        );\n        require(\n            LINK.balanceOf(address(this)) >= fee,\n            \"Not enough LINK to pay the fee.\"\n        );\n\n        lastRequestId = requestRandomness(keyHash, fee);\n    }\n\n    // Fulfill randomness from Chainlink VRF and distribute prizes\n    function fulfillRandomness(\n        bytes32 requestId,\n        uint256 randomness\n    ) internal override {\n        require(lastRequestId == requestId, \"Wrong requestId provided!\");\n\n        randomResult = randomness;\n\n        // Generate unique winning numbers\n        uint8[] memory usedNumbers = new uint8[](50);\n        uint256 usedCount = 0;\n        uint256 generatedNumbers = 0;\n        while (generatedNumbers < 6) {\n            uint8 newNumber = uint8((randomResult % 50) + 1);\n            randomResult /= 50;\n\n            bool isNumberUsed = false;\n            for (uint256 i = 0; i < usedCount; i++) {\n                if (usedNumbers[i] == newNumber) {\n                    isNumberUsed = true;\n                    break;\n                }\n            }\n\n            if (!isNumberUsed) {\n                usedNumbers[usedCount++] = newNumber;\n                rounds[roundId].winningNumbers.push(newNumber);\n                generatedNumbers++;\n            }\n        }\n\n        // Sort winning numbers\n        rounds[roundId].winningNumbers = _sortNumbers(\n            rounds[roundId].winningNumbers\n        );\n        emit WinningNumbers(roundId, rounds[roundId].winningNumbers);\n    }\n\n    function distributePrizes() external onlyOwner {\n        require(\n            rounds[roundId].winningNumbers.length == 6,\n            \"Winning numbers have not been drawn yet.\"\n        );\n        // Update the winners\n        _updateWinners();\n\n        // Calculate and distribute prizes\n        _distributePrizes();\n\n        // Start a new round\n        _nextRound();\n    }\n\n    // Distribute prizes among the winners\n    function _distributePrizes() private {\n        // Send 10% of the current contract balance to the contract owner\n        uint256 totalPrizePool = address(this).balance;\n        uint256 prizePool = totalPrizePool;\n        uint256 ownerShare = (prizePool * 10) / 100;\n        payable(owner()).transfer(ownerShare);\n\n        // Send out the prizes to the winners\n        for (uint8 correctGuesses = 6; correctGuesses >= 1; correctGuesses--) {\n            uint256 winnerCount = rounds[roundId]\n                .winners[correctGuesses]\n                .length;\n            if (winnerCount > 0) {\n                uint256 prizePerWinner = _calculatePrize(\n                    totalPrizePool,\n                    correctGuesses\n                ) / winnerCount;\n\n                for (uint256 i = 0; i < winnerCount; i++) {\n                    address winner = rounds[roundId].winners[correctGuesses][i];\n                    payable(winner).transfer(prizePerWinner);\n                    emit PrizeClaimed(winner, prizePerWinner);\n                }\n            }\n        }\n\n        // Distribute token holder prizes\n        _distributeTokenHolderPrizes(totalPrizePool);\n\n        // Set the round details\n        rounds[roundId].drawnAt = block.timestamp;\n        rounds[roundId].prizePool = totalPrizePool;\n    }\n\n    function _updateWinners() private {\n        for (uint256 i = 1; i <= rounds[roundId].ticketCount; i++) {\n            uint256 correctGuesses = _getCorrectGuesses(i);\n            if (correctGuesses >= 1) {\n                rounds[roundId].winners[correctGuesses].push(\n                    rounds[roundId].tickets[i]\n                );\n            }\n        }\n    }\n\n    function _distributeTokenHolderPrizes(uint256 totalPrizePool) private {\n        uint256 tokenHolderPrizePool = (totalPrizePool * 5) / 100;\n        uint256 totalTokensHeldByPlayers = 0;\n\n        // Calculate the total tokens held by players who participated in the game\n        for (uint256 i = 1; i <= rounds[roundId].ticketCount; i++) {\n            address player = rounds[roundId].tickets[i];\n            uint256 playerTokenBalance = token.balanceOf(player);\n            totalTokensHeldByPlayers = totalTokensHeldByPlayers.add(\n                playerTokenBalance\n            );\n        }\n\n        // Distribute the token holder prize pool based on the number of tokens held by each player\n        for (uint256 i = 1; i <= rounds[roundId].ticketCount; i++) {\n            address player = rounds[roundId].tickets[i];\n            uint256 playerTokenBalance = token.balanceOf(player);\n            if (playerTokenBalance > 0) {\n                uint256 playerPrize = (tokenHolderPrizePool *\n                    playerTokenBalance) / totalTokensHeldByPlayers;\n                payable(player).transfer(playerPrize);\n                emit TokenHolderPrizeClaimed(player, playerPrize);\n            }\n        }\n    }\n\n    // Get the count of correct guesses for a given ticket\n    function _getCorrectGuesses(\n        uint256 ticketNumber\n    ) private view returns (uint256) {\n        uint8[] memory userNumbers = rounds[roundId].ticketNumbers[\n            ticketNumber\n        ];\n        uint256 correctGuesses = 0;\n        uint8[] memory winningNumbers = rounds[roundId].winningNumbers;\n\n        for (uint256 i = 0; i < userNumbers.length; i++) {\n            for (uint256 j = 0; j < winningNumbers.length; j++) {\n                if (userNumbers[i] == winningNumbers[j]) {\n                    correctGuesses++;\n                    break;\n                }\n            }\n        }\n\n        return correctGuesses;\n    }\n\n    // Calculate the prize amount based on the number of correct guesses\n    function _calculatePrize(\n        uint256 prizePool,\n        uint256 correctGuesses\n    ) private view returns (uint256) {\n        uint256 winnerCount;\n\n        if (correctGuesses == 6) {\n            winnerCount = _getWinnerCount(6);\n            return (prizePool * 40) / 100 / winnerCount; // 40% of the prize pool for 6 correct guesses\n        } else if (correctGuesses == 5) {\n            winnerCount = _getWinnerCount(5);\n            return (prizePool * 25) / 100 / winnerCount; // 20% of the prize pool for 5 correct guesses\n        } else if (correctGuesses == 4) {\n            winnerCount = _getWinnerCount(4);\n            return (prizePool * 10) / 100 / winnerCount; // 10% of the prize pool for 4 correct guesses\n        } else if (correctGuesses == 3) {\n            winnerCount = _getWinnerCount(3);\n            return (prizePool * 5) / 100 / winnerCount; // 5% of the prize pool for 3 correct guesses\n        } else if (correctGuesses == 2) {\n            winnerCount = _getWinnerCount(2);\n            return (prizePool * 3) / 100 / winnerCount; // 3% of the prize pool for 2 correct guesses\n        } else if (correctGuesses == 1) {\n            winnerCount = _getWinnerCount(1);\n            return (prizePool * 2) / 100 / winnerCount; // 2% of the prize pool for 1 correct guesses\n        }\n\n        return 0;\n    }\n\n    // Get the count of winners for a specific category (e.g., 6 correct guesses, 5 correct guesses, etc.)\n    function _getWinnerCount(\n        uint256 correctGuesses\n    ) private view returns (uint256) {\n        uint256 winnerCount = 0;\n\n        for (uint256 i = 1; i <= rounds[roundId].ticketCount; i++) {\n            if (_getCorrectGuesses(i) == correctGuesses) {\n                winnerCount++;\n            }\n        }\n\n        return winnerCount;\n    }\n\n    function _nextRound() private {\n        roundId++;\n    }\n\n    // Sorts an array of numbers in ascending order using Bubble Sort\n    function _sortNumbers(\n        uint8[] memory numbers\n    ) private pure returns (uint8[] memory) {\n        for (uint256 i = 0; i < numbers.length - 1; i++) {\n            for (uint256 j = 0; j < numbers.length - i - 1; j++) {\n                if (numbers[j] > numbers[j + 1]) {\n                    uint8 temp = numbers[j];\n                    numbers[j] = numbers[j + 1];\n                    numbers[j + 1] = temp;\n                }\n            }\n        }\n        return numbers;\n    }\n}\n",
  "sourcePath": "/home/d4fttasiii/git/gpt-lotto/src/lotto-contract/contracts/LuckyShiba.sol",
  "compiler": {
    "name": "solc",
    "version": "0.8.18+commit.87f61d96.Emscripten.clang"
  },
  "schemaVersion": "3.4.11",
  "updatedAt": "2023-04-21T10:12:58.919Z",
  "devdoc": {
    "kind": "dev",
    "methods": {
      "owner()": {
        "details": "Returns the address of the current owner."
      },
      "renounceOwnership()": {
        "details": "Leaves the contract without owner. It will not be possible to call `onlyOwner` functions anymore. Can only be called by the current owner. NOTE: Renouncing ownership will leave the contract without an owner, thereby removing any functionality that is only available to the owner."
      },
      "transferOwnership(address)": {
        "details": "Transfers ownership of the contract to a new account (`newOwner`). Can only be called by the current owner."
      }
    },
    "version": 1
  },
  "userdoc": {
    "kind": "user",
    "methods": {},
    "version": 1
  }
}