{
  "contractName": "LuckyShibaToken",
  "abi": [
    {
      "inputs": [
        {
          "internalType": "uint256",
          "name": "totalSupply",
          "type": "uint256"
        },
        {
          "internalType": "address",
          "name": "initialTokenHolder",
          "type": "address"
        }
      ],
      "stateMutability": "nonpayable",
      "type": "constructor"
    },
    {
      "anonymous": false,
      "inputs": [
        {
          "indexed": true,
          "internalType": "address",
          "name": "owner",
          "type": "address"
        },
        {
          "indexed": true,
          "internalType": "address",
          "name": "spender",
          "type": "address"
        },
        {
          "indexed": false,
          "internalType": "uint256",
          "name": "value",
          "type": "uint256"
        }
      ],
      "name": "Approval",
      "type": "event"
    },
    {
      "anonymous": false,
      "inputs": [
        {
          "indexed": true,
          "internalType": "address",
          "name": "previousOwner",
          "type": "address"
        },
        {
          "indexed": true,
          "internalType": "address",
          "name": "newOwner",
          "type": "address"
        }
      ],
      "name": "OwnershipTransferred",
      "type": "event"
    },
    {
      "anonymous": false,
      "inputs": [
        {
          "indexed": true,
          "internalType": "address",
          "name": "from",
          "type": "address"
        },
        {
          "indexed": true,
          "internalType": "address",
          "name": "to",
          "type": "address"
        },
        {
          "indexed": false,
          "internalType": "uint256",
          "name": "value",
          "type": "uint256"
        }
      ],
      "name": "Transfer",
      "type": "event"
    },
    {
      "inputs": [
        {
          "internalType": "address",
          "name": "owner",
          "type": "address"
        },
        {
          "internalType": "address",
          "name": "spender",
          "type": "address"
        }
      ],
      "name": "allowance",
      "outputs": [
        {
          "internalType": "uint256",
          "name": "",
          "type": "uint256"
        }
      ],
      "stateMutability": "view",
      "type": "function"
    },
    {
      "inputs": [
        {
          "internalType": "address",
          "name": "spender",
          "type": "address"
        },
        {
          "internalType": "uint256",
          "name": "amount",
          "type": "uint256"
        }
      ],
      "name": "approve",
      "outputs": [
        {
          "internalType": "bool",
          "name": "",
          "type": "bool"
        }
      ],
      "stateMutability": "nonpayable",
      "type": "function"
    },
    {
      "inputs": [
        {
          "internalType": "address",
          "name": "account",
          "type": "address"
        }
      ],
      "name": "balanceOf",
      "outputs": [
        {
          "internalType": "uint256",
          "name": "",
          "type": "uint256"
        }
      ],
      "stateMutability": "view",
      "type": "function"
    },
    {
      "inputs": [],
      "name": "decimals",
      "outputs": [
        {
          "internalType": "uint8",
          "name": "",
          "type": "uint8"
        }
      ],
      "stateMutability": "view",
      "type": "function"
    },
    {
      "inputs": [
        {
          "internalType": "address",
          "name": "spender",
          "type": "address"
        },
        {
          "internalType": "uint256",
          "name": "subtractedValue",
          "type": "uint256"
        }
      ],
      "name": "decreaseAllowance",
      "outputs": [
        {
          "internalType": "bool",
          "name": "",
          "type": "bool"
        }
      ],
      "stateMutability": "nonpayable",
      "type": "function"
    },
    {
      "inputs": [
        {
          "internalType": "address",
          "name": "spender",
          "type": "address"
        },
        {
          "internalType": "uint256",
          "name": "addedValue",
          "type": "uint256"
        }
      ],
      "name": "increaseAllowance",
      "outputs": [
        {
          "internalType": "bool",
          "name": "",
          "type": "bool"
        }
      ],
      "stateMutability": "nonpayable",
      "type": "function"
    },
    {
      "inputs": [],
      "name": "maximumSupply",
      "outputs": [
        {
          "internalType": "uint256",
          "name": "",
          "type": "uint256"
        }
      ],
      "stateMutability": "view",
      "type": "function"
    },
    {
      "inputs": [],
      "name": "minter",
      "outputs": [
        {
          "internalType": "address",
          "name": "",
          "type": "address"
        }
      ],
      "stateMutability": "view",
      "type": "function"
    },
    {
      "inputs": [],
      "name": "name",
      "outputs": [
        {
          "internalType": "string",
          "name": "",
          "type": "string"
        }
      ],
      "stateMutability": "view",
      "type": "function"
    },
    {
      "inputs": [],
      "name": "owner",
      "outputs": [
        {
          "internalType": "address",
          "name": "",
          "type": "address"
        }
      ],
      "stateMutability": "view",
      "type": "function"
    },
    {
      "inputs": [],
      "name": "renounceOwnership",
      "outputs": [],
      "stateMutability": "nonpayable",
      "type": "function"
    },
    {
      "inputs": [],
      "name": "symbol",
      "outputs": [
        {
          "internalType": "string",
          "name": "",
          "type": "string"
        }
      ],
      "stateMutability": "view",
      "type": "function"
    },
    {
      "inputs": [],
      "name": "totalSupply",
      "outputs": [
        {
          "internalType": "uint256",
          "name": "",
          "type": "uint256"
        }
      ],
      "stateMutability": "view",
      "type": "function"
    },
    {
      "inputs": [
        {
          "internalType": "address",
          "name": "to",
          "type": "address"
        },
        {
          "internalType": "uint256",
          "name": "amount",
          "type": "uint256"
        }
      ],
      "name": "transfer",
      "outputs": [
        {
          "internalType": "bool",
          "name": "",
          "type": "bool"
        }
      ],
      "stateMutability": "nonpayable",
      "type": "function"
    },
    {
      "inputs": [
        {
          "internalType": "address",
          "name": "from",
          "type": "address"
        },
        {
          "internalType": "address",
          "name": "to",
          "type": "address"
        },
        {
          "internalType": "uint256",
          "name": "amount",
          "type": "uint256"
        }
      ],
      "name": "transferFrom",
      "outputs": [
        {
          "internalType": "bool",
          "name": "",
          "type": "bool"
        }
      ],
      "stateMutability": "nonpayable",
      "type": "function"
    },
    {
      "inputs": [
        {
          "internalType": "address",
          "name": "newOwner",
          "type": "address"
        }
      ],
      "name": "transferOwnership",
      "outputs": [],
      "stateMutability": "nonpayable",
      "type": "function"
    },
    {
      "inputs": [
        {
          "internalType": "address",
          "name": "_minter",
          "type": "address"
        }
      ],
      "name": "setMinter",
      "outputs": [],
      "stateMutability": "nonpayable",
      "type": "function"
    },
    {
      "inputs": [
        {
          "internalType": "address",
          "name": "to",
          "type": "address"
        },
        {
          "internalType": "uint256",
          "name": "amount",
          "type": "uint256"
        }
      ],
      "name": "mint",
      "outputs": [],
      "stateMutability": "nonpayable",
      "type": "function"
    }
  ],
  "bytecode": "0x60806040523480156200001157600080fd5b506040516200249538038062002495833981810160405281019062000037919062000416565b6040518060400160405280600f81526020017f4c75636b795368696261546f6b656e00000000000000000000000000000000008152506040518060400160405280600381526020017f4c535400000000000000000000000000000000000000000000000000000000008152508160039081620000b49190620006cd565b508060049081620000c69190620006cd565b505050620000e9620000dd6200012c60201b60201c565b6200013460201b60201c565b8160078190555060006007600a8462000103919062000812565b6200010f91906200084a565b9050620001238282620001fa60201b60201c565b50505062000981565b600033905090565b6000600560009054906101000a900473ffffffffffffffffffffffffffffffffffffffff16905081600560006101000a81548173ffffffffffffffffffffffffffffffffffffffff021916908373ffffffffffffffffffffffffffffffffffffffff1602179055508173ffffffffffffffffffffffffffffffffffffffff168173ffffffffffffffffffffffffffffffffffffffff167f8be0079c531659141344cd1fd0a4f28419497f9722a3daafe3b4186f6b6457e060405160405180910390a35050565b600073ffffffffffffffffffffffffffffffffffffffff168273ffffffffffffffffffffffffffffffffffffffff16036200026c576040517f08c379a00000000000000000000000000000000000000000000000000000000081526004016200026390620008f6565b60405180910390fd5b62000280600083836200036760201b60201c565b806002600082825462000294919062000918565b92505081905550806000808473ffffffffffffffffffffffffffffffffffffffff1673ffffffffffffffffffffffffffffffffffffffff168152602001908152602001600020600082825401925050819055508173ffffffffffffffffffffffffffffffffffffffff16600073ffffffffffffffffffffffffffffffffffffffff167fddf252ad1be2c89b69c2b068fc378daa952ba7f163c4a11628f55a4df523b3ef8360405162000347919062000964565b60405180910390a362000363600083836200036c60201b60201c565b5050565b505050565b505050565b600080fd5b6000819050919050565b6200038b8162000376565b81146200039757600080fd5b50565b600081519050620003ab8162000380565b92915050565b600073ffffffffffffffffffffffffffffffffffffffff82169050919050565b6000620003de82620003b1565b9050919050565b620003f081620003d1565b8114620003fc57600080fd5b50565b6000815190506200041081620003e5565b92915050565b6000806040838503121562000430576200042f62000371565b5b600062000440858286016200039a565b92505060206200045385828601620003ff565b9150509250929050565b600081519050919050565b7f4e487b7100000000000000000000000000000000000000000000000000000000600052604160045260246000fd5b7f4e487b7100000000000000000000000000000000000000000000000000000000600052602260045260246000fd5b60006002820490506001821680620004df57607f821691505b602082108103620004f557620004f462000497565b5b50919050565b60008190508160005260206000209050919050565b60006020601f8301049050919050565b600082821b905092915050565b6000600883026200055f7fffffffffffffffffffffffffffffffffffffffffffffffffffffffffffffffff8262000520565b6200056b868362000520565b95508019841693508086168417925050509392505050565b6000819050919050565b6000620005ae620005a8620005a28462000376565b62000583565b62000376565b9050919050565b6000819050919050565b620005ca836200058d565b620005e2620005d982620005b5565b8484546200052d565b825550505050565b600090565b620005f9620005ea565b62000606818484620005bf565b505050565b5b818110156200062e5762000622600082620005ef565b6001810190506200060c565b5050565b601f8211156200067d576200064781620004fb565b620006528462000510565b8101602085101562000662578190505b6200067a620006718562000510565b8301826200060b565b50505b505050565b600082821c905092915050565b6000620006a26000198460080262000682565b1980831691505092915050565b6000620006bd83836200068f565b9150826002028217905092915050565b620006d8826200045d565b67ffffffffffffffff811115620006f457620006f362000468565b5b620007008254620004c6565b6200070d82828562000632565b600060209050601f83116001811462000745576000841562000730578287015190505b6200073c8582620006af565b865550620007ac565b601f1984166200075586620004fb565b60005b828110156200077f5784890151825560018201915060208501945060208101905062000758565b868310156200079f57848901516200079b601f8916826200068f565b8355505b6001600288020188555050505b505050505050565b7f4e487b7100000000000000000000000000000000000000000000000000000000600052601260045260246000fd5b7f4e487b7100000000000000000000000000000000000000000000000000000000600052601160045260246000fd5b60006200081f8262000376565b91506200082c8362000376565b9250826200083f576200083e620007b4565b5b828204905092915050565b6000620008578262000376565b9150620008648362000376565b9250828202620008748162000376565b915082820484148315176200088e576200088d620007e3565b5b5092915050565b600082825260208201905092915050565b7f45524332303a206d696e7420746f20746865207a65726f206164647265737300600082015250565b6000620008de601f8362000895565b9150620008eb82620008a6565b602082019050919050565b600060208201905081810360008301526200091181620008cf565b9050919050565b6000620009258262000376565b9150620009328362000376565b92508282019050808211156200094d576200094c620007e3565b5b92915050565b6200095e8162000376565b82525050565b60006020820190506200097b600083018462000953565b92915050565b611b0480620009916000396000f3fe608060405234801561001057600080fd5b50600436106101165760003560e01c806370a08231116100a2578063a457c2d711610071578063a457c2d7146102d3578063a9059cbb14610303578063dd62ed3e14610333578063f2fde38b14610363578063fca3b5aa1461037f57610116565b806370a082311461025d578063715018a61461028d5780638da5cb5b1461029757806395d89b41146102b557610116565b806318160ddd116100e957806318160ddd146101a557806323b872dd146101c3578063313ce567146101f3578063395093511461021157806340c10f191461024157610116565b80630480e58b1461011b57806306fdde03146101395780630754617214610157578063095ea7b314610175575b600080fd5b61012361039b565b60405161013091906110b2565b60405180910390f35b6101416103a1565b60405161014e919061115d565b60405180910390f35b61015f610433565b60405161016c91906111c0565b60405180910390f35b61018f600480360381019061018a9190611238565b610459565b60405161019c9190611293565b60405180910390f35b6101ad61047c565b6040516101ba91906110b2565b60405180910390f35b6101dd60048036038101906101d891906112ae565b610486565b6040516101ea9190611293565b60405180910390f35b6101fb6104b5565b604051610208919061131d565b60405180910390f35b61022b60048036038101906102269190611238565b6104be565b6040516102389190611293565b60405180910390f35b61025b60048036038101906102569190611238565b6104f5565b005b61027760048036038101906102729190611338565b6105af565b60405161028491906110b2565b60405180910390f35b6102956105f7565b005b61029f61060b565b6040516102ac91906111c0565b60405180910390f35b6102bd610635565b6040516102ca919061115d565b60405180910390f35b6102ed60048036038101906102e89190611238565b6106c7565b6040516102fa9190611293565b60405180910390f35b61031d60048036038101906103189190611238565b61073e565b60405161032a9190611293565b60405180910390f35b61034d60048036038101906103489190611365565b610761565b60405161035a91906110b2565b60405180910390f35b61037d60048036038101906103789190611338565b6107e8565b005b61039960048036038101906103949190611338565b61086b565b005b60075481565b6060600380546103b0906113d4565b80601f01602080910402602001604051908101604052809291908181526020018280546103dc906113d4565b80156104295780601f106103fe57610100808354040283529160200191610429565b820191906000526020600020905b81548152906001019060200180831161040c57829003601f168201915b5050505050905090565b600660009054906101000a900473ffffffffffffffffffffffffffffffffffffffff1681565b600080610464610922565b905061047181858561092a565b600191505092915050565b6000600254905090565b600080610491610922565b905061049e858285610af3565b6104a9858585610b7f565b60019150509392505050565b60006012905090565b6000806104c9610922565b90506104ea8185856104db8589610761565b6104e59190611434565b61092a565b600191505092915050565b600660009054906101000a900473ffffffffffffffffffffffffffffffffffffffff1673ffffffffffffffffffffffffffffffffffffffff163373ffffffffffffffffffffffffffffffffffffffff1614610585576040517f08c379a000000000000000000000000000000000000000000000000000000000815260040161057c906114da565b60405180910390fd5b61058d61047c565b816105989190611434565b600754106105ab576105aa8282610df5565b5b5050565b60008060008373ffffffffffffffffffffffffffffffffffffffff1673ffffffffffffffffffffffffffffffffffffffff168152602001908152602001600020549050919050565b6105ff610f4b565b6106096000610fc9565b565b6000600560009054906101000a900473ffffffffffffffffffffffffffffffffffffffff16905090565b606060048054610644906113d4565b80601f0160208091040260200160405190810160405280929190818152602001828054610670906113d4565b80156106bd5780601f10610692576101008083540402835291602001916106bd565b820191906000526020600020905b8154815290600101906020018083116106a057829003601f168201915b5050505050905090565b6000806106d2610922565b905060006106e08286610761565b905083811015610725576040517f08c379a000000000000000000000000000000000000000000000000000000000815260040161071c9061156c565b60405180910390fd5b610732828686840361092a565b60019250505092915050565b600080610749610922565b9050610756818585610b7f565b600191505092915050565b6000600160008473ffffffffffffffffffffffffffffffffffffffff1673ffffffffffffffffffffffffffffffffffffffff16815260200190815260200160002060008373ffffffffffffffffffffffffffffffffffffffff1673ffffffffffffffffffffffffffffffffffffffff16815260200190815260200160002054905092915050565b6107f0610f4b565b600073ffffffffffffffffffffffffffffffffffffffff168173ffffffffffffffffffffffffffffffffffffffff160361085f576040517f08c379a0000000000000000000000000000000000000000000000000000000008152600401610856906115fe565b60405180910390fd5b61086881610fc9565b50565b610873610f4b565b600660149054906101000a900460ff16156108c3576040517f08c379a00000000000000000000000000000000000000000000000000000000081526004016108ba90611690565b60405180910390fd5b80600660006101000a81548173ffffffffffffffffffffffffffffffffffffffff021916908373ffffffffffffffffffffffffffffffffffffffff1602179055506001600660146101000a81548160ff02191690831515021790555050565b600033905090565b600073ffffffffffffffffffffffffffffffffffffffff168373ffffffffffffffffffffffffffffffffffffffff1603610999576040517f08c379a000000000000000000000000000000000000000000000000000000000815260040161099090611722565b60405180910390fd5b600073ffffffffffffffffffffffffffffffffffffffff168273ffffffffffffffffffffffffffffffffffffffff1603610a08576040517f08c379a00000000000000000000000000000000000000000000000000000000081526004016109ff906117b4565b60405180910390fd5b80600160008573ffffffffffffffffffffffffffffffffffffffff1673ffffffffffffffffffffffffffffffffffffffff16815260200190815260200160002060008473ffffffffffffffffffffffffffffffffffffffff1673ffffffffffffffffffffffffffffffffffffffff168152602001908152602001600020819055508173ffffffffffffffffffffffffffffffffffffffff168373ffffffffffffffffffffffffffffffffffffffff167f8c5be1e5ebec7d5bd14f71427d1e84f3dd0314c0f7b2291e5b200ac8c7c3b92583604051610ae691906110b2565b60405180910390a3505050565b6000610aff8484610761565b90507fffffffffffffffffffffffffffffffffffffffffffffffffffffffffffffffff8114610b795781811015610b6b576040517f08c379a0000000000000000000000000000000000000000000000000000000008152600401610b6290611820565b60405180910390fd5b610b78848484840361092a565b5b50505050565b600073ffffffffffffffffffffffffffffffffffffffff168373ffffffffffffffffffffffffffffffffffffffff1603610bee576040517f08c379a0000000000000000000000000000000000000000000000000000000008152600401610be5906118b2565b60405180910390fd5b600073ffffffffffffffffffffffffffffffffffffffff168273ffffffffffffffffffffffffffffffffffffffff1603610c5d576040517f08c379a0000000000000000000000000000000000000000000000000000000008152600401610c5490611944565b60405180910390fd5b610c6883838361108f565b60008060008573ffffffffffffffffffffffffffffffffffffffff1673ffffffffffffffffffffffffffffffffffffffff16815260200190815260200160002054905081811015610cee576040517f08c379a0000000000000000000000000000000000000000000000000000000008152600401610ce5906119d6565b60405180910390fd5b8181036000808673ffffffffffffffffffffffffffffffffffffffff1673ffffffffffffffffffffffffffffffffffffffff16815260200190815260200160002081905550816000808573ffffffffffffffffffffffffffffffffffffffff1673ffffffffffffffffffffffffffffffffffffffff168152602001908152602001600020600082825401925050819055508273ffffffffffffffffffffffffffffffffffffffff168473ffffffffffffffffffffffffffffffffffffffff167fddf252ad1be2c89b69c2b068fc378daa952ba7f163c4a11628f55a4df523b3ef84604051610ddc91906110b2565b60405180910390a3610def848484611094565b50505050565b600073ffffffffffffffffffffffffffffffffffffffff168273ffffffffffffffffffffffffffffffffffffffff1603610e64576040517f08c379a0000000000000000000000000000000000000000000000000000000008152600401610e5b90611a42565b60405180910390fd5b610e706000838361108f565b8060026000828254610e829190611434565b92505081905550806000808473ffffffffffffffffffffffffffffffffffffffff1673ffffffffffffffffffffffffffffffffffffffff168152602001908152602001600020600082825401925050819055508173ffffffffffffffffffffffffffffffffffffffff16600073ffffffffffffffffffffffffffffffffffffffff167fddf252ad1be2c89b69c2b068fc378daa952ba7f163c4a11628f55a4df523b3ef83604051610f3391906110b2565b60405180910390a3610f4760008383611094565b5050565b610f53610922565b73ffffffffffffffffffffffffffffffffffffffff16610f7161060b565b73ffffffffffffffffffffffffffffffffffffffff1614610fc7576040517f08c379a0000000000000000000000000000000000000000000000000000000008152600401610fbe90611aae565b60405180910390fd5b565b6000600560009054906101000a900473ffffffffffffffffffffffffffffffffffffffff16905081600560006101000a81548173ffffffffffffffffffffffffffffffffffffffff021916908373ffffffffffffffffffffffffffffffffffffffff1602179055508173ffffffffffffffffffffffffffffffffffffffff168173ffffffffffffffffffffffffffffffffffffffff167f8be0079c531659141344cd1fd0a4f28419497f9722a3daafe3b4186f6b6457e060405160405180910390a35050565b505050565b505050565b6000819050919050565b6110ac81611099565b82525050565b60006020820190506110c760008301846110a3565b92915050565b600081519050919050565b600082825260208201905092915050565b60005b838110156111075780820151818401526020810190506110ec565b60008484015250505050565b6000601f19601f8301169050919050565b600061112f826110cd565b61113981856110d8565b93506111498185602086016110e9565b61115281611113565b840191505092915050565b600060208201905081810360008301526111778184611124565b905092915050565b600073ffffffffffffffffffffffffffffffffffffffff82169050919050565b60006111aa8261117f565b9050919050565b6111ba8161119f565b82525050565b60006020820190506111d560008301846111b1565b92915050565b600080fd5b6111e98161119f565b81146111f457600080fd5b50565b600081359050611206816111e0565b92915050565b61121581611099565b811461122057600080fd5b50565b6000813590506112328161120c565b92915050565b6000806040838503121561124f5761124e6111db565b5b600061125d858286016111f7565b925050602061126e85828601611223565b9150509250929050565b60008115159050919050565b61128d81611278565b82525050565b60006020820190506112a86000830184611284565b92915050565b6000806000606084860312156112c7576112c66111db565b5b60006112d5868287016111f7565b93505060206112e6868287016111f7565b92505060406112f786828701611223565b9150509250925092565b600060ff82169050919050565b61131781611301565b82525050565b6000602082019050611332600083018461130e565b92915050565b60006020828403121561134e5761134d6111db565b5b600061135c848285016111f7565b91505092915050565b6000806040838503121561137c5761137b6111db565b5b600061138a858286016111f7565b925050602061139b858286016111f7565b9150509250929050565b7f4e487b7100000000000000000000000000000000000000000000000000000000600052602260045260246000fd5b600060028204905060018216806113ec57607f821691505b6020821081036113ff576113fe6113a5565b5b50919050565b7f4e487b7100000000000000000000000000000000000000000000000000000000600052601160045260246000fd5b600061143f82611099565b915061144a83611099565b925082820190508082111561146257611461611405565b5b92915050565b7f4c75636b795368696261546f6b656e3a2063616c6c6572206973206e6f74207460008201527f6865206d696e7465720000000000000000000000000000000000000000000000602082015250565b60006114c46029836110d8565b91506114cf82611468565b604082019050919050565b600060208201905081810360008301526114f3816114b7565b9050919050565b7f45524332303a2064656372656173656420616c6c6f77616e63652062656c6f7760008201527f207a65726f000000000000000000000000000000000000000000000000000000602082015250565b60006115566025836110d8565b9150611561826114fa565b604082019050919050565b6000602082019050818103600083015261158581611549565b9050919050565b7f4f776e61626c653a206e6577206f776e657220697320746865207a65726f206160008201527f6464726573730000000000000000000000000000000000000000000000000000602082015250565b60006115e86026836110d8565b91506115f38261158c565b604082019050919050565b60006020820190508181036000830152611617816115db565b9050919050565b7f4c75636b795368696261546f6b656e3a206d696e7465722063616e206f6e6c7960008201527f20626520736574206f6e63650000000000000000000000000000000000000000602082015250565b600061167a602c836110d8565b91506116858261161e565b604082019050919050565b600060208201905081810360008301526116a98161166d565b9050919050565b7f45524332303a20617070726f76652066726f6d20746865207a65726f2061646460008201527f7265737300000000000000000000000000000000000000000000000000000000602082015250565b600061170c6024836110d8565b9150611717826116b0565b604082019050919050565b6000602082019050818103600083015261173b816116ff565b9050919050565b7f45524332303a20617070726f766520746f20746865207a65726f20616464726560008201527f7373000000000000000000000000000000000000000000000000000000000000602082015250565b600061179e6022836110d8565b91506117a982611742565b604082019050919050565b600060208201905081810360008301526117cd81611791565b9050919050565b7f45524332303a20696e73756666696369656e7420616c6c6f77616e6365000000600082015250565b600061180a601d836110d8565b9150611815826117d4565b602082019050919050565b60006020820190508181036000830152611839816117fd565b9050919050565b7f45524332303a207472616e736665722066726f6d20746865207a65726f20616460008201527f6472657373000000000000000000000000000000000000000000000000000000602082015250565b600061189c6025836110d8565b91506118a782611840565b604082019050919050565b600060208201905081810360008301526118cb8161188f565b9050919050565b7f45524332303a207472616e7366657220746f20746865207a65726f206164647260008201527f6573730000000000000000000000000000000000000000000000000000000000602082015250565b600061192e6023836110d8565b9150611939826118d2565b604082019050919050565b6000602082019050818103600083015261195d81611921565b9050919050565b7f45524332303a207472616e7366657220616d6f756e742065786365656473206260008201527f616c616e63650000000000000000000000000000000000000000000000000000602082015250565b60006119c06026836110d8565b91506119cb82611964565b604082019050919050565b600060208201905081810360008301526119ef816119b3565b9050919050565b7f45524332303a206d696e7420746f20746865207a65726f206164647265737300600082015250565b6000611a2c601f836110d8565b9150611a37826119f6565b602082019050919050565b60006020820190508181036000830152611a5b81611a1f565b9050919050565b7f4f776e61626c653a2063616c6c6572206973206e6f7420746865206f776e6572600082015250565b6000611a986020836110d8565b9150611aa382611a62565b602082019050919050565b60006020820190508181036000830152611ac781611a8b565b905091905056fea2646970667358221220d8b2bccfdee570aa6a417767cd2658a5c60eb263b064309826dfd2cd43ec0e0064736f6c63430008130033",
  "immutableReferences": {},
  "source": "// SPDX-License-Identifier: MIT\npragma solidity ^0.8.0;\n\nimport \"@openzeppelin/contracts/token/ERC20/ERC20.sol\";\nimport \"@openzeppelin/contracts/access/Ownable.sol\";\nimport \"./interfaces/ILottoToken.sol\";\n\ncontract LuckyShibaToken is ERC20, Ownable, ILottoToken {\n    address public minter;\n    bool private _minterHasBeenSet;\n    uint256 public maximumSupply;\n\n    constructor(\n        uint256 totalSupply,\n        address initialTokenHolder\n    ) ERC20(\"LuckyShibaToken\", \"LST\") {\n        maximumSupply = totalSupply;\n\n        // Calculate 70% of the total supply\n        uint256 initialSupply = (totalSupply / 10) * 7;\n\n        // Mint 70% of the total supply and send it to the initialTokenHolder\n        _mint(initialTokenHolder, initialSupply);\n    }\n\n    function setMinter(address _minter) external onlyOwner {\n        require(\n            !_minterHasBeenSet,\n            \"LuckyShibaToken: minter can only be set once\"\n        );\n        minter = _minter;\n        _minterHasBeenSet = true;\n    }\n\n    modifier onlyMinter() {\n        require(\n            msg.sender == minter,\n            \"LuckyShibaToken: caller is not the minter\"\n        );\n        _;\n    }\n\n    function mint(address to, uint256 amount) external onlyMinter {\n        if (maximumSupply >= amount + totalSupply()) {\n            _mint(to, amount);\n        }\n    }\n}\n",
  "sourcePath": "/home/d4fttasiii/git/gpt-lotto/src/lotto-contract/contracts/LuckyShibaToken.sol",
  "compiler": {
    "name": "solc",
    "version": "0.8.19+commit.7dd6d404.Emscripten.clang"
  },
  "schemaVersion": "3.4.11",
  "updatedAt": "2023-05-04T14:51:42.802Z",
  "devdoc": {
    "events": {
      "Approval(address,address,uint256)": {
        "details": "Emitted when the allowance of a `spender` for an `owner` is set by a call to {approve}. `value` is the new allowance."
      },
      "Transfer(address,address,uint256)": {
        "details": "Emitted when `value` tokens are moved from one account (`from`) to another (`to`). Note that `value` may be zero."
      }
    },
    "kind": "dev",
    "methods": {
      "allowance(address,address)": {
        "details": "See {IERC20-allowance}."
      },
      "approve(address,uint256)": {
        "details": "See {IERC20-approve}. NOTE: If `amount` is the maximum `uint256`, the allowance is not updated on `transferFrom`. This is semantically equivalent to an infinite approval. Requirements: - `spender` cannot be the zero address."
      },
      "balanceOf(address)": {
        "details": "See {IERC20-balanceOf}."
      },
      "decimals()": {
        "details": "Returns the number of decimals used to get its user representation. For example, if `decimals` equals `2`, a balance of `505` tokens should be displayed to a user as `5.05` (`505 / 10 ** 2`). Tokens usually opt for a value of 18, imitating the relationship between Ether and Wei. This is the value {ERC20} uses, unless this function is overridden; NOTE: This information is only used for _display_ purposes: it in no way affects any of the arithmetic of the contract, including {IERC20-balanceOf} and {IERC20-transfer}."
      },
      "decreaseAllowance(address,uint256)": {
        "details": "Atomically decreases the allowance granted to `spender` by the caller. This is an alternative to {approve} that can be used as a mitigation for problems described in {IERC20-approve}. Emits an {Approval} event indicating the updated allowance. Requirements: - `spender` cannot be the zero address. - `spender` must have allowance for the caller of at least `subtractedValue`."
      },
      "increaseAllowance(address,uint256)": {
        "details": "Atomically increases the allowance granted to `spender` by the caller. This is an alternative to {approve} that can be used as a mitigation for problems described in {IERC20-approve}. Emits an {Approval} event indicating the updated allowance. Requirements: - `spender` cannot be the zero address."
      },
      "name()": {
        "details": "Returns the name of the token."
      },
      "owner()": {
        "details": "Returns the address of the current owner."
      },
      "renounceOwnership()": {
        "details": "Leaves the contract without owner. It will not be possible to call `onlyOwner` functions anymore. Can only be called by the current owner. NOTE: Renouncing ownership will leave the contract without an owner, thereby removing any functionality that is only available to the owner."
      },
      "symbol()": {
        "details": "Returns the symbol of the token, usually a shorter version of the name."
      },
      "totalSupply()": {
        "details": "See {IERC20-totalSupply}."
      },
      "transfer(address,uint256)": {
        "details": "See {IERC20-transfer}. Requirements: - `to` cannot be the zero address. - the caller must have a balance of at least `amount`."
      },
      "transferFrom(address,address,uint256)": {
        "details": "See {IERC20-transferFrom}. Emits an {Approval} event indicating the updated allowance. This is not required by the EIP. See the note at the beginning of {ERC20}. NOTE: Does not update the allowance if the current allowance is the maximum `uint256`. Requirements: - `from` and `to` cannot be the zero address. - `from` must have a balance of at least `amount`. - the caller must have allowance for ``from``'s tokens of at least `amount`."
      },
      "transferOwnership(address)": {
        "details": "Transfers ownership of the contract to a new account (`newOwner`). Can only be called by the current owner."
      }
    },
    "version": 1
  },
  "userdoc": {
    "kind": "user",
    "methods": {},
    "version": 1
  }
}