{
  "contractName": "LuckyShiba",
  "abi": [
    {
      "inputs": [
        {
          "internalType": "uint256",
          "name": "_ticketPrice",
          "type": "uint256"
        },
        {
          "internalType": "address",
          "name": "_lottoToken",
          "type": "address"
        },
        {
          "internalType": "address",
          "name": "_application",
          "type": "address"
        },
        {
          "internalType": "address",
          "name": "_vrfCoordinator",
          "type": "address"
        },
        {
          "internalType": "address",
          "name": "_linkToken",
          "type": "address"
        },
        {
          "internalType": "bytes32",
          "name": "_keyHash",
          "type": "bytes32"
        },
        {
          "internalType": "uint256",
          "name": "_fee",
          "type": "uint256"
        }
      ],
      "stateMutability": "nonpayable",
      "type": "constructor"
    },
    {
      "anonymous": false,
      "inputs": [
        {
          "indexed": true,
          "internalType": "address",
          "name": "previousOwner",
          "type": "address"
        },
        {
          "indexed": true,
          "internalType": "address",
          "name": "newOwner",
          "type": "address"
        }
      ],
      "name": "OwnershipTransferred",
      "type": "event"
    },
    {
      "anonymous": false,
      "inputs": [
        {
          "indexed": true,
          "internalType": "address",
          "name": "winner",
          "type": "address"
        },
        {
          "indexed": false,
          "internalType": "uint256",
          "name": "amount",
          "type": "uint256"
        }
      ],
      "name": "PrizeClaimed",
      "type": "event"
    },
    {
      "anonymous": false,
      "inputs": [
        {
          "indexed": false,
          "internalType": "bytes32",
          "name": "requestId",
          "type": "bytes32"
        },
        {
          "indexed": false,
          "internalType": "uint256",
          "name": "randomness",
          "type": "uint256"
        }
      ],
      "name": "RequestFulfilled",
      "type": "event"
    },
    {
      "anonymous": false,
      "inputs": [
        {
          "indexed": true,
          "internalType": "address",
          "name": "buyer",
          "type": "address"
        },
        {
          "indexed": false,
          "internalType": "uint256",
          "name": "ticketCount",
          "type": "uint256"
        },
        {
          "indexed": false,
          "internalType": "uint8[]",
          "name": "numbers",
          "type": "uint8[]"
        }
      ],
      "name": "TicketPurchased",
      "type": "event"
    },
    {
      "anonymous": false,
      "inputs": [
        {
          "indexed": true,
          "internalType": "address",
          "name": "winner",
          "type": "address"
        },
        {
          "indexed": false,
          "internalType": "uint256",
          "name": "amount",
          "type": "uint256"
        }
      ],
      "name": "TokenHolderPrizeClaimed",
      "type": "event"
    },
    {
      "anonymous": false,
      "inputs": [
        {
          "indexed": false,
          "internalType": "uint256",
          "name": "roundId",
          "type": "uint256"
        },
        {
          "indexed": false,
          "internalType": "uint8[]",
          "name": "numbers",
          "type": "uint8[]"
        }
      ],
      "name": "WinningNumbers",
      "type": "event"
    },
    {
      "inputs": [],
      "name": "application",
      "outputs": [
        {
          "internalType": "address",
          "name": "",
          "type": "address"
        }
      ],
      "stateMutability": "view",
      "type": "function"
    },
    {
      "inputs": [],
      "name": "lastRequestId",
      "outputs": [
        {
          "internalType": "bytes32",
          "name": "",
          "type": "bytes32"
        }
      ],
      "stateMutability": "view",
      "type": "function"
    },
    {
      "inputs": [],
      "name": "owner",
      "outputs": [
        {
          "internalType": "address",
          "name": "",
          "type": "address"
        }
      ],
      "stateMutability": "view",
      "type": "function"
    },
    {
      "inputs": [],
      "name": "randomResult",
      "outputs": [
        {
          "internalType": "uint256",
          "name": "",
          "type": "uint256"
        }
      ],
      "stateMutability": "view",
      "type": "function"
    },
    {
      "inputs": [
        {
          "internalType": "bytes32",
          "name": "requestId",
          "type": "bytes32"
        },
        {
          "internalType": "uint256",
          "name": "randomness",
          "type": "uint256"
        }
      ],
      "name": "rawFulfillRandomness",
      "outputs": [],
      "stateMutability": "nonpayable",
      "type": "function"
    },
    {
      "inputs": [],
      "name": "renounceOwnership",
      "outputs": [],
      "stateMutability": "nonpayable",
      "type": "function"
    },
    {
      "inputs": [],
      "name": "roundId",
      "outputs": [
        {
          "internalType": "uint256",
          "name": "",
          "type": "uint256"
        }
      ],
      "stateMutability": "view",
      "type": "function"
    },
    {
      "inputs": [],
      "name": "roundInProgress",
      "outputs": [
        {
          "internalType": "bool",
          "name": "",
          "type": "bool"
        }
      ],
      "stateMutability": "view",
      "type": "function"
    },
    {
      "inputs": [
        {
          "internalType": "uint256",
          "name": "",
          "type": "uint256"
        }
      ],
      "name": "rounds",
      "outputs": [
        {
          "internalType": "uint256",
          "name": "roundId",
          "type": "uint256"
        },
        {
          "internalType": "uint256",
          "name": "ticketCount",
          "type": "uint256"
        },
        {
          "internalType": "uint256",
          "name": "drawnAt",
          "type": "uint256"
        },
        {
          "internalType": "uint256",
          "name": "prizePool",
          "type": "uint256"
        }
      ],
      "stateMutability": "view",
      "type": "function"
    },
    {
      "inputs": [],
      "name": "ticketPrice",
      "outputs": [
        {
          "internalType": "uint256",
          "name": "",
          "type": "uint256"
        }
      ],
      "stateMutability": "view",
      "type": "function"
    },
    {
      "inputs": [
        {
          "internalType": "address",
          "name": "newOwner",
          "type": "address"
        }
      ],
      "name": "transferOwnership",
      "outputs": [],
      "stateMutability": "nonpayable",
      "type": "function"
    },
    {
      "inputs": [
        {
          "internalType": "address",
          "name": "newApplication",
          "type": "address"
        }
      ],
      "name": "updateApplicationAddress",
      "outputs": [],
      "stateMutability": "nonpayable",
      "type": "function"
    },
    {
      "inputs": [
        {
          "internalType": "uint256",
          "name": "newTicketPrice",
          "type": "uint256"
        }
      ],
      "name": "updateTicketPrice",
      "outputs": [],
      "stateMutability": "nonpayable",
      "type": "function"
    },
    {
      "inputs": [
        {
          "internalType": "uint8[]",
          "name": "numbers",
          "type": "uint8[]"
        }
      ],
      "name": "buyTicket",
      "outputs": [],
      "stateMutability": "payable",
      "type": "function"
    },
    {
      "inputs": [],
      "name": "getTicketCount",
      "outputs": [
        {
          "internalType": "uint256",
          "name": "",
          "type": "uint256"
        }
      ],
      "stateMutability": "view",
      "type": "function"
    },
    {
      "inputs": [
        {
          "internalType": "address",
          "name": "account",
          "type": "address"
        }
      ],
      "name": "getTicketsByAddress",
      "outputs": [
        {
          "internalType": "uint256[]",
          "name": "",
          "type": "uint256[]"
        }
      ],
      "stateMutability": "view",
      "type": "function"
    },
    {
      "inputs": [
        {
          "internalType": "uint256",
          "name": "ticketNr",
          "type": "uint256"
        }
      ],
      "name": "getTicketNumbers",
      "outputs": [
        {
          "internalType": "uint8[]",
          "name": "",
          "type": "uint8[]"
        }
      ],
      "stateMutability": "view",
      "type": "function"
    },
    {
      "inputs": [
        {
          "internalType": "uint256",
          "name": "roundNr",
          "type": "uint256"
        }
      ],
      "name": "getRoundWinningNumbers",
      "outputs": [
        {
          "internalType": "uint8[]",
          "name": "",
          "type": "uint8[]"
        }
      ],
      "stateMutability": "view",
      "type": "function"
    },
    {
      "inputs": [
        {
          "internalType": "uint256",
          "name": "roundNr",
          "type": "uint256"
        }
      ],
      "name": "getRound",
      "outputs": [
        {
          "internalType": "uint256",
          "name": "ticketCount",
          "type": "uint256"
        },
        {
          "internalType": "uint256",
          "name": "drawnAt",
          "type": "uint256"
        },
        {
          "internalType": "uint256",
          "name": "prizePool",
          "type": "uint256"
        },
        {
          "internalType": "uint8[]",
          "name": "",
          "type": "uint8[]"
        }
      ],
      "stateMutability": "view",
      "type": "function"
    },
    {
      "inputs": [
        {
          "internalType": "uint256",
          "name": "roundNr",
          "type": "uint256"
        }
      ],
      "name": "getRoundWinners",
      "outputs": [
        {
          "internalType": "address[]",
          "name": "matchOne",
          "type": "address[]"
        },
        {
          "internalType": "address[]",
          "name": "matchTwo",
          "type": "address[]"
        },
        {
          "internalType": "address[]",
          "name": "matchThree",
          "type": "address[]"
        },
        {
          "internalType": "address[]",
          "name": "matchFour",
          "type": "address[]"
        },
        {
          "internalType": "address[]",
          "name": "matchFive",
          "type": "address[]"
        },
        {
          "internalType": "address[]",
          "name": "matchSix",
          "type": "address[]"
        }
      ],
      "stateMutability": "view",
      "type": "function"
    },
    {
      "inputs": [],
      "name": "drawWinningNumbers",
      "outputs": [],
      "stateMutability": "nonpayable",
      "type": "function"
    },
    {
      "inputs": [],
      "name": "distributePrizes",
      "outputs": [],
      "stateMutability": "nonpayable",
      "type": "function"
    }
  ],
  "bytecode": "0x60c06040523480156200001157600080fd5b506040516200510b3803806200510b833981810160405281019062000037919062000338565b83838173ffffffffffffffffffffffffffffffffffffffff1660a08173ffffffffffffffffffffffffffffffffffffffff16815250508073ffffffffffffffffffffffffffffffffffffffff1660808173ffffffffffffffffffffffffffffffffffffffff16815250505050620000c3620000b76200018a60201b60201c565b6200019260201b60201c565b8660078190555085600260006101000a81548173ffffffffffffffffffffffffffffffffffffffff021916908373ffffffffffffffffffffffffffffffffffffffff16021790555084600960006101000a81548173ffffffffffffffffffffffffffffffffffffffff021916908373ffffffffffffffffffffffffffffffffffffffff160217905550816003819055508060048190555060016008819055506001600960146101000a81548160ff02191690831515021790555050505050505050620003eb565b600033905090565b6000600160009054906101000a900473ffffffffffffffffffffffffffffffffffffffff16905081600160006101000a81548173ffffffffffffffffffffffffffffffffffffffff021916908373ffffffffffffffffffffffffffffffffffffffff1602179055508173ffffffffffffffffffffffffffffffffffffffff168173ffffffffffffffffffffffffffffffffffffffff167f8be0079c531659141344cd1fd0a4f28419497f9722a3daafe3b4186f6b6457e060405160405180910390a35050565b600080fd5b6000819050919050565b62000272816200025d565b81146200027e57600080fd5b50565b600081519050620002928162000267565b92915050565b600073ffffffffffffffffffffffffffffffffffffffff82169050919050565b6000620002c58262000298565b9050919050565b620002d781620002b8565b8114620002e357600080fd5b50565b600081519050620002f781620002cc565b92915050565b6000819050919050565b6200031281620002fd565b81146200031e57600080fd5b50565b600081519050620003328162000307565b92915050565b600080600080600080600060e0888a0312156200035a576200035962000258565b5b60006200036a8a828b0162000281565b97505060206200037d8a828b01620002e6565b9650506040620003908a828b01620002e6565b9550506060620003a38a828b01620002e6565b9450506080620003b68a828b01620002e6565b93505060a0620003c98a828b0162000321565b92505060c0620003dc8a828b0162000281565b91505092959891949750929550565b60805160a051614cec6200041f6000396000818161147b0152611976015260008181611031015261193a0152614cec6000f3fe6080604052600436106101355760003560e01c80638c65c81f116100ab5780639839eafd1161006f5780639839eafd146103ee578063ea5ab0ba1461042b578063f02137c814610456578063f2fde38b1461047f578063f5e47f96146104a8578063fc2a88c3146104e557610135565b80638c65c81f146102ef5780638cd221c91461032f5780638da5cb5b1461035a5780638f1327c01461038557806394985ddd146103c557610135565b806342619f66116100fd57806342619f66146102265780635e349acc14610251578063608620aa1461026d57806364069e7114610284578063715018a6146102c15780637ce52eb6146102d857610135565b80631209b1f61461013a57806321c63a471461016557806326e4ca82146101905780632786e402146101bb5780632e881471146101e4575b600080fd5b34801561014657600080fd5b5061014f610510565b60405161015c9190612a62565b60405180910390f35b34801561017157600080fd5b5061017a610516565b6040516101879190612a62565b60405180910390f35b34801561019c57600080fd5b506101a5610536565b6040516101b29190612abe565b60405180910390f35b3480156101c757600080fd5b506101e260048036038101906101dd9190612b19565b61055c565b005b3480156101f057600080fd5b5061020b60048036038101906102069190612b72565b610617565b60405161021d96959493929190612c5d565b60405180910390f35b34801561023257600080fd5b5061023b610a55565b6040516102489190612a62565b60405180910390f35b61026b60048036038101906102669190612e7a565b610a5b565b005b34801561027957600080fd5b50610282610ee3565b005b34801561029057600080fd5b506102ab60048036038101906102a69190612b72565b61113b565b6040516102b89190612f81565b60405180910390f35b3480156102cd57600080fd5b506102d66111cf565b005b3480156102e457600080fd5b506102ed6111e3565b005b3480156102fb57600080fd5b5061031660048036038101906103119190612b72565b611330565b6040516103269493929190612fa3565b60405180910390f35b34801561033b57600080fd5b50610344611360565b6040516103519190612a62565b60405180910390f35b34801561036657600080fd5b5061036f611366565b60405161037c9190612abe565b60405180910390f35b34801561039157600080fd5b506103ac60048036038101906103a79190612b72565b611390565b6040516103bc9493929190612fe8565b60405180910390f35b3480156103d157600080fd5b506103ec60048036038101906103e7919061306a565b611479565b005b3480156103fa57600080fd5b5061041560048036038101906104109190612b72565b611515565b6040516104229190612f81565b60405180910390f35b34801561043757600080fd5b506104406115bc565b60405161044d91906130c5565b60405180910390f35b34801561046257600080fd5b5061047d60048036038101906104789190612b72565b6115cf565b005b34801561048b57600080fd5b506104a660048036038101906104a19190612b19565b611624565b005b3480156104b457600080fd5b506104cf60048036038101906104ca9190612b19565b6116a7565b6040516104dc919061319e565b60405180910390f35b3480156104f157600080fd5b506104fa611754565b60405161050791906131cf565b60405180910390f35b60075481565b6000600a6000600854815260200190815260200160002060010154905090565b600960009054906101000a900473ffffffffffffffffffffffffffffffffffffffff1681565b61056461175a565b600073ffffffffffffffffffffffffffffffffffffffff168173ffffffffffffffffffffffffffffffffffffffff16036105d3576040517f08c379a00000000000000000000000000000000000000000000000000000000081526004016105ca9061326d565b60405180910390fd5b80600960006101000a81548173ffffffffffffffffffffffffffffffffffffffff021916908373ffffffffffffffffffffffffffffffffffffffff16021790555050565b606080606080606080600a6000888152602001908152602001600020600501600060018152602001908152602001600020600a6000898152602001908152602001600020600501600060028152602001908152602001600020600a60008a8152602001908152602001600020600501600060038152602001908152602001600020600a60008b8152602001908152602001600020600501600060048152602001908152602001600020600a60008c8152602001908152602001600020600501600060058152602001908152602001600020600a60008d81526020019081526020016000206005016000600681526020019081526020016000208580548060200260200160405190810160405280929190818152602001828054801561079157602002820191906000526020600020905b8160009054906101000a900473ffffffffffffffffffffffffffffffffffffffff1673ffffffffffffffffffffffffffffffffffffffff1681526020019060010190808311610747575b505050505095508480548060200260200160405190810160405280929190818152602001828054801561081957602002820191906000526020600020905b8160009054906101000a900473ffffffffffffffffffffffffffffffffffffffff1673ffffffffffffffffffffffffffffffffffffffff16815260200190600101908083116107cf575b50505050509450838054806020026020016040519081016040528092919081815260200182805480156108a157602002820191906000526020600020905b8160009054906101000a900473ffffffffffffffffffffffffffffffffffffffff1673ffffffffffffffffffffffffffffffffffffffff1681526020019060010190808311610857575b505050505093508280548060200260200160405190810160405280929190818152602001828054801561092957602002820191906000526020600020905b8160009054906101000a900473ffffffffffffffffffffffffffffffffffffffff1673ffffffffffffffffffffffffffffffffffffffff16815260200190600101908083116108df575b50505050509250818054806020026020016040519081016040528092919081815260200182805480156109b157602002820191906000526020600020905b8160009054906101000a900473ffffffffffffffffffffffffffffffffffffffff1673ffffffffffffffffffffffffffffffffffffffff1681526020019060010190808311610967575b5050505050915080805480602002602001604051908101604052809291908181526020018280548015610a3957602002820191906000526020600020905b8160009054906101000a900473ffffffffffffffffffffffffffffffffffffffff1673ffffffffffffffffffffffffffffffffffffffff16815260200190600101908083116109ef575b5050505050905095509550955095509550955091939550919395565b60065481565b600960149054906101000a900460ff16610aaa576040517f08c379a0000000000000000000000000000000000000000000000000000000008152600401610aa1906132d9565b60405180910390fd5b6007543414610aee576040517f08c379a0000000000000000000000000000000000000000000000000000000008152600401610ae590613345565b60405180910390fd5b6006815114610b32576040517f08c379a0000000000000000000000000000000000000000000000000000000008152600401610b29906133d7565b60405180910390fd5b6000610b3d826117d8565b905060005b8151811015610c87576001828281518110610b6057610b5f6133f7565b5b602002602001015160ff1610158015610b9757506032828281518110610b8957610b886133f7565b5b602002602001015160ff1611155b610bd6576040517f08c379a0000000000000000000000000000000000000000000000000000000008152600401610bcd90613498565b60405180910390fd5b60018251610be491906134e7565b811015610c745781600182610bf9919061351b565b81518110610c0a57610c096133f7565b5b602002602001015160ff16828281518110610c2857610c276133f7565b5b602002602001015160ff1603610c73576040517f08c379a0000000000000000000000000000000000000000000000000000000008152600401610c6a9061359b565b60405180910390fd5b5b8080610c7f906135bb565b915050610b42565b506001600a600060085481526020019081526020016000206001016000828254610cb1919061351b565b925050819055506000600a6000600854815260200190815260200160002060010154905033600a60006008548152602001908152602001600020600701600083815260200190815260200160002060006101000a81548173ffffffffffffffffffffffffffffffffffffffff021916908373ffffffffffffffffffffffffffffffffffffffff16021790555081600a6000600854815260200190815260200160002060080160008381526020019081526020016000209080519060200190610d7a929190612985565b50600a6000600854815260200190815260200160002060060160003373ffffffffffffffffffffffffffffffffffffffff1673ffffffffffffffffffffffffffffffffffffffff1681526020019081526020016000208190806001815401808255809150506001900390600052602060002001600090919091909150553373ffffffffffffffffffffffffffffffffffffffff167f2a1ef9a510c66163c8c27e9cfbafcb5c15f78e0c979458e4d40103d6bb9dbbd38284604051610e3f929190613603565b60405180910390a2600260009054906101000a900473ffffffffffffffffffffffffffffffffffffffff1673ffffffffffffffffffffffffffffffffffffffff166340c10f1933670de0b6b3a76400006040518363ffffffff1660e01b8152600401610eac929190613678565b600060405180830381600087803b158015610ec657600080fd5b505af1158015610eda573d6000803e3d6000fd5b50505050505050565b600960009054906101000a900473ffffffffffffffffffffffffffffffffffffffff1673ffffffffffffffffffffffffffffffffffffffff163373ffffffffffffffffffffffffffffffffffffffff1614610f73576040517f08c379a0000000000000000000000000000000000000000000000000000000008152600401610f6a906136ed565b60405180910390fd5b6000600a600060085481526020019081526020016000206001015411610fce576040517f08c379a0000000000000000000000000000000000000000000000000000000008152600401610fc590613759565b60405180910390fd5b6000600a60006008548152602001908152602001600020600201805490501461102c576040517f08c379a0000000000000000000000000000000000000000000000000000000008152600401611023906137eb565b60405180910390fd5b6004547f000000000000000000000000000000000000000000000000000000000000000073ffffffffffffffffffffffffffffffffffffffff166370a08231306040518263ffffffff1660e01b81526004016110889190612abe565b602060405180830381865afa1580156110a5573d6000803e3d6000fd5b505050506040513d601f19601f820116820180604052508101906110c99190613820565b101561110a576040517f08c379a000000000000000000000000000000000000000000000000000000000815260040161110190613899565b60405180910390fd5b6000600960146101000a81548160ff021916908315150217905550611133600354600454611936565b600581905550565b6060600a60008381526020019081526020016000206002018054806020026020016040519081016040528092919081815260200182805480156111c357602002820191906000526020600020906000905b82829054906101000a900460ff1660ff168152602001906001019060208260000104928301926001038202915080841161118c5790505b50505050509050919050565b6111d761175a565b6111e16000611a86565b565b600960009054906101000a900473ffffffffffffffffffffffffffffffffffffffff1673ffffffffffffffffffffffffffffffffffffffff163373ffffffffffffffffffffffffffffffffffffffff1614611273576040517f08c379a000000000000000000000000000000000000000000000000000000000815260040161126a906136ed565b60405180910390fd5b6006600a6000600854815260200190815260200160002060020180549050146112d1576040517f08c379a00000000000000000000000000000000000000000000000000000000081526004016112c89061392b565b60405180910390fd5b600060065411611316576040517f08c379a000000000000000000000000000000000000000000000000000000000815260040161130d906139bd565b60405180910390fd5b61131e611b4c565b611326611c72565b61132e611ed3565b565b600a6020528060005260406000206000915090508060000154908060010154908060030154908060040154905084565b60085481565b6000600160009054906101000a900473ffffffffffffffffffffffffffffffffffffffff16905090565b60008060006060600a600086815260200190815260200160002060010154600a600087815260200190815260200160002060030154600a600088815260200190815260200160002060040154600a60008981526020019081526020016000206002018080548060200260200160405190810160405280929190818152602001828054801561146357602002820191906000526020600020906000905b82829054906101000a900460ff1660ff168152602001906001019060208260000104928301926001038202915080841161142c5790505b5050505050905093509350935093509193509193565b7f000000000000000000000000000000000000000000000000000000000000000073ffffffffffffffffffffffffffffffffffffffff163373ffffffffffffffffffffffffffffffffffffffff1614611507576040517f08c379a00000000000000000000000000000000000000000000000000000000081526004016114fe90613a29565b60405180910390fd5b6115118282611f10565b5050565b6060600a6000600854815260200190815260200160002060080160008381526020019081526020016000208054806020026020016040519081016040528092919081815260200182805480156115b057602002820191906000526020600020906000905b82829054906101000a900460ff1660ff16815260200190600101906020826000010492830192600103820291508084116115795790505b50505050509050919050565b600960149054906101000a900460ff1681565b6115d761175a565b6000811161161a576040517f08c379a000000000000000000000000000000000000000000000000000000000815260040161161190613abb565b60405180910390fd5b8060078190555050565b61162c61175a565b600073ffffffffffffffffffffffffffffffffffffffff168173ffffffffffffffffffffffffffffffffffffffff160361169b576040517f08c379a000000000000000000000000000000000000000000000000000000000815260040161169290613b4d565b60405180910390fd5b6116a481611a86565b50565b6060600a6000600854815260200190815260200160002060060160008373ffffffffffffffffffffffffffffffffffffffff1673ffffffffffffffffffffffffffffffffffffffff16815260200190815260200160002080548060200260200160405190810160405280929190818152602001828054801561174857602002820191906000526020600020905b815481526020019060010190808311611734575b50505050509050919050565b60055481565b611762612203565b73ffffffffffffffffffffffffffffffffffffffff16611780611366565b73ffffffffffffffffffffffffffffffffffffffff16146117d6576040517f08c379a00000000000000000000000000000000000000000000000000000000081526004016117cd90613bb9565b60405180910390fd5b565b606060005b600183516117eb91906134e7565b81101561192d5760005b600182855161180491906134e7565b61180e91906134e7565b8110156119195783600182611823919061351b565b81518110611834576118336133f7565b5b602002602001015160ff16848281518110611852576118516133f7565b5b602002602001015160ff161115611906576000848281518110611878576118776133f7565b5b6020026020010151905084600183611890919061351b565b815181106118a1576118a06133f7565b5b60200260200101518583815181106118bc576118bb6133f7565b5b602002602001019060ff16908160ff168152505080856001846118df919061351b565b815181106118f0576118ef6133f7565b5b602002602001019060ff16908160ff1681525050505b8080611911906135bb565b9150506117f5565b508080611925906135bb565b9150506117dd565b50819050919050565b60007f000000000000000000000000000000000000000000000000000000000000000073ffffffffffffffffffffffffffffffffffffffff16634000aea07f0000000000000000000000000000000000000000000000000000000000000000848660006040516020016119aa929190613bd9565b6040516020818303038152906040526040518463ffffffff1660e01b81526004016119d793929190613c81565b6020604051808303816000875af11580156119f6573d6000803e3d6000fd5b505050506040513d601f19601f82011682018060405250810190611a1a9190613ceb565b506000611a3c846000306000808981526020019081526020016000205461220b565b9050600160008086815260200190815260200160002054611a5d919061351b565b60008086815260200190815260200160002081905550611a7d8482612247565b91505092915050565b6000600160009054906101000a900473ffffffffffffffffffffffffffffffffffffffff16905081600160006101000a81548173ffffffffffffffffffffffffffffffffffffffff021916908373ffffffffffffffffffffffffffffffffffffffff1602179055508173ffffffffffffffffffffffffffffffffffffffff168173ffffffffffffffffffffffffffffffffffffffff167f8be0079c531659141344cd1fd0a4f28419497f9722a3daafe3b4186f6b6457e060405160405180910390a35050565b6000600190505b600a60006008548152602001908152602001600020600101548111611c6f576000611b7d8261227a565b905060018110611c5b57600a600060085481526020019081526020016000206005016000828152602001908152602001600020600a60006008548152602001908152602001600020600701600084815260200190815260200160002060009054906101000a900473ffffffffffffffffffffffffffffffffffffffff169080600181540180825580915050600190039060005260206000200160009091909190916101000a81548173ffffffffffffffffffffffffffffffffffffffff021916908373ffffffffffffffffffffffffffffffffffffffff1602179055505b508080611c67906135bb565b915050611b53565b50565b6000479050600081905060006064600a83611c8d9190613d18565b611c979190613d89565b9050611ca1611366565b73ffffffffffffffffffffffffffffffffffffffff166108fc829081150290604051600060405180830381858888f19350505050158015611ce6573d6000803e3d6000fd5b506000600690505b60018160ff1610611e8a576000600a6000600854815260200190815260200160002060050160008360ff1681526020019081526020016000208054905090506000811115611e7657600081611d46878560ff1661244e565b611d509190613d89565b905060005b82811015611e73576000600a6000600854815260200190815260200160002060050160008660ff1681526020019081526020016000208281548110611d9d57611d9c6133f7565b5b9060005260206000200160009054906101000a900473ffffffffffffffffffffffffffffffffffffffff1690508073ffffffffffffffffffffffffffffffffffffffff166108fc849081150290604051600060405180830381858888f19350505050158015611e10573d6000803e3d6000fd5b508073ffffffffffffffffffffffffffffffffffffffff167f95681e512bc0fe659e195e06c283eada494316f3d801213e48e7101af92bf77084604051611e579190612a62565b60405180910390a2508080611e6b906135bb565b915050611d55565b50505b508080611e8290613dba565b915050611cee565b50611e94836125dd565b42600a600060085481526020019081526020016000206003018190555082600a6000600854815260200190815260200160002060040181905550505050565b60086000815480929190611ee6906135bb565b91905055506001600960146101000a81548160ff0219169083151502179055506000600681905550565b8160055414611f54576040517f08c379a0000000000000000000000000000000000000000000000000000000008152600401611f4b90613e2f565b60405180910390fd5b806006819055506000603267ffffffffffffffff811115611f7857611f77612cfe565b5b604051908082528060200260200182016040528015611fa65781602001602082028036833780820191505090505b5090506000805b60068110156120e957600060016032600654611fc99190613e4f565b611fd3919061351b565b9050603260066000828254611fe89190613d89565b925050819055506000805b8481101561203e578260ff16868281518110612012576120116133f7565b5b602002602001015160ff160361202b576001915061203e565b8080612036906135bb565b915050611ff3565b50806120e25781858580612051906135bb565b965081518110612064576120636133f7565b5b602002602001019060ff16908160ff1681525050600a600060085481526020019081526020016000206002018290806001815401808255809150506001900390600052602060002090602091828204019190069091909190916101000a81548160ff021916908360ff16021790555082806120de906135bb565b9350505b5050611fad565b61217e600a6000600854815260200190815260200160002060020180548060200260200160405190810160405280929190818152602001828054801561217457602002820191906000526020600020906000905b82829054906101000a900460ff1660ff168152602001906001019060208260000104928301926001038202915080841161213d5790505b50505050506117d8565b600a6000600854815260200190815260200160002060020190805190602001906121a9929190612985565b507facdd977f06d88d990c56c596f96141830d83e7fc86f94424a37de0f5e0532e69600854600a600060085481526020019081526020016000206002016040516121f4929190614bd3565b60405180910390a15050505050565b600033905090565b6000848484846040516020016122249493929190614c03565b6040516020818303038152906040528051906020012060001c9050949350505050565b6000828260405160200161225c929190614c8a565b60405160208183030381529060405280519060200120905092915050565b600080600a60006008548152602001908152602001600020600801600084815260200190815260200160002080548060200260200160405190810160405280929190818152602001828054801561231657602002820191906000526020600020906000905b82829054906101000a900460ff1660ff16815260200190600101906020826000010492830192600103820291508084116122df5790505b50505050509050600080600a600060085481526020019081526020016000206002018054806020026020016040519081016040528092919081815260200182805480156123a857602002820191906000526020600020906000905b82829054906101000a900460ff1660ff16815260200190600101906020826000010492830192600103820291508084116123715790505b5050505050905060005b83518110156124425760005b825181101561242e578281815181106123da576123d96133f7565b5b602002602001015160ff168583815181106123f8576123f76133f7565b5b602002602001015160ff160361241b578380612413906135bb565b94505061242e565b8080612426906135bb565b9150506123be565b50808061243a906135bb565b9150506123b2565b50819350505050919050565b6000806006830361249157612463600661291d565b90508060646028866124759190613d18565b61247f9190613d89565b6124899190613d89565b9150506125d7565b600583036124d1576124a3600561291d565b90508060646019866124b59190613d18565b6124bf9190613d89565b6124c99190613d89565b9150506125d7565b60048303612511576124e3600461291d565b9050806064600a866124f59190613d18565b6124ff9190613d89565b6125099190613d89565b9150506125d7565b6003830361255157612523600361291d565b90508060646005866125359190613d18565b61253f9190613d89565b6125499190613d89565b9150506125d7565b6002830361259157612563600261291d565b90508060646003866125759190613d18565b61257f9190613d89565b6125899190613d89565b9150506125d7565b600183036125d1576125a3600161291d565b90508060646002866125b59190613d18565b6125bf9190613d89565b6125c99190613d89565b9150506125d7565b60009150505b92915050565b600060646005836125ee9190613d18565b6125f89190613d89565b9050600080600190505b600a60006008548152602001908152602001600020600101548111612732576000600a60006008548152602001908152602001600020600701600083815260200190815260200160002060009054906101000a900473ffffffffffffffffffffffffffffffffffffffff1690506000600260009054906101000a900473ffffffffffffffffffffffffffffffffffffffff1673ffffffffffffffffffffffffffffffffffffffff166370a08231836040518263ffffffff1660e01b81526004016126cc9190612abe565b602060405180830381865afa1580156126e9573d6000803e3d6000fd5b505050506040513d601f19601f8201168201806040525081019061270d9190613820565b9050808461271b919061351b565b93505050808061272a906135bb565b915050612602565b506000600190505b600a60006008548152602001908152602001600020600101548111612917576000600a60006008548152602001908152602001600020600701600083815260200190815260200160002060009054906101000a900473ffffffffffffffffffffffffffffffffffffffff1690506000600260009054906101000a900473ffffffffffffffffffffffffffffffffffffffff1673ffffffffffffffffffffffffffffffffffffffff166370a08231836040518263ffffffff1660e01b81526004016128049190612abe565b602060405180830381865afa158015612821573d6000803e3d6000fd5b505050506040513d601f19601f820116820180604052508101906128459190613820565b9050600081111561290257600084828761285f9190613d18565b6128699190613d89565b90508273ffffffffffffffffffffffffffffffffffffffff166108fc829081150290604051600060405180830381858888f193505050501580156128b1573d6000803e3d6000fd5b508273ffffffffffffffffffffffffffffffffffffffff167f0286f58f3dcaa16e784242f672696ff068857ee598355de9af938efa271b73ca826040516128f89190612a62565b60405180910390a2505b5050808061290f906135bb565b91505061273a565b50505050565b600080600090506000600190505b600a6000600854815260200190815260200160002060010154811161297b57836129548261227a565b03612968578180612964906135bb565b9250505b8080612973906135bb565b91505061292b565b5080915050919050565b82805482825590600052602060002090601f01602090048101928215612a1b5791602002820160005b838211156129ec57835183826101000a81548160ff021916908360ff16021790555092602001926001016020816000010492830192600103026129ae565b8015612a195782816101000a81549060ff02191690556001016020816000010492830192600103026129ec565b505b509050612a289190612a2c565b5090565b5b80821115612a45576000816000905550600101612a2d565b5090565b6000819050919050565b612a5c81612a49565b82525050565b6000602082019050612a776000830184612a53565b92915050565b600073ffffffffffffffffffffffffffffffffffffffff82169050919050565b6000612aa882612a7d565b9050919050565b612ab881612a9d565b82525050565b6000602082019050612ad36000830184612aaf565b92915050565b6000604051905090565b600080fd5b600080fd5b612af681612a9d565b8114612b0157600080fd5b50565b600081359050612b1381612aed565b92915050565b600060208284031215612b2f57612b2e612ae3565b5b6000612b3d84828501612b04565b91505092915050565b612b4f81612a49565b8114612b5a57600080fd5b50565b600081359050612b6c81612b46565b92915050565b600060208284031215612b8857612b87612ae3565b5b6000612b9684828501612b5d565b91505092915050565b600081519050919050565b600082825260208201905092915050565b6000819050602082019050919050565b612bd481612a9d565b82525050565b6000612be68383612bcb565b60208301905092915050565b6000602082019050919050565b6000612c0a82612b9f565b612c148185612baa565b9350612c1f83612bbb565b8060005b83811015612c50578151612c378882612bda565b9750612c4283612bf2565b925050600181019050612c23565b5085935050505092915050565b600060c0820190508181036000830152612c778189612bff565b90508181036020830152612c8b8188612bff565b90508181036040830152612c9f8187612bff565b90508181036060830152612cb38186612bff565b90508181036080830152612cc78185612bff565b905081810360a0830152612cdb8184612bff565b9050979650505050505050565b600080fd5b6000601f19601f8301169050919050565b7f4e487b7100000000000000000000000000000000000000000000000000000000600052604160045260246000fd5b612d3682612ced565b810181811067ffffffffffffffff82111715612d5557612d54612cfe565b5b80604052505050565b6000612d68612ad9565b9050612d748282612d2d565b919050565b600067ffffffffffffffff821115612d9457612d93612cfe565b5b602082029050602081019050919050565b600080fd5b600060ff82169050919050565b612dc081612daa565b8114612dcb57600080fd5b50565b600081359050612ddd81612db7565b92915050565b6000612df6612df184612d79565b612d5e565b90508083825260208201905060208402830185811115612e1957612e18612da5565b5b835b81811015612e425780612e2e8882612dce565b845260208401935050602081019050612e1b565b5050509392505050565b600082601f830112612e6157612e60612ce8565b5b8135612e71848260208601612de3565b91505092915050565b600060208284031215612e9057612e8f612ae3565b5b600082013567ffffffffffffffff811115612eae57612ead612ae8565b5b612eba84828501612e4c565b91505092915050565b600081519050919050565b600082825260208201905092915050565b6000819050602082019050919050565b612ef881612daa565b82525050565b6000612f0a8383612eef565b60208301905092915050565b6000602082019050919050565b6000612f2e82612ec3565b612f388185612ece565b9350612f4383612edf565b8060005b83811015612f74578151612f5b8882612efe565b9750612f6683612f16565b925050600181019050612f47565b5085935050505092915050565b60006020820190508181036000830152612f9b8184612f23565b905092915050565b6000608082019050612fb86000830187612a53565b612fc56020830186612a53565b612fd26040830185612a53565b612fdf6060830184612a53565b95945050505050565b6000608082019050612ffd6000830187612a53565b61300a6020830186612a53565b6130176040830185612a53565b81810360608301526130298184612f23565b905095945050505050565b6000819050919050565b61304781613034565b811461305257600080fd5b50565b6000813590506130648161303e565b92915050565b6000806040838503121561308157613080612ae3565b5b600061308f85828601613055565b92505060206130a085828601612b5d565b9150509250929050565b60008115159050919050565b6130bf816130aa565b82525050565b60006020820190506130da60008301846130b6565b92915050565b600081519050919050565b600082825260208201905092915050565b6000819050602082019050919050565b61311581612a49565b82525050565b6000613127838361310c565b60208301905092915050565b6000602082019050919050565b600061314b826130e0565b61315581856130eb565b9350613160836130fc565b8060005b83811015613191578151613178888261311b565b975061318383613133565b925050600181019050613164565b5085935050505092915050565b600060208201905081810360008301526131b88184613140565b905092915050565b6131c981613034565b82525050565b60006020820190506131e460008301846131c0565b92915050565b600082825260208201905092915050565b7f4e6577206170706c69636174696f6e2061646472657373206d757374206e6f7460008201527f206265207a65726f20616464726573732e000000000000000000000000000000602082015250565b60006132576031836131ea565b9150613262826131fb565b604082019050919050565b600060208201905081810360008301526132868161324a565b9050919050565b7f526f756e64206973206e6f7420696e2070726f67726573732e00000000000000600082015250565b60006132c36019836131ea565b91506132ce8261328d565b602082019050919050565b600060208201905081810360008301526132f2816132b6565b9050919050565b7f496e636f7272656374207469636b65742070726963652e000000000000000000600082015250565b600061332f6017836131ea565b915061333a826132f9565b602082019050919050565b6000602082019050818103600083015261335e81613322565b9050919050565b7f596f75206d7573742070726f766964652065786163746c79203620756e69717560008201527f65206e756d626572732e00000000000000000000000000000000000000000000602082015250565b60006133c1602a836131ea565b91506133cc82613365565b604082019050919050565b600060208201905081810360008301526133f0816133b4565b9050919050565b7f4e487b7100000000000000000000000000000000000000000000000000000000600052603260045260246000fd5b7f4e756d62657273206d757374206265206265747765656e203120616e6420353060008201527f2e00000000000000000000000000000000000000000000000000000000000000602082015250565b60006134826021836131ea565b915061348d82613426565b604082019050919050565b600060208201905081810360008301526134b181613475565b9050919050565b7f4e487b7100000000000000000000000000000000000000000000000000000000600052601160045260246000fd5b60006134f282612a49565b91506134fd83612a49565b9250828203905081811115613515576135146134b8565b5b92915050565b600061352682612a49565b915061353183612a49565b9250828201905080821115613549576135486134b8565b5b92915050565b7f4e756d62657273206d75737420626520756e697175652e000000000000000000600082015250565b60006135856017836131ea565b91506135908261354f565b602082019050919050565b600060208201905081810360008301526135b481613578565b9050919050565b60006135c682612a49565b91507fffffffffffffffffffffffffffffffffffffffffffffffffffffffffffffffff82036135f8576135f76134b8565b5b600182019050919050565b60006040820190506136186000830185612a53565b818103602083015261362a8184612f23565b90509392505050565b6000819050919050565b6000819050919050565b600061366261365d61365884613633565b61363d565b612a49565b9050919050565b61367281613647565b82525050565b600060408201905061368d6000830185612aaf565b61369a6020830184613669565b9392505050565b7f43616c6c6572206973206e6f7420746865206170706c69636174696f6e2e0000600082015250565b60006136d7601e836131ea565b91506136e2826136a1565b602082019050919050565b60006020820190508181036000830152613706816136ca565b9050919050565b7f4e6f207469636b6574732068617665206265656e20736f6c642e000000000000600082015250565b6000613743601a836131ea565b915061374e8261370d565b602082019050919050565b6000602082019050818103600083015261377281613736565b9050919050565b7f57696e6e696e67206e756d62657273206861766520616c72656164792062656560008201527f6e20647261776e2e000000000000000000000000000000000000000000000000602082015250565b60006137d56028836131ea565b91506137e082613779565b604082019050919050565b60006020820190508181036000830152613804816137c8565b9050919050565b60008151905061381a81612b46565b92915050565b60006020828403121561383657613835612ae3565b5b60006138448482850161380b565b91505092915050565b7f4e6f7420656e6f756768204c494e4b20746f2070617920746865206665652e00600082015250565b6000613883601f836131ea565b915061388e8261384d565b602082019050919050565b600060208201905081810360008301526138b281613876565b9050919050565b7f57696e6e696e67206e756d626572732068617665206e6f74206265656e20647260008201527f61776e207965742e000000000000000000000000000000000000000000000000602082015250565b60006139156028836131ea565b9150613920826138b9565b604082019050919050565b6000602082019050818103600083015261394481613908565b9050919050565b7f52616e646f6d6e65737320776173206e6f742070726f766964656420636f727260008201527f6563746c79000000000000000000000000000000000000000000000000000000602082015250565b60006139a76025836131ea565b91506139b28261394b565b604082019050919050565b600060208201905081810360008301526139d68161399a565b9050919050565b7f4f6e6c7920565246436f6f7264696e61746f722063616e2066756c66696c6c00600082015250565b6000613a13601f836131ea565b9150613a1e826139dd565b602082019050919050565b60006020820190508181036000830152613a4281613a06565b9050919050565b7f4e6577207469636b6574207072696365206d757374206265206772656174657260008201527f207468616e20302e000000000000000000000000000000000000000000000000602082015250565b6000613aa56028836131ea565b9150613ab082613a49565b604082019050919050565b60006020820190508181036000830152613ad481613a98565b9050919050565b7f4f776e61626c653a206e6577206f776e657220697320746865207a65726f206160008201527f6464726573730000000000000000000000000000000000000000000000000000602082015250565b6000613b376026836131ea565b9150613b4282613adb565b604082019050919050565b60006020820190508181036000830152613b6681613b2a565b9050919050565b7f4f776e61626c653a2063616c6c6572206973206e6f7420746865206f776e6572600082015250565b6000613ba36020836131ea565b9150613bae82613b6d565b602082019050919050565b60006020820190508181036000830152613bd281613b96565b9050919050565b6000604082019050613bee60008301856131c0565b613bfb6020830184612a53565b9392505050565b600081519050919050565b600082825260208201905092915050565b60005b83811015613c3c578082015181840152602081019050613c21565b60008484015250505050565b6000613c5382613c02565b613c5d8185613c0d565b9350613c6d818560208601613c1e565b613c7681612ced565b840191505092915050565b6000606082019050613c966000830186612aaf565b613ca36020830185612a53565b8181036040830152613cb58184613c48565b9050949350505050565b613cc8816130aa565b8114613cd357600080fd5b50565b600081519050613ce581613cbf565b92915050565b600060208284031215613d0157613d00612ae3565b5b6000613d0f84828501613cd6565b91505092915050565b6000613d2382612a49565b9150613d2e83612a49565b9250828202613d3c81612a49565b91508282048414831517613d5357613d526134b8565b5b5092915050565b7f4e487b7100000000000000000000000000000000000000000000000000000000600052601260045260246000fd5b6000613d9482612a49565b9150613d9f83612a49565b925082613daf57613dae613d5a565b5b828204905092915050565b6000613dc582612daa565b915060008203613dd857613dd76134b8565b5b600182039050919050565b7f57726f6e67207265717565737449642070726f76696465642100000000000000600082015250565b6000613e196019836131ea565b9150613e2482613de3565b602082019050919050565b60006020820190508181036000830152613e4881613e0c565b9050919050565b6000613e5a82612a49565b9150613e6583612a49565b925082613e7557613e74613d5a565b5b828206905092915050565b600081549050919050565b60008190508160005260206000209050919050565b60008160001c9050919050565b600060ff82169050919050565b6000613ecd613ec883613ea0565b613ead565b9050919050565b60008160081c9050919050565b6000613ef4613eef83613ed4565b613ead565b9050919050565b60008160101c9050919050565b6000613f1b613f1683613efb565b613ead565b9050919050565b60008160181c9050919050565b6000613f42613f3d83613f22565b613ead565b9050919050565b60008160201c9050919050565b6000613f69613f6483613f49565b613ead565b9050919050565b60008160281c9050919050565b6000613f90613f8b83613f70565b613ead565b9050919050565b60008160301c9050919050565b6000613fb7613fb283613f97565b613ead565b9050919050565b60008160381c9050919050565b6000613fde613fd983613fbe565b613ead565b9050919050565b60008160401c9050919050565b600061400561400083613fe5565b613ead565b9050919050565b60008160481c9050919050565b600061402c6140278361400c565b613ead565b9050919050565b60008160501c9050919050565b600061405361404e83614033565b613ead565b9050919050565b60008160581c9050919050565b600061407a6140758361405a565b613ead565b9050919050565b60008160601c9050919050565b60006140a161409c83614081565b613ead565b9050919050565b60008160681c9050919050565b60006140c86140c3836140a8565b613ead565b9050919050565b60008160701c9050919050565b60006140ef6140ea836140cf565b613ead565b9050919050565b60008160781c9050919050565b6000614116614111836140f6565b613ead565b9050919050565b60008160801c9050919050565b600061413d6141388361411d565b613ead565b9050919050565b60008160881c9050919050565b600061416461415f83614144565b613ead565b9050919050565b60008160901c9050919050565b600061418b6141868361416b565b613ead565b9050919050565b60008160981c9050919050565b60006141b26141ad83614192565b613ead565b9050919050565b60008160a01c9050919050565b60006141d96141d4836141b9565b613ead565b9050919050565b60008160a81c9050919050565b60006142006141fb836141e0565b613ead565b9050919050565b60008160b01c9050919050565b600061422761422283614207565b613ead565b9050919050565b60008160b81c9050919050565b600061424e6142498361422e565b613ead565b9050919050565b60008160c01c9050919050565b600061427561427083614255565b613ead565b9050919050565b60008160c81c9050919050565b600061429c6142978361427c565b613ead565b9050919050565b60008160d01c9050919050565b60006142c36142be836142a3565b613ead565b9050919050565b60008160d81c9050919050565b60006142ea6142e5836142ca565b613ead565b9050919050565b60008160e01c9050919050565b600061431161430c836142f1565b613ead565b9050919050565b60008160e81c9050919050565b600061433861433383614318565b613ead565b9050919050565b60008160f01c9050919050565b600061435f61435a8361433f565b613ead565b9050919050565b60008160f81c9050919050565b600061438661438183614366565b613ead565b9050919050565b600061439882613e80565b6143a28185612ece565b9350836143ae84613e8b565b60006001156146db575b836001602003820110156146da5781546143da886143d583613eba565b612eef565b6020880197506143f2886143ed83613ee1565b612eef565b60208801975061440a8861440583613f08565b612eef565b6020880197506144228861441d83613f2f565b612eef565b60208801975061443a8861443583613f56565b612eef565b6020880197506144528861444d83613f7d565b612eef565b60208801975061446a8861446583613fa4565b612eef565b6020880197506144828861447d83613fcb565b612eef565b60208801975061449a8861449583613ff2565b612eef565b6020880197506144b2886144ad83614019565b612eef565b6020880197506144ca886144c583614040565b612eef565b6020880197506144e2886144dd83614067565b612eef565b6020880197506144fa886144f58361408e565b612eef565b6020880197506145128861450d836140b5565b612eef565b60208801975061452a88614525836140dc565b612eef565b6020880197506145428861453d83614103565b612eef565b60208801975061455a886145558361412a565b612eef565b6020880197506145728861456d83614151565b612eef565b60208801975061458a8861458583614178565b612eef565b6020880197506145a28861459d8361419f565b612eef565b6020880197506145ba886145b5836141c6565b612eef565b6020880197506145d2886145cd836141ed565b612eef565b6020880197506145ea886145e583614214565b612eef565b602088019750614602886145fd8361423b565b612eef565b60208801975061461a8861461583614262565b612eef565b6020880197506146328861462d83614289565b612eef565b60208801975061464a88614645836142b0565b612eef565b6020880197506146628861465d836142d7565b612eef565b60208801975061467a88614675836142fe565b612eef565b6020880197506146928861468d83614325565b612eef565b6020880197506146aa886146a58361434c565b612eef565b6020880197506146c2886146bd83614373565b612eef565b602088019750600183019250506020810190506143b8565b5b600115614bc65781548482101561470b576146fe886146f983613eba565b612eef565b6020880197506001820191505b84821015614732576147258861472083613ee1565b612eef565b6020880197506001820191505b848210156147595761474c8861474783613f08565b612eef565b6020880197506001820191505b84821015614780576147738861476e83613f2f565b612eef565b6020880197506001820191505b848210156147a75761479a8861479583613f56565b612eef565b6020880197506001820191505b848210156147ce576147c1886147bc83613f7d565b612eef565b6020880197506001820191505b848210156147f5576147e8886147e383613fa4565b612eef565b6020880197506001820191505b8482101561481c5761480f8861480a83613fcb565b612eef565b6020880197506001820191505b84821015614843576148368861483183613ff2565b612eef565b6020880197506001820191505b8482101561486a5761485d8861485883614019565b612eef565b6020880197506001820191505b84821015614891576148848861487f83614040565b612eef565b6020880197506001820191505b848210156148b8576148ab886148a683614067565b612eef565b6020880197506001820191505b848210156148df576148d2886148cd8361408e565b612eef565b6020880197506001820191505b84821015614906576148f9886148f4836140b5565b612eef565b6020880197506001820191505b8482101561492d576149208861491b836140dc565b612eef565b6020880197506001820191505b84821015614954576149478861494283614103565b612eef565b6020880197506001820191505b8482101561497b5761496e886149698361412a565b612eef565b6020880197506001820191505b848210156149a2576149958861499083614151565b612eef565b6020880197506001820191505b848210156149c9576149bc886149b783614178565b612eef565b6020880197506001820191505b848210156149f0576149e3886149de8361419f565b612eef565b6020880197506001820191505b84821015614a1757614a0a88614a05836141c6565b612eef565b6020880197506001820191505b84821015614a3e57614a3188614a2c836141ed565b612eef565b6020880197506001820191505b84821015614a6557614a5888614a5383614214565b612eef565b6020880197506001820191505b84821015614a8c57614a7f88614a7a8361423b565b612eef565b6020880197506001820191505b84821015614ab357614aa688614aa183614262565b612eef565b6020880197506001820191505b84821015614ada57614acd88614ac883614289565b612eef565b6020880197506001820191505b84821015614b0157614af488614aef836142b0565b612eef565b6020880197506001820191505b84821015614b2857614b1b88614b16836142d7565b612eef565b6020880197506001820191505b84821015614b4f57614b4288614b3d836142fe565b612eef565b6020880197506001820191505b84821015614b7657614b6988614b6483614325565b612eef565b6020880197506001820191505b84821015614b9d57614b9088614b8b8361434c565b612eef565b6020880197506001820191505b84821015614bc457614bb788614bb283614373565b612eef565b6020880197506001820191505b505b8694505050505092915050565b6000604082019050614be86000830185612a53565b8181036020830152614bfa818461438d565b90509392505050565b6000608082019050614c1860008301876131c0565b614c256020830186612a53565b614c326040830185612aaf565b614c3f6060830184612a53565b95945050505050565b6000819050919050565b614c63614c5e82613034565b614c48565b82525050565b6000819050919050565b614c84614c7f82612a49565b614c69565b82525050565b6000614c968285614c52565b602082019150614ca68284614c73565b602082019150819050939250505056fea26469706673582212207bc59f7dc52bd9fbef58ac6078d9e76d34a09dc9368e0ae271f54b760930f27464736f6c63430008130033",
  "immutableReferences": {
    "73": [
      {
        "length": 32,
        "start": 4145
      },
      {
        "length": 32,
        "start": 6458
      }
    ],
    "75": [
      {
        "length": 32,
        "start": 5243
      },
      {
        "length": 32,
        "start": 6518
      }
    ]
  },
  "source": "// SPDX-License-Identifier: MIT\npragma solidity ^0.8.0;\n\nimport \"@openzeppelin/contracts/access/Ownable.sol\";\nimport \"@chainlink/contracts/src/v0.8/VRFConsumerBase.sol\";\nimport \"./interfaces/ILottoToken.sol\";\n\ncontract LuckyShiba is VRFConsumerBase, Ownable {\n    struct Round {\n        uint256 roundId;\n        uint256 ticketCount;\n        uint8[] winningNumbers;\n        uint256 drawnAt;\n        uint256 prizePool;\n        mapping(uint256 => address[]) winners;\n        mapping(address => uint256[]) userTickets;\n        mapping(uint256 => address payable) tickets;\n        mapping(uint256 => uint8[]) ticketNumbers;\n    }\n\n    ILottoToken token;\n\n    bytes32 private keyHash;\n    uint256 private fee;\n\n    bytes32 public lastRequestId;\n    uint256 public randomResult;\n    uint256 public ticketPrice;\n    uint256 public roundId;\n    address public application;\n    bool public roundInProgress;\n\n    mapping(uint256 => Round) public rounds;\n\n    event TicketPurchased(\n        address indexed buyer,\n        uint256 ticketCount,\n        uint8[] numbers\n    );\n    event WinningNumbers(uint256 roundId, uint8[] numbers);\n    event PrizeClaimed(address indexed winner, uint256 amount);\n    event TokenHolderPrizeClaimed(address indexed winner, uint256 amount);\n    event RequestFulfilled(bytes32 requestId, uint256 randomness);\n\n    constructor(\n        uint256 _ticketPrice,\n        address _lottoToken,\n        address _application,\n        address _vrfCoordinator,\n        address _linkToken,\n        bytes32 _keyHash,\n        uint256 _fee\n    ) VRFConsumerBase(_vrfCoordinator, _linkToken) {\n        ticketPrice = _ticketPrice;\n        token = ILottoToken(_lottoToken);\n        application = _application;\n        keyHash = _keyHash;\n        fee = _fee;\n        roundId = 1;\n        roundInProgress = true;\n    }\n\n    modifier onlyApplication() {\n        require(msg.sender == application, \"Caller is not the application.\");\n        _;\n    }\n\n    modifier onylWhenRoundInProgress() {\n        require(roundInProgress, \"Round is not in progress.\");\n        _;\n    }\n\n    modifier onylWhenRoundNotInProgress() {\n        require(!roundInProgress, \"Round is still in progress.\");\n        _;\n    }\n\n    // Update the application address (only callable by the contract owner)\n    function updateApplicationAddress(address newApplication) public onlyOwner {\n        require(\n            newApplication != address(0),\n            \"New application address must not be zero address.\"\n        );\n        application = newApplication;\n    }\n\n    // Update the ticket price (only callable by the contract owner)\n    function updateTicketPrice(uint256 newTicketPrice) public onlyOwner {\n        require(newTicketPrice > 0, \"New ticket price must be greater than 0.\");\n        ticketPrice = newTicketPrice;\n    }\n\n    // Buy a ticket with 6 unique numbers, mint a token for the buyer\n    function buyTicket(\n        uint8[] memory numbers\n    ) public payable onylWhenRoundInProgress {\n        require(msg.value == ticketPrice, \"Incorrect ticket price.\");\n        require(\n            numbers.length == 6,\n            \"You must provide exactly 6 unique numbers.\"\n        );\n\n        // Sort the numbers in ascending order\n        uint8[] memory sortedNumbers = _sortNumbers(numbers);\n\n        // Validate the provided numbers\n        for (uint256 i = 0; i < sortedNumbers.length; i++) {\n            require(\n                sortedNumbers[i] >= 1 && sortedNumbers[i] <= 50,\n                \"Numbers must be between 1 and 50.\"\n            );\n            if (i < sortedNumbers.length - 1) {\n                require(\n                    sortedNumbers[i] != sortedNumbers[i + 1],\n                    \"Numbers must be unique.\"\n                );\n            }\n        }\n\n        rounds[roundId].ticketCount += 1;\n        uint256 newTicketCount = rounds[roundId].ticketCount;\n        rounds[roundId].tickets[newTicketCount] = payable(msg.sender);\n        rounds[roundId].ticketNumbers[newTicketCount] = sortedNumbers;\n        rounds[roundId].userTickets[msg.sender].push(newTicketCount);\n        emit TicketPurchased(msg.sender, newTicketCount, sortedNumbers);\n\n        // Mint a token for the user\n        token.mint(msg.sender, 1 ether);\n    }\n\n    function getTicketCount() public view returns (uint256) {\n        return rounds[roundId].ticketCount;\n    }\n\n    function getTicketsByAddress(\n        address account\n    ) public view returns (uint256[] memory) {\n        return rounds[roundId].userTickets[account];\n    }\n\n    function getTicketNumbers(\n        uint256 ticketNr\n    ) public view returns (uint8[] memory) {\n        return rounds[roundId].ticketNumbers[ticketNr];\n    }\n\n    function getRoundWinningNumbers(\n        uint256 roundNr\n    ) public view returns (uint8[] memory) {\n        return rounds[roundNr].winningNumbers;\n    }\n\n    function getRound(\n        uint256 roundNr\n    )\n        public\n        view\n        returns (\n            uint256 ticketCount,\n            uint256 drawnAt,\n            uint256 prizePool,\n            uint8[] memory\n        )\n    {\n        return (\n            rounds[roundNr].ticketCount,\n            rounds[roundNr].drawnAt,\n            rounds[roundNr].prizePool,\n            rounds[roundNr].winningNumbers\n        );\n    }\n\n    function getRoundWinners(\n        uint256 roundNr\n    )\n        public\n        view\n        returns (\n            address[] memory matchOne,\n            address[] memory matchTwo,\n            address[] memory matchThree,\n            address[] memory matchFour,\n            address[] memory matchFive,\n            address[] memory matchSix\n        )\n    {\n        return (\n            rounds[roundNr].winners[1],\n            rounds[roundNr].winners[2],\n            rounds[roundNr].winners[3],\n            rounds[roundNr].winners[4],\n            rounds[roundNr].winners[5],\n            rounds[roundNr].winners[6]\n        );\n    }\n\n    // Draw winning numbers using Chainlink VRF\n    function drawWinningNumbers() external onlyApplication {\n        require(rounds[roundId].ticketCount > 0, \"No tickets have been sold.\");\n        require(\n            rounds[roundId].winningNumbers.length == 0,\n            \"Winning numbers have already been drawn.\"\n        );\n        require(\n            LINK.balanceOf(address(this)) >= fee,\n            \"Not enough LINK to pay the fee.\"\n        );\n\n        roundInProgress = false;\n        lastRequestId = requestRandomness(keyHash, fee);\n    }\n\n    // Fulfill randomness from Chainlink VRF and distribute prizes\n    function fulfillRandomness(\n        bytes32 requestId,\n        uint256 randomness\n    ) internal override {\n        require(lastRequestId == requestId, \"Wrong requestId provided!\");\n\n        randomResult = randomness;\n\n        // Generate unique winning numbers\n        uint8[] memory usedNumbers = new uint8[](50);\n        uint256 usedCount = 0;\n        uint256 generatedNumbers = 0;\n        while (generatedNumbers < 6) {\n            uint8 newNumber = uint8((randomResult % 50) + 1);\n            randomResult /= 50;\n\n            bool isNumberUsed = false;\n            for (uint256 i = 0; i < usedCount; i++) {\n                if (usedNumbers[i] == newNumber) {\n                    isNumberUsed = true;\n                    break;\n                }\n            }\n\n            if (!isNumberUsed) {\n                usedNumbers[usedCount++] = newNumber;\n                rounds[roundId].winningNumbers.push(newNumber);\n                generatedNumbers++;\n            }\n        }\n\n        // Sort winning numbers\n        rounds[roundId].winningNumbers = _sortNumbers(\n            rounds[roundId].winningNumbers\n        );\n        emit WinningNumbers(roundId, rounds[roundId].winningNumbers);\n    }\n\n    function distributePrizes() external onlyApplication {\n        require(\n            rounds[roundId].winningNumbers.length == 6,\n            \"Winning numbers have not been drawn yet.\"\n        );\n        require(randomResult > 0, \"Randomness was not provided correctly\");\n        // Update the winners\n        _updateWinners();\n\n        // Calculate and distribute prizes\n        _distributePrizes();\n\n        // Start a new round\n        _nextRound();\n    }\n\n    // Distribute prizes among the winners\n    function _distributePrizes() private {\n        // Send 10% of the current contract balance to the contract owner\n        uint256 totalPrizePool = address(this).balance;\n        uint256 prizePool = totalPrizePool;\n        uint256 ownerShare = (prizePool * 10) / 100;\n        payable(owner()).transfer(ownerShare);\n\n        // Send out the prizes to the winners\n        for (uint8 correctGuesses = 6; correctGuesses >= 1; correctGuesses--) {\n            uint256 winnerCount = rounds[roundId]\n                .winners[correctGuesses]\n                .length;\n            if (winnerCount > 0) {\n                uint256 prizePerWinner = _calculatePrize(\n                    totalPrizePool,\n                    correctGuesses\n                ) / winnerCount;\n\n                for (uint256 i = 0; i < winnerCount; i++) {\n                    address winner = rounds[roundId].winners[correctGuesses][i];\n                    payable(winner).transfer(prizePerWinner);\n                    emit PrizeClaimed(winner, prizePerWinner);\n                }\n            }\n        }\n\n        // Distribute token holder prizes\n        _distributeTokenHolderPrizes(totalPrizePool);\n\n        // Set the round details\n        rounds[roundId].drawnAt = block.timestamp;\n        rounds[roundId].prizePool = totalPrizePool;\n    }\n\n    function _updateWinners() private {\n        for (uint256 i = 1; i <= rounds[roundId].ticketCount; i++) {\n            uint256 correctGuesses = _getCorrectGuesses(i);\n            if (correctGuesses >= 1) {\n                rounds[roundId].winners[correctGuesses].push(\n                    rounds[roundId].tickets[i]\n                );\n            }\n        }\n    }\n\n    function _distributeTokenHolderPrizes(uint256 totalPrizePool) private {\n        uint256 tokenHolderPrizePool = (totalPrizePool * 5) / 100;\n        uint256 totalTokensHeldByPlayers = 0;\n\n        // Calculate the total tokens held by players who participated in the game\n        for (uint256 i = 1; i <= rounds[roundId].ticketCount; i++) {\n            address player = rounds[roundId].tickets[i];\n            uint256 playerTokenBalance = token.balanceOf(player);\n            totalTokensHeldByPlayers += playerTokenBalance;\n        }\n\n        // Distribute the token holder prize pool based on the number of tokens held by each player\n        for (uint256 i = 1; i <= rounds[roundId].ticketCount; i++) {\n            address player = rounds[roundId].tickets[i];\n            uint256 playerTokenBalance = token.balanceOf(player);\n            if (playerTokenBalance > 0) {\n                uint256 playerPrize = (tokenHolderPrizePool *\n                    playerTokenBalance) / totalTokensHeldByPlayers;\n                payable(player).transfer(playerPrize);\n                emit TokenHolderPrizeClaimed(player, playerPrize);\n            }\n        }\n    }\n\n    // Get the count of correct guesses for a given ticket\n    function _getCorrectGuesses(\n        uint256 ticketNumber\n    ) private view returns (uint256) {\n        uint8[] memory userNumbers = rounds[roundId].ticketNumbers[\n            ticketNumber\n        ];\n        uint256 correctGuesses = 0;\n        uint8[] memory winningNumbers = rounds[roundId].winningNumbers;\n\n        for (uint256 i = 0; i < userNumbers.length; i++) {\n            for (uint256 j = 0; j < winningNumbers.length; j++) {\n                if (userNumbers[i] == winningNumbers[j]) {\n                    correctGuesses++;\n                    break;\n                }\n            }\n        }\n\n        return correctGuesses;\n    }\n\n    // Calculate the prize amount based on the number of correct guesses\n    function _calculatePrize(\n        uint256 prizePool,\n        uint256 correctGuesses\n    ) private view returns (uint256) {\n        uint256 winnerCount;\n\n        if (correctGuesses == 6) {\n            winnerCount = _getWinnerCount(6);\n            return (prizePool * 40) / 100 / winnerCount; // 40% of the prize pool for 6 correct guesses\n        } else if (correctGuesses == 5) {\n            winnerCount = _getWinnerCount(5);\n            return (prizePool * 25) / 100 / winnerCount; // 20% of the prize pool for 5 correct guesses\n        } else if (correctGuesses == 4) {\n            winnerCount = _getWinnerCount(4);\n            return (prizePool * 10) / 100 / winnerCount; // 10% of the prize pool for 4 correct guesses\n        } else if (correctGuesses == 3) {\n            winnerCount = _getWinnerCount(3);\n            return (prizePool * 5) / 100 / winnerCount; // 5% of the prize pool for 3 correct guesses\n        } else if (correctGuesses == 2) {\n            winnerCount = _getWinnerCount(2);\n            return (prizePool * 3) / 100 / winnerCount; // 3% of the prize pool for 2 correct guesses\n        } else if (correctGuesses == 1) {\n            winnerCount = _getWinnerCount(1);\n            return (prizePool * 2) / 100 / winnerCount; // 2% of the prize pool for 1 correct guesses\n        }\n\n        return 0;\n    }\n\n    // Get the count of winners for a specific category (e.g., 6 correct guesses, 5 correct guesses, etc.)\n    function _getWinnerCount(\n        uint256 correctGuesses\n    ) private view returns (uint256) {\n        uint256 winnerCount = 0;\n\n        for (uint256 i = 1; i <= rounds[roundId].ticketCount; i++) {\n            if (_getCorrectGuesses(i) == correctGuesses) {\n                winnerCount++;\n            }\n        }\n\n        return winnerCount;\n    }\n\n    function _nextRound() private {\n        roundId++;\n        roundInProgress = true;\n        randomResult = 0;\n    }\n\n    // Sorts an array of numbers in ascending order using Bubble Sort\n    function _sortNumbers(\n        uint8[] memory numbers\n    ) private pure returns (uint8[] memory) {\n        for (uint256 i = 0; i < numbers.length - 1; i++) {\n            for (uint256 j = 0; j < numbers.length - i - 1; j++) {\n                if (numbers[j] > numbers[j + 1]) {\n                    uint8 temp = numbers[j];\n                    numbers[j] = numbers[j + 1];\n                    numbers[j + 1] = temp;\n                }\n            }\n        }\n        return numbers;\n    }\n}\n",
  "sourcePath": "/home/d4fttasiii/git/gpt-lotto/src/lotto-contract/contracts/LuckyShiba.sol",
  "compiler": {
    "name": "solc",
    "version": "0.8.19+commit.7dd6d404.Emscripten.clang"
  },
  "schemaVersion": "3.4.11",
  "updatedAt": "2023-05-04T14:51:42.786Z",
  "devdoc": {
    "kind": "dev",
    "methods": {
      "owner()": {
        "details": "Returns the address of the current owner."
      },
      "renounceOwnership()": {
        "details": "Leaves the contract without owner. It will not be possible to call `onlyOwner` functions anymore. Can only be called by the current owner. NOTE: Renouncing ownership will leave the contract without an owner, thereby removing any functionality that is only available to the owner."
      },
      "transferOwnership(address)": {
        "details": "Transfers ownership of the contract to a new account (`newOwner`). Can only be called by the current owner."
      }
    },
    "version": 1
  },
  "userdoc": {
    "kind": "user",
    "methods": {},
    "version": 1
  }
}