{
  "contractName": "MockVRFCordinator",
  "abi": [
    {
      "inputs": [
        {
          "internalType": "address",
          "name": "linkAddress",
          "type": "address"
        }
      ],
      "stateMutability": "nonpayable",
      "type": "constructor"
    },
    {
      "anonymous": false,
      "inputs": [
        {
          "indexed": true,
          "internalType": "address",
          "name": "sender",
          "type": "address"
        },
        {
          "indexed": true,
          "internalType": "bytes32",
          "name": "keyHash",
          "type": "bytes32"
        },
        {
          "indexed": true,
          "internalType": "uint256",
          "name": "seed",
          "type": "uint256"
        }
      ],
      "name": "RandomnessRequest",
      "type": "event"
    },
    {
      "inputs": [],
      "name": "LINK",
      "outputs": [
        {
          "internalType": "contract LinkTokenInterface",
          "name": "",
          "type": "address"
        }
      ],
      "stateMutability": "view",
      "type": "function"
    },
    {
      "inputs": [
        {
          "internalType": "bytes32",
          "name": "requestId",
          "type": "bytes32"
        },
        {
          "internalType": "uint256",
          "name": "randomness",
          "type": "uint256"
        },
        {
          "internalType": "address",
          "name": "consumerContract",
          "type": "address"
        }
      ],
      "name": "callBackWithRandomness",
      "outputs": [],
      "stateMutability": "nonpayable",
      "type": "function"
    },
    {
      "inputs": [
        {
          "internalType": "address",
          "name": "sender",
          "type": "address"
        },
        {
          "internalType": "uint256",
          "name": "fee",
          "type": "uint256"
        },
        {
          "internalType": "bytes",
          "name": "_data",
          "type": "bytes"
        }
      ],
      "name": "onTokenTransfer",
      "outputs": [],
      "stateMutability": "nonpayable",
      "type": "function"
    }
  ],
  "bytecode": "0x608060405234801561001057600080fd5b506040516109c43803806109c4833981810160405281019061003291906100dd565b80806000806101000a81548173ffffffffffffffffffffffffffffffffffffffff021916908373ffffffffffffffffffffffffffffffffffffffff160217905550505061010a565b600080fd5b600073ffffffffffffffffffffffffffffffffffffffff82169050919050565b60006100aa8261007f565b9050919050565b6100ba8161009f565b81146100c557600080fd5b50565b6000815190506100d7816100b1565b92915050565b6000602082840312156100f3576100f261007a565b5b6000610101848285016100c8565b91505092915050565b6108ab806101196000396000f3fe608060405234801561001057600080fd5b50600436106100415760003560e01c80631b6b6d2314610046578063a4c0ed3614610064578063cf55fe9714610080575b600080fd5b61004e61009c565b60405161005b9190610372565b60405180910390f35b61007e6004803603810190610079919061055b565b6100c0565b005b61009a60048036038101906100959190610600565b6101b5565b005b60008054906101000a900473ffffffffffffffffffffffffffffffffffffffff1681565b60008054906101000a900473ffffffffffffffffffffffffffffffffffffffff1673ffffffffffffffffffffffffffffffffffffffff163373ffffffffffffffffffffffffffffffffffffffff161461014e576040517f08c379a0000000000000000000000000000000000000000000000000000000008152600401610145906106b0565b60405180910390fd5b6000808280602001905181019061016591906106fa565b9150915080828673ffffffffffffffffffffffffffffffffffffffff167f7a9a0a6960d95b32cded93c30e63e7c2eb9e877230813c172110ea54dc1c915c60405160405180910390a45050505050565b6000806394985ddd60e01b85856040516024016101d3929190610758565b604051602081830303815290604052907bffffffffffffffffffffffffffffffffffffffffffffffffffffffff19166020820180517bffffffffffffffffffffffffffffffffffffffffffffffffffffffff838183161783525050505090506000620324b09050805a101561027d576040517f08c379a0000000000000000000000000000000000000000000000000000000008152600401610274906107cd565b60405180910390fd5b60008473ffffffffffffffffffffffffffffffffffffffff16836040516102a4919061085e565b6000604051808303816000865af19150503d80600081146102e1576040519150601f19603f3d011682016040523d82523d6000602084013e6102e6565b606091505b5050905050505050505050565b600073ffffffffffffffffffffffffffffffffffffffff82169050919050565b6000819050919050565b600061033861033361032e846102f3565b610313565b6102f3565b9050919050565b600061034a8261031d565b9050919050565b600061035c8261033f565b9050919050565b61036c81610351565b82525050565b60006020820190506103876000830184610363565b92915050565b6000604051905090565b600080fd5b600080fd5b60006103ac826102f3565b9050919050565b6103bc816103a1565b81146103c757600080fd5b50565b6000813590506103d9816103b3565b92915050565b6000819050919050565b6103f2816103df565b81146103fd57600080fd5b50565b60008135905061040f816103e9565b92915050565b600080fd5b600080fd5b6000601f19601f8301169050919050565b7f4e487b7100000000000000000000000000000000000000000000000000000000600052604160045260246000fd5b6104688261041f565b810181811067ffffffffffffffff8211171561048757610486610430565b5b80604052505050565b600061049a61038d565b90506104a6828261045f565b919050565b600067ffffffffffffffff8211156104c6576104c5610430565b5b6104cf8261041f565b9050602081019050919050565b82818337600083830152505050565b60006104fe6104f9846104ab565b610490565b90508281526020810184848401111561051a5761051961041a565b5b6105258482856104dc565b509392505050565b600082601f83011261054257610541610415565b5b81356105528482602086016104eb565b91505092915050565b60008060006060848603121561057457610573610397565b5b6000610582868287016103ca565b935050602061059386828701610400565b925050604084013567ffffffffffffffff8111156105b4576105b361039c565b5b6105c08682870161052d565b9150509250925092565b6000819050919050565b6105dd816105ca565b81146105e857600080fd5b50565b6000813590506105fa816105d4565b92915050565b60008060006060848603121561061957610618610397565b5b6000610627868287016105eb565b935050602061063886828701610400565b9250506040610649868287016103ca565b9150509250925092565b600082825260208201905092915050565b7f4d75737420757365204c494e4b20746f6b656e00000000000000000000000000600082015250565b600061069a601383610653565b91506106a582610664565b602082019050919050565b600060208201905081810360008301526106c98161068d565b9050919050565b6000815190506106df816105d4565b92915050565b6000815190506106f4816103e9565b92915050565b6000806040838503121561071157610710610397565b5b600061071f858286016106d0565b9250506020610730858286016106e5565b9150509250929050565b610743816105ca565b82525050565b610752816103df565b82525050565b600060408201905061076d600083018561073a565b61077a6020830184610749565b9392505050565b7f6e6f7420656e6f7567682067617320666f7220636f6e73756d65720000000000600082015250565b60006107b7601b83610653565b91506107c282610781565b602082019050919050565b600060208201905081810360008301526107e6816107aa565b9050919050565b600081519050919050565b600081905092915050565b60005b83811015610821578082015181840152602081019050610806565b60008484015250505050565b6000610838826107ed565b61084281856107f8565b9350610852818560208601610803565b80840191505092915050565b600061086a828461082d565b91508190509291505056fea264697066735822122039cf780ba5d746ad30df9d284d018c85e3019b060dadaf8f84dac6509bad84ac64736f6c63430008120033",
  "immutableReferences": {},
  "source": "pragma solidity ^0.8.0;\n\nimport \"@chainlink/contracts/src/v0.8/mocks/VRFCoordinatorMock.sol\";\n\ncontract MockVRFCordinator is VRFCoordinatorMock {\n    constructor(address linkAddress) VRFCoordinatorMock(linkAddress) {}\n}\n",
  "sourcePath": "/home/d4fttasiii/git/gpt-lotto/src/lotto-contract/contracts/mocks/MockVRFCordinator.sol",
  "compiler": {
    "name": "solc",
    "version": "0.8.18+commit.87f61d96.Emscripten.clang"
  },
  "schemaVersion": "3.4.11",
  "updatedAt": "2023-04-13T15:54:10.011Z",
  "devdoc": {
    "kind": "dev",
    "methods": {},
    "version": 1
  },
  "userdoc": {
    "kind": "user",
    "methods": {},
    "version": 1
  }
}